:100000000C942F050C9457050C9457050C94570528
:100010000C9457050C9457050C9457050C945705F0
:100020000C9457050C9457050C9457050C94DF1D40
:100030000C9457050C9457050C9457050C945705D0
:100040000C94E9280C9457050C94622B0C94B02B5B
:100050000C9457050C9457050C9457050C945705B0
:100060000C9457050C94570505A84CCDB2D44EB945
:100070003836A9020C50B9918688083CA6AAAA2A4B
:10008000BE000000803F401E000000000000000095
:10009000000000C000000000000001A000000000FF
:1000A0000000015000000000000001880000000076
:1000B0000000037C00000000050002E200000000D8
:1000C0000A0003810000A0001400020A8001500011
:1000D000080003554000A800140006AFE0005000DF
:1000E0000800057FE0002800040007FFE00014007E
:1000F000020007F1C0800A00050007E481401500F6
:10010000028003CE42A00A800540004E3550150003
:1001100002A0084F3AA82A80055014473D555500C3
:1001200002A82A433EAAAA00015555E13D5F5400AA
:1001300000AAABF03FBFAA00015557F83FFFD5001A
:1001400000ABEBFC3FFFEAA80157F7FE3FFFD55499
:1001500002AFFBFF3FFFEAAA555FF7FFBFFFF7D5EE
:10016000AAAFFFFFFFFFFFEA557FFFFFFFFFFFF58D
:10017000AAFFFFFFFFFFFFEA08011C0126012F0174
:1001800027022802070308030E03110319031A03A9
:100190001B031C031D0326030704080409040A04A7
:1001A0000B040C0410041104120419041A041B0497
:1001B0001C041D041E041F04200421042604000541
:1001C00001050205030504050505060507050805E3
:1001D00009050A050B050C050D050E050F05100593
:1001E0001105120513051405150516051705180543
:1001F00019051A051C051D051E051F0520052105ED
:10020000220523052405250526052705280529059A
:100210002A052B052C052D052E052F050B0611068D
:10022000120619061A061D061E061F0620062106BE
:100230002206230624062506260627060A070B079C
:1002400012071707180719071A072007230724079B
:100250002507260727071B2D192C050B122D0E2C01
:10026000060B092D022C0909092400230B06091B82
:1002700000190B050912000E0B06090902020909F3
:1002800012090E00060B1B091900050B2409230097
:10029000060B2D092C0209092D122C0E0B062D1B05
:1002A0002C190B052D242C230B062D2D2C2C090984
:1002B000242D232C060B013A0502073A05020D3ABC
:1002C0000502133A050240400002001000800000C1
:1002D0000003001001800000300380380380180004
:1002E0003C03C038078078001F03E07C0F81F000DA
:1002F0001F03606C0D81F0000D01C0380701600024
:100300000E0000000000E00000C070381C06000075
:1003100000A05028140A000000603010180C0000E3
:1003200000000000000000000000000000000000CD
:100330000000000404000000FC01110E4E007E00CD
:100340007E03AB9AAB00FC003A01390EEE00B80018
:100350001EC010044406F0000CA02800A00A600093
:1003600000E00000000E000000001000E0000000AF
:1003700000003801B000000000001000E0000000A4
:10038000000000004000000000000000000000002D
:100390000C000000000060003EC000000006F800F5
:1003A000FAA00000000ABE003EC000000006F800EF
:1003B0000C000000000060000000000000000000D1
:1003C000000000000000000000000000000000002D
:1003D000000000000000000000000000000000001D
:1003E00000E02082080E00000CA05145140A6000B5
:1003F0001EC071C71C06F0003A0000820800B80059
:100400007E0000021400FC00FC00000000007E00E2
:1004100000000000000000000000000000000000DC
:10042000000000000000000000603010180C000008
:1004300000A05028140A000000C070381C060000FC
:100440000E0000000000E0000D01C0380701600050
:100450001F03606C0D81F0001F03E07C0F81F00032
:100460003C03C038078078003003803803801800D0
:100470000003001001800000000200100080000056
:10048000000000000000000000000000000000006C
:1004900000000000000000007DF7DF000000000009
:1004A00028A28A00000000000000000000000000F8
:1004B000000000000000000000000000000000003C
:1004C000000000000000000040400002001000801A
:1004D000000000030010018000003002802802802C
:1004E00018002C0240280480680013022044088170
:1004F000900011022044088110000901C038070152
:1005000020000E0000000000E00000C070381C0653
:10051000000000A05028140A000000603010180CE1
:1005200000000000000000000000000000000000CB
:1005300000000000000404000000FC01110A4A0051
:100540007E004202AA92A90084002201390AEA0030
:10055000880012C01004440690000CA02800A00AD5
:10056000600000E00000000E000000001000E0004D
:100570000000000028011000000000001000A00092
:10058000000000000000400000000000000000002B
:1005900000000C0000000000600032C000000006F7
:1005A0009800C2A00000000A860032C000000006C9
:1005B00098000C0000000000600000000000000037
:1005C000000000000000000000000000000000002B
:1005D000000000000000000000000000000000001B
:1005E000000000E02082080E00000CA05145140A13
:1005F000600012C071C71C06900022000082080033
:1006000088004200000214008400FC00000000008A
:100610007E0000000000000000000000000000005C
:100620000000000000000000000000603010180C06
:10063000000000A05028140A000000C070381C06FA
:1006400000000E0000000000E0000901C0380701B2
:100650002000110220440881100013022044088168
:1006600090002C024028048068003002802802801C
:10067000180000030010018000000002001000803C
:10068000000000000000000000000000000000006A
:10069000000000000000000000007CD59B0000006E
:1006A000000028A28A0000000000000000000000F6
:1006B000000000000000000000000000000000003A
:1006C00000000000000000000000210F200E0305C4
:1006D000210F1F140504130F0E0E0303130F160E24
:1006E00003034C756E61722052756E0003053F2145
:1006F0003F1208120A100A0E1C0E0C1E0C141A14BB
:10070000161F161E131E1E1B1E1E1F1E3F213F3AC4
:100710002F3A173D173F213F181F02040A041F0EEE
:1007200004040E1F0A1F0A0E0E1F04110E2E252E82
:100730002F2A2E262929021F02081F08150E04043D
:100740000E150E15151B151B040604040C040000E1
:10075000000017000300031F0A1F16371A1904139D
:100760000A153A000300000E11110E000A040A04D3
:100770000E040030000404040010001804031F11CC
:100780001F121F101D151711151F07041F17151D08
:100790001F151D01011F1F151F17151F000A00003F
:1007A0003200040A110A0A0A110A040115020E1184
:1007B000171E051E1F150A0E110A1F110E1F1511F7
:1007C0001F05010E111D1F041F111F1108100F1FFF
:1007D000041B1F10101F061F1E040F0E110E1F09F1
:1007E000060E112E1F051A121509011F011F101FD9
:1007F0000F180F1F0C1F1B041B031C0319151300DC
:100800001F11030418111F00020102202020000103
:10081000020C121E1F120C0C12120C121F0C1A14B6
:10082000041E05242A1E1F021C141D1020201D1F3B
:100830000814111F101E041E1E021C0C120C3E0A6E
:10084000040C123E1E040214160A020F120E101E91
:100850000E100E1E081E120C1226281E322A260406
:100860001E21001F00211E040102013F213F0A4EEC
:100870006F2053442063617264206F720A6E6F2090
:100880004C4F414445522E4845580A0A153A45787E
:100890006974001D20466C617368696E670A2020C8
:1008A0006C6F616465722E2E2E0A0A444F4E2754D7
:1008B000205455524E204F464621006D560A0A508C
:1008C0004C454153450A5455524E204F4646004C24
:1008D0004F5720424154544552590A0017736176CC
:1008E0006500166261636B001574797065000A0A11
:1008F0000A153A6F6B617920163A6564697400597C
:100900006F7520656E74657265640A00540A03E1B0
:1009100081867F3E186D830F0F0E0183866033182A
:100920006DC3198F1803C38E6033186DE330CF1871
:1009300003C39E603630CDE360CF3006C79E7E3E57
:1009400030CDB360CF300CC6F6603330D9B660CF4F
:1009500033CFCCF66061B0DB1E60CF30D86CE6C020
:1009600061B0DB1E618F19986CC6C063B19B0E33FA
:100970000F0FB078C6FF7E1F1B061E0F17534400D3
:1009800016137800161314001510200015201000FF
:100990000000050089300802380249786814000018
:1009A00045006801000005006801380100000500ED
:1009B000380168010000F6E8DBCFC3B8AEA49B9213
:1009C0008A827B746E68625C57524E4945413E3A5A
:1009D0003734312E2C29272523211F1D1C1A1917C6
:1009E000161514131211100F0E0D0C0B0A0908071F
:1009F00006F509F9090101F7030101FF03000000F1
:100A000000240027002A0000000000250028002BF9
:100A10000000000000230026002900040404040450
:100A2000040404020202020202030303030303019B
:100A30000204081020408001020408102001020472
:100A40000810200000000700020100000304060057
:100A50000000000000000000840649271C2D11241E
:100A60001FBECFEFD8E0DEBFCDBF11E0A0E0B1E008
:100A7000E2E0F6E602C005900D92A237B107D9F781
:100A800015E0A2E7B1E001C01D92A133B107E1F783
:100A90001AE0CEE5DAE004C02297FE010E94FB32A4
:100AA000C835D107C9F70E94722D0C94FF320C94FF
:100AB00000000F931F93CF93DF93689F8001699F7E
:100AC000100D789F100D1124C8010E94B427EC016D
:100AD000009729F060E070E0A8010E947505CE0142
:100AE000DF91CF911F910F910895DC0101C06D93AB
:100AF00041505040E0F70895FB01DC0101900D9258
:100B00000020E1F708952F923F924F925F926F92EB
:100B10007F928F929F92AF92BF92CF92DF92EF928D
:100B2000FF920F931F93DF93CF93CDB7DEB72B9731
:100B30000FB6F894DEBF0FBECDBF8B836C834D83A1
:100B40002E830F83F601849192E0492E512C4C0C98
:100B50005D1C992787FD9095079668E070E00E94DC
:100B6000A9326A83C090E001D090CC0121E0D2226A
:100B700000E081E0282E312C75C0E82F87FDE95F69
:100B8000E595E595E595FF27E7FDF095E60DF71D61
:100B9000E40DF51DE4912E2F30E068E00E948832CC
:100BA00060E870E002C0759567959A95E2F7262394
:100BB0003723232B09F44CC0543508F049C047FDB6
:100BC00047C040330CF044C072E0C716A1F4E52FD3
:100BD000FF27E7FDF0958A859B85E80FF91F808147
:100BE00090E0082C02C0959587950A94E2F7A1E061
:100BF0008A27817010C0B3E0CB1661F4852F992746
:100C000087FD90958A259B25822593258170D8168E
:100C100021F411C08C2D882371F4E52FFF27E7FD07
:100C2000F09528853985E20FF31FE65DFD4F808141
:100C3000398183230CC0E52FFF27E7FDF0956885F8
:100C40007985E60FF71FE65DFD4F80818F29808350
:100C50001F5F5F5F8F81810F7D8117170CF48DCF30
:100C60000F5FE3948E81081754F59E2DAA819A0296
:100C7000300111244C81400F842F859585958595F1
:100C8000F4E58F02F0011124F987E887842F87703B
:100C9000882E992487FC9094F22C01C0FF0C8A9531
:100CA000EAF72F2D209529835B8110E0A42EBB2429
:100CB000A7FCB094E65DFD4FFB87EA87CBCF2B9670
:100CC0000FB6F894DEBF0FBECDBFCF91DF911F915D
:100CD0000F91FF90EF90DF90CF90BF90AF909F90DB
:100CE0008F907F906F905F904F903F902F900895DE
:100CF0008FEF8EBD0DB407FEFDCF8EB508958EBD6E
:100D00000DB407FEFDCF08951092C3011092C201E9
:100D10008EE591E09093C1018093C00180E090E066
:100D2000A0E0B0E08093FB019093FC01A093FD0153
:100D3000B093FE018093FF0190930002A093010203
:100D4000B09302028093030290930402A0930502E1
:100D5000B09306028093070290930802A0930902C1
:100D6000B0930A0280930B0290930C02A0930D02A1
:100D7000B0930E0280930F0290931002A093110281
:100D8000B09312028093130290931402A093150261
:100D9000B09316028093170290931802A093190241
:100DA000B0931A020895BF92CF92DF92EF92FF9212
:100DB0000F931F939B01FA01449131961491319640
:100DC00004913196E4903196B4903196F49064E5B4
:100DD00070E00E94A932C02EC80EC41AC90160E397
:100DE00070E00E94A932DE2CD80ED11A80EC91E07E
:100DF00062E00E94C81080912602882349F08C2D61
:100E00006D2D4B2D2F2DE6ECCE2EE2E0DE2E08C010
:100E10008C2D6D2D4B2D2F2D78ECC72E74E0D72EF9
:100E20000E9483051F910F91FF90EF90DF90CF906C
:100E3000BF9008955F926F927F928F929F92AF9230
:100E4000BF92CF92DF92EF92FF920F931F93CF93B7
:100E5000DF93782E662E542EA090FB01B090FC01FB
:100E6000C090FD01D090FE01E090FF01F0900002E3
:100E700000910102109102020AC0C801B70120E0EE
:100E800030E040E452E40E945D2F7B018C01C801F8
:100E9000B70120E030E040E050E00E94C12F87FD24
:100EA000ECCFC601B5010E9430305B016C014B01F3
:100EB000C801B7010E9430307B018C01EB01C501F4
:100EC000B7014AEC56E00E94D306772031F0C50105
:100ED000B70140ED56E00E94D306662031F0C40110
:100EE000BE0146ED56E00E94D306552031F0C40104
:100EF000BE014CED56E00E94D306DF91CF911F91C9
:100F00000F91FF90EF90DF90CF90BF90AF909F90A8
:100F10008F907F906F905F9008952F923F924F92A5
:100F20005F926F927F928F929F92AF92BF92CF9279
:100F3000DF92EF92FF920F931F93C82E262E4090C0
:100F4000FB015090FC016090FD017090FE01E0906B
:100F5000FF01F090000200910102109102020AC00C
:100F6000C801B70120E030E040E452E40E945D2F68
:100F70007B018C01C801B70120E030E040E050E087
:100F80000E94C12F87FDECCF60911F02709120025B
:100F9000809121029091220220E030E040E851E46B
:100FA0000E9459312BED3FE049EC50E40E94C82FDC
:100FB00020E030E040E05FE30E945D2F0E9430308F
:100FC000DC01CB0160E170E00E94A9329C01880F36
:100FD000991F820F931F9C01220F331FF901EA5AB8
:100FE000FD4FD490F901E95AFD4F3490CC2049F4DB
:100FF0008D2C8A94932C9A9493E0A92E83E0B82E9A
:1010000012C0FC01EE0FFF1FE85AFD4F8490F9015A
:10101000E75AFD4F9490F901E65AFD4FA490F9016B
:10102000E55AFD4FB490C301B2010E943030DC019B
:10103000CB0164E570E00E94A932C82ECD18C80C1F
:10104000C801B7010E943030DC01CB0160E370E0E1
:101050000E94A932D82ED318D90C80EC91E062E01E
:101060000E94C810222059F08C2D6D2D4A2D2B2D59
:10107000082DE92CA6ECCA2EA2E0DA2E0AC08C2D8F
:101080006D2D4A2D2B2D082DE92CF8ECCF2EF4E0F8
:10109000DF2E0E9483051F910F91FF90EF90DF904C
:1010A000CF90BF90AF909F908F907F906F905F9008
:1010B0004F903F902F900895E0911B02F0911C02F9
:1010C000309721F4622F0E948D070895319711F413
:1010D0000E941A0708956F927F928F929F92AF920B
:1010E000BF92CF92DF92EF92FF920F931F93DF9305
:1010F000CF93CDB7DEB728970FB6F894DEBF0FBEFB
:10110000CDBFFC01E080F180028113816480758095
:1011100086809780C801B701A80197010E945931C4
:101120005B016C01C401B301A40193010E94593118
:101130009B01AC01C601B5010E945D2F0E94C63122
:101140005B016C01C801B701A60195010E94C82F7F
:1011500069837A838B839C83C401B301A6019501C3
:101160000E94C82F6D837E838F83988729813A815F
:101170004B815C816D817E818F81988528960FB629
:10118000F894DEBF0FBECDBFCF91DF911F910F91BD
:10119000FF90EF90DF90CF90BF90AF909F908F9097
:1011A0007F906F9008952F923F924F925F926F922F
:1011B0007F928F929F92AF92BF92CF92DF92EF92E7
:1011C000FF920F931F93DF93CF93CDB7DEB7E097D6
:1011D0000FB6F894DEBF0FBECDBF3C018B01843546
:1011E000910508F087C1603371050CF083C1CB0114
:1011F00068E070E00E94A93284E590E0689FF00109
:10120000699FF00D789FF00D1124E60DF71DE65D46
:10121000FD4F808190E098012770307002C0959555
:1012200087952A95E2F780FF65C180E090E0A0E015
:10123000B0E089839A83AB83BC838D839E83AF8325
:10124000B88758010894A108B10888249924CC24AF
:10125000CA94DC2CC301019798AB8FA790E3A91621
:10126000B10408F091C0C50187709070A1E0B0E0B2
:1012700002C0AA0FBB1F8A95E2F7BAA7A9A7C501AA
:1012800068E070E00E94A932E4E5F0E06E9F800122
:101290006F9F100D7E9F100D11242FA538A9020FEE
:1012A000131F065D1D4FEE24EA94FE2C1601442404
:1012B00037FC4094542CC701860D971D8435910549
:1012C00008F058C0E114F10421F4C114D10409F468
:1012D00051C0D8018C9190E0E9A5FAA58E239F23F7
:1012E000892B09F447C0B701882777FD8095982F8F
:1012F0000E94633069877A878B879C87C201B1011E
:101300000E9463306D877E878F87988BCE01099608
:101310000E946B0829A33AA34BA35CA36DA37EA3F1
:101320008FA398A7DE015196FE01B19688E0019047
:101330000D928150E1F769817A818B819C812989A5
:101340003A894B895C890E945D2F69837A838B83FC
:101350009C836D817E818F8198852D893E894F89FF
:10136000588D0E945D2F6D837E838F8398870894AC
:10137000811C911C0894E11CF11C0F5F1F4FF2E0CF
:10138000EF16F10409F097CF0894C11CD11C22E09C
:10139000C216D10421F00894A11CB11C5FCF89288A
:1013A000A9F480E090E0A0E0B0E080930702909381
:1013B0000802A0930902B0930A028093030290935B
:1013C0000402A0930502B093060289C0CE010196E3
:1013D0000E946B0829A33AA34BA35CA36DA37EA331
:1013E0008FA398A7DE015996FE01B19688E001907F
:1013F0000D928150E1F7698C7A8C8B8C9C8C97FADA
:10140000909497F89094ED8CFE8C0F8D18A117FB9B
:10141000109517F910958091030290910402A09104
:101420000502B09106028BA79CA7ADA7BEA720908E
:101430000702309008024090090250900A02BC0155
:10144000CD01A40193010E9459315B016C01C201DD
:10145000B101A80197010E9459319B01AC01C6015D
:10146000B5010E945D2F9B01AC010E945D2F5B01C5
:101470006C01C801B701A60195010E9459319B0179
:10148000AC01C201B1010E945C2F2DEC3CEC4CE49C
:101490005FE30E94593160930702709308028093C2
:1014A000090290930A02C401B301A60195010E94AA
:1014B00059319B01AC016BA57CA58DA59EA50E9411
:1014C0005C2F2DEC3CEC4CE45FE30E9459316093BF
:1014D0000302709304028093050290930602ABEF1F
:1014E000B1E0EBE0F2E088E001900D928150E1F78D
:1014F00081E001C080E0E0960FB6F894DEBF0FBE39
:10150000CDBFCF91DF911F910F91FF90EF90DF90B2
:10151000CF90BF90AF909F908F907F906F905F9093
:101520004F903F902F9008950F931F93CF93DF9389
:101530006091FB017091FC018091FD019091FE0191
:101540000E943030DC01CB0164E570E00E94A932DA
:101550008C016091FF0170910002809101029091D5
:1015600002020E943030DC01CB0160E370E00E9497
:10157000A932EC01C801BE010E94D308882399F466
:1015800080911B0290911C02019769F42396C80177
:101590000197BE010E94D308882329F4C80101964F
:1015A000BE010E94D308DF91CF911F910F91089542
:1015B000EF92FF920F931F93CF93DF93EC017B0188
:1015C0008A018CE791E064E041E00E940D108823DD
:1015D00019F481E08093270260914E0170914F01D0
:1015E000809150019091510120E030E040E050E0C6
:1015F0000E945531181684F580912702882361F1E5
:101600008CE791E063E041E00E940D10882341F4F3
:101610008CE791E064E041E00E940D108823E1F046
:1016200010921E0210921D02609107027091080232
:101630008091090290910A022AE037ED43E25CE3CF
:101640000E945C2F60930702709308028093090246
:1016500090930A0281E0888360914E0170914F015E
:10166000809150019091510120E030E040E050E045
:101670000E94553118162CF58CE791E060E041E0AE
:101680000E940D108823E9F010921E0210921D0294
:10169000609103027091040280910502909106020C
:1016A0002AE037ED43EA5BE30E945C2F609303027C
:1016B00070930402809305029093060281E0F80182
:1016C000808360914E0170914F0180915001909103
:1016D000510120E030E040E050E00E945531181602
:1016E0002CF58CE791E062E041E00E940D10882328
:1016F000E9F010921E0210921D0260910302709197
:10170000040280910502909106022AE037ED43EA37
:101710005BE30E945D2F6093030270930402809349
:1017200005029093060281E0F7018083DF91CF915B
:101730001F910F91FF90EF900895EF92FF920F93FA
:101740001F93CF93DF93EC0160914E0170914F0195
:10175000809150019091510120E030E040E050E054
:101760000E94553118160CF05BC08CE791E063E0E5
:1017700041E00E940D10882349F48CE791E064E079
:1017800041E00E940D10882309F44AC010921E0205
:1017900010921D02E0901F02F090200200912102A1
:1017A00010912202C801B7010E94BC312AE037ED36
:1017B00043E25CE30E9459319B01AC01609103025A
:1017C0007091040280910502909106020E945D2FA3
:1017D00060930302709304028093050290930602C3
:1017E000C801B7010E94C52F2AE037ED43E25CEB48
:1017F0000E9459319B01AC0160910702709108026F
:101800008091090290910A020E945D2F6093070265
:10181000709308028093090290930A0281E0888302
:101820008CE791E060E041E00E940D10882369F1AF
:1018300010921E0210921D0260911F0270912002F0
:1018400080912102909122022DEC3CEC4CE45DE36E
:101850000E945C2F08C0C801B7012BED3FE049ECA6
:1018600050E40E945D2F7B018C0120E030E040E0DD
:1018700050E00E94C12F87FDEECFE0921F02F09250
:10188000200200932102109322028CE791E062E093
:1018900041E00E940D10882369F110921E021092FF
:1018A0001D0260911F02709120028091210290918F
:1018B00022022DEC3CEC4CE45DE30E945D2F08C05D
:1018C000C801B7012BED3FE049EC50E40E945C2FCA
:1018D0007B018C012BED3FE049EC50E40E94553137
:1018E00087FFEECFE0921F02F092200200932102C8
:1018F00010932202DF91CF911F910F91FF90EF90F3
:101900000895AF92BF92CF92DF92EF92FF920F9322
:101910001F93CF93DF93EC018B017A01FA011082C0
:10192000FB01108218828CE791E065E00E940310B1
:101930008823F1F020E030E080911B0290911C029E
:10194000892B11F421E030E030931C0220931B021C
:1019500010921E0210921D0280E090E0A0E0B0E024
:1019600080931F0290932002A0932102B093220241
:1019700080911B0290911C02009721F4CE010E94DD
:101980009D0B07C0019729F4CE01B801A7010E9461
:10199000D80A60914E0170914F0180915001909151
:1019A000510120E030E040E050E00E94C12F8091E2
:1019B0001D0290911E020197B1F060910702709193
:1019C00008028091090290910A022AE037ED43E271
:1019D0005BE30E945D2F609307027093080280937F
:1019E000090290930A02A0900302B0900402C090F2
:1019F0000502D0900602C601B5012091FB0130918D
:101A0000FC014091FD015091FE010E945D2F7B0180
:101A10008C016093FB017093FC018093FD01909316
:101A2000FE016091FF01709100028091010290918E
:101A30000202209107023091080240910902509160
:101A40000A020E945D2F6093FF0170930002809351
:101A5000010290930202C801B70120E030E040E0AB
:101A600050E00E94C12F8823B4F4D801C701B058B8
:101A70008093FB019093FC01A093FD01B093FE01C4
:101A8000D601C501B0588093030290930402A0933D
:101A90000502B093060280E090E0AAE7B4E48093E8
:101AA0004E0190934F01A0935001B0935101DF91EB
:101AB000CF911F910F91FF90EF90DF90CF90BF904B
:101AC000AF9008958AE061E00E947B2A8BE061E09C
:101AD0000E947B2A8CE060E00E947B2A8DE061E01E
:101AE0000E947B2A80E58CBD0895CF92DF92EF9211
:101AF000FF920F931F93DF93CF9300D0CDB7DEB744
:101B00008C018AE060E00E94BA2A88E794E066E0EF
:101B100071E00E944E277C01009739F588EF91E033
:101B2000089FA001099F500D189F500D112460E0DF
:101B300070E088E794E00E946B2785E580932A0295
:101B40000AE212E06E010894C11CD11C88E794E0FF
:101B5000B80144E550E096010E9470270C5A1F4FCF
:101B600084E00232180791F706C08AE095E063E14D
:101B700071E00E94FD2E8AE095E0B7014AE050E056
:101B80000E94EA2E8AE061E00E94BA2A0F900F902C
:101B9000CF91DF911F910F91FF90EF90DF90CF9049
:101BA0000895AC0120E030E0F901EE0FFF1FE85886
:101BB000FE4F859194918417950721F4C9010E94E5
:101BC000750D08952F5F3F4F2F36310569F7089542
:101BD0008AE095E06FE171E00E94002F81E0809340
:101BE000C60180E095E0909329028093280280E06E
:101BF00090E0A4E8B3E480930F0290931002A093C6
:101C00001102B093120280E090E0A0E2B1E4809370
:101C10000B0290930C02A0930D02B0930E02ABEF57
:101C2000B1E0EBE0F2E088E001900D928150E1F745
:101C300080E090E0A0E0B0E080931702909318025B
:101C4000A0931902B0931A02809313029093140286
:101C5000A0931502B0931602A3E0B2E0E3E1F2E034
:101C600088E001900D928150E1F780E090E0A0E0E3
:101C7000B0E080931F0290932002A0932102B093C2
:101C8000220281E090E090931C0280931B0210924C
:101C90001E0210921D021092270280E095E00E9421
:101CA000D10D809123026091240240912502209160
:101CB00026020E945C08089582E090E09093FA0169
:101CC0008093F9010E94E80D089582E791E062EEA9
:101CD00076E046E850E00E948C1981E090E0909315
:101CE000FA018093F9010895EF92FF920F931F93E9
:101CF00082E791E00E94D318882309F462C08091A2
:101D000023026091240240912502209126020E9424
:101D10005C08E0902802F090290283E292E064E2FD
:101D200072E045E252E00E94810C6091FF017091E7
:101D3000000280910102909102020E943530DC0184
:101D4000CB0160E370E00E949532162F00E06091B5
:101D5000FB017091FC018091FD019091FE010E94B8
:101D60003530DC01CB0164E570E00E949532600FF4
:101D7000711F70932902609328026E157F0519F078
:101D8000CB010E94D10D0E94940A809123026091A0
:101D9000240240912502209126020E945C08ABE0BB
:101DA000B2E0EBEFF1E088E001900D928150E1F7B5
:101DB000A3E1B2E0E3E0F2E088E001900D9281500F
:101DC000E1F71F910F91FF90EF9008958091F90135
:101DD0009091FA018130910541F08230910541F0F6
:101DE000892B41F40E94650E08950E945C0E0895AF
:101DF0000E94740E08950F931F930AE015E0C80126
:101E000040E855E260E070E00E94EB2BC80169E217
:101E100071E00E94002F0E94620D88E794E062E06A
:101E200070E048E756E02FE736E00E94812702E79E
:101E300011E0C8010E94EF1AC80169E20E94F6167B
:101E40000E945C0E1F910F9108958AE061E00E944C
:101E5000BA2A8AE061E00E947B2A8CB580618CBD41
:101E60008CB580648CBD8DE061E00E947B2A8BE0A4
:101E700061E00E947B2A0895FC0181E0808308953F
:101E800085E070E00E941B2A08956F927F928F92E6
:101E90009F92AF92BF92CF92DF92EF92FF920F93F9
:101EA0001F93CF93DF93EC0189819A818C0124E009
:101EB000000F111F2A95E1F7081B190B85E10E94FD
:101EC000F929BC01600F711F84E0769567958A95AA
:101ED000E1F77A8369838881882381F12E813F81AC
:101EE0006217730710F4B90106C0888599858617B3
:101EF000970708F4BC0100D000D080E090E040E0FB
:101F000050E0E884F98400E010E0AD80BB24CC24EC
:101F1000DD246C80772488249924EDB7FEB7618294
:101F20007282838294820E94132F6B830F900F9092
:101F30000F900F9085E070E00E941B2ADF91CF91F7
:101F40001F910F91FF90EF90DF90CF90BF90AF90D7
:101F50009F908F907F906F900895FC018CE39FE09D
:101F60009383828384E0818381E084870895CF9383
:101F7000DF93EC018C8590E08F719070892B69F56F
:101F800084E10E94F929AA2797FDA095BA2FBC01E8
:101F9000CD010E94633026EE3FE34EEC50E40E94F8
:101FA00059310E9435309B01AC017B836A836115F6
:101FB000710589F084E08983B901FE0120E0848104
:101FC00095816817790710F429830AC02F5F32962C
:101FD0002430A9F702C08FEF89838C858F5F8C87AF
:101FE000DF91CF910895FC0188E0808389E08183AF
:101FF00087E0828386E0838384E0848382E0858334
:1020000081E18683089520E0FC01E60FF11D8781C0
:10201000813009F421E0822F0895E62FF0E042306C
:1020200040F420E0E80FF91F878181508E3F88F44B
:102030000FC0E80FF91F87818F3F11F420E009C01E
:1020400020E090E0642F70E00E949532019709F43F
:1020500021E0822F08950F931F93CF93DF93EC011C
:1020600010E00FEF888162E00E947B2A88810E9445
:102070000E2B2F81892B19F42F5F2F8307C022236A
:1020800049F02F3F11F41F8201C00F83888160E067
:102090000E947B2A1F5F2196173021F7DF91CF9195
:1020A0001F910F910895FC01742F643508F06FC0E3
:1020B00047FD6DC040330CF06AC080A1823021F52D
:1020C000842F859585958595992787FD9095462F31
:1020D000552747FD509524E530E0829FF001839F0E
:1020E000F00D929FF00D1124E40FF51FE65DFD4FFA
:1020F000808190E0272F277002C0959587952A95BB
:10210000E2F78095817009C0833039F49485842F7B
:102110008627892780FF03C01FC08823E9F4E72FA3
:10212000E595E595E59584E5E802F0011124862F13
:10213000992787FD9095E80FF91FE65DFD4F7770B1
:1021400081E090E002C0880F991F7A95E2F78095B0
:102150002081282320830895E72FE595E595E595CF
:1021600084E5E802F0011124862F992787FD9095D8
:10217000E80FF91FE65DFD4F777081E090E002C047
:10218000880F991F7A95E2F72081282B20830895E4
:10219000FC0160A361A30895FC0160A341A308951D
:1021A000EF92FF920F931F93CF93DF93EC01E62EF4
:1021B000F42E022F10E007C0412F4F0DCE016E2DDF
:1021C0000E9453101F5F1017BCF3DF91CF911F9136
:1021D0000F91FF90EF900895EF92FF920F931F934E
:1021E000CF93DF93EC01E62EF42E022F10E007C010
:1021F000612F6E0DCE014F2D0E9453101F5F1017DF
:10220000BCF3DF91CF911F910F91FF90EF90089554
:102210009F92AF92BF92CF92DF92EF92FF920F9375
:102220001F93CF93DF936C01962EB42EA22EC0E0A5
:10223000D0E0E42EFF24E7FCF094112707FD109571
:102240000E0D1F1D06C0C601692D2A2D0E94EC101F
:1022500021964B2D4C0FCE018E0D9F1D801791079F
:1022600094F3DF91CF911F910F91FF90EF90DF904A
:10227000CF90BF90AF909F9008952F923F925F9222
:102280006F927F928F929F92AF92BF92CF92DF9286
:10229000EF92FF920F931F93DF93CF9300D000D064
:1022A00000D0CDB7DEB79E838D83C62ED42EEE240C
:1022B000E394E21A8EEF289F502C1124842E8A94E6
:1022C000962E9A94A42EA394B62EB394F22E66243E
:1022D00023E0722E10E0C801847090709A83898385
:1022E000F801E270F070FC83EB8398E0292E312C2A
:1022F000202231220170107054C0E7FC04C0FA940F
:10230000F2E05F0EE50C639489819A81892B71F06C
:102310004F2D4D0D8D819E816B2D0E9453106F2D81
:102320006C0D8D819E814A2D0E945310EB81FC81A2
:10233000EF2B71F04D2D4F198D819E816B2D0E94D9
:1023400053106F2D6C0D8D819E81482D0E9453106E
:102350002114310471F06C2D6F198D819E814A2DED
:102360000E9453104F2D4D0D8D819E81692D0E942D
:1023700053100115110571F06C2D6F198D819E811F
:10238000482D0E9453104D2D4F198D819E81692D2E
:102390000E945310E70CF2E07F0E8A949A94A39463
:1023A000B3946F140CF4A9CF26960FB6F894DEBF41
:1023B0000FBECDBFCF91DF911F910F91FF90EF9096
:1023C000DF90CF90BF90AF909F908F907F906F9055
:1023D0005F903F902F9008954F925F926F927F92FF
:1023E0008F929F92AF92BF92CF92DF92EF92FF9225
:1023F0000F931F93CF93DF93EC01A62E742E9E2D87
:10240000FF24F394F21A8EEF289F802C1124B42E0F
:10241000BA9453E0C52ECE0CE22EDD2443E0942E78
:1024200010E031E0432E512C40225122692E63945A
:102430000270107034C0F7FC04C0EA9482E0880E89
:10244000F80CD3944114510489F06D2D6A0D472D79
:102450004E192E2D220F260DCE010E94D0106E2D6A
:102460006A0DCE014B2D2C2D0E94D01001151105A7
:1024700089F06A2D6D19472D4E192E2D220F260D2C
:10248000CE010E94D0106A2D6E19CE014B2D2C2D3D
:102490000E94D010F90C82E0980EBA94C80EDE1497
:1024A00054F2DF91CF911F910F91FF90EF90DF9049
:1024B000CF90BF90AF909F908F907F906F905F90E4
:1024C0004F9008957F928F929F92AF92BF92CF923A
:1024D000DF92EF92FF920F931F936C01962EA42E22
:1024E000F22E7E2C760E1EEFE19E102D1124812EF1
:1024F000820E672D282D0E94EC10B02EBA0CBA94D3
:10250000C601672D4B2D282D0E94EC10AE0C100F2C
:10251000C601692D4A2D212F0E94D010F90CFA9482
:10252000C6016F2D4A2D212F0E94D010C601672DA4
:102530004A2D2E2D01E00E943D11FE18C6016F2D7F
:102540004A2D2E2D02E00E943D11BE18C6016F2DAE
:102550004B2D2E2D04E00E943D11C601672D4B2D01
:102560002E2D08E00E943D111F910F91FF90EF90DA
:10257000DF90CF90BF90AF909F908F907F90089505
:102580008F929F92AF92BF92CF92DF92EF92FF9283
:102590000F931F936C01162FA42E922EF02EBE2C9B
:1025A0008E2C860E2EEFE29EE02C11242E2D290D6E
:1025B000682D0E940811AB0CFA94FE0C1150190DF5
:1025C0001B19C601612F4A2D2B2D01E0EF2C0E9413
:1025D000EC11C601682D4A2D2B2D02E00E94EC1152
:1025E0001F910F91FF90EF90DF90CF90BF90AF9031
:1025F0009F908F9008952F923F924F925F926F928B
:102600007F928F929F92AF92BF92CF92DF92EF9282
:10261000FF920F931F93DF93CF9300D000D0CDB7DD
:10262000DEB74C01D62E142FF90184913196949186
:102630003197D40190966C90B3E5B6170CF460C155
:10264000482F552747FD5095A62EBB24A7FCB094D4
:102650002A014A0C5B1C141415040CF051C11033F0
:102660000CF04EC1092F212F332727FD3095892FDC
:10267000992787FD9095820F931F181619060CF065
:102680003FC162E0E62EF12CEE0EFF1ECA01079656
:1026900068E070E00E94A932762E17FF0EC0010F8D
:1026A000862F90E0FC01E29FC001E39F900DF29F16
:1026B000900D1124E81AF90A10E0802F992787FD60
:1026C0009095212F332727FD3095820F931FC197B7
:1026D00014F000E3011BD7FCDD24C2018535910510
:1026E00014F084E590E0C82ED4011C969C909126AD
:1026F000ED2DF0E0CF018A199B09AC0147705070B5
:1027000020E830E002C0359527954A95E2F7B22ED1
:1027100068E070E00E94A932AB014E0D5F1D5C8342
:102720004B83212F277081E090E0F82E01C0FF0C31
:102730002A95EAF715951595159584E51802B001C7
:1027400011246E0F7F1F665D7D4F8824202E332459
:1027500027FC3094472C5524CDC0EB81FC8124917B
:10276000F1E06F1649F5AB81BC814B2D122F7A83B6
:1027700069835D2D1EC0842F90E0212F30E08223DD
:102780009323892B29F0E981FA8180818F29808325
:10279000842F90E095958795482F882321F41196F2
:1027A000FD01149140E85F5F89819A8101969A83C7
:1027B00089835C1500F391C0662059F50F2D0095B3
:1027C000AB81BC814B2D122F7A8369835D2D1EC096
:1027D000842F90E0212F30E082239323892B29F04E
:1027E000E981FA81808180238083842F90E0959510
:1027F0008795482F882321F41196FD01149140E814
:102800005F5F89819A8101969A8389835C1500F3C1
:1028100064C093E0691641F04D2DAB81BC815B2D06
:10282000122F7A83698357C0AF2CA094AB81BC81EF
:102830004B2DE22E7A8369835D2D092D10E028C08F
:10284000842F90E02E2D30E082239323892B79F082
:10285000852F90E080279127E981FA81908180FF80
:1028600002C09F2903C09A21E981FA819083842FB5
:1028700090E095958795482F882321F41196FD01C6
:10288000E49040E85F5F89819A8101969A83898309
:102890005C15B0F291E0992620C0852F90E0212FA1
:1028A00030E082239323892B29F0E981FA8180810A
:1028B0008F258083852F90E095958795582F8823C5
:1028C00021F41196FD01149150E84F5F89819A819E
:1028D00001969A8389834C1500F3FF0C21F46C5AFE
:1028E0007F4FFF24F3948394AB81BC81A40DB51D6D
:1028F000BC83AB83882D90E0821593050CF42DCF1B
:102900000F900F900F900F90CF91DF911F910F912B
:10291000FF90EF90DF90CF90BF90AF909F908F90FF
:102920007F906F905F904F903F902F9008953F92CF
:102930004F925F926F927F928F929F92AF92BF92CF
:10294000CF92DF92EF92FF920F931F93CF93DF937B
:10295000EC01862EA42E422F102F38A023E5261737
:102960000CF4ABC03FE23A150CF4A7C0C02EDD2436
:102970008C8190E001979C01C29EC001C39E900D86
:10298000D29E900D1124262F332727FD3095820FDC
:10299000931F181619060CF090C08D8190E09C01D1
:1029A000C29EC001C39E900DD29E900D11242A2D6F
:1029B000332727FD3095820F931F181619060CF048
:1029C0007CC09924442E55246DC09C012150304078
:1029D0004217530711F460E00EC0429EC001439EAF
:1029E000900D529E900D1124840F951FEE8DFF8D3A
:1029F000E80FF91F64914C9DC0014D9D900D5C9DA9
:102A0000900D1124682C680EBB24792C780C3FC0E3
:102A1000E62EFF2460FF19C0113039F44B2D4A0D0A
:102A2000CE01672D0E9453102EC02C9DC0012D9DFC
:102A3000900D3C9D900D11244A2D480FCE01662D1E
:102A4000212F012F0E9408111EC099A188A198175B
:102A5000D1F098A3113039F44B2D4A0DCE01672DDA
:102A60000E9453100FC02C9DC0012D9D900D3C9DC8
:102A7000900D11244A2D480FCE01662D212F012FD4
:102A80000E94081138A2F594E7946E2DB3942B2D73
:102A9000332727FD30958D8190E0281739070CF4F6
:102AA000B7CF9394492D552747FD50958C8190E0E1
:102AB000481759070CF489CF38A2DF91CF911F91A5
:102AC0000F91FF90EF90DF90CF90BF90AF909F90CD
:102AD0008F907F906F905F904F903F9008950F93ED
:102AE000CF93DF93EC01262F6A3049F48D819885CE
:102AF000899F802D11249A85980F9A8726C06D3062
:102B000029F169854A8508850E9497149C8168850A
:102B1000969F402D11248985480F49878F818823EE
:102B2000A9F0552747FD5095699F9001112484E530
:102B300090E0821B930B8417950744F49D81699F55
:102B4000902D11248A85890F8A87198681E090E06B
:102B5000DF91CF910F9108951F93CF93DF93EC01F5
:102B6000162FF8948F8560E00E94BA2A888918167B
:102B70001CF460E00E94BA2A1EBD00000DB407FEDE
:102B8000FDCF8EB5888918161CF461E00E94BA2A20
:102B90007894DF91CF911F910895FF920F931F9327
:102BA000CF93DF93EC018C858F5F8C87FF2400E04F
:102BB00010E06F2D6064CE010E94AC15CE0160E87C
:102BC0000E94AC158F8561E00E94BA2A8889181688
:102BD0001CF460E00E94BA2AF801E65DFD4F90E027
:102BE00080818EBD00000DB407FEFDCF8EB59F5FC6
:102BF00031969435A9F7888918161CF461E00E9473
:102C0000BA2AF3940C5A1F4F86E0F81691F6CE01BB
:102C100060E40E94AC15DF91CF911F910F91FF905E
:102C20000895CF93DF93DC0188EF91E0EAE2F2E0D0
:102C3000EF019C01199221503040E1F719961C9246
:102C400019971A961C92DF91CF910895EF920F93E6
:102C5000CF93DF93EC014E876D872F87E98A088B2E
:102C600081E0888788A319A28F83ECEEF6E0849137
:102C70008F5F8C83319684918F5F8D833196FF8F28
:102C8000EE8F0E94250F8CB58F7D8CBD8CB58C7F0F
:102C900081608CBD8DB581608DBD8CB58C608CBD27
:102CA0008E8561E00E947B2A8D8561E00E947B2AEF
:102CB0008F8561E00E947B2A898918161CF461E0E7
:102CC0000E947B2A888918161CF461E00E947B2AE6
:102CD000898918166CF460E00E94BA2A6AE070E0F4
:102CE00080E090E00E946529898961E00E94BA2A0B
:102CF000ED852E2F332727FD3095F901E55EF54F41
:102D0000E491F0E0EE0FFF1FE95FF54F859194919C
:102D10009D8B8C8B215D354FF90184918B8FEE85D6
:102D20002E2F332727FD3095F901E55EF54FE4910D
:102D3000F0E0EE0FFF1FE95FF54F859194919B8BBB
:102D40008A8B215D354FF90184918A8FE8892E2F76
:102D5000332727FD3095F901E55EF54FE491F0E06A
:102D6000EE0FFF1FE95FF54F859194919F8B8E8B3E
:102D7000215D354FF90184918C8FEF852E2F3327FC
:102D800027FD3095F901E55EF54FE491F0E0EE0F97
:102D9000FF1FE95FF54F85919491998F888F215D91
:102DA000354FF90184918D8FCE0161E20E94AC15FF
:102DB000CE0164E10E94AC158B8587FF02C08FE7CE
:102DC0008B876B856068CE010E94AC15CE0160E2F6
:102DD0000E94AC15CE016CE00E94AC15CE010E94A1
:102DE000CD15DF91CF910F91EF900895FC01262F23
:102DF000E158FF4F88EE93E070E00E94A9326083B3
:102E0000EF57F040822F64E10E947C32882309F45E
:102E100081E081A70895CF93DF93DC01E0E8F7E735
:102E200085919491ED01C75ADF4FAD0140595F4F35
:102E30008150904C09F04EC0E6E9F7E7E491E88351
:102E4000E7E9F7E7E4911496EC931497E8E9F7E7DC
:102E5000E4911596EC931597E9E9F7E7859194913C
:102E600017969C938E931697EBE9F7E785919491CB
:102E700019969C938E931897EDE9F7E7E4919B964A
:102E8000EC939B97EEE9F7E7E4919A96EC939A9787
:102E9000EFE9F7E7E491EA01E883E0EAF7E78591F3
:102EA00094915D969C938E935C97E2EAF7E7859107
:102EB00094915F969C938E935E97E4EAF7E78591F1
:102EC000949191969C938E939097E6EAF7E785917B
:102ED000949132C08CE3888314961C9214972FEF40
:102EE00015962C93159780E293E017969C938E93FA
:102EF000169784ED93E019969C938E93189781E032
:102F00009B968C939B979A968C939A97FA01208321
:102F10008CEA9DE05D969C938E935C978EED9DE090
:102F20005F969C938E935E9784E79EE091969C9328
:102F30008E9390978CE39FE093969C938E939297B9
:102F4000DF91CF910895EF92FF920F931F93CF934C
:102F5000DF937C018C01025B1F4FC8010E94111698
:102F6000C80163E978E00E94AB2DC8010E94CD152D
:102F70008CB583608CBD8DB58E7F8DBD85E391E072
:102F8000EEEFFFE3099584E590E0E80EF91EF70106
:102F90001082C8016EE678E00E94F62DC8010E94FA
:102FA000CD15E701CA54D040CE010E942B10CE01AE
:102FB00064E00E940310882339F462E370E080E04B
:102FC00090E00E946529F0CFDF91CF911F910F9182
:102FD000FF90EF9008950F931F93CF93DF93EC0131
:102FE0008C01025B1F4FC80161E040E00E94CC10E1
:102FF000FE01E95AFF4FCE5ADF4F85E59881891BC4
:10300000808326961882C855D040698D613009F4B6
:103010003EC0613028F0888D653008F051C04BC04B
:10302000CE0185960E94B61BCE0160E00E94400F43
:10303000C8010E941116CA5ADF4F81E08883C65525
:10304000D040C8016FEC78E00E94AB2D6A8D7B8D7B
:10305000C8014AE050E00E94992EC8016BEB78E06D
:103060000E94AB2DC8010E94CD1583B7817F84607B
:1030700083BF83B7816083BF83B7816083BF889537
:1030800083B78E7F83BF83B78E7F83BF1FC0CF5828
:10309000DF4F88819981AA81BB818F709070A07069
:1030A000B0700897A105B10518F4C80167E00CC01D
:1030B000C80168E709C0882349F06B5FC80104C0F4
:1030C000882321F0C8016FE20E94CE2DDF91CF91BD
:1030D0001F910F910895AF92BF92CF92DF92EF921E
:1030E000FF920F931F93CF93DF93EC01CA57DF4FEB
:1030F0008881C658D040882309F44AC08C3010F02B
:1031000010E002C01CE0181BCA5ADF4F81E0888320
:10311000C655D0406EE4C62ED12CCC0EDD1EC601A5
:1031200060E00E94C81053E5A52EB12CAC0EBD1E68
:10313000F50100814DE2F42E4F2D401B410F0D5F34
:10314000C60160E024E533E0E32E0E94C012C60110
:1031500061E00E94C810F5010081F01AF10E0D5FC8
:10316000C60160E04F2D24E50E946212C95ADF4F6C
:1031700084E08993F5018081181B115D1883AC965A
:1031800069917991C6010E94AB2D88818150888315
:10319000DF91CF911F910F91FF90EF90DF90CF9033
:1031A000BF90AF900895AF92BF92CF92DF92EF920F
:1031B000FF920F931F93CF93DF93EC01E0E8AE2EC5
:1031C000B12CA80EB91EF501E080F18002811381B7
:1031D0000E943129E61AF70A080B190B7FE7C72E60
:1031E000D12CCC0EDD1EF601808190E0A0E0B0E095
:1031F0008E159F05A007B10708F081C08E01055804
:103200001F4FF80180819181A281B3810097A105B0
:10321000B10509F474C00E943129F6012081620FC2
:10322000711D811D911DF5016083718382839383DC
:10323000FE01EF58FF4F80819181A281B3810196F9
:10324000A11DB11D80839183A283B383F8011082F5
:103250001182128213820E943F29C958DF4F68836E
:1032600079838A839B83C757D040CE010E94450F44
:10327000CE010A960E942B10CE0148960E94B70FED
:1032800081E032C08E010B5D1F4FC8010E94B21B4E
:10329000C8010E94B01CC8010E94A61DCE010E9458
:1032A0006B18CE010E94EB178E01025B1F4FC80105
:1032B0000E94CD15CC5ADF4F8881C455D040882359
:1032C00019F4C8010E9411160E943F29C558DF4F0A
:1032D000688379838A839B83249728813981621B41
:1032E000730B7A936A9380E0DF91CF911F910F91D6
:1032F000FF90EF90DF90CF90BF90AF900895C558AA
:10330000DF4F88819981AA81BB81CB57D04000973C
:10331000A105B10541F7B6CF2F923F924F925F9230
:103320006F927F928F929F92AF92BF92CF92DF92D5
:10333000EF92FF920F931F93DF93CF93CDB7DEB73A
:103340002B970FB6F894DEBF0FBECDBF9B878A8741
:103350007A8369835C834B838C0100591F4FF8018A
:103360008081882309F422C18A859B858A5A9F4FD0
:103370009B878A8781E0EA85FB858083129212927F
:10338000E455F040FB87EA87108E9EE4E92EF12C8D
:10339000EE0EFF1EC70161E00E94C8108AE0282ED1
:1033A000312C8A859B85280E391EB5E26B2E712C37
:1033B000680E791EE981FA81F491FD83A7E58A2ED2
:1033C000912C880E991EF8E5CF2ED12CC80ED91E4F
:1033D000E2E54E2E512C480E591E8D5A9F4F9F8369
:1033E0008E8371E7A72EB12C8A859B85A80EB91E06
:1033F000198708878A859B850E94D3188823D1F373
:103400009D81992311F410E003C0EE81FF811081AA
:10341000C70160E040E02CE039E00E94FB128B81A4
:103420009C81892B41F0145FC70160E0412F2B8103
:103430003C810E94FB12F40110828CE0F601808333
:10344000C70169817A810E94AB2DF201208130E0B1
:10345000C901880F991F820F931F909581959F4FE7
:103460008D5AF4018083EE81FF81208130E0C90113
:10347000880F991F820F931F909581959F4F835DB1
:10348000F6018083F501808184FF04C0C7016CE8E8
:1034900079E003C0C70168E879E00E94F62DF201E7
:1034A000208130E0C901880F991F820F931F9095EA
:1034B00081959F4F8D5AF4018083F60180818F5F43
:1034C0008083EA85FB8582A5882321F0C70164E813
:1034D00079E003C0C70160E879E00E94F62DF201AF
:1034E000808190E09C01220F331F280F391F3095F7
:1034F00021953F4F2D5AF4012083F60180818F5F83
:103500008083C7016CE779E00E94F62DC10165E078
:103510000E940310882351F0EA85FB8562A56F5F46
:10352000C3010E940F1EC3010E94091EC10164E075
:103530000E940310882399F4E885F9856081262F7D
:1035400030E040E050E0F50180819181A281B381BB
:1035500082179307A407B50708F16F3FF9F08A8532
:103560009B8580599F4F9B878A878FEFEA85FB85D4
:103570008083E057F040FB87EA87C30160E00E9448
:10358000561BC3010E94031E81E0EA85FB85808FE4
:103590000DC08A859B850E94A3172CCFC10166E0D0
:1035A0000E940310882309F425CFF3CF2B960FB682
:1035B000F894DEBF0FBECDBFCF91DF911F910F9169
:1035C000FF90EF90DF90CF90BF90AF909F908F9043
:1035D0007F906F905F904F903F902F900895AF92A3
:1035E000BF92CF92DF92EF920F93CF93DF936C0154
:1035F0008FE790E0C80ED91E82E3F601808381E058
:1036000090E0A0E0B0E0B293A293929382936F0116
:1036100085EF9FEFC80ED91E8FEFF601808380E9FA
:103620009FEFC80ED91EC6010E940B17C6010E944B
:103630003C0FC6016FEF0E94400F4AE0A42EB12C50
:10364000AC0CBD1CC5010E94F30FC5010E942B10DC
:10365000C60148960E94AD0FC601825B9F4F6DE088
:103660004BE020E10FE03EE0E32E0E942616E6014B
:10367000A596CE010E941C1EC50165E00E940310A4
:10368000882329F0CE0160E00E940F1E06C0CE0103
:1036900062E979E040E00E94681BDF91CF910F91D1
:1036A000EF90DF90CF90BF90AF900895FC0166231C
:1036B00071F4178A158A14A213A2108E10922E0488
:1036C00010922D0410922B041092B40011820895D0
:1036D0000F931F93CF93DF93EC018B01442371F47D
:1036E00060E00E94561B1E870D871B8A1A8A81E0A4
:1036F000898389E08E8B198E1B8E1D8EDF91CF9171
:103700001F910F910895CF93DF93EC01662339F554
:103710008881882321F18981882309F5898590E0B2
:10372000880F991FEF81F885E80FF91F8591949113
:103730002FEF8F3F920711F4188211C09C8790E001
:10374000880F991FEA85FB85E80FF91F6591749131
:10375000CE0140E00E94681B89858F5F8987DF91D9
:10376000CF91089560E00E94831B089560E00E945D
:10377000561B08950F93DC01002309F069C06230E5
:1037800009F443C0633030F4662359F0613009F026
:103790005FC00DC0633009F444C0643009F058C004
:1037A0004CC04B3008F04AE056964C9351C0842FE1
:1037B00090E0880F991F1F962D913C915097280FEC
:1037C000391FF9018591949190969C938E935F9700
:1037D000FC014591549114968C911497849F602D0F
:1037E000112491966C939197252F3327862F90E083
:1037F0002817390708F4652F14968C911497689F41
:10380000802D112492968C9323C014968C9114973A
:10381000489F802D112459968C9359975A962C9332
:1038200017C014968C911497489F802D11245B9695
:103830008C935B975C962C930BC014968C91149789
:10384000489F802D11245D968C935D975E962C93F6
:103850000F9108950F93CF93DF93EC01662309F046
:103860007BC08981882309F477C08D89882309F07A
:1038700073C0EA89FB89EE0FFF1F4D855E85E40F5B
:10388000F51F259134912115310509F049C0898929
:10389000813031F41B8A1A8AFA012591349140C093
:1038A00019828881882379F0CE0160E00E94831B11
:1038B0008A899B89880F991FED85FE85E80FF91F7E
:1038C000259134912DC01F8A1D8A1CA21BA2188E1F
:1038D00010922E0410922D0410922B041092B4001A
:1038E0003BC006E0369527950A95E1F76F70422FA9
:1038F0004F71B5E036952795BA95E1F72051CE0185
:1039000000E00E94BA1B8A899B8901969B8B8A8B57
:10391000880F991FED85FE85E80FF91F25913491D9
:10392000B901769567957695679520FDDACF862F54
:103930008F738C8B8C81839F802D11248D8B1DA286
:103940001CA21BA281E08F8B80932B04188E8A8986
:103950009B8901969B8B8A8BDF91CF910F91089564
:1039600060E00E942A1C0895CF93DF93EC01662348
:1039700009F0E9C08F89882309F4E5C08D8988237F
:1039800071F41F8A1D8A1CA21BA2188E10922E048D
:1039900010922D0410922B041092B400D4C08150C8
:1039A0008D8B8DA1882309F044C08BA19CA1019629
:1039B000880F991FEF8DF8A1E80FF91F8591949159
:1039C000282F27702EA3AC0173E0569547957A9562
:1039D000E1F79A0136952795892F9927869586953F
:1039E0008FA32F738C81289F202D11242DA341702C
:1039F00040932F048BA19CA101969CA38BA329A18A
:103A000030E082179307A8F08AA1882329F0281BA9
:103A100031093CA32BA30DC01F8A1D8A1CA21BA227
:103A2000188E10922E0410922D0410922B041092D6
:103A3000B4008DA181508DA3988D9F5F988F2FA189
:103A40008C89280F8C85280F2A836B8D662369F05B
:103A5000892F992787FD909570E00E94A9328C8D5F
:103A6000869F802D1124820F8A838A8190E0CB96D5
:103A70006BE370E00E94A9328A832E892B83698DC3
:103A8000662379F0888D772767FD7095992787FDE4
:103A900090950E94A9328A8D869F802D1124820FD5
:103AA0008B836D8D662399F0888D992787FD90957E
:103AB00070E00E94A932CB0162E070E00E94A9325E
:103AC0009E8D899F802D11249B81890F8B838B81F3
:103AD0008A300CF089E087FD80E08B838C898F33FE
:103AE00009F41B82F894EA81F0E0EA54F64FE4917D
:103AF000E0932C042D8130E08B81992787FD9095F0
:103B0000A901489F9001499F300D589F300D112405
:103B100088A590E0A901489F9001499F300D589FCA
:103B2000300D11248EA1992787FD9095AC01249F1B
:103B3000C001259F900D349F900D112480932D047A
:103B400080932E047894DF91CF91089560E00E94D5
:103B5000B41C089560912D04662381F180912A049C
:103B60008F5F80932A0490912C04891738F130E0FC
:103B700080912B04882309F431E030932B041092B8
:103B80002A0480912F048823A9F08091520123E414
:103B9000829FC0011124895B8093520190E070E004
:103BA0000E94953280932E0405C080912E0480934C
:103BB000B40008953323C9F780E0F9CF08951F9228
:103BC0000F920FB60F9211242F933F934F935F9351
:103BD0006F937F938F939F93AF93BF93EF93FF93D5
:103BE0000E94AA1DFF91EF91BF91AF919F918F917C
:103BF0007F916F915F914F913F912F910F900FBEE9
:103C00000F901F9018956EEA79E040E00E94681BC3
:103C1000089560EA79E040E00E94681B0895FC0185
:103C2000862F668170E06F5F7F4F992787FD9095A3
:103C30000E94A932858308950F93FC0181E084835B
:103C400084E080A781EF99E0908B8787CF0161E0C6
:103C500040E020E000E00E94BA1B83E061E070E0F9
:103C60000E941B2AE1EBF0E08081887F81608083E5
:103C7000F89410928000E1E8F0E010821092850044
:103C80001092840088E191E09093890080938800ED
:103C9000808188608083808181608083EFE6F0E0AE
:103CA00080818260808378940F910895909331048D
:103CB000809330047093330460933204509335043E
:103CC0004093340430933704209336040895DF92F0
:103CD000EF92FF920F931F93D82E7A018B0187FFEB
:103CE0000CC087E740E050E060E070E00E94671E93
:103CF000823008F058C08FE7D822E0913604F09166
:103D000037040995E0913404F09135040995E09168
:103D10003204F09133040995E0913204F0913304B8
:103D200009958F3FC9F7E0913004F09131048D2D52
:103D30000995812F9927AA27BB27E0913004F0919C
:103D400031040995C801AA27BB27E0913004F091FE
:103D500031040995BB27A12F902F8F2DE0913004BE
:103D6000F09131040995E0913004F09131048E2DE9
:103D7000099580E4D81611F485E906C088E4D816C0
:103D800011F487E801C081E0E0913004F091310442
:103D900009951AE0E0913204F0913304099587FF08
:103DA00002C01150B9F71F910F91FF90EF90DF9073
:103DB0000895CF92DF92EF92FF920F931F93DF93BC
:103DC000CF9300D000D0CDB7DEB714E6E091320437
:103DD000F091330409951150C9F780E440E050E0B8
:103DE00060E070E00E94671E813009F06CC088E4DA
:103DF0004AEA51E060E070E00E94671E813009F0FD
:103E000040C06E010894C11CD11C76018E010B5F6D
:103E10001F4FE0913204F09133040995F70181932B
:103E20007F01E017F107A9F78B81813009F04BC0C2
:103E30008C818A3A09F047C008EA11E604C00150B3
:103E4000104009F440C089EE40E050E060E070E4CA
:103E50000E94671E882399F754C0E0913204F091C4
:103E600033040995F60181936F01EE15FF05A9F75B
:103E7000898186FD03C074E0F72E26C06CE0F62E23
:103E800023C089EE40E050E060E070E00E94671ED1
:103E9000823028F051E4E52EFF24F39404C049EE6B
:103EA000E42E32E0F32E08EA11E603C00150104080
:103EB00051F08E2D40E050E060E070E00E94671EFF
:103EC0008823A1F729C0FF24F0922C05E091360445
:103ED000F09137040995E0913204F091330409958B
:103EE00080E0FF2009F481E00F900F900F900F9079
:103EF000CF91DF911F910F91FF90EF90DF90CF90C6
:103F000008958AE740E050E060E070E00E94671E9C
:103F1000882309F4A2CFD7CF80E540E052E060E0EB
:103F200070E00E94671E882371F6CECF8F929F9219
:103F3000AF92BF92CF92DF92EF92FF920F931F93B7
:103F4000CF93DF93982E892E69015801FFEFEF2E52
:103F5000FFE7FF2EE022F122E114F10409F490C002
:103F6000C701820F931F8150924008F089C0809151
:103F70002C0583FD07C0E9E0440F551F661F771F1E
:103F8000EA95D1F781E50E94671E882309F066C093
:103F9000C8EED3E0E0913204F091330409958F3FED
:103FA00019F42197B9F75AC08E3F09F057C000277E
:103FB00011270C191D090E5F1D4F0E191F0908C08E
:103FC000E0913204F091330409950894C108D108B6
:103FD000C114D104A9F7B7FE29C0C92DD82DE0918D
:103FE0003C04F0913D040995E0913804F0913904C6
:103FF0000995E0913204F09133040995FE01099589
:10400000D82EE0913A04F0913B0409950894E10818
:10401000F108E114F10411F0DD2031F7E0913E04E4
:10402000F0913F0409950E0D1F1D10C0892D982D8C
:104030009C01E901E0913204F091330409958993E0
:104040000894E108F108E114F104A1F7E0913204C9
:10405000F0913304099501501040C1F7E091360406
:10406000F09137040995E0913204F09133040995F9
:10407000C701E114F10411F081E090E09C0102C05D
:1040800024E030E0C901DF91CF911F910F91FF90A3
:10409000EF90DF90CF90BF90AF909F908F9008955A
:1040A0008F929F92AF92BF92CF92DF92EF92FF9248
:1040B0000F931F93DF93CF9300D000D0CDB7DEB71F
:1040C0005C01809040049090410482E0A816B10405
:1040D00008F47DC0F40180859185A816B90608F022
:1040E00076C08081813021F0823009F070C051C0EB
:1040F000C501969587958A0D9B1D9C013170892F6E
:10410000992786956C01EE24FF24F401428553859E
:1041100064857585CE010196F1E02F3F3F0749F098
:10412000C40ED51EE61EF71EB701A60102E010E080
:104130001EC04C0D5D1D6E1D7F1D2FEF31E001E097
:1041400010E00E94961F892B09F041C0F4014285BE
:104150005385648575854F5F5F4F6F4F7F4F4C0D63
:104160005D1D6E1D7F1DCE01029620E030E00E9495
:10417000961F892B61F589819A81A0FE07C09C0159
:1041800044E0369527954A95E1F723C09C013F709E
:1041900020C04B2D552760E070E0F40182859385A7
:1041A000A485B585480F591F6A1F7B1FFFEFAF22FB
:1041B000BB24AA0CBB1CCE010196950102E010E0C5
:1041C0000E94961F892B19F429813A8102C021E0AF
:1041D00030E0C9010F900F900F900F90CF91DF91B9
:1041E0001F910F91FF90EF90DF90CF90BF90AF9015
:1041F0009F908F900895EF92FF920F931F93CF930C
:10420000DF937C01C0914004D0914104FC01008106
:1042100011810F5F1F4F09F471C0208531854285E0
:104220005385211531054105510509F467C0C801C1
:104230008F709070892B09F05BC02F5F3F4F4F4FFD
:104240005F4F2087318742875387468157814115C9
:10425000510539F48C819D810817190708F448C06D
:104260004DC0898190E00197980174E036952795BB
:104270007A95E1F782239323892BD1F5CA010E9415
:104280005020BC018230910518F421E030E038C0A4
:10429000888599856817790788F5F701778366839C
:1042A000C0914004D0914104625070408885998546
:1042B00002976817790728F020E030E040E050E0EE
:1042C00012C080E090E0298130E040E050E00E94A0
:1042D0005D329B01AC018A899B89AC89BD89280F1D
:1042E000391F4A1F5B1FF701208731874287538799
:1042F000F7011183008320E030E002C023E030E0CA
:10430000C901DF91CF911F910F91FF90EF90089518
:104310002F923F924F925F926F927F928F929F92D5
:10432000AF92BF92CF92DF92EF92FF920F931F93C3
:10433000CF93DF93E82FC0914004D09141042097A0
:1043400019F428E030E0E1C08A8180FD03C027E055
:1043500030E0DBC06A8C7B8C8C8C9D8C4E2F592F6F
:10436000CB01DA015C016D016A147B048C049D04AD
:1043700010F4640153012E893F89488D598D1E8A9E
:104380001F8A188E198EA114B104C104D10409F436
:10439000BAC08981682E772488249924F9E0660CB4
:1043A000771C881C991CFA95D1F721153105410518
:1043B0005105A1F119012A01089421083108410889
:1043C0005108C601B5016150704080409040A40181
:1043D00093010E94BC3279018A01C201B101A4019A
:1043E00093010E94BC32E216F30604071507B0F0F1
:1043F00088279927DC0186199709A809B90982211C
:104400009321A421B5218E8B9F8BA88FB98FA81AD9
:10441000B90ACA0ADB0A68A179A125C06E8D7F8D11
:1044200079A368A320C0CB010E945020BC01823038
:10443000910508F458C0888599856817790708F0B0
:1044400052C079A368A38E899F89A88DB98D860DE6
:10445000971DA81DB91D8E8B9F8BA88FB98FA6188D
:10446000B708C808D9086A147B048C049D04D8F2E4
:104470008E899F89A88DB98D8A0D9B1DAC1DBD1D90
:104480008E8B9F8BA88FB98FE9E0D694C794B79491
:10449000A794EA95D1F7EA2CE394EB82C09040040C
:1044A000D090410462507040F6018085918502975A
:1044B00068177907C0F480E090E0218130E040E0A7
:1044C00050E00E945D329B01AC01F6018289938924
:1044D000A489B589280F391F4A1F5B1F2115310593
:1044E0004105510521F41A8221E030E00EC02E0D65
:1044F000311D411D511D21503040404050402AA3E4
:104500003BA34CA35DA320E030E0C901DF91CF9134
:104510001F910F91FF90EF90DF90CF90BF90AF90E1
:104520009F908F907F906F905F904F903F902F90D3
:1045300008957F928F929F92AF92BF92CF92DF9217
:10454000EF92FF920F931F93CF93DF937C016B0148
:10455000DB018C918F3219F40894C11CD11CE70146
:104560001D821C82F60180818032F0F4E0914004CB
:10457000F09141041982188280859185892B69F018
:104580001F821E8286859785A089B1898887998731
:10459000AA87BB8740E050E002C041E050E00680BF
:1045A000F781E02D1082F5C000E2702E88248394FC
:1045B000F701A281B381FD01CD010B9601C071927B
:1045C000E817F907E1F730E0992468E002C038E025
:1045D0006BE0F601E90DF11D20819394203250F13A
:1045E0002F3241F12E3211F0361730F0683009F0D9
:1045F000CBC02E3261F3C8C02F3708F0C5C0422FA0
:1046000050E0ECE3F1E001C031968081882339F07D
:10461000992787FD909584179507B1F7B5C0822F2C
:1046200081568A3108F42052FD01E30FF11D2083E9
:104630003F5FCFCF332309F4A7C01B961C921B9773
:10464000203210F41B968C92C0914004D09141040A
:10465000D70111961C921E9214966D917C9115971C
:104660006130710509F4A7C08885998568177907B5
:1046700008F0A1C017967C936E931697611571058B
:1046800001F1625070408885998502976817790713
:1046900028F020E030E040E050E017C080E090E0FB
:1046A000298130E040E050E00E945D329B01AC0186
:1046B0008A899B89AC89BD89280F391F4A1F5B1FD6
:1046C00004C02E853F8548895989F70120873187A5
:1046D000428753870E80DF81C02D1BE0A12EB12CB5
:1046E000AC0EBD1ED70118964D915D916D917C91D8
:1046F0001B972D913C912F703070B5E0220F331F26
:10470000BA95E1F7CE0100E210E00E94961F892BD6
:1047100009F051C08881882309F44AC08B8583FD44
:104720000FC0F701A281B381FE01EA15FB0509F470
:1047300045C090818C91981719F431961196F5CF58
:10474000C7010E94FB20AC01009761F24330510584
:1047500001F5D7011296ED91FC911397838588237B
:10476000B1F017C0E0914004F09141040680F78158
:10477000E02D838584FF0BC0C90CD11C828D938DE5
:10478000E7019D838C8314CF45E050E002C044E0F4
:1047900050E0CA01DF91CF911F910F91FF90EF90F0
:1047A000DF90CF90BF90AF909F908F907F900895B3
:1047B00043E050E0CBCF41E050E0C8CFD7011296A4
:1047C000ED91FC9113978385882361F240E050E0DE
:1047D000E0CFCF92DF92EF92FF920F931F93DF9380
:1047E000CF93CDB7DEB7AC970FB6F894DEBF0FBE50
:1047F000CDBF6C01E0914004F0914104309721F469
:1048000028E0E22EF12C6BC08E01035F1F4F17834F
:104810000683CE010196F60193838283C6010E942E
:1048200099227C01009709F054C08D85882349F0B6
:10483000888D84FF51C0F801828D938DF601958398
:1048400084830091400410914104F601118210828A
:10485000648175816130710509F451C0F80180856A
:1048600091856817790708F04AC0F6017783668357
:104870006115710519F162507040F80180859185CC
:1048800002976817790728F020E030E040E050E018
:104890001AC080E090E0F801218130E040E050E073
:1048A0000E945D329B01AC01F80182899389A48941
:1048B000B589280F391F4A1F5B1F05C0F8012685DF
:1048C000378540895189F601208731874287538790
:1048D00006C08330910519F494E0E92EF12CC7014C
:1048E000AC960FB6F894DEBF0FBECDBFCF91DF916F
:1048F0001F910F91FF90EF90DF90CF90089581E08E
:10490000E82EF12CECCFEF92FF920F931F93DF93E1
:10491000CF93CDB7DEB7E8970FB6F894DEBF0FBEE2
:10492000CDBFBC0100914004109141040115110557
:1049300019F428E030E033C0F801128239E1E32EA7
:10494000F12CEC0EFD1EF782E682CE010D969C83C3
:104950008B83CE0101960E9499229C010097F9F465
:10496000898D8823D1F08CA184FD17C0F701828D39
:10497000938DF801978F868FF701848D958DA68D85
:10498000B78DF801828F938FA48FB58F168A178AFF
:10499000108E118E81E0828302C023E030E0C901D5
:1049A000E8960FB6F894DEBF0FBECDBFCF91DF9172
:1049B0001F910F91FF90EF9008954F925F926F9229
:1049C0007F928F929F92AF92BF92CF92DF92EF929F
:1049D000FF920F931F93CF93DF933C016B014A012A
:1049E000C0914004D0914104FA01118210822097B5
:1049F00019F428E030E0D1C08A8180FD03C027E0AF
:104A000030E0CBC02A8D3B8D4C8D5D8D8E899F898A
:104A1000A88DB98D281B390B4A0B5B0BCB01A0E08D
:104A2000B0E0281739074A075B0708F4690153010A
:104A3000412C52E0552EABC0EE88FF88088D198DB1
:104A4000D801C7019170A070B0700097A105B105A1
:104A500009F05AC0C801B70149E096958795779546
:104A600067954A95D1F7298130E040E050E00E94F7
:104A7000BC32611571058105910591F4E114F104D1
:104A80000105110519F48E8D9F8D04C088A199A18F
:104A90000E9450208230910550F199A388A31B8277
:104AA000009140041091410468A179A162507040C6
:104AB000F80180859185029768177907C0F480E036
:104AC00090E0218130E040E050E00E945D329B01A7
:104AD000AC01F80182899389A489B589280F391F0F
:104AE0004A1F5B1F211531054105510511F41A823A
:104AF0002EC08B81280F311D411D511D2AA33BA3C0
:104B00004CA35DA38F5F8B832E893F89488D598D80
:104B1000C9019170B201681B790B76016C157D0596
:104B200008F47B018A8131704AA15BA16CA17DA14F
:104B300086FF04C087011068C30102C0C501870158
:104B40000E94961F009749F01A82029719F021E0FF
:104B500030E023C026E030E020C0AE0CBF1CC7010F
:104B6000A0E0B0E02E893F89488D598D280F391F6C
:104B70004A1F5B1F2E8B3F8B488F598FF40180811A
:104B800091818E0D9F1D91838083CE18DF08C11403
:104B9000D10409F051CF20E030E0C901DF91CF917D
:104BA0001F910F91FF90EF90DF90CF90BF90AF904B
:104BB0009F908F907F906F905F904F900895AF92ED
:104BC000BF92CF92DF92EF92FF920F931F93CF93FA
:104BD000DF93B82EA92E6A017B012EEF31E002E0AF
:104BE00010E00E94961F892B11F023E020C0CB2DEE
:104BF000DA2D8881998185559A4A11F022E017C0F3
:104C00008B2D9A2DB701A60126E330E002E010E0DB
:104C10000E94961F892B11F021E009C020E08881B5
:104C200099818654914409F421E081E02827822F5C
:104C3000DF91CF911F910F91FF90EF90DF90CF9078
:104C4000BF90AF9008956F927F928F929F92AF9294
:104C5000BF92CF92DF92EF92FF920F931F93DF9359
:104C6000CF93CDB7DEB7A4970FB6F894DEBF0FBED3
:104C7000CDBF5C011092410410924004009709F4EA
:104C8000DFC00E94D91E80FF03C022E030E0E0C0F8
:104C90004E010894811C911CC40140E050E060E08A
:104CA00070E00E94DF25813021F0CC24DD247601E4
:104CB0001BC0C40140E050E060E070E02EEB31E04A
:104CC00000E110E00E94961F892B09F0BCC08D8185
:104CD000882309F4BBC0C984DA84EB84FC84C40152
:104CE000B701A6010E94DF25833009F4ACC08823F8
:104CF00009F0ACC0CE010196B701A6012DE030E06D
:104D000004E210E00E94961F892B09F09CC08A855E
:104D10009B85BC0180E090E06115710581059105DE
:104D200021F4688D798D8A8D9B8D2C8130E040E057
:104D300050E00E945D323B014C018A819B81A0E0E2
:104D4000B0E0C80ED91EEA1EFB1EF501C286D3864E
:104D5000E486F586898181832D813E813583248394
:104D60008F8198857C0100E010E0E114F1040105D9
:104D7000110521F4EC88FD880E891F898A819B81A9
:104D8000A0E0B0E0E81AF90A0A0B1B0BE618F708D6
:104D90000809190974E0369527957A95E1F7C90154
:104DA000A0E0B0E0E81AF90A0A0B1B0BF50121811B
:104DB00030E040E050E0C801B7010E94BC322E5FF5
:104DC0003F4F4F4F5F4FF50131872087273FFFE06F
:104DD0003F07F0E04F07F0E05F0710F481E006C006
:104DE000275F3F4F4040504088F582E0F5018083C7
:104DF0002285338544855585D401C301820F931FD5
:104E0000A41FB51F86879787A08BB18B848195815E
:104E100064E0969587956A95E1F7A0E0B0E0820F8F
:104E2000931FA41FB51F860D971DA81DB91D828B4A
:104E3000938BA48BB58B1282B0924104A092400454
:104E400020E030E005C021E030E002C029E030E0A1
:104E5000C901A4960FB6F894DEBF0FBECDBFCF91A7
:104E6000DF911F910F91FF90EF90DF90CF90BF9057
:104E7000AF909F908F907F906F90089580E290E028
:104E800062E070E00E945905809374049093750469
:104E9000089588E794E00E943E270895CB010E9480
:104EA000832408950F931F93CF93DF938B0188E69C
:104EB00094E00E94E923EC01009739F48091740496
:104EC00090917504B8010E947C05CE01DF91CF91CD
:104ED0001F910F910895CB01BA010E948821089576
:104EE000CB01609144046F7B60934404BA01A90133
:104EF0000E94DD2408958091760461E00E94BA2A20
:104F00000895CF92DF92EF92FF920F931F936C015F
:104F1000862F7A018901609376047093770461E0AB
:104F20000E947B2A0E947B27C801B7014EEA57E204
:104F30002BE737E20E94561E0E94D91E82E494E0BD
:104F40000E942326C6016CE471E00E9452271F9143
:104F50000F91FF90EF90DF90CF90089580917604AD
:104F600060E00E94BA2A08950F931F93CF93DF93B6
:104F7000BC018230910510F462E070E0E0912F05F1
:104F8000F091300540E050E0A0E0B0E024C0808126
:104F9000918186179707D0F08617970771F4828161
:104FA0009381109729F013969C938E9312972CC09F
:104FB0009093300580932F0527C04115510519F0B6
:104FC0008417950718F48D01AC01EF01DF01828190
:104FD00093819C01F9013097D1F641155105F9F003
:104FE000CA01861B970B8430910580F48A819B81CE
:104FF0000115110521F0F8019383828304C0909379
:10500000300580932F05FE01329645C0FE01E80F62
:10501000F91F619371930297998388833CC08091B3
:105020002D0590912E05892B41F480915501909189
:10503000560190932E0580932D0540915701509174
:1050400058014115510541F44DB75EB780915301A8
:1050500090915401481B590B20912D0530912E053C
:1050600024173507B0F4CA01821B930B86179707E4
:1050700080F0AB014E5F5F4F8417950750F0420FF1
:10508000531F50932E0540932D05F90161937193A1
:1050900002C0E0E0F0E0CF01DF91CF911F910F91CE
:1050A0000895CF93DF939C01009709F48FC0EC0122
:1050B00022971B821A8260912F057091300561152D
:1050C000710581F488819981820F931F20912D05AC
:1050D00030912E052817390739F5D0932E05C09346
:1050E0002D0574C0DB0140E050E0AC17BD0708F1AE
:1050F000BB83AA83FE0121913191E20FF31FAE170A
:10510000BF0779F48D919C911197280F391F2E5F5D
:105110003F4F3983288312968D919C9113979B83DF
:105120008A834115510571F4D0933005C0932F0542
:105130004DC012968D919C911397AD01009711F07F
:10514000DC01D3CFDA011396DC93CE931297FA01E8
:1051500021913191E20FF31FCE17DF0769F48881A7
:105160009981280F391F2E5F3F4FFA013183208329
:105170008A819B8193838283E0E0F0E0DB011296D9
:105180008D919C911397009719F0BC01FD01F6CF0A
:10519000AB014E5F5F4FDB018D919C91840F951F9A
:1051A00020912D0530912E052817390779F4309775
:1051B00029F41092300510922F0502C0138212823A
:1051C0004250504050932E0540932D05DF91CF91D2
:1051D00008951F920F920FB60F9211242F933F93B1
:1051E0008F939F93AF93BF9380917D0490917E04A2
:1051F000A0917F04B0918004309181040196A11D9B
:10520000B11D232F2D5F2D3720F02D570196A11DA5
:10521000B11D2093810480937D0490937E04A0931C
:105220007F04B09380048091790490917A04A091D6
:105230007B04B0917C040196A11DB11D809379047B
:1052400090937A04A0937B04B0937C04BF91AF91B8
:105250009F918F913F912F910F900FBE0F901F90B4
:1052600018958FB7F89420917D0430917E04409179
:105270007F04509180048FBFB901CA0108959FB780
:10528000F8942091790430917A0440917B045091F4
:105290007C0486B5A89B06C08F3F21F02F5F3F4F4F
:1052A0004F4F5F4F9FBF542F432F322F2227280F7E
:1052B000311D411D511D82E0220F331F441F551F18
:1052C0008A95D1F7B901CA0108959B01AC017FB756
:1052D000F8948091790490917A04A0917B04B09124
:1052E0007C0466B5A89B05C06F3F19F00196A11D0F
:1052F000B11D7FBFBA2FA92F982F8827860F911D28
:10530000A11DB11D62E0880F991FAA1FBB1F6A95DE
:10531000D1F7BC012DC0FFB7F8948091790490912A
:105320007A04A0917B04B0917C04E6B5A89B05C0EB
:10533000EF3F19F00196A11DB11DFFBFBA2FA92F94
:10534000982F88278E0F911DA11DB11DE2E0880FB7
:10535000991FAA1FBB1FEA95D1F7861B970B885E82
:105360009340C8F2215030404040504068517C4F3B
:10537000211531054105510571F60895789484B5DC
:10538000826084BD84B5816084BD85B5826085BD41
:1053900085B5816085BDEEE6F0E080818160808327
:1053A000E1E8F0E01082808182608083808181600A
:1053B0008083E0E8F0E0808181608083E1EBF0E0D1
:1053C000808184608083E0EBF0E080818160808375
:1053D000EAE7F0E08081846080838081826080835E
:1053E0008081816080838081806880831092C10089
:1053F0000895982F8E3008F09E5097708091590133
:105400008295880F880F807C892B80937C00809107
:105410007A00806480937A0080917A0086FDFCCFC8
:105420002091780040917900942F80E030E0282B83
:10543000392BC90108951F93CF93DF93182FEB01E8
:1054400061E00E947B2A209709F44AC0CF3FD10532
:1054500009F449C0E12FF0E0ED5BF54F8491833012
:10546000C1F0843028F4813051F08230B1F50CC0A5
:10547000863019F1873049F1843079F514C084B54C
:10548000806884BDC7BD33C084B5806284BDC8BD9B
:105490002EC080918000806880938000D093890026
:1054A000C093880024C08091800080628093800037
:1054B000D0938B00C0938A001AC08091B00080689E
:1054C0008093B000C093B30012C08091B00080629E
:1054D0008093B000C093B4000AC0C038D1051CF45A
:1054E000812F60E002C0812F61E00E94BA2ADF9123
:1054F000CF911F910895CF93DF93482F50E0CA01B9
:10550000815D954FFC013491455E554FFA018491C0
:10551000882369F190E0880F991FFC01E350F64F52
:10552000A591B491FC01E95FF54FC591D491662333
:1055300051F42FB7F8948C91932F909589238C93E5
:10554000888189230BC0623061F42FB7F8948C9165
:10555000932F909589238C938881832B88832FBFE9
:1055600006C09FB7F8948C91832B8C939FBFDF91DB
:10557000CF910895482F50E0CA018D5B954FFC01F3
:105580002491CA01815D954FFC019491455E554F70
:10559000FA013491332309F440C0222351F123301E
:1055A00071F0243028F42130A1F0223011F514C01C
:1055B0002630B1F02730C1F02430D9F404C08091F6
:1055C00080008F7703C0809180008F7D8093800062
:1055D00010C084B58F7702C084B58F7D84BD09C0AB
:1055E0008091B0008F7703C08091B0008F7D809351
:1055F000B000E32FF0E0EE0FFF1FE95FF54FA5913C
:10560000B4912FB7F894662321F48C919095892357
:1056100002C08C91892B8C932FBF0895682F70E066
:10562000CB018D5B954FFC012491CB01815D954FA2
:10563000FC014491655E754FFB019491992319F427
:1056400020E030E03CC0222351F1233071F02430BF
:1056500028F42130A1F0223011F514C02630B1F029
:105660002730C1F02430D9F404C0809180008F77B6
:1056700003C0809180008F7D8093800010C084B52E
:105680008F7702C084B58F7D84BD09C08091B00042
:105690008F7703C08091B0008F7D8093B000892FF9
:1056A00090E0880F991F8F5E954FFC01A591B491F2
:1056B0008C9120E030E0842311F021E030E0C9013A
:1056C000089508951F920F920FB60F9211242F93F1
:1056D0003F934F938F939F93EF93FF938091C000DD
:1056E00082FD1DC04091C6002091C2043091C304C8
:1056F0002F5F3F4F2F7330708091C4049091C50489
:105700002817390771F0E091C204F091C304EE57F5
:10571000FB4F40833093C3042093C20402C08091A6
:10572000C600FF91EF919F918F914F913F912F91E3
:105730000F900FBE0F901F901895E0911605F091F5
:105740001705E05CFF4F8191919120813181821B8F
:10575000930B8F739070892B11F00E94612B089529
:105760001F920F920FB60F9211242F933F938F9396
:105770009F93EF93FF932091060530910705809149
:105780000805909109052817390731F48091C10067
:105790008F7D8093C10014C0E0910805F091090548
:1057A000EA53FB4F208180910805909109050196ED
:1057B0008F73907090930905809308052093C6001D
:1057C000FF91EF919F918F913F912F910F900FBE7D
:1057D0000F901F901895AF92BF92DF92EF92FF92B9
:1057E0000F931F93CF93DF93EC017A018B01DD249C
:1057F000403081EE580780E0680780E0780711F0BC
:10580000DD24D39491E0A92EB12CEC89FD89DD2013
:1058100069F0C50108A002C0880F991F0A94E2F739
:10582000808360E079E08DE390E005C0108260E85D
:1058300074E88EE190E0A80197010E94BC322150EB
:10584000304040405040569547953795279580E128
:105850002030380720F0DD2011F0DD24D6CFE88994
:10586000F9893083EA89FB89208319A2EE89FF89AF
:10587000408121E030E0C9010C8C02C0880F991FE3
:105880000A94E2F7482B4083EE89FF894081C901E1
:105890000D8C02C0880F991F0A94E2F7482B4083B1
:1058A000EE89FF894081C9010E8C02C0880F991FC3
:1058B0000A94E2F7482B4083EE89FF8980810F8CA0
:1058C00002C0220F331F0A94E2F720952823208379
:1058D000DF91CF911F910F91FF90EF90DF90BF90DC
:1058E000AF900895DC011C96ED91FC911D97E05C52
:1058F000FF4F2191319180819181281B390B2F73AA
:105900003070C9010895DC011C96ED91FC911D9742
:10591000E05CFF4F20813181E054F040DF01AE5B5D
:10592000BF4F8D919C9111972817390719F42FEFCC
:105930003FEF07C08D919C91E80FF91F8081282FC0
:1059400030E0C9010895DC011C96ED91FC911D9792
:10595000E05CFF4F20813181E054F040DF01AE5B1D
:10596000BF4F8D919C9111972817390719F42FEF8C
:105970003FEF10C08D919C911197E80FF91F208186
:105980008D919C91119701968F73907011969C93B5
:105990008E9330E0C9010895DC0191968C91919726
:1059A000882339F05496ED91FC915597808186FFBC
:1059B000F9CF91961C920895CF93DF93EC01EE8579
:1059C000FF85E05CFF4F20813181E054F0402F5F84
:1059D0003F4F2F733070DF01AE5BBF4F8D919C91B5
:1059E000119728173907D1F3E05CFF4F808191812F
:1059F000E054F040E80FF91F6083EE85FF85E05C1E
:105A0000FF4F31832083EE89FF89208181E090E080
:105A10000F8C02C0880F991F0A94E2F7282B20836D
:105A200081E089A3EC89FD8980818064808381E0A5
:105A300090E0DF91CF91089510920D0510920C0522
:105A400088EE93E0A0E0B0E080930E0590930F0500
:105A5000A0931005B093110586E691E090930B0595
:105A600080930A0582E894E09093170580931605C9
:105A700086EC94E0909319058093180585EC90E0EE
:105A800090931B0580931A0584EC90E090931D057C
:105A900080931C0580EC90E090931F0580931E0579
:105AA00081EC90E0909321058093200582EC90E0BA
:105AB000909323058093220586EC90E09093250532
:105AC0008093240584E08093260583E08093270556
:105AD00087E08093280585E08093290581E0809305
