:100000000C949C130C94C4130C94C4130C94C4133C
:100010000C94C4130C94C4130C94C4130C94C41304
:100020000C94C4130C94C4130C94C4130C94592D45
:100030000C94C4130C94C4130C94C4130C94C413E4
:100040000C94D62D0C94C4130C944F300C949D300A
:100050000C94C4130C94C4130C94C4130C94C413C4
:100060000C94C4130C94C41305A84CCDB2D44EB94F
:100070003836A9020C50B9918688083CA6AAAA2A4B
:10008000BE000000803F401E000000000000000095
:10009000000000C000000000000001A000000000FF
:1000A0000000015000000000000001880000000076
:1000B0000000037C00000000050002E200000000D8
:1000C0000A0003810000A0001400020A8001500011
:1000D000080003554000A800140006AFE0005000DF
:1000E0000800057FE0002800040007FFE00014007E
:1000F000020007F1C0800A00050007E481401500F6
:10010000028003CE42A00A800540004E3550150003
:1001100002A0084F3AA82A80055014473D555500C3
:1001200002A82A433EAAAA00015555E13D5F5400AA
:1001300000AAABF03FBFAA00015557F83FFFD5001A
:1001400000ABEBFC3FFFEAA80157F7FE3FFFD55499
:1001500002AFFBFF3FFFEAAA555FF7FFBFFFF7D5EE
:10016000AAAFFFFFFFFFFFEA557FFFFFFFFFFFF58D
:10017000AAFFFFFFFFFFFFEAB4083209D109550AC1
:10018000150BCC0B530C0D0DDF0D03037801000094
:100190002041000020410000E70E590F0000000040
:1001A0000000D70F5E10061100007E11F91100004B
:1001B00095123D1305039601000020410000D44232
:1001C0000000BB1375140E15DD15ED17AF19B41A29
:1001D0003D1C0303C001000020410000D4421B2D40
:1001E000192C050B122D0E2C060B092D022C0909BA
:1001F000092400230B06091B00190B050912000E28
:100200000B0609090202090912090E00060B1B0957
:100210001900050B24092300060B2D092C020909DE
:100220002D122C0E0B062D1B2C190B052D242C2307
:100230000B062D2D2C2C0909242D232C060B000038
:1002400000000000CF1D00000000000000000000C2
:10025000000000000000AA1E4C1FE81FC9208621D4
:100260001F22DF22000005043E02000020410000A2
:100270001A43013A0502073A05020D3A0502133AFC
:100280000502404000020010008000000003001042
:100290000180000030038038038018003C03C03820
:1002A000078078001F03E07C0F81F0001F03606C63
:1002B0000D81F0000D01C038070160000E00000044
:1002C0000000E00000C070381C06000000A05028AC
:1002D000140A000000603010180C0000000000003C
:1002E000000000000000000000000000000000040A
:1002F00004000000FC01110E4E007E007E03AB9A4C
:10030000AB00FC003A01390EEE00B8001EC010042C
:100310004406F0000CA02800A00A600000E00000E5
:10032000000E000000001000E00000000000380196
:10033000B000000000001000E0000000000000001D
:100340004000000000000000000000000C00000061
:10035000000060003EC000000006F800FAA00000A7
:10036000000ABE003EC000000006F8000C000000BD
:10037000000060000000000000000000000000001D
:10038000000000000000000000000000000000006D
:1003900000000000000000000000000000E02082DB
:1003A000080E00000CA05145140A60001EC071C761
:1003B0001C06F0003A0000820800B8007E0000022F
:1003C0001400FC00FC00000000007E0000000000A3
:1003D000000000000000000000000000000000001D
:1003E0000000000000603010180C000000A0502831
:1003F000140A000000C070381C0600000E00000047
:100400000000E0000D01C038070160001F03606CB0
:100410000D81F0001F03E07C0F81F0003C03C03829
:100420000780780030038038038018000003001034
:1004300001800000000200100080000000000000A9
:1004400000000000000000000000000000000000AC
:10045000000000007DF7DF000000000028A28A00F5
:10046000000000000000000000000000000000008C
:10047000000000000000000000000000000000007C
:100480000000000040400002001000800000000357
:1004900000100180000030038038038018003C0306
:1004A000C038078078001F03E07C0F81F0001F0335
:1004B000E07C0F81F0000F01C0380701E0000E0062
:1004C00000000000E00000C070381C06000000E0E2
:1004D00070381C0E000000603010180C0000000086
:1004E000000000000000000000000000000000000C
:1004F000000404000000FC01110E4E007E007E038B
:10050000BB9EEF00FC003E01390EEE00F8001EC05D
:1005100010044406F0000CE02800A00E600000E08B
:100520000000000E000000001000E00000000000CD
:100530003801F000000000001000E00000000000A2
:1005400000004000000000000000000000000C005F
:100550000000000060003EC000000006F800FEE061
:100560000000000EFE003EC000000006F8000C0077
:10057000000000006000000000000000000000001B
:10058000000000000000000000000000000000006B
:10059000000000000000000000000000000000E07B
:1005A0002082080E00000CE071C71C0E60001EC007
:1005B00071C71C06F0003E0000820800F8007E00B3
:1005C00000021400FC00FC00000000007E0000009F
:1005D000000000000000000000000000000000001B
:1005E00000000000000000603010180C000000E067
:1005F00070381C0E000000C070381C0600000E0091
:1006000000000000E0000F01C0380701E0001F03F8
:10061000E07C0F81F0001F03E07C0F81F0003C03C1
:10062000C03807807800300380380380180000034A
:100630000010018000000002001000800000000097
:1006400000000000000000000000000000000000AA
:100650000000000000007DF7DF000000000028A27D
:100660008A00000000000000000000000000000000
:10067000000000000000000000000000000000007A
:100680000000000000004040000200100080000058
:100690000003001001800000300280280280180052
:1006A0002C02402804806800130220440881900036
:1006B00011022044088110000901C0380701200000
:1006C0000E0000000000E00000C070381C060000B2
:1006D00000A05028140A000000603010180C000020
:1006E000000000000000000000000000000000000A
:1006F0000000000404000000FC01110A4A007E0012
:100700004202AA92A90084002201390AEA00880064
:1007100012C01004440690000CA02800A00A60003B
:1007200000E00000000E000000001000E0000000EB
:10073000000028011000000000001000A0000000D0
:100740000000000040000000000000000000000069
:100750000C0000000000600032C00000000698009D
:10076000C2A00000000A860032C000000006980007
:100770000C0000000000600000000000000000000D
:100780000000000000000000000000000000000069
:100790000000000000000000000000000000000059
:1007A00000E02082080E00000CA05145140A6000F1
:1007B00012C071C71C069000220000820800880049
:1007C0004200000214008400FC00000000007E00D3
:1007D0000000000000000000000000000000000019
:1007E000000000000000000000603010180C000045
:1007F00000A05028140A000000C070381C06000039
:100800000E0000000000E0000901C03807012000D0
:100810001102204408811000130220440881900036
:100820002C024028048068003002802802801800D2
:100830000003001001800000000200100080000092
:1008400000000000000000000000000000000000A8
:1008500000000000000000007CD59B0000000000AC
:1008600028A28A0000000000000000000000000034
:100870000000000000000000000000000000000078
:100880000000000000000000210F200E0305210FD2
:100890001F140504130F0E0E0303130F160E03038C
:1008A0009F23A823B123B923C1234C756E61722005
:1008B00052756E001C545CDD135D5E125FA0D02289
:1008C000A38D26278928E84829288828288828E809
:1008D0004829288828A78926E68A25A3CD22210F22
:1008E000605F115F5F115F201060E1CF21A2CE2217
:1008F00063CD2324CC24E58B25E58B2524CC2463F0
:10090000CD23E2CE21610F5F9F115EDE125D1C548C
:100910005C1C545C1C545C5D135FE38D25A7492A65
:10092000AB452AAA462AAA462AAB452A6987272523
:10093000CB2464CC2363CD2363CD2363CD2323CD8C
:1009400024658B27A9472A6A462BAA462A29872885
:10095000E7892517C50815C70814C80813CA07135F
:10096000CA0752CC0591CD04D1DF51102090102040
:10097000904F218F4F218F8FA10F83940F44930F9E
:10098000C55310861314C7135DDD135DDD135D5E63
:10099000125F638C2669462A2C043FFF001E2D44FB
:1009A0002C9B430E18840E14870DD10A0703C80F21
:1009B0004784028D4E0541094B83114A4351480239
:1009C000D284C4EDC2C0FFC0C0FFC0C0FFC0C03FE2
:1009D00000C0FFC0C0FFC0C0FFC0C0F68181EF8271
:1009E00043ED83C4AC8585AB8647A987888A4409D3
:1009F0008748189858189858585818894A160C88D3
:100A000013CD88110DC7110CC71226472B2D023F9D
:100A10003F003F3F003F3F003F3C422C6C442B6B6C
:100A2000452B6B452BAB452AAA462AAA462AEA46FD
:100A300029298728A78926A2CE22E1CF21E1CF212B
:100A4000E1CF21E1CF21A1CF22E2CE219F115E1D76
:100A5000535C1C1400C0FFC0C0FFC0C04E840A65B8
:100A60008B8C648BCA678909A88848680941228FE2
:100A70008F228FCE248F0E638D8D238D4E555A1B62
:100A8000555B9D125E54034893C50A92C70992C7ED
:100A900009D2C8081109479009478E09474E4848AE
:100AA0000C864949C64687C6460686450DC605D901
:100AB0008605DA8605DA8605DA8506DB8307E68BA6
:100AC00025668B27A78A26D7860995C70951084925
:100AD0008E080106D10E05D10E45D00E45CF0F452B
:100AE000CE10C5CC10050C4F050B50050A51050A58
:100AF00051050A51050A51050A51450A50C50A4FC8
:100B0000044A4F034B4E434B4E820C8E4E228F4F66
:100B1000218F0F1500C00D8E0D648C8C658A8AE6BE
:100B20000A82D7098396094796094A94090A930BC2
:100B3000CB520B8C500D4DCF2224CC2424CC241925
:100B4000C60519C60558C80457C80497CB01161E18
:100B50009210638D4C658BCC248DCD238E8E228E8E
:100B600091DF5213DD5415DC5414DC54D49C1482F0
:100B70008E15838E15448C16054B16418407D603BB
:100B8000030848160F46171044181142192C442C1C
:100B90002C442C09432008461E07481D464D188644
:100BA0004E16855015459210C4950C04D50B44D5AE
:100BB0000A43D60A82578A4A658BCC248C8EE24E31
:100BC00011DD5353DC5392DE52120F0080CF52D10D
:100BD000DF515020904F218F4F218F0F218F0E62B8
:100BE0008B0B658C0D228F51DE53939C55D7595832
:100BF0005A555BDB145C9D135D1E515A5B545B19A7
:100C00009758189858579957189858D89819014BC9
:100C100002960743D50545D3044792044853024A38
:100C20009F125E9E125F01855819985858995797E0
:100C30009957D69A5515DC5494DC53521E908D6406
:100C40008A08E986C1FFC0C0FFC0C0FFC0C0FFC0A6
:100C5000C0BF40C0FFC0C0FFC0C071854A658B4D9A
:100C6000234D86CD0D88CD0D88CD0D08CD0EC98EB6
:100C70000D8A8E0D8B8E0D4B8E0D4C8E0D0B8E0EA8
:100C80008C4E0E0E4E0F8F0E1090CE22E1CF205EB6
:100C9000925696995695555AD8985554DC53939D2B
:100CA000110392118512144999589B555A5A975914
:100CB000D79A56D59B55959B5617CB02D989034C8D
:100CC000830A038C0709C904868808488904878B2E
:100CD00008C28D0449D9010A668CCC248DCFA15558
:100CE000959B5687834C07440D045007564F079732
:100CF0004D07578C07D48C0596CA0396C903969A5C
:100D00005684835082498BCA678909A709C05F89C5
:100D100009A78808A88808A78847A88707A8874838
:100D2000658B8BE50A85D30A86D20A87D10A87D0DC
:100D30000B0847024E4D09960C0BD88B25E68C25E7
:100D4000A78A26A68A27E60A0E554B0C948C0754D0
:100D50008C07948C08D28D0711CD0710CD0710CDCC
:100D60000711CC0751CD0690CE04D0218F8D658B15
:100D70004A668A0B658B0C638C0C644CC30D4CC5A6
:100D80000503CD13068C024607420C454B1B854BD1
:100D90001AC54A1A058A19858919C48918C4891877
:100DA000C48917044A0B888B048A8607C54A0A86B9
:100DB0008906098A05C68A0985860749CB1088CC29
:100DC0000F480B4E860B4EC60B4DC8094CC70C4A3C
:100DD000C70E48C710458867894B648A0A2100C03E
:100DE0004589C86789C8A80884990845990806995B
:100DF00008C85808CAC602C8C712C8C6130903558E
:100E00006050110A901088910EC6930C85D40A8404
:100E10001545045741446C8BCB98028B97048C95F5
:100E2000054C93080C9209CC520B0C510ECCD020DF
:100E3000A00E1BC50D0A4FC205C9040F844C09033F
:100E40004406C44C08824603058A49C54A49864A75
:100E5000494849490949494AC90A90890CD1490C6C
:100E600094490C954905C18613C40D0982D202C765
:100E7000A98605EC84C4EC4444C608834D05C944E6
:100E800001434C068F86054745104549085A4908D5
:100E90009A480919880898C707C84309465006C7E1
:100EA0000746048506865304054845048704C5544F
:100EB00004044845448704C45404C50845C447068F
:100EC000864803C64606084406C84506DE4209E9C8
:100ED000472929470D98480BC7034B824705079FB1
:100EE00003C5FFC000FF003F003F3F003F3F003F02
:100EF0003F003F3F003F3F003F3F003F3F003F3F3D
:100F0000003F3F003F3F003F3F003F3F003F3F006B
:100F10003F3F003FFF00256C452B6B462BAB462A1D
:100F2000EA882865CC24E3CE22A2CE2263CD2324F6
:100F3000CC2463CD23E3CD22E1105F9C9557D3DD14
:100F400052D1DF51912090CE238DCD238D0DC641FE
:100F5000CD8444569A57179958D8585999575A5A80
:100F6000565BDC145DDFD121E1CF2162CE2363CD5E
:100F70002363CD2363CD2363CD23E2CE219F515A3A
:100F80001898581898581898581898589818180574
:100F90001160E0D021E1CF21E1CF21E2CE2161CE6D
:100FA0002262CD22E10F5C5C545B944342959B55D9
:100FB00056565ADB145C5D125FE38C25A58B262602
:100FC0008928A848292A462B2E013F3F003F3F0091
:100FD0003F3F003F3F002C3F003F3F003F3F003F6F
:100FE0003F003F3F003F3F003F3F003F3F003F3F4C
:100FF000003F3F003F3F003F3F003F3F003F3F007B
:101000003FA8452BEA47292988285A830B58850A87
:10101000578709558909148A0AD34B0B934C0BD374
:101020004C0BD24D0AD24D0A128E09529005939262
:1010300001559A5717995858985857D95794DD54CD
:1010400094DE5252DE5344C54A44C64943C749421E
:101050008988C7AA86C3FFC0C0FFC0007FC0C0FF89
:10106000C0C0FFC080FF40830882850683050585D8
:10107000060486078306C35510855410885210480D
:1010800052104A51104A51100A51100C5010CC10F5
:10109000104D10605F115FDE135D1D545C9C555B4D
:1010A0001A5802D2DE5291DF5213DD54D59B5515EA
:1010B000DB5454DC53D21E09450A42C98702044E50
:1010C0004A09484B09484B09474C09474C09464DCA
:1010D00009464D09454E0A444E5C145FA1CF226279
:1010E000CE2323CD2464CC2363CD23A3CD22A2CE53
:1010F00022A2CE2262CE236A462B6B452B2B452C97
:101100002C442C2B05006B452BAA462A298728A79F
:10111000892665CB23220E609F115E9E125EDE1231
:101120005D9C545A9A565A9A565A9A565A9A565AF0
:101130001A1660E1CF21A2CE2263CD23258B28E9A8
:101140004729E94729E94729E9472969472B2C44D9
:101150002C2C442C2C442CEC042DED032DED032DD4
:10116000ED032D2D033F3F003F3F003F3F003F3F3A
:10117000003F3F003F3F003F3F003F3F00003F0038
:101180003F3F003F3F003F34422CAB452AEA46290F
:1011900069872766CA23DF115DDD135DDD135DDD21
:1011A000135DDD135D1D136024CC24268A28E848D6
:1011B00029A9472AEA4629E94729688827E68A258E
:1011C000630D5F9B555A58985716DA54911F8ECD70
:1011D000A355D759595A565B1B555C9D135EDFD1F9
:1011E000212010605F115F5D535B5B555B5B555B5E
:1011F0005B555B9B555A57995715DB5454DC5392FA
:10120000DE52D1DF514F218F0F21901020901060BE
:101210005C9D135E5E125FDFD121E58B25A68A26D9
:10122000A68A26A68A26A68A2625CB24E2CE215B7C
:101230005512C2D751111F908F218E8E228ECE460D
:10124000455A565B5B555B1C545C5D531E828B2676
:10125000668A2754840F52860F118B0C1090080F4A
:101260009207C30348474802C6D54743C74706C647
:1012700047C884488984488A84488A84488A83493C
:10128000CA8249CA814A131E92102090CF218FCB67
:10129000E6C6C03F80C0FFC080BF0001ED8485EA84
:1012A0004602CA46C58946C689460649064294078B
:1012B0004C94074C93084C93084C93084C92094C5F
:1012C0008D0E8C8C0FCC8B0E0FC70FCEC70C4E071C
:1012D0004B8D074B8C074BCC064C0C454B4C454B70
:1012E0004B444C8D424C9A565ADA5759DA565A1991
:1012F0009759D7995645448CCB658AC9678909A700
:101300008908A888C8688949678ACB258CCE20516E
:10131000840752060553C9C31422CD23E48B2465E8
:101320008827A68A26210F605F115FDE125D5D535C
:101330005BD858599C145E5E125F1F1160201060CC
:10134000E0D021E1CF212010609F115EDE125D1DF3
:10135000535C5B9557D69A5594DC5291DF52D5DB9E
:1013600021A2CE2263CD23E48C25668A27678927B4
:10137000678927678927A68A26E68A2525CB24A49C
:10138000CC22610F5F1E1260A1CF2223CD24E48CFA
:1013900025288828E94729E94729E94729E94729EC
:1013A000298728E7892564CC2363CD2363CD236374
:1013B000CD2363CD23668A272888283F003F3F003E
:1013C0003F3F003F3F003F3F003F3F003F3F003F68
:1013D0003F003F3F003F3F003F3F003F3F003F3F58
:1013E000003F3F003F3F003F3F803728812FE7020B
:1013F00004660202820325430102668201A0050100
:10140000E70401680301814127C14128A9022EAEEA
:10141000022E2E82095D020986011D4901061D82E8
:10142000095D02094101041D82091D82095D02094D
:10143000410104DD020981041D0943019D8207DD8C
:101440008206DD82065D0206410701DD82065D023D
:1014500006670206410701DD8206DD82065D020D98
:1014600020420D1D420D1D420D9D020F9D020F9D3C
:1014700008099D08099D08099D08095B040181036D
:10148000099B010141030109421B42020107441B60
:1014900041030107441B45010A1B81010A811B0C02
:1014A000811E09411F410308A00501870124410253
:1014B00006650406660306670206670206670206FB
:1014C0006702063F003F3F003F3F003F3F003F3F76
:1014D000003F3F003F3F003F3F003F3F003F3F0096
:1014E0003F3F003F3F003F3F003F3F003F3F003F47
:1014F0003F003F3F003F3F003F3F003F3F003F3F37
:10150000003F3F003F3F003F3F003F3F00213F0083
:101510003F3F003F3F003F3F003F3F003F3F003F16
:101520003F003F3F003F3F003F3F003F3F003F3F06
:10153000003F3F003F3F003F3F003F3F003F3F0035
:101540003F3F003F3F003F3F003F3F003F3F003FE6
:101550003F003F3F003F8F0207A50207E502470F0C
:10156000874748040349010382820408410141017D
:1015700009C34405420108414101C811010A41045F
:10158000CF010443030A8401018F060649020402C5
:10159000410FC80307830202DA0406C4010217419F
:1015A00001460304C201015506068181031441016D
:1015B000860101824A148601018B4114860101844F
:1015C00048140684041441018601018449138601EC
:1015D00001440913410406418204190000860101F7
:1015E00044091F4182049F0101440325C20104658F
:1015F0000201840325C10104650201840325C101A0
:10160000046502014404240241045C0206414204D0
:101610001944068445174644041546084446128B6F
:10162000440410450DC40C0912C204890114844CF1
:1016300009CF82040A81048806060D4D0848C50AB0
:10164000884309890D09490203090C4BC902029517
:101650000B09018418C90619840109824216430244
:1016600009410201D48101490203540C0A440114C6
:1016700081450F54061041020114410110461650D5
:1016800001045602014E0101810B0F01810E41023E
:101690000141410E8E410141020141410ECE0F0D2B
:1016A00042010E014D0DC1011A0D461A8B04011A9B
:1016B000440B42411A4A04029A4608014219014267
:1016C0000783031B014206C2051A41C2448A06036E
:1016D000410101410201058D0D8301010144019A7F
:1016E0000704014201DE47014241218105026442B3
:1016F00002820124C2010142C1071082028701084F
:1017000052020241030A438B0E8A010288030D43F1
:10171000040A0241098C42014A01020345014C02BC
:101720000101440A830A0C41060A42C1030942032B
:101730004A0102830D0942050A0281034184094AD4
:101740000102840302418409CA0102410102C2026A
:1017500002894908C40702DA0101430101C40202F7
:101760001AC9015A060246471AC3410141041A41E7
:101770000303028342C80E01014E034A03034209D8
:101780000186010243040A410202460202014101AC
:1017900081010243040A410202C701024101020120
:1017A0004610820106044101C1C6104102014101F7
:1017B00002014101904201410801410401820310EC
:1017C000414102420402C60201500201C3060182E5
:1017D0000C11810103810702830302510102C30638
:1017E0000142020443040F81020301030040030984
:1017F00042050F41820343050102054F4701018263
:101800000311490504810B0FC945018403114906E1
:1018100001410105810311C9020141010184051241
:10182000094202414102940209420102810715491D
:101830004202C205148982049403098182014C0981
:1018400001C7070144840BC901010143064B490943
:101850000141088C420F8A040B0F450BDC01014B40
:10186000441C8C031E4D031F4D041E4E432DD0847B
:10187000170AC516890301960203430109C104161C
:10188000410202410208014218840101C805178182
:10189000030308861682420814C10148010181C170
:1018A000154802029541014402080282158401098B
:1018B000420115810B090182178C010297080C4225
:1018C0000315C4820CCBCF0AC804088A0F088A0209
:1018D0000B840908430B09820C08840701890F084F
:1018E000C40A09D244040C4510C401020F450E84F9
:1018F0004611CB4404124609844516074404194591
:1019000006C4041B064404D90101460404424119DB
:10191000064404D9010186040441411986040441A6
:101920004119860101444419860101840101D9014C
:101930000186010144410156050641420441011658
:1019400041030601420441061D01420401441F04F3
:101950004A1E044301A00101044301A001014B01FF
:101960002041101E410104024101600304C2010133
:10197000DA0106044102DB0106C20302DB0206C4EF
:1019800001018D01014B020884440E480308440301
:101990000FC1070548410110440383430891010129
:1019A000034909558203CBE64C3F003F3F003820F6
:1019B00010602010602010602010602010605E1207
:1019C0001E01C2025E121E8182041E521E87075E25
:1019D0009E010189055E9E010189451E4804200B78
:1019E000442C6C442BAB452AEA4629288828E68AF1
:1019F0002564CC23E2CE21DF115D5C145F62CE232F
:101A0000E48C25A58B26A68A26678927678927E681
:101A10008A25A4CC22210F605D131DC1115DC60271
:101A200055C50454420714C11301424253420203F4
:101A300056110483C55352110281050253100281CD
:101A40000101810102538D01810102930D014502C3
:101A50000282C212C10203820102920D02430101FD
:101A6000830102910D03820101820102910E024263
:101A70000102830102900E03C10C4C420203410398
:101A80000102424A43020242010282020A82110218
:101A9000420102C202014717038201020201828150
:101AA0000101810103810201C2C802428301820156
:101AB00001020742C202030145014202040151032F
:101AC000410102C1480281110303840142C705C4D8
:101AD000020341410242030141014104C2034207A2
:101AE00041850202810106420204C2100401C506BA
:101AF000C24F0242AC8481010A0A054143010145FB
:101B000003014CD4034C1403434551030359C1044E
:101B10005BDDD02061CF2263CD23640B10940B0FCB
:101B2000D50A0ED30C0D9481010CC3154B030293FF
:101B300081018A0302D30C0902C214880302D50C66
:101B400007420216C10A0602C217850302988101E4
:101B5000840302D90D02C2C21C02C21C8102029C73
:101B600010015D125E1E115F8E01508C02508BC3FE
:101B700010CEC3104D030FC10F0CD0110BD1C101FA
:101B80004A0352490353480354470315C10F0656ED
:101B90001917414F035A50015A4E0181C11A02438D
:101BA0000218CD025511024107540241014202536D
:101BB000C206028E120142040182044C8242028457
:101BC000034B820202C10203C1414B410202C346E0
:101BD00045820301C24103C2C8C243050243110149
:101BE000811601430301C35A01C1030201810304A9
:101BF000CE0141030143030444174281C401C306DB
:101C000002C1C102410E0381010142030181D001E1
:101C1000430602810301024102C10242C38202C2A1
:101C20005C02C1034CC2420241050B830F01410813
:101C30000141030B435901CE550553DC1480CF14E9
:101C4000014302184E01C1C11A410658420515410F
:101C50005202551501410414015B5346041241120E
:101C600001C40101931403424351C30104501305FD
:101C700005434EC501064D140587434BC104084A70
:101C8000170389824B0A414D9F125FA09120810367
:101C900001A0090242821F820302DF0803C2421F21
:101CA000840302DE0705C2421D860302DC0707C269
:101CB000421B880302DA0709C242198A0302D708C5
:101CC0000B8281154CC314CD83154E83160F8217DA
:101CD000108118E9472AE74101670A26C14A26828E
:101CE000832382831F4341025510030341014F1494
:101CF0000341494E42010345030C431403C101054E
:101D0000885402C1810101A507C2C202C201028139
:101D10000241C15981C20101420103424F430142C4
:101D200003410501810101044E0242010401A701A2
:101D300042C141430506020A45C203018401020172
:101D40008202C20F02410101440102018302C20F5B
:101D500001424101C20201C71401410201430102D3
:101D600042020A83140142020281030A02910182A3
:101D700001024C140145010301034F410802C2C294
:101D80001141010341010381C311C1010482010218
:101D9000520E01440101C20101520E01440202022D
:101DA000C214410104C40101540C018405021592BE
:101DB00001550F0283010295100183C118820402AC
:101DC000D70F04C1C118060357201060201000551A
:101DD000012F850228018102E0921D8341014E8E70
:101DE00001C10615C281020341014C0B024282016E
:101DF000810715C24102C34103C10210C241420C16
:101E0000648A014289095401C9050B0101418B040F
:101E100001490201C10C014A41014B0501C14C0AB3
:101E20000E480141030A810301524C0A58490A59DC
:101E3000480A178101CA0101574A0A1781018A011C
:101E400001580A26018828E7492581432AED032DF8
:101E5000ED032D2B4507E0010147451F47051F41B5
:101E6000430741421C47471D87471D850601DCC1CA
:101E7000015F111F41CD2165092841012D41012D2F
:101E80002F412E2D013F3F003F3F003F3F003F3F8E
:101E9000003F3F003F3F003F3F003F3F003F3F00CC
:101EA0003F3F003F3F003F3F00313F003F3F003F8B
:101EB0003F003F3F003F3F003F3F003F3F003F3F6D
:101EC000003F3F003F3F003F3F003F3F003FBF001C
:101ED0002B6E01036B062A034104630E220381016A
:101EE000A28103A0105E1E01415E121E81105E9E43
:101EF000125E1E01415E121E81105EE0D021A48C94
:101F00002666CA235F0103420A20C28101600201E2
:101F1000820A20410D1D4183051EC402194103039D
:101F20008C1A034B1B411021420C21810D5E50C1C4
:101F300042502010011E9010209090C1415020105E
:101F400081DE528F210EC11F8D121E0053DD5314EE
:101F5000DC54959B56D75959DB155D5E125FE0D076
:101F600021A1CF22A2CE2262CE23E3CD2161C101E5
:101F7000610F21C1CD21E1CF2161C101610F21C1DB
:101F8000CD21640C1DC7C32105421B410101C101C4
:101F900001C4015E5F010885011F4F021E3F003F23
:101FA0003F003F3F003F3F003F3F003F3F003F3F7C
:101FB000003F2E422C6B452B944610D241014E8798
:101FC000124D081241890A12CE0492DE5212C1410A
:101FD000521E1201DC54D49C5558D8535581414FA0
:101FE000615B1B555CDC145D9D135E5F115F5F11CF
:101FF0005FE0D021A20E1D81501D4182011D0241D2
:10200000610102424103214104420421C501056EE0
:10201000022C01422CAC01012C442C6C042C0142FA
:102020002CAC0101EE022DA40C23018101224E2CC7
:10203000AB051DC1105D1D0241298728A78926A96E
:10204000472A2B452C2A41016A062A81442A2A4123
:10205000016C442BA2020141C823A4810122850105
:10206000E44104248103688827E68A25620E2281E0
:10207000CC2222C101A2CE22620E2281CC228A026F
:10208000090BC1018A02098B0E0B830103CE0C0CD4
:10209000C1010147540E47160F41010F820C09C1BF
:1020A000240A410101410B0181100941241D03C192
:1020B0000254020782D01301C10194820101C101BF
:1020C000550107420101814C5A9A860658581782D9
:1020D0008503968E02161A55810A15818D01950782
:1020E0004295074255C201010A55818A56929202D1
:1020F0004F41078285034E220F8A86068F8116DEA6
:10210000121FC1810159171D830F1C088A585917C6
:102110001D410104C10A1D430D1F06CA24A48101EB
:10212000640C2401CA2424CC24A48101640C24015D
:10213000CA24A68A26E54B24C24322430423C103B2
:1021400005EC042DEC042DEC042DEC042DEC042DF9
:102150002C442C6C442B6B452B6B452B2B85286812
:102160000829818526A64A2A288828E64102660A87
:1021700026818826A68A26268101660A26C2472944
:10218000EA8625260A00A789266A462B6B452B2B53
:10219000452CED032DED032DED032D2D432C2C446B
:1021A0002C6B452BEA4629E9071A8B081941141AAA
:1021B000410201C10F18C1141AC98A25630D2341B8
:1021C000CB23E3810163CD23630D2341CB23E38143
:1021D00001A38D26A7492A6B452B6C442B6C442BFD
:1021E0006C442BAB452AEA4629688827A78926E64E
:1021F0000A1E810E1D81101DC1105DDDD3215D0100
:10220000415D131DC1115DDD135D5D01415D131D58
:10221000011160A1CF2263CD2324CC24E58B25E5D9
:102220008B25E58B2525CB24640C20014E1F81CC0A
:1022300022A3CD22A0C101601020010E60201060F9
:10224000A0C10160102001CE24A7C9226401014170
:102250000824018101630D258141026B452B2C442B
:102260002CD30317124812D008150F4B120E4B1423
:102270008C4E118A4E1308911085D15351DE535262
:10228000DD5492DD5392DC5312DB5514D956549829
:1022900058D6575818D756944141581A1601945A8F
:1022A00058965AD701415BC7025A4101C14C1C42A2
:1022B0004F1A420B1984C501D48D019AC10B568463
:1022C000081BC10A5B8802DB8A02558E0117C20116
:1022D000C10B14018C0216C301C28954955E5200D1
:1022E000C55594DB5513DB55D49B56D59A57D699D3
:1022F0005816D95956575C9C1619419755D74341E2
:10230000951A17419A5419595B5A171941945A173B
:102310009759584141595B57DAC30698830955C804
:1023200007530906414B18874402570609C346164E
:10233000CB48164B4101D6480BD5490BD44A0B5319
:102340000B0BC184144B8616CD4319AA462A6B4544
:102350002B2C442CEC042DED032D2D852A28CA2589
:102360001CC1075A5917430F1B01414296020181B4
:10237000101A411618C1545A551A16C19B5315DE2E
:102380005254C14151DE5447010981DE03411F050A
:10239000810101820182430101C1C3C1407F8043A9
:1023A0006F6E74696E7565005475746F7269616CD7
:1023B000004C6576656C2031004C6576656C20328A
:1023C000004C6576656C20340003053F213F120800
:1023D000120A100A0E1C0E0C1E0C141A14161F16CC
:1023E0001E131E1E1B1E1E1F1E3F213F3A2F3A1793
:1023F0003D173F213F181F02040A041F0E04040E5C
:102400001F0A1F0A0E0E1F04110E2E252E2F2A2E14
:10241000262929021F02081F08150E04040E150E96
:1024200015151B151B040604040C040000000017FE
:10243000000300031F0A1F16371A1904130A153A5E
:10244000000300000E11110E000A040A040E04001D
:1024500030000404040010001804031F111F121F91
:10246000101D151711151F07041F17151D1F151D0A
:1024700001011F1F151F17151F000A00003200045D
:102480000A110A0A0A110A040115020E11171E0583
:102490001E1F150A0E110A1F110E1F15111F05010F
:1024A0000E111D1F041F111F1108100F1F041B1FE9
:1024B00010101F061F1E040F0E110E1F09060E110D
:1024C0002E1F051A121509011F011F101F0F180FCB
:1024D0001F0C1F1B041B031C03191513001F1103E2
:1024E0000418111F000201022020200001020C121A
:1024F0001E1F120C0C12120C121F0C1A14041E05B3
:10250000242A1E1F021C141D1020201D1F08141138
:102510001F101E041E1E021C0C120C3E0A040C127C
:102520003E1E040214160A020F120E101E0E100E8A
:102530001E081E120C1226281E322A26041E2100F6
:102540001F00211E040102013F213F0A4E6F20534C
:10255000442063617264206F720A6E6F204C4F4199
:102560004445522E4845580A0A153A457869740080
:102570001D20466C617368696E670A20206C6F616C
:102580006465722E2E2E0A0A444F4E27542054554D
:10259000524E204F464621006D560A0A504C454186
:1025A00053450A5455524E204F4646004C4F572033
:1025B000424154544552590A00177361766500161A
:1025C0006261636B001574797065000A0A0A153A36
:1025D0006F6B617920163A6564697400596F7520D4
:1025E000656E74657265640A00540A03E181867F32
:1025F0003E186D830F0F0E0183866033186DC3196B
:102600008F1803C38E6033186DE330CF1803C39E59
:10261000603630CDE360CF3006C79E7E3E30CDB30E
:1026200060CF300CC6F6603330D9B660CF33CFCC34
:10263000F66061B0DB1E60CF30D86CE6C061B0DB05
:102640001E618F19986CC6C063B19B0E330F0FB01B
:1026500078C6FF7E1F1B061E0F1753440016137803
:10266000001613140015102000152010000000059E
:102670000089300802380249786814000045006873
:1026800001000005006801380100000500380168FC
:10269000010000F6E8DBCFC3B8AEA49B928A827B30
:1026A000746E68625C57524E4945413E3A37343148
:1026B0002E2C29272523211F1D1C1A191716151426
:1026C000131211100F0E0D0C0B0A09080706D22663
:1026D000D6260101F7030101FF03000000002400DA
:1026E00027002A0000000000250028002B00000021
:1026F0000000230026002900040404040404040448
:10270000020202020202030303030303010204089C
:10271000102040800102040810200102040810204B
:102720000000000700020100000304060000000092
:10273000000000003215093211241FBECFEFD8E08F
:10274000DEBFCDBF11E0A0E0B1E0EAE0FFE602C0ED
:1027500005900D92A632B107D9F714E0A6E2B1E0D8
:1027600001C01D92AD38B107E1F717E2C8E3D7E227
:1027700004C02297FE010E947F37C433D107C9F7F6
:102780000E945F320C9483370C940000FC01742F7C
:10279000643508F05DC047FD5BC040330CF058C0A5
:1027A000878D823019F5842F859585958595992794
:1027B00087FD9095462F552747FD509524E530E03D
:1027C000829FF001839FF00D929FF00D1124E40F82
:1027D000F51FE452FE4F808190E0272F277002C042
:1027E000959587952A95E2F780958170972F959515
:1027F00095959595462F552747FD5095272F27707E
:102800008823A1F4E4E59E02F0011124E40FF51FF2
:10281000E452FE4F81E090E002C0880F991F2A9594
:10282000E2F780952081282320830895E4E59E0225
:10283000F0011124E40FF51FE452FE4F81E090E017
:1028400002C0880F991F2A95E2F72081282B208348
:102850000895BC019093DB018093DA016F5F7F4F95
:10286000FB018491615070408093D801FB018491F9
:102870008093D901CB010496FC01259135914591B6
:102880005491FB01389685919591A591B4918093CF
:10289000C2019093C301A093C401B093C5012093DA
:1028A000BE013093BF014093C0015093C101AEEA15
:1028B000B1E0EEEBF1E088E001900D928150E1F79C
:1028C00080E090E0A0E0B0E08093CA019093CB015B
:1028D000A093CC01B093CD018093C6019093C70122
:1028E000A093C801B093C901A6EBB1E0E6ECF1E01A
:1028F00088E001900D928150E1F780E090E0A0E047
:10290000B0E08093D2019093D301A093D401B0930F
:10291000D50181E090E09093CF018093CE01109299
:10292000D1011092D0011092D70108954F925F9279
:102930006F927F928F929F92AF92BF92CF92DF92CF
:10294000EF92FF920F931F93CF93DF93482E562E53
:10295000642E722E802EF6018491E601229699272C
:1029600087FD9095079668E070E00E942D37962EBF
:1029700000E080E8A82EB12C2BC0E82F87FDE95F8E
:10298000E595E595E595FF27E7FDF095EC0DFD1D37
:10299000EC0FFD1FE4912E2F30E068E00E940C3711
:1029A000A50102C0559547959A95E2F72423352352
:1029B000232B39F0612F640D84E791E04F2D0E94A5
:1029C000C6131F5F812F880D1615BCF20F5FE394AD
:1029D00007154CF45E2D892D58026001112410E07A
:1029E000F02EF50CEFCFDF91CF911F910F91FF905B
:1029F000EF90DF90CF90BF90AF909F908F907F909F
:102A00006F905F904F900895CF92DF92EF92FF9278
:102A10000F931F93CF93DF937B01EA0100E010E057
:102A2000C82EDD2413C084E791E0F701608148815E
:102A30000E94C61388818F5F8883803328F0F70156
:102A400080818F5F808318820F5F1F4F0C151D05DB
:102A500054F3DF91CF911F910F91FF90EF90DF9092
:102A6000CF900895109277011092760181E191E064
:102A7000909375018093740180E090E0A0E0B0E055
:102A80008093AE019093AF01A093B001B093B101D8
:102A90008093B2019093B301A093B401B093B501B8
:102AA0008093B6019093B701A093B801B093B90198
:102AB0008093BA019093BB01A093BC01B093BD0178
:102AC0008093BE019093BF01A093C001B093C10158
:102AD0008093C2019093C301A093C401B093C50138
:102AE0008093C6019093C701A093C801B093C90118
:102AF0008093CA019093CB01A093CC01B093CD01F8
:102B000008957F928F929F92AF92BF92CF92DF9261
:102B1000EF92FF920F931F939B01FA01449131961C
:102B20001491319694903196A49031967490319688
:102B3000849064E570E00E942D37B92CB80EB41A69
:102B4000C90160E370E00E942D37FA2CF80EF11AEB
:102B500084E791E060E00E94C01F8B2D6F2D472D10
:102B6000282D092DEA2CF4E8CF2EF4E0DF2E0E9468
:102B7000961484E791E061E00E94C01F8091D60125
:102B8000882349F08B2D6F2D472D282DE2E8CE2E7E
:102B9000E2E0DE2E0AC08B2D6F2D472D282D092D4A
:102BA000EA2C76E8C72E76E0D72E0E9496141F9165
:102BB0000F91FF90EF90DF90CF90BF90AF909F90DC
:102BC0008F907F9008955F926F927F928F929F92E5
:102BD000AF92BF92CF92DF92EF92FF920F931F932B
:102BE000CF93DF93782E662E542EA090AE01B09036
:102BF000AF01C090B001D090B101E090B201F0906F
:102C0000B3010091B4011091B5010AC0C801B70128
:102C100020E030E040E452E40E94E1337B018C018B
:102C2000C801B70120E030E040E050E00E944534A8
:102C300087FDECCFC601B5010E94B4345B016C0185
:102C40004B01C801B7010E94B4347B018C01EB0138
:102C5000C501B70148E858E00E948115772031F09E
:102C6000C501B7014EE858E00E948115662031F099
:102C7000C401BE0144E958E00E948115552031F09D
:102C8000C401BE014AE958E00E948115DF91CF914D
:102C90001F910F91FF90EF90DF90CF90BF90AF907A
:102CA0009F908F907F906F905F9008952F923F92AA
:102CB0004F925F926F927F928F929F92AF92BF924C
:102CC000CF92DF92EF92FF920F931F93B82E662E52
:102CD0002090AE013090AF014090B0015090B10112
:102CE000E090B201F090B3010091B4011091B501F0
:102CF0000AC0C801B70120E030E040E452E40E947D
:102D0000E1337B018C01C801B70120E030E040E0F5
:102D100050E00E94453487FDECCF6091D201709164
:102D2000D3018091D4019091D50120E030E040E8BA
:102D300051E40E94DD352BED3FE049EC50E40E9468
:102D40004C3420E030E040E05FE30E94E1330E9439
:102D5000B434DC01CB0160E170E00E942D379C01AE
:102D6000880F991F820F931F9C01220F331FF901B7
:102D7000E252FE4FD490F901E152FE4FC490BB20C5
:102D800049F47D2C7A948C2C8A9463E0962E53E03F
:102D9000A52E12C0FC01EE0FFF1FE052FE4F7490F3
:102DA000F901EF51FE4F8490F901EE51FE4F9490DE
:102DB000F901ED51FE4FA490C201B1010E94B4345B
:102DC000DC01CB0164E570E00E942D37B82EBD1800
:102DD000B70CC801B7010E94B434DC01CB0160E339
:102DE00070E00E942D37182F1C19180D84E791E010
:102DF00060E00E94C01F8B2D612F492D2A2D072DC9
:102E0000E82C94E8C92E94E0D92E0E94961484E709
:102E100091E061E00E94C01F662049F08B2D612F78
:102E2000492D2A2DB2E8CB2EB2E0DB2E0AC08B2D25
:102E3000612F492D2A2D072DE82CA6E8CA2EA6E0E1
:102E4000DA2E0E9496141F910F91FF90EF90DF9061
:102E5000CF90BF90AF909F908F907F906F905F903A
:102E60004F903F902F900895E091CE01F091CF01C7
:102E7000309721F4622F0E9456160895319711F46D
:102E80000E94E31508958F929F92AF92BF92CF92C6
:102E9000DF92EF92FF920F931F93DF93CF9300D0B7
:102EA000CDB7DEB7A090B201B090B301C090B4012D
:102EB000D090B501C601B50120E030E040E050E01F
:102EC0000E94453487FD90C0E091DA01F091DB016A
:102ED0003296E590F490C601B50120E030E040E480
:102EE00052E40E944C340E94B4342091D90130E065
:102EF000629F8001639F100D729F100D11246091DD
:102F0000AE017091AF018091B0019091B10120E0CC
:102F100030E048EA52E40E944C340E94B434FB0191
:102F2000E00FF11FEE0FFF1FEE0DFF1DC590D490B7
:102F3000C114D10409F458C084E791E061E00E9413
:102F4000C01F19821A82A2E08A2E912C8C0E9D1E1F
:102F50005E010894A11CB11C43C0F601F4900894D2
:102F6000C11CD11CF60114910894C11CD11CF6019E
:102F700004912F2D2F738A81280F822F60E30E94E6
:102F80000037380F3983822F0E9400379A83812FB0
:102F90008F73B501A4010E940415302F3F738A81FD
:102FA000380F2981832F60E30E940037280F29837F
:102FB000832F0E9400379A830894C11CD11C12955C
:102FC0001C70069506950073102BF294F694F694F7
:102FD000F3E0FF22812F8F29B501A4010E9404157F
:102FE0003981343508F4B9CF0F900F90CF91DF912C
:102FF0001F910F91FF90EF90DF90CF90BF90AF9017
:103000009F908F9008956F927F928F929F92AF9230
:10301000BF92CF92DF92EF92FF920F931F93DF93B5
:10302000CF93CDB7DEB728970FB6F894DEBF0FBEAB
:10303000CDBFFC01E080F180028113816480758046
:1030400086809780C801B701A80197010E94DD35ED
:103050005B016C01C401B301A40193010E94DD3541
:103060009B01AC01C601B5010E94E1330E944A36C2
:103070005B016C01C801B701A60195010E944C34A7
:1030800069837A838B839C83C401B301A601950174
:103090000E944C346D837E838F83988729813A8187
:1030A0004B815C816D817E818F81988528960FB6DA
:1030B000F894DEBF0FBECDBFCF91DF911F910F916E
:1030C000FF90EF90DF90CF90BF90AF909F908F9048
:1030D0007F906F9008952F923F924F925F926F92E0
:1030E0007F928F929F92AF92BF92CF92DF92EF9298
:1030F000FF920F931F93DF93CF93CDB7DEB7E09787
:103100000FB6F894DEBF0FBECDBF3C018B018435F6
:10311000910508F087C1603371050CF083C1CB01C4
:1031200068E070E00E942D3784E590E0689FF00130
:10313000699FF00D789FF00D1124E60DF71DE45204
:10314000FE4F808190E098012770307002C0959505
:1031500087952A95E2F780FF65C180E090E0A0E0C6
:10316000B0E089839A83AB83BC838D839E83AF83D6
:10317000B88758010894A108B10888249924CC2460
:10318000CA94DC2CC301019798AB8FA790E3A916D2
:10319000B10408F091C0C50187709070A1E0B0E063
:1031A00002C0AA0FBB1F8A95E2F7BAA7A9A7C5015B
:1031B00068E070E00E942D37E4E5F0E06E9F80014A
:1031C0006F9F100D7E9F100D11242FA538A9020F9F
:1031D000131F04521E4FEE24EA94FE2C16014424C1
:1031E00037FC4094542CC701860D971D84359105FA
:1031F00008F058C0E114F10421F4C114D10409F419
:1032000051C0D8018C9190E0E9A5FAA58E239F23A7
:10321000892B09F447C0B701882777FD8095982F3F
:103220000E94E73469877A878B879C87C201B10146
:103230000E94E7346D877E878F87988BCE01099631
:103240000E94031829A33AA34BA35CA36DA37EA3FA
:103250008FA398A7DE015196FE01B19688E00190F8
:103260000D928150E1F769817A818B819C81298956
:103270003A894B895C890E94E13369837A838B8325
:103280009C836D817E818F8198852D893E894F89B0
:10329000588D0E94E1336D837E838F8398870894D5
:1032A000811C911C0894E11CF11C0F5F1F4FF2E080
:1032B000EF16F10409F097CF0894C11CD11C22E04D
:1032C000C216D10421F00894A11CB11C5FCF89283B
:1032D000A9F480E090E0A0E0B0E08093BA01909380
:1032E000BB01A093BC01B093BD018093B601909344
:1032F000B701A093B801B093B90189C0CE0101967E
:103300000E94031829A33AA34BA35CA36DA37EA339
:103310008FA398A7DE015996FE01B19688E001902F
:103320000D928150E1F7698C7A8C8B8C9C8C97FA8A
:10333000909497F89094ED8CFE8C0F8D18A117FB4C
:10334000109517F910958091B6019091B701A09151
:10335000B801B091B9018BA79CA7ADA7BEA72090DB
:10336000BA013090BB014090BC015090BD01BC013E
:10337000CD01A40193010E94DD355B016C01C20106
:10338000B101A80197010E94DD359B01AC01C60186
:10339000B5010E94E1339B01AC010E94E1335B0166
:1033A0006C01C801B701A60195010E94DD359B01A2
:1033B000AC01C201B1010E94E0332DEC3CEC4CE4C5
:1033C0005FE30E94DD356093BA017093BB01809387
:1033D000BC019093BD01C401B301A60195010E94F7
:1033E000DD359B01AC016BA57CA58DA59EA50E943A
:1033F000E0332DEC3CEC4CE45FE30E94DD35609360
:10340000B6017093B7018093B8019093B901AEEA09
:10341000B1E0EEEBF1E088E001900D928150E1F730
:1034200081E001C080E0E0960FB6F894DEBF0FBEE9
:10343000CDBFCF91DF911F910F91FF90EF90DF9063
:10344000CF90BF90AF909F908F907F906F905F9044
:103450004F903F902F9008950F931F93CF93DF933A
:103460006091AE017091AF018091B0019091B10176
:103470000E94B434DC01CB0164E570E00E942D377A
:103480008C016091B2017091B3018091B40190916F
:10349000B5010E94B434DC01CB0160E370E00E940E
:1034A0002D37EC01C801BE010E946B18882399F4E6
:1034B0008091CE019091CF01019769F42396C801C4
:1034C0000197BE010E946B18882329F4C801019658
:1034D000BE010E946B18DF91CF911F910F9108954B
:1034E000EF92FF920F931F93CF93DF93EC017B0139
:1034F0008A0180E391E064E041E00E947A1F882322
:1035000019F481E08093D70160910701709108015F
:103510008091090190910A0120E030E040E050E004
:103520000E94D935181684F58091D701882361F15E
:1035300080E391E063E041E00E947A1F882341F438
:1035400080E391E064E041E00E947A1F8823E1F08B
:103550001092D1011092D0016091BA017091BB011B
:103560008091BC019091BD012AE037ED43E25CE31C
:103570000E94E0336093BA017093BB018093BC0159
:103580009093BD0181E088836091070170910801EB
:103590008091090190910A0120E030E040E050E084
:1035A0000E94D93518162CF580E391E060E041E0E7
:1035B0000E947A1F8823E9F01092D1011092D00165
:1035C0006091B6017091B7018091B8019091B901F5
:1035D0002AE037ED43EA5BE30E94E0336093B601F3
:1035E0007093B7018093B8019093B90181E0F8011D
:1035F0008083609107017091080180910901909189
:103600000A0120E030E040E050E00E94D935181671
:103610002CF580E391E062E041E00E947A1F88236C
:10362000E9F01092D1011092D0016091B601709131
:10363000B7018091B8019091B9012AE037ED43EAD2
:103640005BE30E94E1336093B6017093B70180930E
:10365000B8019093B90181E0F7018083DF91CF91A8
:103660001F910F91FF90EF900895EF92FF920F93AB
:103670001F93CF93DF93EC016091070170910801D4
:103680008091090190910A0120E030E040E050E093
:103690000E94D93518160CF05BC080E391E063E01E
:1036A00041E00E947A1F882349F480E391E064E0BE
:1036B00041E00E947A1F882309F44AC01092D10188
:1036C0001092D001E090D201F090D3010091D4018A
:1036D0001091D501C801B7010E9440362AE037EDAC
:1036E00043E25CE30E94DD359B01AC016091B601D1
:1036F0007091B7018091B8019091B9010E94E133B6
:103700006093B6017093B7018093B8019093B901AB
:10371000C801B7010E9449342AE037ED43E25CEB6F
:103720000E94DD359B01AC016091BA017091BB0133
:103730008091BC019091BD010E94E1336093BA0178
:103740007093BB018093BC019093BD0181E088839D
:1037500080E391E060E041E00E947A1F882369F1F4
:103760001092D1011092D0016091D2017091D301D9
:103770008091D4019091D5012DEC3CEC4CE45DE3BB
:103780000E94E03308C0C801B7012BED3FE049ECCF
:1037900050E40E94E1337B018C0120E030E040E006
:1037A00050E00E94453487FDEECFE092D201F092C6
:1037B000D3010093D4011093D50180E391E062E03E
:1037C00041E00E947A1F882369F11092D101109282
:1037D000D0016091D2017091D3018091D401909178
:1037E000D5012DEC3CEC4CE45DE30E94E13308C0D4
:1037F000C801B7012BED3FE049EC50E40E94E033F3
:103800007B018C012BED3FE049EC50E40E94D9355F
:1038100087FFEECFE092D201F092D3010093D40162
:103820001093D501DF91CF911F910F91FF90EF90F1
:1038300008952F923F924F925F926F927F928F9254
:103840009F92AF92BF92CF92DF92EF92FF920F932F
:103850001F938C017B016A0180E391E065E00E9487
:10386000701F8823F1F020E030E08091CE0190912C
:10387000CF01892B11F421E030E03093CF01209368
:10388000CE011092D1011092D00180E090E0A0E032
:10389000B0E08093D2019093D301A093D401B09370
:1038A000D5018091CE019091CF01009721F4C801FC
:1038B0000E94351B07C0019729F4C801B701A60172
:1038C0000E94701A609107017091080180910901AE
:1038D00090910A0120E030E040E050E00E94453441
:1038E0008091D0019091D1010197B1F06091BA011E
:1038F0007091BB018091BC019091BD012AE037ED30
:1039000043E25BE30E94E1336093BA017093BB0131
:103910008093BC019093BD01A090B601B090B70117
:10392000C090B801D090B901C601B5012091AE0197
:103930003091AF014091B0015091B1010E94E1334B
:103940007B018C016093AE017093AF018093B00155
:103950009093B1012090BA013090BB014090BC011E
:103960005090BD01C201B1012091B2013091B3016B
:103970004091B4015091B5010E94E1333B014C01EB
:103980006093B2017093B3018093B4019093B50139
:10399000C801B70120E030E040E050E00E9445342B
:1039A0008823B4F4D801C701B0588093AE01909336
:1039B000AF01A093B001B093B101D601C501B058D9
:1039C0008093B6019093B701A093B801B093B90169
:1039D000E090AE01F090AF010091B0011091B10103
:1039E0008091D901C82EDD2484E590E0C89EB00105
:1039F000C99E700DD89E700D1124882777FD809583
:103A0000982F0E94E7349B01AC01C801B7010E94C6
:103A1000D935882364F188EA90E0C89EB001C99E38
:103A2000700DD89E700D1124882777FD8095982FF2
:103A30000E94E734A80197010E94E0336093AE0131
:103A40007093AF018093B0019093B1018091B60162
:103A50009091B701A091B801B091B901B05880938D
:103A6000B6019093B701A093B801B093B9018091CA
:103A7000D801082F10E080E390E0089FB001099F73
:103A8000700D189F700D1124882777FD8095982F51
:103A90000E94E7349B01AC01C401B3010E94D935F7
:103AA000882334F180E690E0089FB001099F700DF3
:103AB000189F700D1124882777FD8095982F0E94FC
:103AC000E734A40193010E94E0336093B201709344
:103AD000B3018093B4019093B501D201C101B058F4
:103AE0008093BA019093BB01A093BC01B093BD0138
:103AF00080E090E0AAE7B4E4809307019093080186
:103B0000A0930901B0930A011F910F91FF90EF90CC
:103B1000DF90CF90BF90AF909F908F907F906F90ED
:103B20005F904F903F902F9008958091DA0190918F
:103B3000DB01892B61F486E291E062EA78E044E0FF
:103B40000E94A427992787FD909501960AC086E2D6
:103B500091E060EA78E045E00E94A427992787FD7C
:103B600090958230910571F0833091052CF4009787
:103B700061F00197B9F41FC08330910569F0049793
:103B800089F40DC02AE831E018C082E090E09093FB
:103B9000AD018093AC01089524EB31E00EC022ED1D
:103BA00031E00BC01092DB011092DA011092AD01EE
:103BB0001092AC01089526E632E082E090E0909306
:103BC000AD018093AC01C9010E942914089586E2D9
:103BD00091E06AEA78E046E850E00E94062981E038
:103BE00090E09093AD018093AC010895DF93CF9363
:103BF00000D00F92CDB7DEB786E291E00E94EB26AF
:103C00008823E1F119821A821B8290E08091D6010B
:103C1000882309F491E09093D60180E391E066E077
:103C20000E94701F882319F00E94951D27C0CE01A5
:103C30000196BE016E5F7F4FAE014D5F5F4F0E94E8
:103C4000191C0E9443170E942C1A89816A814B819A
:103C50002091D6010E943417AEEBB1E0EEEAF1E01C
:103C600088E001900D928150E1F7A6ECB1E0E6EB1F
:103C7000F1E088E001900D928150E1F70F900F90F4
:103C80000F90CF91DF9108958091AC019091AD019B
:103C90008130910541F08230910541F0892B41F44A
:103CA0000E94E71D08950E94951D08950E94F61D2B
:103CB00008950F931F938BE694E040E855E260E08F
:103CC00070E00E94D83006E211E0C8010E94692A23
:103CD000C80169E20E9411250E94E71D0E94951DFE
:103CE0001F910F910895882319F48CB5806202C04A
:103CF0008CB58F7D8CBD08959CB5937F982B9CBD12
:103D000008952CB5382F33702C7F322B3CBD2DB548
:103D100090E0959587959595879581702E7F822B5C
:103D20008DBD08958AE061E00E94A72F8AE061E0DE
:103D30000E94682F8CB580618CBD8CB580648CBD71
:103D40008DE061E00E94682F8BE061E00E94682FA7
:103D50000895FC0181E08083089585E070E00E9471
:103D6000082F08956F927F928F929F92AF92BF9289
:103D7000CF92DF92EF92FF920F931F93CF93DF9337
:103D8000EC0189819A818C0124E0000F111F2A9592
:103D9000E1F7081B190B85E10E94E62EBC01600FBC
:103DA000711F84E0769567958A95E1F77A83698338
:103DB0008881882381F12E813F816217730710F477
:103DC000B90106C0888599858617970708F4BC0154
:103DD00000D000D080E090E040E050E0E884F9843A
:103DE00000E010E0AD80BB24CC24DD246C8077247F
:103DF00088249924EDB7FEB761827282838294820F
:103E00000E9497336B830F900F900F900F9085E077
:103E100070E00E94082FDF91CF911F910F91FF90CA
:103E2000EF90DF90CF90BF90AF909F908F907F905A
:103E30006F900895FC018CE39FE09383828384E07C
:103E4000818381E084870895CF93DF93EC018C8593
:103E500090E08F719070892B69F584E10E94E62EC5
:103E6000AA2797FDA095BA2FBC01CD010E94E73487
:103E700026EE3FE34EEC50E40E94DD350E94B9345B
:103E80009B01AC017B836A836115710589F084E035
:103E90008983B901FE0120E0848195816817790743
:103EA00010F429830AC02F5F32962430A9F702C08C
:103EB0008FEF89838C858F5F8C87DF91CF910895F9
:103EC000FC0188E0808389E0818387E0828386E04B
:103ED000838384E0848382E0858381E186830895FF
:103EE00020E0FC01E60FF11D8781813009F421E01B
:103EF000822F0895E62FF0E0423040F420E0E80FF2
:103F0000F91F878181508E3F88F40FC0E80FF91F99
:103F100087818F3F11F420E009C020E090E0642FFA
:103F200070E00E941937019709F421E0822F08956B
:103F30000F931F93CF93DF93EC0110E00FEF888175
:103F400062E00E94682F88810E94FB2F2F81892BBD
:103F500019F42F5F2F8307C0222349F02F3F11F45C
:103F60001F8201C00F83888160E00E94682F1F5F5D
:103F70002196173021F7DF91CF911F910F9108956E
:103F8000FC01678F60A30895FC01678F40A308952B
:103F9000AF92BF92CF92DF92EF92FF920F931F9357
:103FA000CF93DF93EC01162FF42EE22EAA24402F9C
:103FB000552747FD50958F2D992787FD9095481BD4
:103FC000590B57FF03C0509541955F4F2E2D332756
:103FD00027FD3095812F992787FD9095281B390B58
:103FE00037FF03C0309521953F4F2417350744F420
:103FF000AA24A3948F2DF12E182F8E2DE02E082F9A
:10400000E11634F48F2DF02E082F8E2DE12E182F6F
:10401000DE2CD11A202F332727FD30958F2D99279D
:1040200087FD9095281B390B37FF03C030952195EC
:104030003F4FB22EF0161CF0CC24CA9402C0CC2400
:10404000C3948D2DD7FC8F5F082F059511C0AA2032
:1040500021F0CE016F2D412F03C0CE01612F4F2DD6
:104060000E94C6130B1907FF02C0FC0C0D0D1F5F49
:10407000E1166CF7DF91CF911F910F91FF90EF90B8
:10408000DF90CF90BF90AF9008950F93042F322F01
:10409000262F2150230F0E94C81F0F9108950F93C0
:1040A000362F042F0150020F232F0E94C81F0F919B
:1040B00008959F92AF92BF92CF92DF92EF92FF92BC
:1040C0000F931F93CF93DF936C01B62E942EA02EE7
:1040D000C0E0D0E0E62EFF24E7FCF094022F112789
:1040E00007FD10950E0D1F1D06C0C601492D2A2D76
:1040F0000E944F2021966B2D6C0FCE018E0D9F1DBF
:104100008017910794F3DF91CF911F910F91FF904A
:10411000EF90DF90CF90BF90AF909F9008952F9237
:104120003F925F926F927F928F929F92AF92BF92D7
:10413000CF92DF92EF92FF920F931F93DF93CF9373
:1041400000D000D000D0CDB7DEB79E838D83C62EC1
:10415000D42EEE24E394E21A8EEF289F502C1124E3
:10416000842E8A94962E9A94A42EA394B62EB39459
:10417000F22E662423E0722E10E0C8018470907045
:104180009A838983F801E270F070FC83EB8398E0F6
:10419000292E312C202231220170107054C0E7FCEE
:1041A00004C0FA94F2E05F0EE50C639489819A8171
:1041B000892B71F04F2D4D0D8D819E816B2D0E94AD
:1041C000C6136F2D6C0D8D819E814A2D0E94C613E2
:1041D000EB81FC81EF2B71F04D2D4F198D819E816C
:1041E0006B2D0E94C6136F2D6C0D8D819E81482D05
:1041F0000E94C6132114310471F06C2D6F198D814A
:104200009E814A2D0E94C6134F2D4D0D8D819E819A
:10421000692D0E94C6130115110571F06C2D6F19DF
:104220008D819E81482D0E94C6134D2D4F198D8181
:104230009E81692D0E94C613E70CF2E07F0E8A94DE
:104240009A94A394B3946F140CF4A9CF26960FB646
:10425000F894DEBF0FBECDBFCF91DF911F910F91BC
:10426000FF90EF90DF90CF90BF90AF909F908F9096
:104270007F906F905F903F902F9008954F925F9244
:104280006F927F928F929F92AF92BF92CF92DF9266
:10429000EF92FF920F931F93CF93DF93EC01A62E23
:1042A000742E9E2DFF24F394F21A8EEF289F802CFB
:1042B0001124B42EBA9453E0C52ECE0CE22EDD2488
:1042C00043E0942E10E031E0432E512C4022512245
:1042D000692E63940270107034C0F7FC04C0EA9435
:1042E00082E0880EF80CD3944114510489F06D2DAE
:1042F0006A0D472D4E192E2D220F260DCE010E943C
:104300004F206E2D6A0DCE014B2D2C2D0E944F207B
:104310000115110589F06A2D6D19472D4E192E2DA5
:10432000220F260DCE010E944F206A2D6E19CE015C
:104330004B2D2C2D0E944F20F90C82E0980EBA9440
:10434000C80EDE1454F2DF91CF911F910F91FF90B0
:10435000EF90DF90CF90BF90AF909F908F907F9025
:104360006F905F904F9008957F928F929F92AF923F
:10437000BF92CF92DF92EF92FF920F931F936C0147
:10438000962EA42EF22E7E2C760E1EEFE19E102D80
:104390001124812E820E672D282D0E944520B02EDB
:1043A000BA0CBA94C601672D4B2D282D0E944520CA
:1043B000AE0C100FC601692D4A2D212F0E944F20EF
:1043C000F90CFA94C6016F2D4A2D212F0E944F201F
:1043D000C601672D4A2D2E2D01E00E948F20FE1868
:1043E000C6016F2D4A2D2E2D02E00E948F20BE188F
:1043F000C6016F2D4B2D2E2D04E00E948F20C6018B
:10440000672D4B2D2E2D08E00E948F201F910F91BC
:10441000FF90EF90DF90CF90BF90AF909F908F90E4
:104420007F9008958F929F92AF92BF92CF92DF922A
:10443000EF92FF920F931F936C01162FA42E922ED2
:10444000F02EBE2C8E2C860E2EEFE29EE02C112438
:104450002E2D290D682D0E945920AB0CFA94FE0CCC
:104460001150190D1B19C601612F4A2D2B2D01E08A
:10447000EF2C0E943E21C601682D4A2D2B2D02E013
:104480000E943E211F910F91FF90EF90DF90CF90FF
:10449000BF90AF909F908F9008953F924F925F9200
:1044A0006F927F928F929F92AF92BF92CF92DF9244
:1044B000EF92FF920F931F93CF93DF934C01362E11
:1044C000442EF901A490319654906F010894C11CB8
:1044D000D11C8A2D992787FD9095079668E070E09A
:1044E0000E942D37E62EFF24E7FCF09400E0C0E0A8
:1044F000D0E060E8662E712C26C0E12FE595E595A9
:10450000E595FF27E7FDF095EC0FFD1FEC0DFD1D78
:10451000E4912E2F30E0812F8770A30102C05595C2
:1045200047958A95E2F724233523232B31F0612F19
:10453000630DC4014B2D0E94C6131F5F1A15ECF2C8
:104540000F5FCE0DDF1D051524F410E0B02EB40C66
:10455000F5CFDF91CF911F910F91FF90EF90DF90FA
:10456000CF90BF90AF909F908F907F906F905F9013
:104570004F903F9008953F924F925F926F927F923B
:104580008F929F92AF92BF92CF92DF92EF92FF9263
:104590000F931F93CF93DF93EC01862EA42E422F0F
:1045A000102F3F8C23E526170CF4ABC03FE23A15E1
:1045B0000CF4A7C0C02EDD248C8190E001979C01F3
:1045C000C29EC001C39E900DD29E900D1124262F35
:1045D000332727FD3095820F931F181619060CF00C
:1045E00090C08D8190E09C01C29EC001C39E900D41
:1045F000D29E900D11242A2D332727FD3095820F4E
:10460000931F181619060CF07CC09924442E5524CB
:104610006DC09C01215030404217530711F460E0F7
:104620000EC0429EC001439E900D529E900D1124DB
:10463000840F951FED8DFE8DE80FF91F64914C9D41
:10464000C0014D9D900D5C9D900D1124682C680E4D
:10465000BB24792C780C3FC0E62EFF2460FF19C0E4
:10466000113039F44B2D4A0DCE01672D0E94C6132F
:104670002EC02C9DC0012D9D900D3C9D900D1124B0
:104680004A2D480FCE01662D212F012F0E9459205F
:104690001EC098A18F8D9817D1F09F8F113039F4DB
:1046A0004B2D4A0DCE01672D0E94C6130FC02C9DC5
:1046B000C0012D9D900D3C9D900D11244A2D480F59
:1046C000CE01662D212F012F0E9459203F8EF59497
:1046D000E7946E2DB3942B2D332727FD30958D81D4
:1046E00090E0281739070CF4B7CF9394492D55273C
:1046F00047FD50958C8190E0481759070CF489CFFD
:104700003F8EDF91CF911F910F91FF90EF90DF903F
:10471000CF90BF90AF909F908F907F906F905F9061
:104720004F903F9008950F93CF93DF93EC01262F86
:104730006A3049F48D819885899F802D11249A854E
:10474000980F9A8726C06D3029F169854A850885BA
:104750000E94BB229C816885969F402D11248985EB
:10476000480F49878F818823A9F0552747FD509529
:10477000699F9001112484E590E0821B930B8417BC
:10478000950744F49D81699F902D11248A85890F96
:104790008A87198681E090E0DF91CF910F9108958B
:1047A0001F93CF93DF93EC01162FF8948E8560E072
:1047B0000E94A72F8F8518161CF460E00E94A72F77
:1047C0001EBD0DB407FEFDCF8EB58F8518161CF4E7
:1047D00061E00E94A72F7894DF91CF911F910895F7
:1047E000FF920F931F93CF93DF93EC01FF2400E020
:1047F00010E06F2D6064CE010E94D023CE0160E8EE
:104800000E94D0238E8561E00E94A72F8F85181605
:104810001CF460E00E94A72FF801E452FE4F90E0E4
:1048200080818EBD0DB407FEFDCF8EB59F5F3196A2
:104830009435B1F78F8518161CF461E00E94A72FFC
:10484000F3940C5A1F4F86E0F81699F6CE0160E4F7
:104850000E94D023DF91CF911F910F91FF90089577
:10486000CF93DF93DC0188EF91E0ECEDF1E0EF0115
:104870009C01199221503040E1F719961C9219972A
:104880001A961C92DF91CF910895EF920F93CF93D8
:10489000DF93EC014D876C872E87E88A0F8781E0D4
:1048A00088878F8F18A28F83E9ECF3E284918F5F62
:1048B0008C83319684918F5F8D833196FE8FED8F3F
:1048C0000E94921E81E00E94731E85E00E94811E5C
:1048D0008CE00E947C1E8D8561E00E94682F8C8593
:1048E00061E00E94682F8E8561E00E94682F8889B0
:1048F00018161CF461E00E94682F8F8518161CF4AE
:1049000061E00E94682F888918166CF460E00E94AC
:10491000A72F6AE070E080E090E00E94522E888924
:1049200061E00E94A72FEC852E2F332727FD3095BD
:10493000F901E850F94DE491F0E0EE0FFF1FEC5162
:10494000F94D859194919C8B8B8B245F384DF901A7
:1049500084918A8FED852E2F332727FD3095F9011D
:10496000E850F94DE491F0E0EE0FFF1FEC51F94DE6
:10497000859194919A8B898B245F384DF9018491AC
:10498000898FEF852E2F332727FD3095F901E850C9
:10499000F94DE491F0E0EE0FFF1FEC51F94D8591D8
:1049A00094919E8B8D8B245F384DF90184918B8F70
:1049B000EE852E2F332727FD3095F901E850F94D6C
:1049C000E491F0E0EE0FFF1FEC51F94D85919491C9
:1049D000988F8F8B245F384DF90184918C8FCE0195
:1049E00061E20E94D023CE0164E10E94D0238B8536
:1049F00087FF02C08FE78B876B856068CE010E94BE
:104A0000D023CE0160E20E94D023CE016CE00E9450
:104A1000D023CE010E94F023DF91CF910F91EF9030
:104A20000895FC01262FE258FF4F88EE93E070E0D6
:104A30000E942D376083EE57F040822F64E10E9480
:104A40000037882309F481E081A70895CF93DF938D
:104A5000DC01E0E8F7E785919491ED01C75ADF4F5B
:104A6000AD0141595F4F8150904C09F04EC0E6E9CD
:104A7000F7E7E491E883E7E9F7E7E4911496EC932C
:104A80001497E8E9F7E7E4911596EC931597E9E9AF
:104A9000F7E78591949117969C938E931697EBE97F
:104AA000F7E78591949119969C938E931897EDE969
:104AB000F7E7E4919B96EC939B97EEE9F7E7E49197
:104AC0009A96EC939A97EFE9F7E7E491EA01E88385
:104AD000E0EAF7E7859194915D969C938E935C97BD
:104AE000E2EAF7E7859194915F969C938E935E97A7
:104AF000E4EAF7E78591949191969C938E93909731
:104B0000E6EAF7E78591949132C08CE388831496A6
:104B10001C9214972FEF15962C93159780E293E033
:104B200017969C938E93169784ED93E019969C9319
:104B30008E93189781E09B968C939B979A968C9373
:104B40009A97FA0120838CEA9DE05D969C938E9360
:104B50005C978EED9DE05F969C938E935E9784E7C5
:104B60009EE091969C938E9390978CE39FE0939612
:104B70009C938E939297DF91CF910895EF92FF923D
:104B80000F931F93CF93DF937C018C01025B1F4F28
:104B9000C8010E943024C80160E775E20E94983283
:104BA000C8010E94F02383E00E94811E80E091E012
:104BB000EEEFFFE3099584E590E0E80EF91EF701BA
:104BC0001082C8016BE475E20E94E332C8010E94C2
:104BD000F023E701CA54D040CE010E94981FCE01B5
:104BE00064E00E94701F882339F462E370E080E083
:104BF00090E00E94522EF0CFDF91CF911F910F9144
:104C0000FF90EF9008950F931F93CF93DF93EC01E4
:104C10008C01025B1F4FC80161E040E00E94C41F8D
:104C2000FE01E95AFF4FCE5ADF4F85E59881891B77
:104C3000808326961882C855D040698D613009F46A
:104C40003EC0613028F0888D653008F051C04BC0FF
:104C5000CE0185960E94302BCE0160E00E94AD1EF1
:104C6000C8010E943024CA5ADF4F81E08883C655AC
:104C7000D040C8016CEA75E20E9498326A8D7B8D43
:104C8000C8014AE050E00E948633C80168E975E235
:104C90000E949832C8010E94F02383B7817F84600C
:104CA00083BF83B7816083BF83B7816083BF8895EB
:104CB00083B78E7F83BF83B78E7F83BF1FC0C059EA
:104CC000DF4F88819981AA81BB818F709070A0701D
:104CD000B0700897A105B10518F4C80167E00CC0D1
:104CE000C80168E709C0882349F06B5FC80104C0A8
:104CF000882321F0C8016FE20E94BB32DF91CF917F
:104D00001F910F910895AF92BF92CF92DF92EF92D1
:104D1000FF920F931F93CF93DF93EC01CB57DF4F9D
:104D20008881C558D040882309F44AC08C3010F0DF
:104D300010E002C01CE0181BCA5ADF4F81E08883D4
:104D4000C655D0406EE4C62ED12CCC0EDD1EC60159
:104D500060E00E94C01F53E5A52EB12CAC0EBD1E15
:104D6000F50100814DE2F42E4F2D401B410F0D5FE8
:104D7000C60160E024E533E0E32E0E941222C60162
:104D800061E00E94C01FF5010081F01AF10E0D5F75
:104D9000C60160E04F2D24E50E94B421C95ADF4FBF
:104DA00084E08993F5018081181B115D1883AB960F
:104DB00069917991C6010E949832888181508883D7
:104DC000DF91CF911F910F91FF90EF90DF90CF90E7
:104DD000BF90AF900895AF92BF92CF92DF92EF92C3
:104DE000FF920F931F93CF93DF93EC01EFE7AE2E6B
:104DF000B12CA80EB91EF501E080F180028113816B
:104E00000E941E2EE61AF70A080B190B7EE7C72E22
:104E1000D12CCC0EDD1EF601808190E0A0E0B0E048
:104E20008E159F05A007B10708F081C08E010658B6
:104E30001F4FF80180819181A281B3810097A10564
:104E4000B10509F474C00E941E2EF6012081620F84
:104E5000711D811D911DF501608371838283938390
:104E6000FE01E059FF4F80819181A281B3810196BB
:104E7000A11DB11D80839183A283B383F8011082A9
:104E80001182128213820E942C2ECA58DF4F68832F
:104E900079838A839B83C657D040CE010E94B21E7D
:104EA000CE010A960E94981FCE0148960E94241FA8
:104EB00081E032C08E010B5D1F4FC8010E942C2B78
:104EC000C8010E942A2CC8010E94202DCE010E94F8
:104ED0008326CE010E9403268E01025B1F4FC8016C
:104EE0000E94F023CC5ADF4F8881C455D0408823DC
:104EF00019F4C8010E9430240E942C2EC658DF4F9E
:104F0000688379838A839B83249728813981621BF4
:104F1000730B7A936A9380E0DF91CF911F910F9189
:104F2000FF90EF90DF90CF90BF90AF900895C6585C
:104F3000DF4F88819981AA81BB81CA57D0400097F1
:104F4000A105B10541F7B6CF2F923F924F925F92E4
:104F50006F927F928F929F92AF92BF92CF92DF9289
:104F6000EF92FF920F931F93DF93CF93CDB7DEB7EE
:104F700062970FB6F894DEBF0FBECDBF6C016C8395
:104F80007D834B8324E530E0C20ED31EF6011082F0
:104F90002CEA3FEFC20ED31E1AE0A12EB12CAC0CAE
:104FA000BD1CB5E22B2E312C2C0C3D1CAEE44A2E40
:104FB000512C4C0C5D1C10E0F0E37F2E66241A820D
:104FC0003FEF3983A601495A5F4F5F834E83C60185
:104FD000885A9F4F99878887F601EA5AFF4FFB87C7
:104FE000EA8796012B5A3F4F3D872C87E3E58E2EAB
:104FF000912C8C0C9D1C5B81452F50E05F874E8768
:105000008B818150888BC6010E94EB268823D9F3BF
:10501000C50164E00E94701F882369F4C50165E042
:105020000E94701F882339F4C50166E00E94701F3A
:10503000882309F4D3C0F4010081C50164E00E9413
:10504000701F882329F0C1010E947D2D1983CBC0D8
:10505000C1010E94832DC7C0C50163E044E00E94E6
:105060007A1F882321F01F5FC1010E94892DC5018D
:1050700061E044E00E947A1F882321F01150C101B1
:105080000E94892D812F992787FD90952E853F8538
:105090008217930711F410E002C017FD1889F4017C
:1050A0008081819F902D11248C5F682E691A28C001
:1050B000872D992787FD9095262D332727FD30953D
:1050C000821B930B0297D4F4898162960FB6F894F1
:1050D000DEBF0FBECDBFCF91DF911F910F91FF902B
:1050E000EF90DF90CF90BF90AF909F908F907F9088
:1050F0006F905F904F903F902F900895F1E0FA836A
:10510000862D992787FD9095272D332727FD3095EC
:10511000820F931F62E070E00E942D37762EEE81A1
:10512000FF811082E885F985608321E0EA85FB85AF
:105130002083EC85FD8510822C813D81C9019A8BED
:10514000898B00E0E12EFF24E7FCF09420C0802F43
:1051500090E08E159F0569F423E0EE81FF812083A6
:10516000F40180818E9D802D1124870DE885F985BD
:105170008083E989FA8965917491C2010E94E332C2
:105180000F5F29893A892E5F3F4F3A8B298B3B81EC
:105190000317E8F2C20160E00E94C01FF4014081E1
:1051A0004E9D402D11244150470DC20160E024E581
:1051B0000E944520C20161E00E94C01FF4010081ED
:1051C0000E9D402D11244250470D0D5FC20160E03D
:1051D00024E573E0E72E0E94B42115CFFA81FF2366
:1051E00009F066CF39CF802F90E0909581959F4F41
:1051F0002E853F85AC01249FC001259F900D349FD3
:10520000900D11246EEF662E680E52CF2F923F92B2
:105210004F925F926F927F928F929F92AF92BF92C6
:10522000CF92DF92EF92FF920F931F93DF93CF9372
:10523000CDB7DEB72B970FB6F894DEBF0FBECDBF4C
:105240009B878A877A8369835C834B838C010159AE
:105250001F4FF8018081882309F422C18A859B852C
:105260008A5A9F4F9B878A8781E0EA85FB858083E6
:1052700012921292E455F040FB87EA87108E9EE46A
:10528000E92EF12CEE0EFF1EC70161E00E94C01F47
:105290008AE0282E312C8A859B85280E391EB5E29E
:1052A0006B2E712C680E791EE981FA81F491FD83D1
:1052B000A7E58A2E912C880E991EF8E5CF2ED12CC9
:1052C000C80ED91EE2E54E2E512C480E591E8D5A9D
:1052D0009F4F9F838E8370E7A72EB12C8A859B8575
:1052E000A80EB91E198708878A859B850E94EB2620
:1052F0008823D1F39D81992311F410E003C0EE813E
:10530000FF811081C70160E040E029EE35E20E9494
:105310004D228B819C81892B41F0145FC70160E095
:10532000412F2B813C810E944D22F40110828CE0A0
:10533000F6018083C70169817A810E949832F20167
:10534000208130E0C901880F991F820F931F90952B
:1053500081959F4F8D5AF4018083EE81FF812081DA
:1053600030E0C901880F991F820F931F9095819596
:105370009F4F835DF6018083F501808184FF04C027
:10538000C70169E676E203C0C70165E676E20E94DE
:10539000E332F201208130E0C901880F991F820FAA
:1053A000931F909581959F4F8D5AF4018083F6014C
:1053B00080818F5F8083EA85FB8582A5882321F029
:1053C000C70161E676E203C0C7016DE576E20E949F
:1053D000E332F201808190E09C01220F331F280FFD
:1053E000391F309521953F4F2D5AF4012083F60146
:1053F00080818F5F8083C70169E576E20E94E33296
:10540000C10165E00E94701F882351F0EA85FB8589
:1054100062A56F5FC3010E948F2DC3010E94892D79
:10542000C10164E00E94701F882399F4E885F98522
:105430006081262F30E040E050E0F50180819181CD
:10544000A281B38182179307A407B50708F16F3FC4
:10545000F9F08A859B8581599F4F9B878A878FEFBB
:10546000EA85FB858083EF56F040FB87EA87C3011E
:1054700060E00E94D02AC3010E947D2D81E0EA8570
:10548000FB85808F0DC08A859B850E94BE252CCF11
:10549000C10166E00E94701F882309F425CFF3CF75
:1054A0002B960FB6F894DEBF0FBECDBFCF91DF9124
:1054B0001F910F91FF90EF90DF90CF90BF90AF9032
:1054C0009F908F907F906F905F904F903F902F9024
:1054D0000895AF92BF92CF92DF92EF920F93CF9346
:1054E000DF936C018EE790E0C80ED91E82E3F601CF
:1054F000808381E090E0A0E0B0E0B293A293929329
:1055000082936F0185EF9FEFC80ED91E8FEFF601D2
:10551000808381E99FEFC80ED91EC6010E9426250F
:10552000C6010E94A91EC6016FEF0E94AD1E4AE08F
:10553000A42EB12CAC0CBD1CC5010E94601FC5017E
:105540000E94981FC60148960E941A1FC601825BDE
:105550009F4F6DE04BE020E10FE03EE0E32E0E9424
:105560004524E601A596CE010E949C2DC50165E06B
:105570000E94701F882329F0CE0160E00E948F2DC9
:1055800006C0CE016FE676E240E00E94E22ADF919B
:10559000CF910F91EF90DF90CF90BF90AF90089593
:1055A000FC01662371F4178A158A14A213A2108EC7
:1055B0001092D8031092D7031092D5031092B40022
:1055C000118208950F931F93CF93DF93EC018B010A
:1055D000442371F460E00E94D02A1E870D871B8A45
:1055E0001A8A81E0898389E08E8B198E1B8E1D8E2D
:1055F000DF91CF911F910F910895CF93DF93EC012D
:10560000662339F58881882321F18981882309F56A
:10561000898590E0880F991FEF81F885E80FF91FC1
:10562000859194912FEF8F3F920711F4188211C04A
:105630009C8790E0880F991FEA85FB85E80FF91F8A
:1056400065917491CE0140E00E94E22A89858F5FC6
:105650008987DF91CF91089560E00E94FD2A089527
:1056600060E00E94D02A08950F93DC01002309F026
:1056700069C0623009F443C0633030F4662359F0E6
:10568000613009F05FC00DC0633009F444C064307C
:1056900009F058C04CC04B3008F04AE056964C9385
:1056A00051C0842F90E0880F991F1F962D913C9137
:1056B0005097280F391FF9018591949190969C93EA
:1056C0008E935F97FC014591549114968C91149799
:1056D000849F602D112491966C939197252F3327E9
:1056E000862F90E02817390708F4652F14968C91BF
:1056F0001497689F802D112492968C9323C0149642
:105700008C911497489F802D112459968C9359970A
:105710005A962C9317C014968C911497489F802DFD
:1057200011245B968C935B975C962C930BC014961C
:105730008C911497489F802D11245D968C935D97D2
:105740005E962C930F9108950F93CF93DF93EC0106
:10575000662309F07BC08981882309F477C08D898D
:10576000882309F073C0EA89FB89EE0FFF1F4D857E
:105770005E85E40FF51F259134912115310509F05F
:1057800049C08989813031F41B8A1A8AFA0125912E
:10579000349140C019828881882379F0CE0160E07D
:1057A0000E94FD2A8A899B89880F991FED85FE85B5
:1057B000E80FF91F259134912DC01F8A1D8A1CA264
:1057C0001BA2188E1092D8031092D7031092D50303
:1057D0001092B4003BC006E0369527950A95E1F794
:1057E0006F70422F4F71B5E036952795BA95E1F766
:1057F0002051CE0100E00E94342B8A899B890196BA
:105800009B8B8A8B880F991FED85FE85E80FF91F0A
:1058100025913491B901769567957695679520FD28
:10582000DACF862F8F738C8B8C81839F802D1124F0
:105830008D8B1DA21CA21BA281E08F8B8093D503B0
:10584000188E8A899B8901969B8B8A8BDF91CF91D9
:105850000F91089560E00E94A42B0895CF93DF93E9
:10586000EC01662309F0E9C08F89882309F4E5C0BB
:105870008D89882371F41F8A1D8A1CA21BA2188E91
:105880001092D8031092D7031092D5031092B4004F
:10589000D4C081508D8B8DA1882309F044C08BA189
:1058A0009CA10196880F991FEF8DF8A1E80FF91FB1
:1058B00085919491282F27702EA3AC0173E0569503
:1058C00047957A95E1F79A0136952795892F99277B
:1058D000869586958FA32F738C81289F202D112468
:1058E0002DA341704093D9038BA19CA101969CA349
:1058F0008BA329A130E082179307A8F08AA18823FF
:1059000029F0281B31093CA32BA30DC01F8A1D8A37
:105910001CA21BA2188E1092D8031092D7031092CB
:10592000D5031092B4008DA181508DA3988D9F5FF7
:10593000988F2FA18C89280F8C85280F2A836B8D37
:10594000662369F0892F992787FD909570E00E9462
:105950002D378C8D869F802D1124820F8A838A811A
:1059600090E0CB966BE370E00E942D378A832E89FE
:105970002B83698D662379F0888D772767FD709575
:10598000992787FD90950E942D378A8D869F802DBF
:105990001124820F8B836D8D662399F0888D992752
:1059A00087FD909570E00E942D37CB0162E070E09A
:1059B0000E942D379E8D899F802D11249B81890FF8
:1059C0008B838B818A300CF089E087FD80E08B83AC
:1059D0008C898F3309F41B82F894EA81F0E0ED564C
:1059E000F94DE491E093D6032D8130E08B81992726
:1059F00087FD9095A901489F9001499F300D589FC0
:105A0000300D112488A590E0A901489F9001499F7D
:105A1000300D589F300D11248EA1992787FD909548
:105A2000AC01249FC001259F900D349F900D11243F
:105A30008093D7038093D8037894DF91CF91089512
:105A400060E00E942E2C08956091D703662381F1B7
:105A50008091D4038F5F8093D4039091D6038917EC
:105A600038F130E08091D503882309F431E0309398
:105A7000D5031092D4038091D9038823A9F0809193
:105A80000B0123E4829FC0011124895B80930B01E9
:105A900090E070E00E9419378093D80305C0809190
:105AA000D8038093B40008953323C9F780E0F9CF79
:105AB00008951F920F920FB60F9211242F933F93C8
:105AC0004F935F936F937F938F939F93AF93BF9306
:105AD000EF93FF930E94242DFF91EF91BF91AF911F
