:100000000C940C090C9434090C9434090C943409A4
:100010000C9434090C9434090C9434090C9434096C
:100020000C9434090C9434090C9434090C94242055
:100030000C9434090C9434090C9434090C9434094C
:100040000C949B200C9434090C9434090C943409BE
:100050000C9434090C9434090C9434090C9434092C
:100060000C9434090C94340905A84CCDB2D44EB983
:100070003836A9020C50B9918688083CA6AAAA2A4B
:10008000BE000000803F401E000000000000000095
:100090000000000000000000000000000000000060
:1000A0000000000000000000000000000000000050
:1000B0000000000000000000000000000000000040
:1000C000000FFFF800000000001000040000000016
:1000D00000200002000000000020000200000000DC
:1000E00000200002000000000010000400000000DA
:1000F0000008000800000000001FFFFC00000000D6
:1001000000100004000000000010000400000000C7
:1001100000100004000000000010000400000000B7
:10012000001FFFFC000000000001807000000000C4
:100130000006001C0000000000180006000000007F
:1001400003FE001FE00000000000000000000000AF
:10015000000000000000000000000000000000009F
:10016000000000000000000000000000000000008F
:1001700000000000000000007C08FA0899091D0A30
:10018000DD0A940B1B0CD50CA70D1B2D192C050B90
:10019000122D0E2C060B092D022C0909092400230F
:1001A0000B06091B00190B050912000E0B060909A5
:1001B0000202090912090E00060B1B091900050BA2
:1001C00024092300060B2D092C0209092D122C0EDF
:1001D0000B062D1B2C190B052D242C230B062D2D66
:1001E0002C2C0909242D232C060B210F200E03058E
:1001F0000E273D1B49290000000002221623250E70
:100200002A1C3D07161745200000000000000A1DAB
:10021000431A00000000000005191723362B0000C8
:100220000000061E1821362B000000000B2B0F16B5
:100230002C2244065027230E48264C1000000000B4
:100240000924240B2729360C382B013A0502073ADA
:1002500005020D3A0502133A050240400002001063
:10026000008000000003001001800000300380388F
:10027000038018003C03C038078078001F03E07C2F
:100280000F81F0001F03606C0D81F0000D01C0387C
:10029000070160000E0000000000E00000C07038A0
:1002A0001C06000000A05028140A00000060301056
:1002B000180C00000000000000000000000000001A
:1002C000000000000000000404000000FC01110E0A
:1002D0004E007E007E03AB9AAB00FC003A01390E63
:1002E000EE00B8001EC010044406F0000CA0280068
:1002F000A00A600000E00000000E000000001000F6
:10030000E000000000003801B00000000000100014
:10031000E0000000000000004000000000000000BD
:10032000000000000C000000000060003EC0000063
:100330000006F800FAA00000000ABE003EC000005F
:100340000006F8000C000000000060000000000043
:10035000000000000000000000000000000000009D
:10036000000000000000000000000000000000008D
:100370000000000000E02082080E00000CA05145A3
:10038000140A60001EC071C71C06F0003A0000820B
:100390000800B8007E0000021400FC00FC00000011
:1003A00000007E00000000000000000000000000CF
:1003B000000000000000000000000000006030109D
:1003C000180C000000A05028140A000000C070386B
:1003D0001C0600000E0000000000E0000D01C03807
:1003E000070160001F03606C0D81F0001F03E07CBB
:1003F0000F81F0003C03C03807807800300380385C
:1004000003801800000300100180000000020010AB
:10041000008000000000000000000000000000005C
:100420000000000000000000000000007DF7DF0079
:100430000000000028A28A00000000000000000068
:1004400000000000000000000000000000000000AC
:10045000000000000000000000000000404000021A
:100460000010008000000003001001800000300335
:100470008038038018003C03C038078078001F03D1
:10048000E07C0F81F0001F03E07C0F81F0000F0182
:10049000C0380701E0000E0000000000E00000C0CE
:1004A00070381C06000000E070381C0E0000006070
:1004B0003010180C000000000000000000000000D8
:1004C0000000000000000000000404000000FC0127
:1004D000110E4E007E007E03BB9EEF00FC003E012D
:1004E000390EEE00F8001EC010044406F0000CE0C7
:1004F0002800A00E600000E00000000E00000000D8
:100500001000E000000000003801F00000000000D2
:100510001000E000000000000000400000000000AB
:100520000000000000000C000000000060003EC061
:1005300000000006F800FEE00000000EFE003EC0D5
:1005400000000006F8000C00000000006000000041
:10055000000000000000000000000000000000009B
:10056000000000000000000000000000000000008B
:1005700000000000000000E02082080E00000CE0F7
:1005800071C71C0E60001EC071C71C06F0003E0043
:1005900000820800F8007E0000021400FC00FC004D
:1005A000000000007E0000000000000000000000CD
:1005B00000000000000000000000000000000060DB
:1005C0003010180C000000E070381C0E000000C055
:1005D00070381C0600000E0000000000E0000F0153
:1005E000C0380701E0001F03E07C0F81F0001F030B
:1005F000E07C0F81F0003C03C038078078003003B6
:100600008038038018000003001001800000000201
:10061000001000800000000000000000000000004A
:1006200000000000000000000000000000007DF756
:10063000DF000000000028A28A0000000000000087
:1006400000000000000000000000000000000000AA
:10065000000000000000000000000000000040401A
:100660000002001000800000000300100180000064
:1006700030028028028018002C0240280480680084
:1006800013022044088190001102204408811000C8
:100690000901C038070120000E0000000000E00042
:1006A00000C070381C06000000A05028140A00008A
:1006B00000603010180C0000000000000000000076
:1006C0000000000000000000000000040400000022
:1006D000FC01110A4A007E004202AA92A90084008D
:1006E0002201390AEA00880012C010044406900072
:1006F0000CA02800A00A600000E00000000E00002E
:1007000000001000E00000000000280110000000C0
:1007100000001000A00000000000000040000000E9
:1007200000000000000000000C000000000060005D
:1007300032C0000000069800C2A00000000A860037
:1007400032C00000000698000C00000000006000AD
:100750000000000000000000000000000000000099
:100760000000000000000000000000000000000089
:10077000000000000000000000E02082080E0000E1
:100780000CA05145140A600012C071C71C069000ED
:100790002200008208008800420000021400840049
:1007A000FC00000000007E000000000000000000CF
:1007B0000000000000000000000000000000000039
:1007C00000603010180C000000A05028140A00002F
:1007D00000C070381C0600000E0000000000E000A1
:1007E0000901C038070120001102204408811000CF
:1007F00013022044088190002C02402804806800E5
:1008000030028028028018000003001001800000E0
:100810000002001000800000000000000000000046
:1008200000000000000000000000000000000000C8
:100830007CD59B000000000028A28A000000000078
:1008400000000000000000000000000000000000A8
:100850000000000000000000000000000000000098
:10086000210F1F140504130F0E0E0303130F160E92
:1008700003034C756E61722052756E001C545CDD72
:10088000135D5E125FA0D022A38D26278928E84839
:1008900029288828288828E84829288828A78926F8
:1008A000E68A25A3CD22210F605F115F5F115F20D3
:1008B0001060E1CF21A2CE2263CD2324CC24E58B8E
:1008C00025E58B2524CC2463CD23E2CE21610F5F67
:1008D0009F115EDE125D1C545C1C545C1C545C5DFC
:1008E000135FE38D25A7492AAB452AAA462AAA46C3
:1008F0002AAB452A69872725CB2464CC2363CD23E3
:1009000063CD2363CD2323CD24658B27A9472A6A92
:10091000462BAA462A298728E7892517C50815C71F
:100920000814C80813CA0713CA0752CC0591CD048E
:10093000D1DF511020901020904F218F4F218F8FA9
:10094000A10F83940F44930FC55310861314C7133C
:100950005DDD135DDD135D5E125F638C2669462AE3
:100960002C043FFF001E2D442C9B430E18840E14B4
:10097000870DD10A0703C80F4784028D4E05410930
:100980004B83114A43514802D284C4EDC2C0FFC018
:10099000C0FFC0C0FFC0C03F00C0FFC0C0FFC0C09C
:1009A000FFC0C0F68181EF8243ED83C4AC8585AB87
:1009B0008647A987888A44098748189858189858FC
:1009C000585818894A160C8813CD88110DC7110C78
:1009D000C71226472B2D023F3F003F3F003F3F00FD
:1009E0003F3C422C6C442B6B452B6B452BAB452A73
:1009F000AA462AAA462AEA4629298728A78926A29A
:100A0000CE22E1CF21E1CF21E1CF21E1CF21A1CF42
:100A100022E2CE219F115E1D535C1C1400C0FFC05A
:100A2000C0FFC0C04E840A658B8C648BCA6789097D
:100A3000A88848680941228F8F228FCE248F0E63A9
:100A40008D8D238D4E555A1B555B9D125E54034868
:100A500093C50A92C70992C709D2C80811094790DD
:100A600009478E09474E48480C864949C64687C6FD
:100A7000460686450DC605D98605DA8605DA860559
:100A8000DA8506DB8307E68B25668B27A78A26D7C0
:100A9000860995C7095108498E080106D10E05D16E
:100AA0000E45D00E45CF0F45CE10C5CC10050C4FCE
:100AB000050B50050A51050A51050A51050A510551
:100AC0000A51450A50C50A4F044A4F034B4E434B47
:100AD0004E820C8E4E228F4F218F0F1500C00D8E2F
:100AE0000D648C8C658A8AE60A82D7098396094749
:100AF00096094A94090A930BCB520B8C500D4DCF9B
:100B00002224CC2424CC2419C60519C60558C804AF
:100B100057C80497CB01161E9210638D4C658BCC81
:100B2000248DCD238E8E228E91DF5213DD5415DC61
:100B30005414DC54D49C14828E15838E15448C1668
:100B4000054B16418407D603030848160F461710B5
:100B500044181142192C442C2C442C0943200846DB
:100B60001E07481D464D18864E1685501545921095
:100B7000C4950C04D50B44D50A43D60A82578A4A39
:100B8000658BCC248C8EE24E11DD5353DC5392DE08
:100B900052120F0080CF52D1DF515020904F218F41
:100BA0004F218F0F218F0E628B0B658C0D228F5181
:100BB000DE53939C55D759585A555BDB145C9D13F3
:100BC0005D1E515A5B545B1997581898585799579E
:100BD000189858D89819014B02960743D50545D364
:100BE000044792044853024A9F125E9E125F018599
:100BF00058199858589957979957D69A5515DC54BB
:100C000094DC53521E908D648A08E986C1FFC0C0EF
:100C1000FFC0C0FFC0C0FFC0C0BF40C0FFC0C0FF1A
:100C2000C0C071854A658B4D234D86CD0D88CD0D95
:100C300088CD0D08CD0EC98E0D8A8E0D8B8E0D4B75
:100C40008E0D4C8E0D0B8E0E8C4E0E0E4E0F8F0E8B
:100C50001090CE22E1CF205E925696995695555A25
:100C6000D8985554DC53939D110392118512144961
:100C700099589B555A5A9759D79A56D59B55959B33
:100C80005617CB02D989034C830A038C0709C90480
:100C9000868808488904878B08C28D0449D9010ACF
:100CA000668CCC248DCFA155959B5687834C0744E9
:100CB0000D045007564F07974D07578C07D48C05E6
:100CC00096CA0396C903969A5684835082498BCA62
:100CD000678909A709C05F8909A78808A88808A7A4
:100CE0008847A88707A88748658B8BE50A85D30ABC
:100CF00086D20A87D10A87D00B0847024E4D099643
:100D00000C0BD88B25E68C25A78A26A68A27E60A0F
:100D10000E554B0C948C07548C07948C08D28D077D
:100D200011CD0710CD0710CD0711CC0751CD06907E
:100D3000CE04D0218F8D658B4A668A0B658B0C6340
:100D40008C0C644CC30D4CC50503CD13068C0246B8
:100D500007420C454B1B854B1AC54A1A058A198553
:100D60008919C48918C48918C48917044A0B888B47
:100D7000048A8607C54A0A868906098A05C68A0939
:100D800085860749CB1088CC0F480B4E860B4EC684
:100D90000B4DC8094CC70C4AC70E48C71045886799
:100DA000894B648A0A2100C04589C86789C8A80898
:100DB000849908459908069908C85808CAC602C8FF
:100DC000C712C8C6130903556050110A90108891C4
:100DD0000EC6930C85D40A841545045741446C8B88
:100DE000CB98028B97048C95054C93080C9209CCF8
:100DF000520B0C510ECCD020A00E1BC50D0A4FC2B9
:100E000005C9040F844C09034406C44C08824603F8
:100E1000058A49C54A49864A494849490949494ACA
:100E2000C90A90890CD1490C94490C954905C18691
:100E300013C40D0982D202C7A98605EC84C4EC4410
:100E400044C608834D05C94401434C068F860547B7
:100E500045104549085A49089A480919880898C709
:100E600007C84309465006C707460485068653044B
:100E7000054845048704C55404044845448704C410
:100E80005404C50845C44706864803C646060844B8
:100E900006C84506DE4209E9472929470D98480B4F
:100EA000C7034B824705079F03C5FFC000FF000330
:100EB000053F213F0A100A1208120E1C0E0C1E0CD0
:100EC000141A14161F161E131E1E1B1E1E1F1E3F55
:100ED000213F3A2F3A173D173F213F181F02040ABE
:100EE000041F0E04040E1F0A1F0A0E0E1F04110E0B
:100EF0002E252E2F2A2E262929021F02081F08150B
:100F00000E04040E150E15151B151B040604040C07
:100F1000040000000017000300031F0A1F16371A01
:100F20001904130A153A000300000E11110E000AED
:100F3000040A040E04003000040404001000180425
:100F4000031F111F121F101D151711151F07041F56
:100F500017151D1F151D01011F1F151F17151F0038
:100F60000A00003200040A110A0A0A110A040115D3
:100F7000020E11171E051E1F150A0E110A1F110E53
:100F80001F15111F05010E111D1F041F111F110830
:100F9000100F1F041B1F10101F061F1E040F0E1121
:100FA0000E1F09060E112E1F051A121509011F0129
:100FB0001F101F0F180F1F0C1F1B041B031C0319EE
:100FC0001513001F11030418111F00020102202035
:100FD000200001020C121E1F120C0C12120C121F08
:100FE0000C1A14041E05242A1E1F021C141D102096
:100FF000201D1F0814111F101E041E1E021C0C129F
:101000000C3E0A040C123E1E040214160A020F12B1
:101010000E101E0E100E1E081E120C1226281E3256
:101020002A26041E21001F00211E040102013F2167
:101030003F0A4E6F2053442063617264206F720A2E
:101040006E6F204C4F414445522E4845580A0A15B0
:101050003A45786974001D20466C617368696E6753
:101060000A20206C6F616465722E2E2E0A0A444F8E
:101070004E2754205455524E204F464621004E4F85
:1010800020424154544552590A0A504C4541534557
:101090000A5455524E204F4646001773617665003C
:1010A000166261636B001574797065000A0A0A158F
:1010B0003A6F6B617920163A6564697400596F75EF
:1010C00020656E74657265640A00540A03E18186C6
:1010D0007F3E186D830F0F0E0183866033186DC33A
:1010E000198F1803C38E6033186DE330CF1803C314
:1010F0009E603630CDE360CF3006C79E7E3E30CD59
:10110000B360CF300CC6F6603330D9B660CF33CF82
:10111000CCF66061B0DB1E60CF30D86CE6C061B049
:10112000DB1E618F19986CC6C063B19B0E330F0F25
:10113000B078C6FF7E1F1B061E0F17534400161300
:101140007800161314001510200015201000000060
:10115000050089300802380249786814000045000B
:101160006801000005006801380100000500380131
:1011700068010000F6E8DBCFC3B8AEA49B928A8278
:101180007B746E68625C57524E4945413E3A373433
:10119000312E2C29272523211F1D1C1A191716153E
:1011A00014131211100F0E0D0C0B0A09080706B3C9
:1011B00011B7110101F7030101FF03000000002432
:1011C0000027002A0000000000250028002B000056
:1011D0000000002300260029000404040404040481
:1011E00004020202020202030303030303010204D6
:1011F0000810204080010204081020010204081099
:1012000020000000070002010000030406000000A7
:10121000000000000000EA0911241FBECFEFD8E053
:10122000DEBFCDBF11E0A0E0B1E0E8E8FEE402C01F
:1012300005900D92A631B107D9F713E0A6E1B1E010
:1012400001C01D92A63CB107E1F712E1C8E1D2E16D
:1012500004C02297FE010E943E27C631D107C9F77C
:101260000E9413230C9442270C940000AF92BF926B
:10127000CF92DF92EF92FF920F931F93062FC42E0F
:10128000EEEEF1E0E49031964491112707FD1095C0
:10129000A82EBB24A7FCB094DD24C7FCD0949801F1
:1012A00074E0220F331F7A95E1F7201B310BC50143
:1012B000880F991F880F991F8A0D9B1D280F391FB2
:1012C0002C0D3D1D220F331F60EF71E0CB01820F0B
:1012D000931FFC01D4902F5F3F4F620F731FFB01E0
:1012E0008491682F70E0242F332727FD3095621BEF
:1012F000730B882777FD8095982F0E94FB246093BD
:10130000A0017093A1018093A2019093A301FF24F7
:10131000E7FCF094C701019662E070E00E94EC26C1
:101320006D0D711D882777FD8095982F0E94FB24F5
:1013300060939C0170939D0180939E0190939F0107
:10134000F801EE0FFF1FE00FF11FEA0DFB1DEA543D
:10135000FE4F81E090E002C0880F991FCA94E2F727
:101360002081282B20831F910F91FF90EF90DF9019
:10137000CF90BF90AF90089580E060E040E00E9481
:10138000360980E090E0A0E0B0E08093A80190935F
:10139000A901A093AA01B093AB018093A4019093FB
:1013A000A501A093A601B093A7018093B0019093EB
:1013B000B101A093B201B093B30181E090E09093AA
:1013C000AD018093AC019093AF018093AE01109278
:1013D000B5010895109267011092660181E191E0D4
:1013E000909365018093640180E090E0A0E0B0E01C
:1013F00080939C0190939D01A0939E01B0939F01C7
:101400008093A0019093A101A093A201B093A301A6
:101410008093A4019093A501A093A601B093A70186
:101420008093A8019093A901A093AA01B093AB0166
:1014300008952F923F924F925F926F927F928F9278
:101440009F92AF92BF92CF92DF92EF92FF920F9353
:101450001F93DF93CF93CDB7DEB72A970FB6F894DB
:10146000DEBF0FBECDBF6C017B018A0180E291E03F
:1014700064E041E00E94A613882319F481E0809380
:10148000B501609107017091080180910901909167
:101490000A0120E030E040E050E00E94ED251816FF
:1014A0008CF58091B501882369F180E291E063E0D9
:1014B00041E00E94A613882341F480E291E064E0B9
:1014C00041E00E94A6138823E9F01092AF01109228
:1014D000AE016091A8017091A9018091AA0190913B
:1014E000AB012AE037ED43E25CE30E94F423609312
:1014F000A8017093A9018093AA019093AB0181E0A8
:10150000D6018C93609107017091080180910901C7
:1015100090910A0120E030E040E050E00E94ED258B
:1015200018162CF580E291E060E041E00E94A613DD
:101530008823E9F01092AF011092AE016091A401EE
:101540007091A5018091A6019091A7012AE037ED45
:1015500043EA5BE30E94F4236093A4017093A50126
:101560008093A6019093A70181E0F80180836091A8
:101570000701709108018091090190910A0120E012
:1015800030E040E050E00E94ED2518162CF580E296
:1015900091E062E041E00E94A6138823E9F01092F6
:1015A000AF011092AE016091A4017091A5018091EC
:1015B000A6019091A7012AE037ED43EA5BE30E9480
:1015C000F5236093A4017093A5018093A6019093E5
:1015D000A70181E0D7018C934090A8015090A90108
:1015E0006090AA017090AB01C301B20120E030E02D
:1015F00040E050E00E94ED2518160CF0FFC08091ED
:101600009C0190919D01A0919E01B0919F018B83BF
:101610009C83AD83BE83BC01CD0120E030E048EA6D
:1016200052E40E9460240E94C8247A8369838090D7
:10163000A0019090A101A090A201B090A301C501CA
:10164000B40120E030E040E452E40E9460240E94B3
:10165000C8241B010AC0C501B40120E030E040E409
:1016600052E40E94F5234B015C01C501B40120E066
:1016700030E040E050E00E94592487FDECCFEAEED4
:10168000F1E0E4903196D490319604913196149122
:101690003196F4903196C4906B817C818D819E81CE
:1016A0000E94C824DC01CB0164E570E00E94EC26B6
:1016B000080F0E19FA94F00E1C0D11501D19C501DA
:1016C000B4010E94C824DC01CB0160E370E00E94F9
:1016D000EC26180F4091A4015091A5016091A6013C
:1016E0007091A7018090AE019090AF011A86198683
:1016F000510134E0AA0CBB1C3A95E1F7A218B308DB
:1017000089819A81880F991F880F991FA981BA81B1
:101710008A0F9B1FA80EB91EE02FFF27E7FDF0954B
:10172000F887EF83EF2CFF24E7FCF094C12EDD2433
:10173000C7FCD094822D992787FD90952A2F3327B7
:1017400027FD3095DC01AA0FBB1FA80FB91FA20F00
:10175000B31FAA54BE4F01E010E089859A858A0D17
:101760009B1D880F991FFC01E051FE4F24912223FD
:1017700089F18F509E4FFC01849130E0EF81F88514
:10178000E217F307ECF02C5F3F4F2E153F05C4F036
:1017900090E00297C816D90699F49801098402C00E
:1017A000220F331F0A94E2F78C91822B8C9340E036
:1017B00050E060E070E02A013B01E1E08E2E912CC8
:1017C00029853A852F5F3F4F3A8729872530310594
:1017D00009F0C3CF4093A4015093A5016093A601E3
:1017E0007093A7014092A8015092A9016092AA01AA
:1017F0007092AB019092AF018092AE012A960FB623
:10180000F894DEBF0FBECDBFCF91DF911F910F9136
:10181000FF90EF90DF90CF90BF90AF909F908F9010
:101820007F906F905F904F903F902F900895EF9230
:10183000FF920F931F93CF93DF93EC016091070109
:10184000709108018091090190910A0120E030E037
:1018500040E050E00E94ED2518160CF05BC080E2DD
:1018600091E063E041E00E94A613882349F480E2FE
:1018700091E064E041E00E94A613882309F44AC085
:101880001092AF011092AE01E090B001F090B10162
:101890000091B2011091B301C801B7010E94542612
:1018A0002AE037ED43E25CE30E94F1259B01AC01A5
:1018B0006091A4017091A5018091A6019091A7016A
:1018C0000E94F5236093A4017093A5018093A60163
:1018D0009093A701C801B7010E945D242AE037ED6B
:1018E00043E25CEB0E94F1259B01AC016091A801F1
:1018F0007091A9018091AA019091AB010E94F523FA
:101900006093A8017093A9018093AA019093AB0101
:1019100081E0888380E291E060E041E00E94A613CC
:10192000882369F11092AF011092AE016091B0016D
:101930007091B1018091B2019091B3012DEC3CEC1A
:101940004CE45DE30E94F42308C0C801B7012BED0D
:101950003FE049EC50E40E94F5237B018C0120E03C
:1019600030E040E050E00E94592487FDEECFE09245
:10197000B001F092B1010093B2011093B30180E283
:1019800091E062E041E00E94A613882369F1109281
:10199000AF011092AE016091B0017091B1018091E0
:1019A000B2019091B3012DEC3CEC4CE45DE30E945C
:1019B000F52308C0C801B7012BED3FE049EC50E426
:1019C0000E94F4237B018C012BED3FE049EC50E4B5
:1019D0000E94ED2587FFEECFE092B001F092B101B9
:1019E0000093B2011093B301DF91CF911F910F913A
:1019F000FF90EF9008952F923F924F925F926F92D7
:101A00007F928F929F92AF92BF92CF92DF92EF928E
:101A1000FF920F931F938C017B016A0180E291E09A
:101A200065E00E949C138823F1F020E030E0809173
:101A3000AC019091AD01892B11F421E030E030939D
:101A4000AD012093AC011092AF011092AE0180E085
:101A500090E0A0E0B0E08093B0019093B101A0933A
:101A6000B201B093B3018091AC019091AD010097A8
:101A700021F4C8010E94170C07C0019729F4C8017E
:101A8000B701A6010E94190A60910701709108012F
:101A90008091090190910A0120E030E040E050E09F
:101AA0000E9459248091AE019091AF010197B1F04D
:101AB0006091A8017091A9018091AA019091AB0158
:101AC0002AE037ED43E25BE30E94F5236093A8012F
:101AD0007093A9018093AA019093AB016090A40137
:101AE0007090A5018090A6019090A701C401B30158
:101AF00020919C0130919D0140919E0150919F0148
:101B00000E94F5237B018C0160939C0170939D01E1
:101B100080939E0190939F012090A8013090A9018D
:101B20004090AA015090AB01C201B1012091A001E7
:101B30003091A1014091A2015091A3010E94F5238F
:101B40005B016C016093A0017093A1018093A201DD
:101B50009093A301C801B70120E030E040E050E0DD
:101B60000E9459248823B4F4D801C701B058809347
:101B70009C0190939D01A0939E01B0939F01D4017D
:101B8000C301B0588093A4019093A501A093A6012E
:101B9000B093A701E0909C01F0909D0100919E01FF
:101BA00010919F01C801B70120E030E04CE753E4F9
:101BB0000E94ED2588230CF160E070E08CEF93E447
:101BC000A80197010E94F42360939C0170939D01EA
:101BD00080939E0190939F018091A4019091A50113
:101BE000A091A601B091A701B0588093A401909351
:101BF000A501A093A601B093A701C601B50120E0FD
:101C000030E040E153E40E94ED258823DCF060E001
:101C100070E080E993E4A60195010E94F4236093AB
:101C2000A0017093A1018093A2019093A301D2011E
:101C3000C101B0588093A8019093A901A093AA0173
:101C4000B093AB0180E090E0AAE7B4E48093070191
:101C500090930801A0930901B0930A011F910F917D
:101C6000FF90EF90DF90CF90BF90AF909F908F90BC
:101C70007F906F905F904F903F902F900895CF92FC
:101C8000DF92EF92FF920F931F93CF93DF937B012D
:101C9000EA0100E010E0C82EDD2413C084E691E0E4
:101CA000F701608148810E94F41388818F5F8883E7
:101CB000803328F0F70180818F5F808318820F5F67
:101CC0001F4F0C151D0554F3DF91CF911F910F91FC
:101CD000FF90EF90DF90CF9008954F925F926F92B8
:101CE0007F928F929F92AF92BF92CF92DF92EF92AC
:101CF000FF920F931F93CF93DF93482E562E642E9F
:101D0000722E802EF6018491E6012296992787FD96
:101D10009095079668E070E00E94EC26962E00E011
:101D200040E8A42EB12C2BC0E82F87FDE95FE59594
:101D3000E595E595FF27E7FDF095EC0DFD1DEC0F12
:101D4000FD1FE4912E2F30E068E00E94CB26A50114
:101D500002C0559547959A95E2F724233523232B06
:101D600039F0612F640D84E691E04F2D0E94F41349
:101D70001F5F812F880D1615BCF20F5FE3940715C6
:101D80004CF45E2D892D58026001112410E0F02ED4
:101D9000F50CEFCFDF91CF911F910F91FF90EF9056
:101DA000DF90CF90BF90AF909F908F907F906F907B
:101DB0005F904F9008958F929F92AF92BF92CF9273
:101DC000DF92EF92FF920F931F93A82E162F842F6E
:101DD00090E09C01220F331F220F331FF901E65BB5
:101DE000FD4F9490F901E55BFD4F8490C901845B40
:101DF0009D4FFC01B490235B3D4FF901F4901F5FB0
:101E00001F19442361F484E691E061E00E94EC1321
:101E10008A2D612F4B2D2F2D092DE82C1EC084E615
:101E200091E060E00E94EC138A2D612F4B2D2F2D45
:101E3000092DE82CECE5CE2EE4E0DE2E0E946D0E9E
:101E400084E691E061E00E94EC138091B401882364
:101E500049F08A2D612F4B2D2F2D7AE5C72E72E088
:101E6000D72E0AC08A2D612F4B2D2F2D092DE82C3E
:101E70005EE5C52E56E0D52E0E946D0E1F910F9186
:101E8000FF90EF90DF90CF90BF90AF909F908F909A
:101E900008954F925F926F927F928F929F92AF922E
:101EA000BF92CF92DF92EF92FF920F931F93DF9337
:101EB000CF9300D0CDB7DEB7E090A001F090A101A4
:101EC0000091A2011091A301C801B70120E030E008
:101ED00040E050E00E94592487FD07C160919C01B9
:101EE00070919D0180919E0190919F0120E030E0D2
:101EF00048EA52E40E9460240E94C8244B01C801B1
:101F0000B70120E030E040E452E40E9460240E94E7
:101F1000C8245B01FB01EE0FFF1FE60FF71FE80D62
:101F2000F91DEE0FFF1FE858FE4F0591149184E64E
:101F300091E061E00E94EC1319821A8262E0462E61
:101F4000512C4C0E5D1E3E010894611C711C45C055
:101F5000F801D4900F5F1F4FF801F4900F5F1F4FEF
:101F6000F801E490025010409D2D9F738A81890FE3
:101F70008A8305C089818F5F898390539A839A8170
:101F80009033C0F78F2D8F73B301A2010E943F0ED3
:101F90009E2D9F738A81890F8A8305C089818F5FF7
:101FA000898390539A839A819033C0F70D5F1F4FB6
:101FB000F2945FE0F522FCE0FF22E694E69480E3F1
:101FC000E822FE28D294D694D69443E0D4228F2DD2
:101FD0008D29B301A2010E943F0E8981843508F446
:101FE000B7CFEE24FF24850134E0000F111F3A958E
:101FF000E1F70A191B09C401880F991F880F991F5F
:10200000880D991D080F191F9701200F311F220FEE
:10201000331FF901E051FE4F8491882371F02F5056
:102020003E4FF901649140E00E94DB0E0894E11CF0
:10203000F11CF5E0EF16F10439F76091860170911B
:10204000870180918801909189012AE030E040E089
:1020500050E00E94FF26CA01B90123E030E040E0D1
:1020600050E00E94FF263B010894611C711CF501A1
:10207000EE0FFF1FEA0DFB1DE80DF91DEA54FE4FA0
:102080004081CC24DD24750104E0EE0CFF1C0A9590
:10209000E1F7EA18FB08C401880F991F880F991F00
:1020A000880D991DE80EF91E96012E0D3F1D220F79
:1020B000331FF901E051FE4F84918823B1F02F5076
:1020C0003E4FF9016491042F10E040FD03C0462DFE
:1020D0000E94DB0E0894C11CD11CF5E0CF16D10480
:1020E00021F015950795402FDFCF0F900F90CF91DE
:1020F000DF911F910F91FF90EF90DF90CF90BF90F5
:10210000AF909F908F907F906F905F904F900895C9
:102110007F928F929F92AF92BF92CF92DF92EF9277
:10212000FF920F931F939B01FA01449131961491F2
:10213000319694903196A490319674903196849013
:1021400064E570E00E94EC26B92CB80EB41AC901FF
:1021500060E370E00E94EC26FA2CF80EF11A84E697
:1021600091E060E00E94EC138B2D6F2D472D282D00
:10217000092DEA2C9CE5C92E94E0D92E0E946D0E03
:1021800084E691E061E00E94EC138091B401882321
:1021900049F08B2D6F2D472D282D1AE5C12E12E009
:1021A000D12E0AC08B2D6F2D472D282D092DEA2CFD
:1021B000BEE5CB2EB6E0DB2E0E946D0E1F910F9177
:1021C000FF90EF90DF90CF90BF90AF909F908F9057
:1021D0007F9008955F926F927F928F929F92AF92BD
:1021E000BF92CF92DF92EF92FF920F931F93CF9304
:1021F000DF93782E662E542EA0909C01B0909D0106
:10220000C0909E01D0909F01E090A001F090A101AC
:102210000091A2011091A3010AC0C801B70120E0FA
:1022200030E040E452E40E94F5237B018C01C801B8
:10223000B70120E030E040E050E00E94592487FDE3
:10224000ECCFC601B5010E94C8245B016C014B01B3
:10225000C801B7010E94C8247B018C01EB01C501B4
:10226000B7014AEE51E00E948810772031F0C50195
:10227000B70140E658E00E948810662031F0C401A2
:10228000BE0146E658E00E948810552031F0C40196
:10229000BE014CE658E00E948810DF91CF911F915B
:1022A0000F91FF90EF90DF90CF90BF90AF909F90F5
:1022B0008F907F906F905F9008952F923F924F92F2
:1022C0005F926F927F928F929F92AF92BF92CF92C6
:1022D000DF92EF92FF920F931F93B82E662E2090FD
:1022E0009C0130909D0140909E0150909F01E09094
:1022F000A001F090A1010091A2011091A3010AC0D8
:10230000C801B70120E030E040E452E40E94F52328
:102310007B018C01C801B70120E030E040E050E0D3
:102320000E94592487FDECCF6091B0017091B101FA
:102330008091B2019091B30120E030E040E851E497
:102340000E94F1252BED3FE049EC50E40E9460240F
:1023500020E030E040E05FE30E94F5230E94C824C3
:10236000DC01CB0160E170E00E94EC269C01880F4B
:10237000991F820F931F9C01220F331FF901E6570B
:10238000FE4FD490F901E557FE4FC490BB2049F4AD
:102390007D2C7A948C2C8A9483E0982EB3E0AB2E1B
:1023A00012C0FC01EE0FFF1FE457FE4F7490F901BD
:1023B000E357FE4F8490F901E257FE4F9490F901E4
:1023C000E157FE4FA490C201B1010E94C824DC0174
:1023D000CB0164E570E00E94EC26B82EBD18B70C66
:1023E000C801B7010E94C824DC01CB0160E370E0A2
:1023F0000E94EC26182F1C19180D84E691E060E06D
:102400000E94EC138B2D612F492D2A2D072DE82CCE
:102410007CE5C72E74E0D72E0E946D0E84E691E015
:1024200061E00E94EC13662049F08B2D612F492D4D
:102430002A2D5AE5C52E52E0D52E0AC08B2D612FCC
:10244000492D2A2D072DE82C3EE5C32E36E0D32E4C
:102450000E946D0E1F910F91FF90EF90DF90CF9033
:10246000BF90AF909F908F907F906F905F904F90B4
:102470003F902F900895E091AC01F091AD0130971D
:1024800021F4622F0E945D110895319711F40E948A
:10249000EA10089586E191E062E778E046E850E0CE
:1024A0000E94F71B0E94BC090895DF93CF9300D0D0
:1024B0000F92CDB7DEB786E191E00E943E1B8823E4
:1024C00041F119821A821B8290E08091B401882325
:1024D00009F491E09093B40180E291E066E00E94FB
:1024E0009C13882319F00E944A1213C0CE01019652
:1024F000BE016E5F7F4FAE014D5F5F4F0E94FB0CD0
:102500000E94490F89816A814B812091B4010E9408
:102510003B120F900F900F90CF91DF9108950F9382
:102520001F9306E111E0C8010E945A1DC80169E22B
:102530000E9476190E944A121F910F9108958823D4
:1025400019F48CB5806202C08CB58F7D8CBD089566
:102550009CB5937F982B9CBD08952CB5382F337074
:102560002C7F322B3CBD2DB590E0959587959595A8
:10257000879581702E7F822B8DBD08958AE061E062
:102580000E946C228AE061E00E942D228CB580615D
:102590008CBD8CB580648CBD8DE061E00E942D22E5
:1025A0008BE061E00E942D220895FC0181E0808390
:1025B000089585E070E00E94CD2108956F927F928A
:1025C0008F929F92AF92BF92CF92DF92EF92FF9243
:1025D0000F931F93CF93DF93EC0189819A818C0134
:1025E00024E0000F111F2A95E1F7081B190B85E164
:1025F0000E94AB21BC01600F711F84E07695679546
:102600008A95E1F77A8369838881882381F12E8115
:102610003F816217730710F4B90106C08885998558
:102620008617970708F4BC0100D000D080E090E046
:1026300040E050E0E884F98400E010E0AD80BB2485
:10264000CC24DD246C80772488249924EDB7FEB750
:1026500061827282838294820E94AB236B830F908B
:102660000F900F900F9085E070E00E94CD21DF91D8
:10267000CF911F910F91FF90EF90DF90CF90BF907F
:10268000AF909F908F907F906F900895FC018CE3A6
:102690009FE09383828384E0818381E0848708952F
:1026A000CF93DF93EC018C8590E08F719070892B34
:1026B00069F584E10E94AB21AA2797FDA095BA2F66
:1026C000BC01CD010E94FB2426EE3FE34EEC50E41A
:1026D0000E94F1250E94CD249B01AC017B836A837B
:1026E0006115710589F084E08983B901FE0120E05C
:1026F000848195816817790710F429830AC02F5FB8
:1027000032962430A9F702C08FEF89838C858F5FC2
:102710008C87DF91CF910895FC0188E0808389E068
:10272000818387E0828386E0838384E0848382E000
:10273000858381E18683089520E0FC01E60FF11D89
:102740008781813009F421E0822F0895E62FF0E09F
:10275000423040F420E0E80FF91F878181508E3F1E
:1027600088F40FC0E80FF91F87818F3F11F420E034
:1027700009C020E090E0642F70E00E94D826019705
:1027800009F421E0822F08950F931F93CF93DF93D5
:10279000EC0110E00FEF888162E00E942D22888119
:1027A0000E94C0222F81892B19F42F5F2F8307C02D
:1027B000222349F02F3F11F41F8201C00F8388812B
:1027C00060E00E942D221F5F2196173021F7DF91D4
:1027D000CF911F910F910895FC01678F60A3089519
:1027E000FC01678F40A30895FC016435A8F547FDFF
:1027F00033C040338CF5878D942F9595959595959D
:10280000772767FD70954770882399F0E4E59E026D
:10281000F0011124E60FF71FE154FE4F81E090E034
:1028200002C0880F991F4A95E2F72081282B208348
:102830000895E4E59E02F0011124E60FF71FE1542C
:10284000FE4F81E090E002C0880F991F4A95E2F7A1
:1028500080952081282320830895AF92BF92CF9244
:10286000DF92EF92FF920F931F93CF93DF93EC01D0
:10287000162FF42EE22EAA24402F552747FD5095FF
:102880008F2D992787FD9095481B590B57FF03C043
:10289000509541955F4F2E2D332727FD3095812F81
:1028A000992787FD9095281B390B37FF03C030957A
:1028B00021953F4F2417350744F4AA24A3948F2D64
:1028C000F12E182F802F0E2DE82EE11634F48E2DC8
:1028D000E12E182F802F0F2DF82EDE2CD11A202F4D
:1028E000332727FD30958F2D992787FD9095281B3D
:1028F000390B37FF03C0309521953F4FB22EF016AC
:102900001CF0CC24CA9402C0CC24C3948D2DD7FCD7
:102910008F5F082F059511C0AA2021F0CE016F2DE1
:10292000412F03C0CE01612F4F2D0E94F4130B19CC
:1029300007FF02C0FC0C0D0D1F5FE1166CF7DF9165
:10294000CF911F910F91FF90EF90DF90CF90BF90AC
:10295000AF9008950F93042F322F262F2150230F6D
:102960000E942D140F9108950F93362F042F0150BC
:10297000020F232F0E942D140F9108959F92AF9262
:10298000BF92CF92DF92EF92FF920F931F93CF935C
:10299000DF936C01B62E942EA02EC0E0D0E0E62E80
:1029A000FF24E7FCF094022F112707FD10950E0D70
:1029B0001F1D06C0C601492D2A2D0E94B414219660
:1029C0006B2D6C0FCE018E0D9F1D8017910794F318
:1029D000DF91CF911F910F91FF90EF90DF90CF90FB
:1029E000BF90AF909F9008952F923F925F926F9209
:1029F0007F928F929F92AF92BF92CF92DF92EF928F
:102A0000FF920F931F93DF93CF9300D000D000D09D
:102A1000CDB7DEB79E838D83C62ED42EEE24E394ED
:102A2000E21A8EEF289F502C1124842E8A94962E21
:102A30009A94A42EA394B62EB394F22E662423E087
:102A4000722E10E0C801847090709A838983F80117
:102A5000E270F070FC83EB8398E0292E312C202269
:102A600031220170107054C0E7FC04C0FA94F2E007
:102A70005F0EE50C639489819A81892B71F04F2D4B
:102A80004D0D8D819E816B2D0E94F4136F2D6C0D69
:102A90008D819E814A2D0E94F413EB81FC81EF2BE6
:102AA00071F04D2D4F198D819E816B2D0E94F41375
:102AB0006F2D6C0D8D819E81482D0E94F413211481
:102AC000310471F06C2D6F198D819E814A2D0E9409
:102AD000F4134F2D4D0D8D819E81692D0E94F413AD
:102AE0000115110571F06C2D6F198D819E81482D96
:102AF0000E94F4134D2D4F198D819E81692D0E94E6
:102B0000F413E70CF2E07F0E8A949A94A394B394A2
:102B10006F140CF4A9CF26960FB6F894DEBF0FBE43
:102B2000CDBFCF91DF911F910F91FF90EF90DF907C
:102B3000CF90BF90AF909F908F907F906F905F905D
:102B40003F902F9008954F925F926F927F928F9255
:102B50009F92AF92BF92CF92DF92EF92FF920F932C
:102B60001F93CF93DF93EC01A62E742E9E2DFF248E
:102B7000F394F21A8EEF289F802C1124B42EBA946D
:102B800053E0C52ECE0CE22EDD2443E0942E10E05F
:102B900031E0432E512C40225122692E6394027061
:102BA000107034C0F7FC04C0EA9482E0880EF80C80
:102BB000D3944114510489F06D2D6A0D472D4E199F
:102BC0002E2D220F260DCE010E94B4146E2D6A0DFB
:102BD000CE014B2D2C2D0E94B4140115110589F046
:102BE0006A2D6D19472D4E192E2D220F260DCE015F
:102BF0000E94B4146A2D6E19CE014B2D2C2D0E940B
:102C0000B414F90C82E0980EBA94C80EDE1454F293
:102C1000DF91CF911F910F91FF90EF90DF90CF90B8
:102C2000BF90AF909F908F907F906F905F904F90EC
:102C300008957F928F929F92AF92BF92CF92DF9230
:102C4000EF92FF920F931F936C01962EA42EF22EFB
:102C50007E2C760E1EEFE19E102D1124812E820E09
:102C6000672D282D0E94AA14B02EBA0CBA94C60162
:102C7000672D4B2D282D0E94AA14AE0C100FC601F3
:102C8000692D4A2D212F0E94B414F90CFA94C60123
:102C90006F2D4A2D212F0E94B414C601672D4A2D95
:102CA0002E2D01E00E94F414FE18C6016F2D4A2D4E
:102CB0002E2D02E00E94F414BE18C6016F2D4B2D7C
:102CC0002E2D04E00E94F414C601672D4B2D2E2DED
:102CD00008E00E94F4141F910F91FF90EF90DF9095
:102CE000CF90BF90AF909F908F907F9008958F92DC
:102CF0009F92AF92BF92CF92DF92EF92FF920F938B
:102D00001F936C01162FA42E922EF02EBE2C8E2C0B
:102D1000860E2EEFE29EE02C11242E2D290D682D1B
:102D20000E94BE14AB0CFA94FE0C1150190D1B1925
:102D3000C601612F4A2D2B2D01E0EF2C0E94A31517
:102D4000C601682D4A2D2B2D02E00E94A3151F916C
:102D50000F91FF90EF90DF90CF90BF90AF909F903A
:102D60008F9008953F924F925F926F927F928F92D1
:102D70009F92AF92BF92CF92DF92EF92FF920F930A
:102D80001F93CF93DF934C01362E442EF901A4906C
:102D9000319654906F010894C11CD11C8A2D99273B
:102DA00087FD9095079668E070E00E94EC26E62E7D
:102DB000FF24E7FCF09400E0C0E0D0E060E8662E7D
:102DC000712C26C0E12FE595E595E595FF27E7FDF8
:102DD000F095EC0FFD1FEC0DFD1DE4912E2F30E062
:102DE000812F8770A30102C0559547958A95E2F718
:102DF00024233523232B31F0612F630DC4014B2D88
:102E00000E94F4131F5F1A15ECF20F5FCE0DDF1D49
:102E1000051524F410E0B02EB40CF5CFDF91CF915E
:102E20001F910F91FF90EF90DF90CF90BF90AF90E8
:102E30009F908F907F906F905F904F903F900895FC
:102E40003F924F925F926F927F928F929F92AF923A
:102E5000BF92CF92DF92EF92FF920F931F93CF9387
:102E6000DF93EC01862EA42E422F102F3F8C23E5FA
:102E700026170CF4ABC03FE23A150CF4A7C0C02EE5
:102E8000DD248C8190E001979C01C29EC001C39E0D
:102E9000900DD29E900D1124262F332727FD3095BB
:102EA000820F931F181619060CF090C08D8190E0C8
:102EB0009C01C29EC001C39E900DD29E900D112414
:102EC0002A2D332727FD3095820F931F18161906D8
:102ED0000CF07CC09924442E55246DC09C012150D7
:102EE00030404217530711F460E00EC0429EC0010B
:102EF000439E900D529E900D1124840F951FED8DD1
:102F0000FE8DE80FF91F64914C9DC0014D9D900D01
:102F10005C9D900D1124682C680EBB24792C780CD4
:102F20003FC0E62EFF2460FF19C0113039F44B2D4D
:102F30004A0DCE01672D0E94F4132EC02C9DC001B6
:102F40002D9D900D3C9D900D11244A2D480FCE01D2
:102F5000662D212F012F0E94BE141EC098A18F8DB7
:102F60009817D1F09F8F113039F44B2D4A0DCE01B7
:102F7000672D0E94F4130FC02C9DC0012D9D900D54
:102F80003C9D900D11244A2D480FCE01662D212F16
:102F9000012F0E94BE143F8EF594E7946E2DB394DA
:102FA0002B2D332727FD30958D8190E02817390789
:102FB0000CF4B7CF9394492D552747FD50958C813C
:102FC00090E0481759070CF489CF3F8EDF91CF91DD
:102FD0001F910F91FF90EF90DF90CF90BF90AF9037
:102FE0009F908F907F906F905F904F903F9008954B
:102FF0000F93CF93DF93EC01262F6A3049F48D8134
:103000009885899F802D11249A85980F9A8726C0CC
:103010006D3029F169854A8508850E9420179C81B9
:103020006885969F402D11248985480F49878F8197
:103030008823A9F0552747FD5095699F90011124D9
:1030400084E590E0821B930B8417950744F49D81DF
:10305000699F902D11248A85890F8A87198681E0BE
:1030600090E0DF91CF910F9108951F93CF93DF935D
:10307000EC01162FF8948E8560E00E946C228F85FB
:1030800018161CF460E00E946C221EBD0DB407FEF1
:10309000FDCF8EB58F8518161CF461E00E946C225E
:1030A0007894DF91CF911F910895FF920F931F9312
:1030B000CF93DF93EC01FF2400E010E06F2D6064FC
:1030C000CE010E943518CE0160E80E9435188E8529
:1030D00061E00E946C228F8518161CF460E00E944B
:1030E0006C22F801E154FE4F90E080818EBD0DB45A
:1030F00007FEFDCF8EB59F5F31969435B1F78F8572
:1031000018161CF461E00E946C22F3940C5A1F4FB5
:1031100086E0F81699F6CE0160E40E943518DF913A
:10312000CF911F910F91FF900895CF93DF93DC0112
:1031300088EF91E0EFEBF1E0EF019C011992215053
:103140003040E1F719961C9219971A961C92DF915C
:10315000CF910895EF920F93CF93DF93EC014D87BA
:103160006C872E87E88A0F8781E088878F8F18A267
:103170008F83EFEAFEE084918F5F8C833196849198
:103180008F5F8D833196FE8FED8F0E94BE1281E09E
:103190000E949F1285E00E94AD128CE00E94A8124E
:1031A0008D8561E00E942D228C8561E00E942D2298
:1031B0008E8561E00E942D22888918161CF461E03A
:1031C0000E942D228F8518161CF461E00E942D228A
:1031D000888918166CF460E00E946C226AE070E046
:1031E00080E090E00E941721888961E00E946C22B3
:1031F000EC852E2F332727FD3095F901E752FE4E3F
:10320000E491F0E0EE0FFF1FEB53FE4E8591949199
:103210009C8B8B8B23513E4EF90184918A8FED85D7
:103220002E2F332727FD3095F901E752FE4EE4910A
:10323000F0E0EE0FFF1FEB53FE4E859194919A8BB9
:10324000898B23513E4EF9018491898FEF852E2F72
:10325000332727FD3095F901E752FE4EE491F0E067
:10326000EE0FFF1FEB53FE4E859194919E8B8D8B3D
:1032700023513E4EF90184918B8FEE852E2F3327FB
:1032800027FD3095F901E752FE4EE491F0E0EE0F94
:10329000FF1FEB53FE4E85919491988F8F8B235196
:1032A0003E4EF90184918C8FCE0161E20E94351867
:1032B000CE0164E10E9435188B8587FF02C08FE73D
:1032C0008B876B856068CE010E943518CE0160E265
:1032D0000E943518CE016CE00E943518CE010E9484
:1032E0005518DF91CF910F91EF900895FC01262F93
:1032F000E258FF4F88EE93E070E00E94EC26608376
:10330000EE57F040822F64E10E94BF2681A7089506
:10331000CF93DF93DC01E0E8FFE685919491ED0126
:10332000C75ADF4FAD0141595F4F8150904C09F0B2
:103330004EC0E6E9FFE6E491E883E7E9FFE6E491C1
:103340001496EC931497E8E9FFE6E4911596EC9354
:103350001597E9E9FFE68591949117969C938E93D2
:103360001697EBE9FFE68591949119969C938E93BD
:103370001897EDE9FFE6E4919B96EC939B97EEE9B5
:10338000FFE6E4919A96EC939A97EFE9FFE6E491D1
:10339000EA01E883E0EAFFE6859194915D969C93CB
:1033A0008E935C97E2EAFFE6859194915F969C93F9
:1033B0008E935E97E4EAFFE68591949191969C93B3
:1033C0008E939097E6EAFFE68591949132C08CE364
:1033D000888314961C9214972FEF15962C931597AB
:1033E00080E293E017969C938E93169784ED93E07A
:1033F00019969C938E93189781E09B968C939B973C
:103400009A968C939A97FA0120838CEA9DE05D96B8
:103410009C938E935C978EED9DE05F969C938E932C
:103420005E9784E79EE091969C938E9390978CE3B1
:103430009FE093969C938E939297DF91CF910895FE
:10344000EF92FF920F931F93CF93DF937C018C0138
:10345000025B1F4FC8010E949518C80166E570E124
:103460000E944C23C8010E94551883E00E94AD12AF
:1034700080E091E0EEEFFFE3099584E590E0E80E4F
:10348000F91EF7011082C80161E370E10E949723E1
:10349000C8010E945518E701CA54D040CE010E94CD
:1034A000C413CE0164E00E949C13882339F462E3C4
:1034B00070E080E090E00E941721F0CFDF91CF9183
:1034C0001F910F91FF90EF9008950F931F93CF934B
:1034D000DF93EC018C01025B1F4FC80161E040E00B
:1034E0000E94F013FE01E95AFF4FCE5ADF4F85E5E7
:1034F0009881891B808326961882C855D040698D93
:10350000613081F1613028F0888D653008F043C06A
:103510003DC0CE0185960E94211ECE0160E00E9432
:10352000D912C8010E949518CA5ADF4F81E08883DA
:10353000C8016EE770E10E944C23C8010E94551833
:1035400083B7817F846083BF83B7816083BF83B784
:10355000816083BF889583B78E7F83BF83B78E7F5B
:1035600083BF1FC0C059DF4F88819981AA81BB8169
:103570008F709070A070B0700897A105B10518F415
:10358000C80167E00CC0C80168E709C0882349F09A
:103590006B5FC80104C0882321F0C8016FE20E945C
:1035A0006F23DF91CF911F910F910895AF92BF923A
:1035B000CF92DF92EF92FF920F931F93CF93DF93FF
:1035C000EC01CB57DF4F8881C558D040882309F4E0
:1035D0004AC08C3010F010E002C01CE0181BCA5A20
:1035E000DF4F81E08883C655D0406EE4C62ED12CD3
:1035F000CC0EDD1EC60160E00E94EC1353E5A52E43
:10360000B12CAC0EBD1EF50100814DE2F42E4F2D04
:10361000401B410F0D5FC60160E024E533E0E32E5F
:103620000E947716C60161E00E94EC13F50100814B
:10363000F01AF10E0D5FC60160E04F2D24E50E94E7
:103640001916C95ADF4F84E08993F5018081181B50
:10365000115D1883AB9669917991C6010E944C2344
:10366000888181508883DF91CF911F910F91FF90C6
:10367000EF90DF90CF90BF90AF900895AF92BF9240
:10368000CF92DF92EF92FF920F931F93CF93DF932E
:10369000EC01EFE7AE2EB12CA80EB91EF501E080CB
:1036A000F180028113810E94E320E61AF70A080BD9
:1036B000190B7EE7C72ED12CCC0EDD1EF6018081C2
:1036C00090E0A0E0B0E08E159F05A007B10708F0DC
:1036D00081C08E0106581F4FF80180819181A2811F
:1036E000B3810097A105B10509F474C00E94E320DD
:1036F000F6012081620F711D811D911DF50160830E
:10370000718382839383FE01E059FF4F8081918111
:10371000A281B3810196A11DB11D80839183A283F3
:10372000B383F80110821182128213820E94F12069
:10373000CA58DF4F688379838A839B83C657D040FA
:10374000CE010E94DE12CE010A960E94C413CE0161
:1037500048960E94501381E032C08E010B5D1F4FCE
:10376000C8010E941D1EC8010E94F51EC8010E94CA
:10377000EB1FCE010E94D61ACE010E94651A8E015F
:10378000025B1F4FC8010E945518CC5ADF4F888139
:10379000C455D040882319F4C8010E9495180E948E
:1037A000F120C658DF4F688379838A839B832497EF
:1037B00028813981621B730B7A936A9380E0DF91D1
:1037C000CF911F910F91FF90EF90DF90CF90BF901E
:1037D000AF900895C658DF4F88819981AA81BB8137
:1037E000CA57D0400097A105B10541F7B6CF2F9237
:1037F0003F924F925F926F927F928F929F92AF9281
:10380000BF92CF92DF92EF92FF920F931F93DF93BD
:10381000CF93CDB7DEB72B970FB6F894DEBF0FBEB0
:10382000CDBF9B878A877A8369835C834B838C01B6
:1038300001591F4FF8018081882309F422C18A852C
:103840009B858A5A9F4F9B878A8781E0EA85FB8503
:10385000808312921292E455F040FB87EA87108E23
:103860009EE4E92EF12CEE0EFF1EC70161E00E94DE
:10387000EC138AE0282E312C8A859B85280E391E70
:10388000B5E26B2E712C680E791EE981FA81F491F4
:10389000FD83A7E58A2E912C880E991EF8E5CF2E80
:1038A000D12CC80ED91EE2E54E2E512C480E591EC1
:1038B0008D5A9F4F9F838E8370E7A72EB12C8A85E8
:1038C0009B85A80EB91E198708878A859B850E944B
:1038D0003E1B8823D1F39D81992311F410E003C08E
:1038E000EE81FF811081C70160E040E02AEC30E109
:1038F0000E94B2168B819C81892B41F0145FC70115
:1039000060E0412F2B813C810E94B216F4011082AD
:103910008CE0F6018083C70169817A810E944C2383
:10392000F201208130E0C901880F991F820F931F97
:10393000909581959F4F8D5AF4018083EE81FF8190
:10394000208130E0C901880F991F820F931F909545
:1039500081959F4F835DF6018083F501808184FF0F
:1039600004C0C7016AE471E103C0C70166E471E104
:103970000E949723F201208130E0C901880F991F2E
:10398000820F931F909581959F4F8D5AF4018083EC
:10399000F60180818F5F8083EA85FB8582A588237D
:1039A00021F0C70162E471E103C0C7016EE371E178
:1039B0000E949723F201808190E09C01220F331F27
:1039C000280F391F309521953F4F2D5AF401208340
:1039D000F60180818F5F8083C7016AE371E10E94F5
:1039E0009723C10165E00E949C13882351F0EA856A
:1039F000FB8562A56F5FC3010E945420C3010E9432
:103A00004E20C10164E00E949C13882399F4E8854C
:103A1000F9856081262F30E040E050E0F50180819B
:103A20009181A281B38182179307A407B50708F19A
:103A30006F3FF9F08A859B8581599F4F9B878A87C5
:103A40008FEFEA85FB858083EF56F040FB87EA879E
:103A5000C30160E00E94C11DC3010E94482081E0B3
:103A6000EA85FB85808F0DC08A859B850E94201A80
:103A70002CCFC10166E00E949C13882309F425CF56
:103A8000F3CF2B960FB6F894DEBF0FBECDBFCF910C
:103A9000DF911F910F91FF90EF90DF90CF90BF903B
:103AA000AF909F908F907F906F905F904F903F90DE
:103AB0002F900895AF92BF92CF92DF92EF920F9323
:103AC000CF93DF936C018EE790E0C80ED91E82E39E
:103AD000F601808381E090E0A0E0B0E0B293A29391
:103AE000929382936F0185EF9FEFC80ED91E8FEFDF
:103AF000F601808381E99FEFC80ED91EC6010E949E
:103B00008819C6010E94D512C6016FEF0E94D91212
:103B10004AE0A42EB12CAC0CBD1CC5010E948C1334
:103B2000C5010E94C413C60148960E944613C601EF
:103B3000825B9F4F6DE04BE020E10FE03EE0E32E23
:103B40000E94AA18E601A596CE010E946120C50137
:103B500065E00E949C13882329F0CE0160E00E945A
:103B6000542006C0CE0160E571E140E00E94D31D03
:103B7000DF91CF910F91EF90DF90CF90BF90AF90FA
:103B80000895FC01662371F4178A158A14A213A202
:103B9000108E1092BB031092BA031092B8031092C9
:103BA000B400118208950F931F93CF93DF93EC011C
:103BB0008B01442371F460E00E94C11D1E870D87B4
:103BC0001B8A1A8A81E0898389E08E8B198E1B8E6D
:103BD0001D8EDF91CF911F910F910895CF93DF93A9
:103BE000EC01662339F58881882321F189818823B6
:103BF00009F5898590E0880F991FEF81F885E80F16
:103C0000F91F859194912FEF8F3F920711F418823D
:103C100011C09C8790E0880F991FEA85FB85E80F0B
:103C2000F91F65917491CE0140E00E94D31D8985F2
:103C30008F5F8987DF91CF91089560E00E94EE1D2C
:103C4000089560E00E94C11D08950F93DC010023D8
:103C500009F047C06230A1F1633030F4662351F0BF
:103C6000613009F03EC009C0633081F1643009F071
:103C700038C032C056964C9334C0842F90E0880FE1
:103C8000991F1F962D913C915097280F391FF901CC
:103C90008591949190969C938E935F97FC014591AA
:103CA0005491642F91964C939197252F3327842F0D
:103CB00090E02817390708F4652F92966C9311C08D
:103CC00059964C9359975A962C930BC05B964C93EC
:103CD0005B975C962C9305C05D964C935D975E96C2
:103CE0002C930F9108950F93CF93DF93EC016623EC
:103CF00009F077C08981882309F473C08D898823EE
:103D000009F06FC0EA89FB89EE0FFF1F4D855E85C4
:103D1000E40FF51F259134912115310509F049C0B3
:103D20008989813031F41B8A1A8AFA0125913491EC
:103D300040C019828881882379F0CE0160E00E941A
:103D4000EE1D8A899B89880F991FED85FE85E80FF6
:103D5000F91F259134912DC01F8A1D8A1CA21BA218
:103D6000188E1092BB031092BA031092B8031092EF
:103D7000B40037C006E0369527950A95E1F76F70D5
:103D8000422F4F71B5E036952795BA95E1F720514E
:103D9000CE0100E00E94251E8A899B8901969B8B9B
:103DA0008A8B880F991FED85FE85E80FF91F2591F5
:103DB0003491B901769567957695679520FDDACFB0
:103DC000862F8F738C8B3D8B1DA21CA21BA281E0C2
:103DD0008F8B8093B803188E8A899B8901969B8B61
:103DE0008A8BDF91CF910F91089560E00E94731E3E
:103DF0000895CF93DF93EC01662309F0E9C08F8922
:103E0000882309F4E5C08D89882371F41F8A1D8AEF
:103E10001CA21BA2188E1092BB031092BA03109220
:103E2000B8031092B400D4C081508D8B8DA188232B
:103E300009F044C08BA19CA10196880F991FEF8DBA
:103E4000F8A1E80FF91F85919491282F27702EA3D0
:103E5000AC0173E0569547957A95E1F79A0136954E
:103E60002795892F9927869586958FA32F738C8107
:103E7000289F202D11242DA341704093BC038BA1BA
:103E80009CA101969CA38BA329A130E082179307E4
:103E9000A8F08AA1882329F0281B31093CA32BA371
:103EA0000DC01F8A1D8A1CA21BA2188E1092BB0374
:103EB0001092BA031092B8031092B4008DA18150F1
:103EC0008DA3988D9F5F988F2FA18C89280F8C854B
:103ED000280F2A836B8D662369F0892F992787FD28
:103EE000909570E00E94EC268C8D869F802D112489
:103EF000820F8A838A8190E0CB966BE370E00E9408
:103F0000EC268A832E892B83698D662379F0888D30
:103F1000772767FD7095992787FD90950E94EC267D
:103F20008A8D869F802D1124820F8B836D8D662351
:103F300099F0888D992787FD909570E00E94EC2676
:103F4000CB0162E070E00E94EC269E8D899F802D5F
:103F500011249B81890F8B838B818A300CF089E03F
:103F600087FD80E08B838C898F3309F41B82F89462
:103F7000EA81F0E0EC58FE4EE491E093B9032D8124
:103F800030E08B81992787FD9095A901489F90018A
:103F9000499F300D589F300D112488A590E0A9014C
:103FA000489F9001499F300D589F300D11248EA1DC
:103FB000992787FD9095AC01249FC001259F900D06
:103FC000349F900D11248093BA038093BB0378949F
:103FD000DF91CF91089560E00E94F91E08956091ED
:103FE000BA03662381F18091B7038F5F8093B70393
:103FF0009091B903891738F130E08091B803882394
:1040000009F431E03093B8031092B7038091BC03F8
:104010008823A9F080910B0123E4829FC001112421
:10402000895B80930B0190E070E00E94D82680931A
:10403000BB0305C08091BB038093B4000895332374
:10404000C9F780E0F9CF08951F920F920FB60F9233
:1040500011242F933F934F935F936F937F938F938D
:104060009F93AF93BF93EF93FF930E94EF1FFF9136
:10407000EF91BF91AF919F918F917F916F915F91E0
:104080004F913F912F910F900FBE0F901F90189559
:104090006CE671E140E00E94D31D08956EE571E188
:1040A00040E00E94D31D0895FC01862F668170E0D8
:1040B0006F5F7F4F992787FD90950E94EC2685833F
:1040C00008950F93FC0181E0848384E080A78FEA48
:1040D00091E1908B8787CF0161E040E020E000E034
:1040E0000E94251E83E061E070E00E94CD21E1EB9B
:1040F000F0E08081887F81608083F8941092800056
:10410000E1E8F0E01082109285001092840088E1CE
:1041100091E09093890080938800808188608083FB
:10412000808181608083EFE6F0E08081826080831F
:1041300078940F9108951F920F920FB60F92112449
:104140002F933F938F939F93AF93BF938091C1031E
:104150009091C203A091C303B091C4033091C503F1
:104160000196A11DB11D232F2D5F2D3720F02D5756
:104170000196A11DB11D2093C5038093C1039093A7
:10418000C203A093C303B093C4038091BD03909175
:10419000BE03A091BF03B091C0030196A11DB11D44
:1041A0008093BD039093BE03A093BF03B093C0035D
:1041B000BF91AF919F918F913F912F910F900FBE23
:1041C0000F901F9018958FB7F8942091C1033091EC
:1041D000C2034091C3035091C4038FBFB901CA0108
:1041E00008959FB7F8942091BD033091BE0340918C
:1041F000BF035091C00386B5A89B06C08F3F21F036
:104200002F5F3F4F4F4F5F4F9FBF542F432F322F92
:104210002227280F311D411D511D82E0220F331F1F
:10422000441F551F8A95D1F7B901CA0108959B0112
:10423000AC017FB7F8948091BD039091BE03A0912B
:10424000BF03B091C00366B5A89B05C06F3F19F0CE
:104250000196A11DB11D7FBFBA2FA92F982F8827C6
:10426000860F911DA11DB11D62E0880F991FAA1F25
:10427000BB1F6A95D1F7BC012DC0FFB7F8948091A0
:10428000BD039091BE03A091BF03B091C003E6B5FA
:10429000A89B05C0EF3F19F00196A11DB11DFFBFFE
:1042A000BA2FA92F982F88278E0F911DA11DB11D00
:1042B000E2E0880F991FAA1FBB1FEA95D1F7861B62
:1042C000970B885E9340C8F22150304040405040E8
:1042D00068517C4F211531054105510571F608954E
:1042E000789484B5826084BD84B5816084BD85B5D1
:1042F000826085BD85B5816085BDEEE6F0E0808198
:1043000081608083E1E8F0E01082808182608083B8
:10431000808181608083E0E8F0E08081816080833B
:10432000E1EBF0E0808184608083E0EBF0E080816D
:1043300081608083EAE7F0E080818460808380810F
:1043400082608083808181608083808180688083B7
:104350001092C1000895982F8E3008F09E509770EB
:1043600080910C018295880F880F807C892B809327
:104370007C0080917A00806480937A0080917A003A
:1043800086FDFCCF2091780040917900942F80E049
:1043900030E0282B392BC90108951F93CF93DF9369
:1043A000182FEB0161E00E942D22209709F44AC0EA
:1043B000CF3FD10509F449C0E12FF0E0EF5FFD4E9A
:1043C00084918330C1F0843028F4813051F0823000
:1043D000B1F50CC0863019F1873049F1843079F598
:1043E00014C084B5806884BDC7BD33C084B5806205
:1043F00084BDC8BD2EC080918000806880938000FD
:10440000D0938900C093880024C08091800080628E
:1044100080938000D0938B00C0938A001AC0809153
:10442000B00080688093B000C093B30012C0809148
:10443000B00080628093B000C093B4000AC0C0385E
:10444000D1051CF4812F60E002C0812F61E00E9441
:104450006C22DF91CF911F910895CF93DF93482F66
:1044600050E0CA0183519E4EFC01349147525E4E8A
:10447000FA018491882369F190E0880F991FFC016B
:10448000E554FE4EA591B491FC01EB53FE4EC5914F
:10449000D491662351F42FB7F8948C91932F909573
:1044A00089238C93888189230BC0623061F42FB7F4
:1044B000F8948C91932F909589238C938881832BEA
:1044C00088832FBF06C09FB7F8948C91832B8C9361
:1044D0009FBFDF91CF910895482F50E0CA018F5FB1
:1044E0009D4EFC012491CA0183519E4EFC01949182
:1044F00047525E4EFA013491332309F440C022231F
:1045000051F1233071F0243028F42130A1F0223011
:1045100011F514C02630B1F02730C1F02430D9F4A1
:1045200004C0809180008F7703C0809180008F7DD0
:104530008093800010C084B58F7702C084B58F7DD2
:1045400084BD09C08091B0008F7703C08091B00016
:104550008F7D8093B000E32FF0E0EE0FFF1FEB5351
:10456000FE4EA591B4912FB7F894662321F48C9157
:104570009095892302C08C91892B8C932FBF08952D
:10458000682F70E0CB018F5F9D4EFC012491CB0121
:1045900083519E4EFC01449167527E4EFB019491E3
:1045A000992319F420E030E03CC0222351F123305C
:1045B00071F0243028F42130A1F0223011F514C01C
:1045C0002630B1F02730C1F02430D9F404C08091F6
:1045D00080008F7703C0809180008F7D8093800062
:1045E00010C084B58F7702C084B58F7D84BD09C0AB
:1045F0008091B0008F7703C08091B0008F7D809351
:10460000B000892F90E0880F991F81539E4EFC01C6
:10461000A591B4918C9120E030E0842311F021E049
:1046200030E0C9010895CF93DF930E9470210E946A
:104630008F12C0E0D0E00E9455122097E1F30E9453
:104640000000F9CFCF92DF92EF92FF920F931F936A
:10465000CF93DF937C016B018A01C0E0D0E00FC0F3
:10466000D6016D916D01D701ED91FC910190F08122
:10467000E02DC7010995C80FD91F01501040011541
:10468000110571F7CE01DF91CF911F910F91FF902E
:10469000EF90DF90CF900895EF92FF920F931F93CA
:1046A000CF93DF937C018B01C0E0D0E0F8010F5F76
:1046B0001F4F6491662359F0D701ED91FC91019051
:1046C000F081E02DC7010995C80FD91FEFCFCE01AA
:1046D000DF91CF911F910F91FF90EF900895DC0132
:1046E000ED91FC910190F081E02D09950895EF92F4
:1046F000FF920F931F938C01DC01ED91FC910190CF
:10470000F081E02D6DE009957C01D801ED91FC91DF
:104710000190F081E02DC8016AE009959C012E0D01
:104720003F1DC9011F910F91FF90EF900895EF92E7
:10473000FF920F931F937C010E944C238C01C701B1
:104740000E9477239C01200F311FC9011F910F91F7
:10475000FF90EF9008952F923F924F925F926F9249
:104760007F928F929F92AF92BF92CF92DF92EF9201
:10477000FF920F931F93DF93CF93CDB7DEB73B012B
:104780004C0119012A016D897E898F89988D6A19DA
:104790007B098C099D09621A730A840A950AA4018F
:1047A00093010E94A026E218F30804091509A80144
:1047B00097010E9421272A0D3B1D4C1D5D1DB9014B
:1047C000CA01CF91DF911F910F91FF90EF90DF9081
:1047D000CF90BF90AF909F908F907F906F905F90A1
:1047E0004F903F902F9008955058BB27AA270ED086
:1047F000A9C169D130F06ED120F031F49F3F11F49E
:104800001EF45EC10EF4E095E7FB54C1E92FBCD164
:1048100080F3BA17620773078407950718F071F4DD
:104820009EF5D4C10EF4E0950B2EBA2FA02D0B01EE
:10483000B90190010C01CA01A0011124FF27591BE5
:1048400099F0593F50F4503E68F11A16F040A22FEB
:10485000232F342F4427585FF3CF4695379527955C
:10486000A795F0405395C9F77EF41F16BA0B620B5B
:10487000730B840BBAF09150A1F0FF0FBB1F661FA2
:10488000771F881FC2F70EC0BA0F621F731F841FE5
:1048900048F4879577956795B795F7959E3F08F00B
:1048A000B3CF9395880F08F09927EE0F97958795CA
:1048B0000895DCD008F481E0089514D1E39553C144
:1048C0000CD040C107D140F0FED030F021F45F3F62
:1048D00019F0F0C051117BC1F3C056D198F3992360
:1048E000C9F35523B1F3951B550BBB27AA276217B4
:1048F0007307840738F09F5F5F4F220F331F441FF9
:10490000AA1FA9F333D00E2E3AF0E0E830D0915030
:104910005040E695001CCAF729D0FE2F27D0660F1D
:10492000771F881FBB1F261737074807AB07B0E85C
:1049300009F0BB0B802DBF01FF2793585F4F2AF072
:104940009E3F510568F0B6C042C15F3FECF3983E10
:10495000DCF3869577956795B795F7959F5FC9F7CF
:10496000880F911D9695879597F90895E1E0660F58
:10497000771F881FBB1F621773078407BA0720F0D1
:10498000621B730B840BBA0BEE1F88F7E09508953A
:1049900004D06894B1111BC10895FED088F09F57D0
:1049A00090F0B92F9927B751A0F0D1F0660F771F7B
:1049B000881F991F1AF0BA95C9F712C0B13081F05B
:1049C00005D1B1E0089502C1672F782F8827B85F1D
:1049D00039F0B93FCCF3869577956795B395D9F7BC
:1049E0003EF490958095709561957F4F8F4F9F4FC6
:1049F0000895E89409C097FB3EF4909580957095D2
:104A000061957F4F8F4F9F4F9923A9F0F92F96E91A
:104A1000BB279395F695879577956795B795F1118F
:104A2000F8CFFAF4BB0F11F460FF1BC06F5F7F4F2C
:104A30008F4F9F4F16C0882311F096E911C077233E
:104A400021F09EE8872F762F05C0662371F096E847
:104A5000862F70E060E02AF09A95660F771F881F16
:104A6000DAF7880F9695879597F90895990F0008BA
:104A7000550FAA0BE0E8FEEF16161706E807F90730
:104A8000C0F012161306E407F50798F0621B730BCB
:104A9000840B950B39F40A2661F0232B242B252B4C
:104AA00021F408950A2609F4A140A6958FEF811DEF
:104AB000811D089597F99F6780E870E060E0089590
:104AC0009FEF80EC089500240A9416161706180626
:104AD0000906089500240A94121613061406050602
:104AE0000895EECF59D0E8F3E894EFEFBB273FE00D
:104AF00048EC5FE76B3D73078407950708F1FF27D4
:104B00009F57B25A6A4D7F40894CF04032F4BE55EF
:104B10006542704F8643FF4F0894EE1F915030F06E
:104B2000BB0F661F771F881FFF1FEBCF9EE78823F1
:104B300032F0BB0F661F771F881F9A95C1F79395B8
:104B4000E095B8C0092E0394000C11F4882352F0AC
:104B5000BB0F40F4BF2B11F460FF04C06F5F7F4FA9
:104B60008F4F9F4F0895EF93E0FF06C0A2EA2AED12
:104B70003FE049EC5FEB4ADEE5DF0F90039401FC78
:104B80009058E8E6F0E0A6C057FD9058440F551F36
:104B900059F05F3F71F04795880F97FB991F61F0BF
:104BA0009F3F79F087950895121613061406551F36
:104BB000F2CF4695F1DF08C0161617061806991FA2
:104BC000F1CF86957105610508940895E894BB2797
:104BD00066277727CB0197F9089548DF08F48FEF10
:104BE00008950BD0AFCF6FDF28F074DF18F0952356
:104BF00009F060CF65CF1124EACFC6DFA0F3959FFF
:104C0000D1F3950F50E0551F629FF001729FBB27B3
:104C1000F00DB11D639FAA27F00DB11DAA1F649F5F
:104C20006627B00DA11D661F829F2227B00DA11D12
:104C3000621F739FB00DA11D621F839FA00D611D98
:104C4000221F749F3327A00D611D231F849F600DB9
:104C5000211D822F762F6A2F11249F5750408AF0F2
:104C6000E1F088234AF0EE0FFF1FBB1F661F771F7E
:104C7000881F91505040A9F79E3F510570F01ACF00
:104C8000A6CF5F3FECF3983EDCF38695779567956A
:104C9000B795F795E7959F5FC1F7FE2B880F911D9C
:104CA0009695879597F908959F931CDF0F9007FCC1
:104CB000EE5F59CF9F3F49F0915028F48695779544
:104CC0006795B7959F5F80389F4F880F969587951A
:104CD00097F908959F938F937F936F93FF93EF932B
:104CE0009B01AC017EDFEF91FF9105D02F913F91A9
:104CF0004F915F9176CFDF93CF931F930F93FF92E6
:104D0000EF92DF927B018C01689405C0DA2EEF01EF
:104D100074DFFE01E894A591259135914591559157
:104D2000AEF3EF0173DDFE019701A801DA9479F784
:104D3000DF90EF90FF900F911F91CF91DF91089539
:104D4000629FD001739FF001829FE00DF11D649F6F
:104D5000E00DF11D929FF00D839FF00D749FF00DFB
:104D6000659FF00D9927729FB00DE11DF91F639F9C
:104D7000B00DE11DF91FBD01CF0111240895991B4C
:104D800079E004C0991F961708F0961B881F7A9542
:104D9000C9F78095089587FB082E062687FD819523
:104DA00067FD6195ECDF0EF4919507FC8195089500
:104DB000AA1BBB1B51E107C0AA1FBB1FA617B70741
:104DC00010F0A61BB70B881F991F5A95A9F780955D
:104DD0009095BC01CD01089597FB092E07260AD0B6
:104DE00077FD04D0E5DF06D000201AF470956195B8
:104DF0007F4F0895F6F7909581959F4F0895A1E212
:104E00001A2EAA1BBB1BFD010DC0AA1FBB1FEE1F44
:104E1000FF1FA217B307E407F50720F0A21BB30B8F
:104E2000E40BF50B661F771F881F991F1A9469F70B
:104E300060957095809590959B01AC01BD01CF0167
:104E4000089597FB092E05260ED057FD04D0D7DF15
:104E50000AD0001C38F450954095309521953F4F6D
:104E60004F4F5F4F0895F6F7909580957095619537
:104E70007F4F8F4F9F4F0895EE0FFF1F0590F491C6
:084E8000E02D0994F894FFCF26
:104E88004C4F4144455200000048430101000000D6
:064E980000F817222300C0
:00000001FF
