:100000000C9422060C944A060C944A060C944A0658
:100010000C944A060C944A060C944A060C944A0620
:100020000C944A060C944A060C944A060C94391710
:100030000C944A060C944A060C944A060C944A0600
:100040000C9443220C944A060C94BC240C940A256C
:100050000C944A060C944A060C944A060C944A06E0
:100060000C944A060C944A06401E00000000000052
:100070000000000000C000000000000001A000001F
:100080000000000001500000000000000188000096
:1000900000000000037C00000000050002E20000F8
:1000A00000000A0003810000A0001400020A800181
:1000B0005000080003554000A800140006AFE000FF
:1000C00050000800057FE0002800040007FFE00062
:1000D0001400020007F1C0800A00050007E4814017
:1000E0001500028003CE42A00A800540004E355024
:1000F000150002A0084F3AA82A80055014473D5524
:10010000550002A82A433EAAAA00015555E13D5FC9
:10011000540000AAABF03FBFAA00015557F83FFFBB
:10012000D50000ABEBFC3FFFEAA80157F7FE3FFF0D
:10013000D55402AFFBFF3FFFEAAA555FF7FFBFFFB1
:10014000F7D5AAAFFFFFFFFFFFEA557FFFFFFFFFD5
:10015000FFF5AAFFFFFFFFFFFFEA08011C012601D0
:100160002F0127022802070308030E0311031903B6
:100170001A031B031C031D032603070408040904B8
:100180000A040B040C0410041104120419041A04C8
:100190001B041C041D041E041F0420042104260447
:1001A000000501050205030504050505060507050B
:1001B000080509050A050B050C050D050E050F05BB
:1001C000100511051205130514051505160517056B
:1001D000180519051A051C051D051E051F05200516
:1001E00021052205230524052505260527052805C3
:1001F00029052A052B052C052D052E052F050B0697
:100200001106120619061A061D061E061F062006EE
:1002100021062206230624062506260627060A07A7
:100220000B0712071707180719071A0720072307D4
:1002300024072507260727071B2D192C050B122D30
:100240000E2C060B092D022C0909092400230B068C
:10025000091B00190B050912000E0B060909020201
:10026000090912090E00060B1B091900050B2409C8
:100270002300060B2D092C0209092D122C0E0B064A
:100280002D1B2C190B052D242C230B062D2D2C2C6E
:100290000909242D232C060B013A0502073A050211
:1002A0000D3A0502133A050240400002001000809A
:1002B000000000030010018000003003803803803C
:1002C00018003C03C038078078001F03E07C0F81D2
:1002D000F0001F03606C0D81F0000D01C0380701B4
:1002E00060000E0000000000E00000C070381C0636
:1002F000000000A05028140A000000603010180C04
:1003000000000000000000000000000000000000ED
:1003100000000000000404000000FC01110E4E006B
:100320007E007E03AB9AAB00FC003A01390EEE0072
:10033000B8001EC010044406F0000CA02800A00A5B
:10034000600000E00000000E000000001000E0006F
:10035000000000003801B000000000001000E000C4
:10036000000000000000400000000000000000004D
:1003700000000C000000000060003EC0000000060D
:10038000F800FAA00000000ABE003EC0000000060F
:10039000F8000C00000000006000000000000000F9
:1003A000000000000000000000000000000000004D
:1003B000000000000000000000000000000000003D
:1003C000000000E02082080E00000CA05145140A35
:1003D00060001EC071C71C06F0003A0000820800D1
:1003E000B8007E0000021400FC00FC0000000000C9
:1003F0007E0000000000000000000000000000007F
:100400000000000000000000000000603010180C28
:10041000000000A05028140A000000C070381C061C
:1004200000000E0000000000E0000D01C0380701D0
:1004300060001F03606C0D81F0001F03E07C0F81E2
:10044000F0003C03C0380780780030038038038018
:10045000180000030010018000000002001000805E
:10046000000000000000000000000000000000008C
:10047000000000000000000000007DF7DF00000029
:10048000000028A28A000000000000000000000018
:10049000000000000000000000000000000000005C
:1004A00000000000000000000000404000020010BA
:1004B000008000000003001001800000300380383D
:1004C000038018003C03C038078078001F03E07CDD
:1004D0000F81F0001F03E07C0F81F0000F01C03896
:1004E0000701E0000E0000000000E00000C07038CE
:1004F0001C06000000E070381C0E00000060301088
:10050000180C0000000000000000000000000000C7
:10051000000000000000000404000000FC01110EB7
:100520004E007E007E03BB9EEF00FC003E01390EB4
:10053000EE00F8001EC010044406F0000CE0280095
:10054000A00E600000E00000000E0000000010009F
:10055000E000000000003801F00000000000100082
:10056000E00000000000000040000000000000006B
:10057000000000000C000000000060003EC0000011
:100580000006F800FEE00000000EFE003EC0000085
:100590000006F8000C0000000000600000000000F1
:1005A000000000000000000000000000000000004B
:1005B000000000000000000000000000000000003B
:1005C0000000000000E02082080E00000CE071C76F
:1005D0001C0E60001EC071C71C06F0003E000082A9
:1005E0000800F8007E0000021400FC00FC0000007F
:1005F00000007E000000000000000000000000007D
:10060000000000000000000000000000006030104A
:10061000180C000000E070381C0E000000C070389C
:100620001C0600000E0000000000E0000F01C038B2
:100630000701E0001F03E07C0F81F0001F03E07C56
:100640000F81F0003C03C038078078003003803809
:100650000380180000030010018000000002001059
:10066000008000000000000000000000000000000A
:100670000000000000000000000000007DF7DF0027
:100680000000000028A28A00000000000000000016
:10069000000000000000000000000000000000005A
:1006A00000000000000000000000000040400002C8
:1006B00000100080000000030010018000003002E4
:1006C0008028028018002C02402804806800130251
:1006D0002044088190001102204408811000090183
:1006E000C038070120000E0000000000E00000C03C
:1006F00070381C06000000A05028140A000000609A
:100700003010180C00000000000000000000000085
:100710000000000000000000000404000000FC01D4
:10072000110A4A007E004202AA92A9008400220116
:10073000390AEA00880012C01004440690000CA098
:100740002800A00A600000E00000000E0000000089
:100750001000E00000000000280110000000000070
:100760001000A00000000000000040000000000099
:100770000000000000000C0000000000600032C01B
:10078000000000069800C2A00000000A860032C0E7
:100790000000000698000C0000000000600000004F
:1007A0000000000000000000000000000000000049
:1007B0000000000000000000000000000000000039
:1007C00000000000000000E02082080E00000CA0E5
:1007D0005145140A600012C071C71C069000220027
:1007E0000082080088004200000214008400FC001F
:1007F000000000007E00000000000000000000007B
:100800000000000000000000000000000000006088
:100810003010180C000000A05028140A000000C07E
:1008200070381C0600000E0000000000E000090106
:10083000C038070120001102204408811000130273
:100840002044088190002C02402804806800300277
:1008500080280280180000030010018000000002C0
:1008600000100080000000000000000000000000F8
:1008700000000000000000000000000000007CD527
:100880009B000000000028A28A0000000000000079
:100890000000000000000000000000000000000058
:1008A0000000000000000000000000000000210F18
:1008B000200E0305210F1F140504130F0E0E030352
:1008C000130F160E03032C004C756E6172205275C7
:1008D0006E0003053F213F1208120A100A0E1C0E7B
:1008E0000C1E0C141A14161F161E131E1E1B1E1E81
:1008F0001F1E3F213F3A2F3A173D173F213F181F38
:1009000002040A041F0E04040E1F0A1F0A0E0E1F03
:1009100004110E2E252E2F2A2E262929021F020809
:100920001F08150E04040E150E15151B151B0406C5
:1009300004040C040000000017000300031F0A1F3A
:1009400016371A1904130A153A000300000E111184
:100950000E000A040A040E0400300004040400100F
:10096000001804031F111F121F101D151711151F4A
:1009700007041F17151D1F151D01011F1F151F1728
:10098000151F000A00003200040A110A0A0A110A9F
:10099000040115020E11171E051E1F150A0E110A5D
:1009A0001F110E1F15111F05010E111D1F041F1110
:1009B0001F1108100F1F041B1F10101F061F1E04FD
:1009C0000F0E110E1F09060E112E1F051A12150902
:1009D000011F011F101F0F180F1F0C1F1B041B03EB
:1009E0001C03191513001F11030418111F00020125
:1009F000022020200001020C121E1F120C0C1212E9
:100A00000C121F0C1A14041E05242A1E1F021C148B
:100A10001D1020201D1F0814111F101E041E1E0271
:100A20001C0C120C3E0A040C123E1E040214160A80
:100A3000020F120E101E0E100E1E081E120C122691
:100A4000281E322A26041E21001F00211E04010236
:100A5000013F213F0A4E6F2053442063617264209E
:100A60006F720A6E6F204C4F414445522E484558D4
:100A70000A0A153A45786974001D20466C6173684E
:100A8000696E670A20206C6F616465722E2E2E0AD3
:100A90000A444F4E2754205455524E204F4646216B
:100AA000006D560A0A504C454153450A5455524E62
:100AB000204F4646004C4F5720424154544552590E
:100AC0000A00177361766500166261636B00157426
:100AD000797065000A0A0A153A6F6B617920163A37
:100AE0006564697400596F7520656E74657265641C
:100AF0000A00540A03E181867F3E186D830F0F0EB2
:100B00000183866033186DC3198F1803C38E603359
:100B1000186DE330CF1803C39E603630CDE360CF4D
:100B20003006C79E7E3E30CDB360CF300CC6F66037
:100B30003330D9B660CF33CFCCF66061B0DB1E6006
:100B4000CF30D86CE6C061B0DB1E618F19986CC6DF
:100B5000C063B19B0E330F0FB078C6FF7E1F1B061C
:100B60001E0F1753440016137800161314001510A7
:100B7000200015201000000005008930080238020E
:100B8000497868140000450068010000050068010C
:100B9000380100000500380168010000F6E8DBCFED
:100BA000C3B8AEA49B928A827B746E68625C575213
:100BB0004E4945413E3A3734312E2C2927252321F1
:100BC0001F1D1C1A1917161514131211100F0E0DD4
:100BD0000C0B0A09080706DB0BDF0B0101F7030109
:100BE00001FF0300000000240027002A000000008D
:100BF00000250028002B000000000023002600290B
:100C000000040404040404040402020202020203B5
:100C100003030303030102040810204080010204BF
:100C20000810200102040810200000000700020143
:100C3000000003040600000000000000000082061F
:100C4000A320762611241FBECFEFD8E0DEBFCDBF94
:100C500011E0A0E0B1E0E8EAF5E502C005900D92F0
:100C6000A436B107D9F715E0A4E6B1E001C01D92A2
:100C7000AB30B107E1F71CE0C4E4DCE004C022972C
:100C8000FE010E94CE2ACE33D107C9F70E94CC269E
:100C90000C94D22A0C9400000F931F93CF93DF93F0
:100CA000689F8001699F100D789F100D1124C80165
:100CB0000E940E21EC01009729F060E070E0A8018D
:100CC0000E946806CE01DF91CF911F910F91089588
:100CD000DC0101C06D9341505040E0F70895FB01E5
:100CE000DC0101900D920020E1F708958FEF8EBD99
:100CF0000DB407FEFDCF8EB508958EBD0DB407FE71
:100D0000FDCF08951092B5011092B40180E591E0F5
:100D10009093B3018093B20180E090E0A0E0B0E056
:100D20008093EC019093ED01A093EE01B093EF015D
:100D30008093F0019093F101A093F201B093F3013D
:100D40008093F4019093F501A093F601B093F7011D
:100D50008093F8019093F901A093FA01B093FB01FD
:100D60008093FC019093FD01A093FE01B093FF01DD
:100D70008093000290930102A0930202B0930302B9
:100D80008093040290930502A0930602B093070299
:100D90008093080290930902A0930A02B0930B0279
:100DA0000895AF92BF92CF92DF92EF92FF920F938E
:100DB0001F93DF93CF9300D0CDB7DEB78C015B01DB
:100DC00069017A018AE060E00E94142482E594E0DF
:100DD000B8010E94A8208C010097E9F482E594E014
:100DE000B701A6010E94C52000E010E07E01089432
:100DF000E11CF11CB501600F711F82E594E044E530
:100E000050E097010E94CA200C5A1F4F81E0083F12
:100E1000180781F70DC084EE94E066E071E00E944F
:100E2000572884EE94E0B8014AE050E00E9444283C
:100E30008AE061E00E9414240F900F90CF91DF911F
:100E40001F910F91FF90EF90DF90CF90BF90AF90E8
:100E5000089528EF31E0A901849F9001859F300D0E
:100E6000949F300D112440E050E082E191E06CE06D
:100E700072E00E94D10608958AE061E00E94D523C5
:100E80008BE061E00E94D5238CE060E00E94D523D6
:100E90008DE061E00E94D52380E58CBD0895CF925E
:100EA000DF92EF92FF920F931F93CF93DF9388EF20
:100EB00091E0ECE0F2E0DF019C011D922150304016
:100EC000E1F76091EC017091ED018091EE0190915C
:100ED000EF010E941B297B016091F0017091F101EB
:100EE0008091F2019091F3010E941B29D62EC72E0A
:100EF000362F20E089010E0D1F1DC0E0D0E00EC08E
:100F0000FE01EE0FFF1FE65AFE4F85919491801768
:100F1000910719F4CE010E9429072196CF36D105F9
:100F200079F782EB91E061E00E942D0A1092BC01FA
:100F30001092BB0182EB91E0B7014AE050E00E94C1
:100F4000442882EB91E066EC78E00E94052782EB72
:100F500091E06D2D7C2D4AE050E00E944428DF9105
:100F6000CF911F910F91FF90EF90DF90CF90089558
:100F700081E08093B80180E090E0A0EAB0E4809343
:100F8000000290930102A0930202B093030280E05A
:100F900090E0A0E0B0E08093FC019093FD01A0936D
:100FA000FE01B093FF01ACEEB1E0ECEFF1E088E0C0
:100FB00001900D928150E1F70E944F07089582E061
:100FC00090E09093EB018093EA010E94B8070895A6
:100FD00084E691E068EC78E048E650E00E94E61292
:100FE00081E090E09093EB018093EA01089584E61C
:100FF00091E00E942D12882309F47CC08EE691E0D6
:1010000060E00E9498098823C1F06091EC01709122
:10101000ED018091EE019091EF0120E030E040E899
:101020005FE30E94B6286093EC017093ED0180931A
:10103000EE019093EF010E944F078EE691E062E08F
:101040000E9498098823C1F06091EC017091ED0134
:101050008091EE019091EF0120E030E040E85FE305
:101060000E94B7286093EC017093ED018093EE012C
:101070009093EF010E944F078EE691E061E00E949D
:1010800098098823C1F06091F0017091F10180917D
:10109000F2019091F30120E030E040E85FE30E942C
:1010A000B6286093F0017093F1018093F201909360
:1010B000F3010E944F078EE691E063E00E949809D9
:1010C0008823C1F06091F0017091F1018091F201EB
:1010D0009091F30120E030E040E85FE30E94B72800
:1010E0006093F0017093F1018093F2019093F3010A
:1010F0000E944F0708958091EA019091EB018130A1
:10110000910541F08230910541F0892B41F40E9414
:10111000E80708950E94DF0708950E94F7070895E1
:101120000F931F9304EE14E0C80140E855E260E01D
:1011300070E00E944525C8016FE171E00E945A28C5
:101140000E943C0782E594E062E070E046E756E0EA
:101150002DE736E00E94DB2004E611E0C8010E9482
:101160004914C80169E20E9450100E94DF071F91D4
:101170000F9108958AE061E00E9414248AE061E002
:101180000E94D5238CB580618CBD8CB580648CBDEC
:101190008DE061E00E94D5238BE061E00E94D523C1
:1011A0000895FC0181E08083089585E070E00E944D
:1011B000752308956F927F928F929F92AF92BF9204
:1011C000CF92DF92EF92FF920F931F93CF93DF9313
:1011D000EC0189819A818C0124E0000F111F2A956E
:1011E000E1F7081B190B85E10E945323BC01600F36
:1011F000711F84E0769567958A95E1F77A83698314
:101200008881882381F12E813F816217730710F452
:10121000B90106C0888599858617970708F4BC012F
:1012200000D000D080E090E040E050E0E884F98415
:1012300000E010E0AD80BB24CC24DD246C8077245A
:1012400088249924EDB7FEB76182728283829482EA
:101250000E946D286B830F900F900F900F9085E088
:1012600070E00E947523DF91CF911F910F91FF9045
:10127000EF90DF90CF90BF90AF909F908F907F9036
:101280006F900895FC018CE39FE09383828384E058
:10129000818381E084870895CF93DF93EC018C856F
:1012A00090E08F719070892B69F584E10E9453233F
:1012B000AA2797FDA095BA2FBC01CD010E944E2907
:1012C00026EE3FE34EEC50E40E94DA290E942029EA
:1012D0009B01AC017B836A836115710589F084E011
:1012E0008983B901FE0120E084819581681779071F
:1012F00010F429830AC02F5F32962430A9F702C068
:101300008FEF89838C858F5F8C87DF91CF910895D4
:10131000FC0188E0808389E0818387E0828386E026
:10132000838384E0848382E0858381E186830895DA
:1013300020E0FC01E60FF11D8781813009F421E0F6
:10134000822F08950F931F93CF93DF93EC0110E04A
:101350000FEF888162E00E94D52388810E94682473
:101360002F81892B19F42F5F2F8307C0222349F087
:101370002F3F11F41F8201C00F83888160E00E941B
:10138000D5231F5F2196173021F7DF91CF911F9151
:101390000F910895FC01742F643508F05DC047FD7E
:1013A0005BC040330CF058C0878D823019F5842F14
:1013B000859585958595992787FD9095462F552785
:1013C00047FD509524E530E0829FF001839FF00DAA
:1013D000929FF00D1124E40FF51FE45FFD4F808113
:1013E00090E0272F277002C0959587952A95E2F700
:1013F00080958170972F959595959595462F5527B2
:1014000047FD5095272F27708823A1F4E4E59E021D
:10141000F0011124E40FF51FE45FFD4F81E090E03F
:1014200002C0880F991F2A95E2F780952081282312
:1014300020830895E4E59E02F0011124E40FF51FD6
:10144000E45FFD4F81E090E002C0880F991F2A956C
:10145000E2F72081282B20830895FC01678F60A389
:101460000895FC01678F40A30895AF92BF92CF9279
:10147000DF92EF92FF920F931F93CF93DF93EC01D4
:10148000162FF42EE22EAA24402F552747FD509503
:101490008F2D992787FD9095481B590B57FF03C047
:1014A000509541955F4F2E2D332727FD3095812F85
:1014B000992787FD9095281B390B37FF03C030957E
:1014C00021953F4F2417350744F4AA24A3948F2D68
:1014D000F12E182F802F0E2DE82EE11634F48E2DCC
:1014E000E12E182F802F0F2DF82EDE2CD11A202F51
:1014F000332727FD30958F2D992787FD9095281B41
:10150000390B37FF03C0309521953F4FB22EF016AF
:101510001CF0CC24CA9402C0CC24C3948D2DD7FCDB
:101520008F5F082F059511C0AA2021F0CE016F2DE5
:10153000412F03C0CE01612F4F2D0E94CA090B1904
:1015400007FF02C0FC0C0D0D1F5FE1166CF7DF9169
:10155000CF911F910F91FF90EF90DF90CF90BF90B0
:10156000AF9008950F93042F322F262F2150230F71
:101570000E94350A0F9108950F93362F042F0150C2
:10158000020F232F0E94350A0F9108959F92AF9268
:10159000BF92CF92DF92EF92FF920F931F93CF9360
:1015A000DF936C01B62E942EA02EC0E0D0E0E62E84
:1015B000FF24E7FCF094022F112707FD10950E0D74
:1015C0001F1D06C0C601492D2A2D0E94BC0A219666
:1015D0006B2D6C0FCE018E0D9F1D8017910794F31C
:1015E000DF91CF911F910F91FF90EF90DF90CF90FF
:1015F000BF90AF909F9008952F923F925F926F920D
:101600007F928F929F92AF92BF92CF92DF92EF9292
:10161000FF920F931F93DF93CF9300D000D000D0A1
:10162000CDB7DEB79E838D83C62ED42EEE24E394F1
:10163000E21A8EEF289F502C1124842E8A94962E25
:101640009A94A42EA394B62EB394F22E662423E08B
:10165000722E10E0C801847090709A838983F8011B
:10166000E270F070FC83EB8398E0292E312C20226D
:1016700031220170107054C0E7FC04C0FA94F2E00B
:101680005F0EE50C639489819A81892B71F04F2D4F
:101690004D0D8D819E816B2D0E94CA096F2D6C0DA1
:1016A0008D819E814A2D0E94CA09EB81FC81EF2B1E
:1016B00071F04D2D4F198D819E816B2D0E94CA09AD
:1016C0006F2D6C0D8D819E81482D0E94CA092114B9
:1016D000310471F06C2D6F198D819E814A2D0E940D
:1016E000CA094F2D4D0D8D819E81692D0E94CA0919
:1016F0000115110571F06C2D6F198D819E81482D9A
:101700000E94CA094D2D4F198D819E81692D0E941D
:10171000CA09E70CF2E07F0E8A949A94A394B394DA
:101720006F140CF4A9CF26960FB6F894DEBF0FBE47
:10173000CDBFCF91DF911F910F91FF90EF90DF9080
:10174000CF90BF90AF909F908F907F906F905F9061
:101750003F902F9008954F925F926F927F928F9259
:101760009F92AF92BF92CF92DF92EF92FF920F9330
:101770001F93CF93DF93EC01A62E742E9E2DFF2492
:10178000F394F21A8EEF289F802C1124B42EBA9471
:1017900053E0C52ECE0CE22EDD2443E0942E10E063
:1017A00031E0432E512C40225122692E6394027065
:1017B000107034C0F7FC04C0EA9482E0880EF80C84
:1017C000D3944114510489F06D2D6A0D472D4E19A3
:1017D0002E2D220F260DCE010E94BC0A6E2D6A0D01
:1017E000CE014B2D2C2D0E94BC0A0115110589F04C
:1017F0006A2D6D19472D4E192E2D220F260DCE0163
:101800000E94BC0A6A2D6E19CE014B2D2C2D0E9410
:10181000BC0AF90C82E0980EBA94C80EDE1454F299
:10182000DF91CF911F910F91FF90EF90DF90CF90BC
:10183000BF90AF909F908F907F906F905F904F90F0
:1018400008957F928F929F92AF92BF92CF92DF9234
:10185000EF92FF920F931F936C01962EA42EF22EFF
:101860007E2C760E1EEFE19E102D1124812E820E0D
:10187000672D282D0E94B20AB02EBA0CBA94C60168
:10188000672D4B2D282D0E94B20AAE0C100FC601F9
:10189000692D4A2D212F0E94BC0AF90CFA94C60129
:1018A0006F2D4A2D212F0E94BC0AC601672D4A2D9B
:1018B0002E2D01E00E94FC0AFE18C6016F2D4A2D54
:1018C0002E2D02E00E94FC0ABE18C6016F2D4B2D82
:1018D0002E2D04E00E94FC0AC601672D4B2D2E2DF3
:1018E00008E00E94FC0A1F910F91FF90EF90DF909B
:1018F000CF90BF90AF909F908F907F9008958F92E0
:101900009F92AF92BF92CF92DF92EF92FF920F938E
:101910001F936C01162FA42E922EF02EBE2C8E2C0F
:10192000860E2EEFE29EE02C11242E2D290D682D1F
:101930000E94C60AAB0CFA94FE0C1150190D1B192B
:10194000C601612F4A2D2B2D01E0EF2C0E94AB0B1D
:10195000C601682D4A2D2B2D02E00E94AB0B1F9172
:101960000F91FF90EF90DF90CF90BF90AF909F903E
:101970008F9008952F923F925F926F927F928F92F5
:101980009F92AF92BF92CF92DF92EF92FF920F930E
:101990001F93CF93DF93F62E142FF90124913196E4
:1019A00034913197DC015F965C90B3E5B6170CF487
:1019B00009C1422F552747FD5095A62EBB24A7FCF1
:1019C000B0946A01CA0CDB1C1C141D040CF0FAC094
:1019D00010330CF0F7C0032F212F332727FD30954C
:1019E000802F992787FD9095820F931F181619064F
:1019F0000CF0E8C0EF012296CA01079668E070E09B
:101A00000E947C2A862E17FF0EC0010F862F90E0C1
:101A1000FC01E29FC001E39F900DF29F900D112405
:101A2000C81BD90B10E0802F992787FD9095212F97
:101A3000332727FD3095820F931FC19714F000E3E1
:101A4000011BF7FE02C0EE2401C0EF2CC601853554
:101A5000910514F084E590E0982EEE2DF0E0CF0192
:101A60008A199B09AC014770507020E830E002C031
:101A7000359527954A95E2F7A22E68E070E00E941E
:101A80007C2A6C0F7D1F212F277081E090E0F82EBB
:101A900001C0FF0C2A95EAF715951595159584E573
:101AA0001802A00111244E0F5F1F445F5D4FCC242C
:101AB000602E772467FC7094C82DD0E07DC0FB01B8
:101AC0002491F1E05F1621F5DB011A2DD22E1A01C7
:101AD0000E2D1BC0812F90E02D2D30E0822393230B
:101AE000892B21F0F10180818F298083812F90E063
:101AF00095958795182F882321F41196FD01D49090
:101B000010E80F5F0894211C311C091518F34BC015
:101B1000552031F0DB011A2DD22E1A010E2D41C0B5
:101B2000BF2CB094DB011A2DD22E1A010E2D1BC032
:101B3000812F90E02D2D30E082239323892B21F0FB
:101B4000F10180818B218083812F90E0959587958D
:101B5000182F882321F41196FD01D49010E80F5F0F
:101B60000894211C311C091518F31DC0812F90E029
:101B70002D2D30E082239323892B21F0F1018081E8
:101B80008F258083812F90E095958795182F882346
:101B900021F41196FD01D49010E80F5F0894211CE8
:101BA000311C091518F3FF0C21F44C5A5F4FFF2428
:101BB000F394C3946C0F7D1F8C2D90E086159705D0
:101BC0000CF47DCFDF91CF911F910F91FF90EF909B
:101BD000DF90CF90BF90AF909F908F907F906F904D
:101BE0005F903F902F9008953F924F925F926F9237
:101BF0007F928F929F92AF92BF92CF92DF92EF929D
:101C0000FF920F931F93CF93DF93EC01862EA42EA8
:101C1000422F102F3F8C23E526170CF4ABC03FE278
:101C20003A150CF4A7C0C02EDD248C8190E00197FA
:101C30009C01C29EC001C39E900DD29E900D1124A6
:101C4000262F332727FD3095820F931F181619066C
:101C50000CF090C08D8190E09C01C29EC001C39E9B
:101C6000900DD29E900D11242A2D332727FD3095FB
:101C7000820F931F181619060CF07CC09924442E6D
:101C800055246DC09C01215030404217530711F478
:101C900060E00EC0429EC001439E900D529E900D8A
:101CA0001124840F951FED8DFE8DE80FF91F6491AF
:101CB0004C9DC0014D9D900D5C9D900D1124682C94
:101CC000680EBB24792C780C3FC0E62EFF2460FF01
:101CD00019C0113039F44B2D4A0DCE01672D0E94E9
:101CE000CA092EC02C9DC0012D9D900D3C9D900DCC
:101CF00011244A2D480FCE01662D212F012F0E945D
:101D0000C60A1EC098A18F8D9817D1F09F8F1130F1
:101D100039F44B2D4A0DCE01672D0E94CA090FC020
:101D20002C9DC0012D9D900D3C9D900D11244A2DA0
:101D3000480FCE01662D212F012F0E94C60A3F8E2B
:101D4000F594E7946E2DB3942B2D332727FD309512
:101D50008D8190E0281739070CF4B7CF9394492D63
:101D6000552747FD50958C8190E0481759070CF492
:101D700089CF3F8EDF91CF911F910F91FF90EF9010
:101D8000DF90CF90BF90AF909F908F907F906F909B
:101D90005F904F903F9008950F93CF93DF93EC01A6
:101DA000262F6A3049F48D819885899F802D1124D2
:101DB0009A85980F9A8726C06D3029F169854A85E2
:101DC00008850E94F40D9C816885969F402D112402
:101DD0008985480F49878F818823A9F0552747FDBA
:101DE0005095699F9001112484E590E0821B930B2C
:101DF0008417950744F49D81699F902D11248A854D
:101E0000890F8A87198681E090E0DF91CF910F9149
:101E100008951F93CF93DF93EC01162FF8948E85CE
:101E200060E00E9414248F8518161CF460E00E9464
:101E300014241EBD00000DB407FEFDCF8EB58F85A6
:101E400018161CF461E00E9414247894DF91CF915D
:101E50001F910895FF920F931F93CF93DF93EC018F
:101E6000FF2400E010E06F2D6064CE010E94090F96
:101E7000CE0160E80E94090F8E8561E00E94142463
:101E80008F8518161CF460E00E941424F801E45FAA
:101E9000FD4F90E080818EBD00000DB407FEFDCFA8
:101EA0008EB59F5F31969435A9F78F8518161CF46F
:101EB00061E00E941424F3940C5A1F4F86E0F81638
:101EC00091F6CE0160E40E94090FDF91CF911F913E
:101ED0000F91FF900895CF93DF93DC0188EF91E09D
:101EE000ECE0F2E0EF019C01199221503040E1F763
:101EF00019961C9219971A961C92DF91CF9108950A
:101F0000EF920F93CF93DF93EC014D876C872E8771
:101F1000E88A0F8781E088878F8F18A28F83E2ED90
:101F2000F8E084918F5F8C83319684918F5F8D83ED
:101F30003196FE8FED8F0E94BA088CB58F7D8CBDD7
:101F40008CB58C7F81608CBD8DB581608DBD8CB56D
:101F50008C608CBD8D8561E00E94D5238C8561E00D
:101F60000E94D5238E8561E00E94D52388891816AA
:101F70001CF461E00E94D5238F8518161CF461E0E3
:101F80000E94D523888918166CF460E00E941424FE
:101F90006AE070E080E090E00E94BF22888961E002
:101FA0000E941424EC852E2F332727FD3095F9014C
:101FB000EF5FF34FE491F0E0EE0FFF1FE351F44FBA
:101FC000859194919C8B8B8B2B5E334FF90184917F
:101FD0008A8FED852E2F332727FD3095F901EF5F8E
:101FE000F34FE491F0E0EE0FFF1FE351F44F8591C2
:101FF00094919A8B898B2B5E334FF9018491898F51
:10200000EF852E2F332727FD3095F901EF5FF34F32
:10201000E491F0E0EE0FFF1FE351F44F85919491AE
:102020009E8B8D8B2B5E334FF90184918B8FEE85C8
:102030002E2F332727FD3095F901EF5FF34FE49101
:10204000F0E0EE0FFF1FE351F44F85919491988FCC
:102050008F8B2B5E334FF90184918C8FCE0161E21F
:102060000E94090FCE0164E10E94090F8B8587FF52
:1020700002C08FE78B876B856068CE010E94090FD5
:10208000CE0160E20E94090FCE016CE00E94090FB0
:10209000CE010E942A0FDF91CF910F91EF9008950A
:1020A000FC01262FE258FF4F88EE93E070E00E947B
:1020B0007C2A6083EE57F040822F64E10E945C2A04
:1020C000882309F481E081A70895CF93DF93DC0191
:1020D000E0E8F7E785919491ED01C75ADF4FAD0134
:1020E00041595F4F8150904C09F04EC0E6E9F7E747
:1020F000E491E883E7E9F7E7E4911496EC93149709
:10210000E8E9F7E7E4911596EC931597E9E9F7E725
:102110008591949117969C938E931697EBE9F7E728
:102120008591949119969C938E931897EDE9F7E712
:10213000E4919B96EC939B97EEE9F7E7E4919A96EE
:10214000EC939A97EFE9F7E7E491EA01E883E0EA94
:10215000F7E7859194915D969C938E935C97E2EA64
:10216000F7E7859194915F969C938E935E97E4EA4E
:10217000F7E78591949191969C938E939097E6EAD8
:10218000F7E78591949132C08CE3888314961C9272
:1021900014972FEF15962C93159780E293E01796DE
:1021A0009C938E93169784ED93E019969C938E934F
:1021B000189781E09B968C939B979A968C939A970D
:1021C000FA0120838CEA9DE05D969C938E935C9748
:1021D0008EED9DE05F969C938E935E9784E79EE0E4
:1021E00091969C938E9390978CE39FE093969C930B
:1021F0008E939297DF91CF910895EF92FF920F9374
:102200001F93CF93DF937C018C01025B1F4FC801AA
:102210000E946B0FC80169E77AE00E940527C80198
:102220000E942A0F8CB583608CBD8DB58E7F8DBDCD
:102230008BE291E0EEEFFFE3099584E590E0E80E94
:10224000F91EF7011082C80164E57AE00E94502768
:10225000C8010E942A0FE701CA54D040CE010E9453
:10226000A209CE0164E00E949809882339F462E350
:1022700070E080E090E00E94BF22F0CFDF91CF912C
:102280001F910F91FF90EF9008950F931F93CF939D
:10229000DF93EC018C01025B1F4FC80161E040E05D
:1022A0000E94310AFE01E95AFF4FCE5ADF4F85E501
:1022B0009881891B808326961882C855D040698DE5
:1022C000613009F43EC0613028F0888D653008F037
:1022D00051C04BC0CE0185960E941015CE0160E022
:1022E0000E94D508C8010E946B0FCA5ADF4F81E0D7
:1022F0008883C655D040C80165EB7AE00E94052767
:102300006A8D7B8DC8014AE050E00E94F327C80126
:1023100061EA7AE00E940527C8010E942A0F83B76C
:10232000817F846083BF83B7816083BF83B781600F
:1023300083BF889583B78E7F83BF83B78E7F83BF2C
:102340001FC0C059DF4F88819981AA81BB818F70DE
:102350009070A070B0700897A105B10518F4C8017D
:1023600067E00CC0C80168E709C0882349F06B5FCB
:10237000C80104C0882321F0C8016FE20E94282709
:10238000DF91CF911F910F910895AF92BF92CF929D
:10239000DF92EF92FF920F931F93CF93DF93EC01A5
:1023A000CB57DF4F8881C558D040882309F44AC0F5
:1023B0008C3010F010E002C01CE0181BCA5ADF4F2E
:1023C00081E08883C655D0406EE4C62ED12CCC0E59
:1023D000DD1EC60160E00E942D0A53E5A52EB12C3A
:1023E000AC0EBD1EF50100814DE2F42E4F2D401BB9
:1023F000410F0D5FC60160E024E533E0E32E0E944B
:102400007F0CC60161E00E942D0AF5010081F01ADF
:10241000F10E0D5FC60160E04F2D24E50E94210CF6
:10242000C95ADF4F84E08993F5018081181B115D43
:102430001883AB9669917991C6010E94052788811E
:1024400081508883DF91CF911F910F91FF90EF9082
:10245000DF90CF90BF90AF900895AF92BF92CF9290
:10246000DF92EF92FF920F931F93CF93DF93EC01D4
:10247000EFE7AE2EB12CA80EB91EF501E080F18079
:10248000028113810E948B22E61AF70A080B190BAE
:102490007EE7C72ED12CCC0EDD1EF601808190E0A8
:1024A000A0E0B0E08E159F05A007B10708F081C03D
:1024B0008E0106581F4FF80180819181A281B3815E
:1024C0000097A105B10509F474C00E948B22F601A2
:1024D0002081620F711D811D911DF5016083718343
:1024E00082839383FE01E059FF4F80819181A28115
:1024F000B3810196A11DB11D80839183A283B38313
:10250000F80110821182128213820E949922CA5805
:10251000DF4F688379838A839B83C657D040CE017F
:102520000E94DA08CE010A960E94A209CE014896BE
:102530000E944C0981E032C08E010B5D1F4FC80123
:102540000E940C15C8010E940A16C8010E940017BB
:10255000CE010E94C511CE010E9445118E01025B81
:102560001F4FC8010E942A0FCC5ADF4F8881C455E3
:10257000D040882319F4C8010E946B0F0E94992251
:10258000C658DF4F688379838A839B832497288189
:102590003981621B730B7A936A9380E0DF91CF914C
:1025A0001F910F91FF90EF90DF90CF90BF90AF9071
:1025B0000895C658DF4F88819981AA81BB81CA5787
:1025C000D0400097A105B10541F7B6CF2F923F92B9
:1025D0004F925F926F927F928F929F92AF92BF9233
:1025E000CF92DF92EF92FF920F931F93DF93CF93DF
:1025F000CDB7DEB72B970FB6F894DEBF0FBECDBFB9
:102600009B878A877A8369835C834B838C0101591A
:102610001F4FF8018081882309F422C18A859B8598
:102620008A5A9F4F9B878A8781E0EA85FB85808352
:1026300012921292E455F040FB87EA87108E9EE4D6
:10264000E92EF12CEE0EFF1EC70161E00E942D0A5B
:102650008AE0282E312C8A859B85280E391EB5E20A
:102660006B2E712C680E791EE981FA81F491FD833D
:10267000A7E58A2E912C880E991EF8E5CF2ED12C35
:10268000C80ED91EE2E54E2E512C480E591E8D5A09
:102690009F4F9F838E8370E7A72EB12C8A859B85E1
:1026A000A80EB91E198708878A859B850E942D125E
:1026B0008823D1F39D81992311F410E003C0EE81AA
:1026C000FF811081C70160E040E022EF3AE00E9404
:1026D000BA0C8B819C81892B41F0145FC70160E0AB
:1026E000412F2B813C810E94BA0CF40110828CE0B6
:1026F000F6018083C70169817A810E940527F20172
:10270000208130E0C901880F991F820F931F909597
:1027100081959F4F8D5AF4018083EE81FF81208146
:1027200030E0C901880F991F820F931F9095819502
:102730009F4F835DF6018083F501808184FF04C093
:10274000C70162E77BE003C0C7016EE67BE00E9441
:102750005027F201208130E0C901880F991F820FB4
:10276000931F909581959F4F8D5AF4018083F601B8
:1027700080818F5F8083EA85FB8582A5882321F095
:10278000C7016AE67BE003C0C70166E67BE00E9402
:102790005027F201808190E09C01220F331F280F07
:1027A000391F309521953F4F2D5AF4012083F601B2
:1027B00080818F5F8083C70162E67BE00E945027A3
:1027C000C10165E00E949809882351F0EA85FB85E4
:1027D00062A56F5FC3010E946917C3010E9463175E
:1027E000C10164E00E949809882399F4E885F9857D
:1027F0006081262F30E040E050E0F501808191813A
:10280000A281B38182179307A407B50708F16F3F30
:10281000F9F08A859B8581599F4F9B878A878FEF27
:10282000EA85FB858083EF56F040FB87EA87C3018A
:1028300060E00E94B014C3010E945D1781E0EA8548
:10284000FB85808F0DC08A859B850E94FD102CCF53
:10285000C10166E00E949809882309F425CFF3CFCF
:102860002B960FB6F894DEBF0FBECDBFCF91DF9190
:102870001F910F91FF90EF90DF90CF90BF90AF909E
:102880009F908F907F906F905F904F903F902F9090
:102890000895AF92BF92CF92DF92EF920F93CF93B2
:1028A000DF936C018EE790E0C80ED91E82E3F6013B
:1028B000808381E090E0A0E0B0E0B293A293929395
:1028C00082936F0185EF9FEFC80ED91E8FEFF6013F
:1028D000808381E99FEFC80ED91EC6010E94651052
:1028E000C6010E94D108C6016FEF0E94D5084AE0D8
:1028F000A42EB12CAC0CBD1CC5010E948809C501D9
:102900000E94A209C60148960E944209C601825B44
:102910009F4F6DE04BE020E10FE03EE0E32E0E9490
:10292000800FE601A596CE010E947617C50165E0ED
:102930000E949809882329F0CE0160E00E9469175F
:1029400006C0CE0168E77BE040E00E94C214DF9140
:10295000CF910F91EF90DF90CF90BF90AF900895FF
:10296000FC01662371F4178A158A14A213A2108E33
:102970001092080410920704109205041092B400FB
:10298000118208950F931F93CF93DF93EC018B0176
:10299000442371F460E00E94B0141E870D871B8AE7
:1029A0001A8A81E0898389E08E8B198E1B8E1D8E99
:1029B000DF91CF911F910F910895CF93DF93EC0199
:1029C000662339F58881882321F18981882309F5D7
:1029D000898590E0880F991FEF81F885E80FF91F2E
:1029E000859194912FEF8F3F920711F4188211C0B7
:1029F0009C8790E0880F991FEA85FB85E80FF91FF7
:102A000065917491CE0140E00E94C21489858F5F68
:102A10008987DF91CF91089560E00E94DD140895C9
:102A200060E00E94B01408950F93DC01002309F0C8
:102A300069C0623009F443C0633030F4662359F052
:102A4000613009F05FC00DC0633009F444C06430E8
:102A500009F058C04CC04B3008F04AE056964C93F1
:102A600051C0842F90E0880F991F1F962D913C91A3
:102A70005097280F391FF9018591949190969C9356
:102A80008E935F97FC014591549114968C91149705
:102A9000849F602D112491966C939197252F332755
:102AA000862F90E02817390708F4652F14968C912B
:102AB0001497689F802D112492968C9323C01496AE
:102AC0008C911497489F802D112459968C93599777
:102AD0005A962C9317C014968C911497489F802D6A
:102AE00011245B968C935B975C962C930BC0149689
:102AF0008C911497489F802D11245D968C935D973F
:102B00005E962C930F9108950F93CF93DF93EC0172
:102B1000662309F07BC08981882309F477C08D89F9
:102B2000882309F073C0EA89FB89EE0FFF1F4D85EA
:102B30005E85E40FF51F259134912115310509F0CB
:102B400049C08989813031F41B8A1A8AFA0125919A
:102B5000349140C019828881882379F0CE0160E0E9
:102B60000E94DD148A899B89880F991FED85FE8557
:102B7000E80FF91F259134912DC01F8A1D8A1CA2D0
:102B80001BA2188E109208041092070410920504DC
:102B90001092B4003BC006E0369527950A95E1F700
:102BA0006F70422F4F71B5E036952795BA95E1F7D2
:102BB0002051CE0100E00E9414158A899B8901965C
:102BC0009B8B8A8B880F991FED85FE85E80FF91F77
:102BD00025913491B901769567957695679520FD95
:102BE000DACF862F8F738C8B8C81839F802D11245D
:102BF0008D8B1DA21CA21BA281E08F8B80930504EC
:102C0000188E8A899B8901969B8B8A8BDF91CF9145
:102C10000F91089560E00E9484150895CF93DF938B
:102C2000EC01662309F0E9C08F89882309F4E5C027
:102C30008D89882371F41F8A1D8A1CA21BA2188EFD
:102C40001092080410920704109205041092B40028
:102C5000D4C081508D8B8DA1882309F044C08BA1F5
:102C60009CA10196880F991FEF8DF8A1E80FF91F1D
:102C700085919491282F27702EA3AC0173E056956F
:102C800047957A95E1F79A0136952795892F9927E7
:102C9000869586958FA32F738C81289F202D1124D4
:102CA0002DA34170409309048BA19CA101969CA384
:102CB0008BA329A130E082179307A8F08AA188236B
:102CC00029F0281B31093CA32BA30DC01F8A1D8AA4
:102CD0001CA21BA2188E10920804109207041092D6
:102CE00005041092B4008DA181508DA3988D9F5F33
:102CF000988F2FA18C89280F8C85280F2A836B8DA4
:102D0000662369F0892F992787FD909570E00E94CE
:102D10007C2A8C8D869F802D1124820F8A838A8144
:102D200090E0CB966BE370E00E947C2A8A832E8928
:102D30002B83698D662379F0888D772767FD7095E1
:102D4000992787FD90950E947C2A8A8D869F802DE9
:102D50001124820F8B836D8D662399F0888D9927BE
:102D600087FD909570E00E947C2ACB0162E070E0C4
:102D70000E947C2A9E8D899F802D11249B81890F22
:102D80008B838B818A300CF089E087FD80E08B8318
:102D90008C898F3309F41B82F894EA81F0E0E456C1
:102DA000F44FE491E09306042D8130E08B81992764
:102DB00087FD9095A901489F9001499F300D589F2C
:102DC000300D112488A590E0A901489F9001499FEA
:102DD000300D589F300D11248EA1992787FD9095B5
:102DE000AC01249FC001259F900D349F900D1124AC
:102DF00080930704809308047894DF91CF9108951D
:102E000060E00E940E16089560910704662381F128
:102E1000809104048F5F80930404909106048917C5
:102E200038F130E080910504882309F431E03093D3
:102E3000050410920404809109048823A9F080916C
:102E4000440123E4829FC0011124895B80934401E3
:102E500090E070E00E94682A8093080405C0809189
:102E600008048093B40008953323C9F780E0F9CFB4
:102E700008951F920F920FB60F9211242F933F9334
:102E80004F935F936F937F938F939F93AF93BF9372
:102E9000EF93FF930E940417FF91EF91BF91AF91C1
:102EA0009F918F917F916F915F914F913F912F9162
:102EB0000F900FBE0F901F90189564E97BE040E0E3
:102EC0000E94C214089566E87BE040E00E94C214AC
:102ED0000895FC01862F668170E06F5F7F4F992710
:102EE00087FD90950E947C2A858308950F93FC01AD
:102EF00081E0848384E080A787ED9BE0908B8787C7
:102F0000CF0161E040E020E000E00E94141583E082
:102F100061E070E00E947523E1EBF0E08081887F42
:102F200081608083F89410928000E1E8F0E01082E4
:102F3000109285001092840088E191E090938900BE
:102F40008093880080818860808380818160808315
:102F5000EFE6F0E080818260808378940F9108959D
:102F600090930B0480930A0470930D0460930C04F7
:102F700050930F0440930E043093110420931004D7
:102F80000895DF92EF92FF920F931F93D82E7A014C
:102F90008B0187FF0CC087E740E050E060E070E005
:102FA0000E94C117823008F058C08FE7D822E09104
:102FB0001004F09111040995E0910E04F0910F04B2
:102FC0000995E0910C04F0910D040995E0910C0431
:102FD000F0910D0409958F3FC9F7E0910A04F09133
:102FE0000B048D2D0995812F9927AA27BB27E091E6
:102FF0000A04F0910B040995C801AA27BB27E091A8
:103000000A04F0910B040995BB27A12F902F8F2D57
:10301000E0910A04F0910B040995E0910A04F09103
:103020000B048E2D099580E4D81611F485E906C0AD
:1030300088E4D81611F487E801C081E0E0910A0421
:10304000F0910B0409951AE0E0910C04F0910D0445
:10305000099587FF02C01150B9F71F910F91FF909A
:10306000EF90DF900895CF92DF92EF92FF920F934F
:103070001F93DF93CF9300D000D0CDB7DEB714E617
:10308000E0910C04F0910D0409951150C9F780E40A
:1030900040E050E060E070E00E94C117813009F02C
:1030A0006CC088E44AEA51E060E070E00E94C11719
:1030B000813009F040C06E010894C11CD11C76011A
:1030C0008E010B5F1F4FE0910C04F0910D040995E8
:1030D000F70181937F01E017F107A9F78B81813018
:1030E00009F04BC08C818A3A09F047C008EA11E622
:1030F00004C00150104009F440C089EE40E050E0A7
:1031000060E070E40E94C117882399F754C0E091F1
:103110000C04F0910D040995F60181936F01EE15F1
:10312000FF05A9F7898186FD03C074E0F72E26C04C
:103130006CE0F62E23C089EE40E050E060E070E0E5
:103140000E94C117823028F051E4E52EFF24F39449
:1031500004C049EEE42E32E0F32E08EA11E603C083
:103160000150104051F08E2D40E050E060E070E0E2
:103170000E94C1178823A1F729C0FF24F0920605F9
:10318000E0911004F09111040995E0910C04F09184
:103190000D04099580E0FF2009F481E00F900F9065
:1031A0000F900F90CF91DF911F910F91FF90EF90B3
:1031B000DF90CF9008958AE740E050E060E070E053
:1031C0000E94C117882309F4A2CFD7CF80E540E041
:1031D00052E060E070E00E94C117882371F6CECF04
:1031E0008F929F92AF92BF92CF92DF92EF92FF9217
:1031F0000F931F93CF93DF93982E892E6901580167
:10320000FFEFEF2EFFE7FF2EE022F122E114F104A1
:1032100009F490C0C701820F931F8150924008F0BB
:1032200089C08091060583FD07C0E9E0440F551F62
:10323000661F771FEA95D1F781E50E94C1178823A1
:1032400009F066C0C8EED3E0E0910C04F0910D04E3
:1032500009958F3F19F42197B9F75AC08E3F09F0AD
:1032600057C0002711270C191D090E5F1D4F0E199D
:103270001F0908C0E0910C04F0910D040995089411
:10328000C108D108C114D104A9F7B7FE29C0C92DBE
:10329000D82DE0911604F09117040995E0911204DD
:1032A000F09113040995E0910C04F0910D04099537
:1032B000FE010995D82EE0911404F09115040995AA
:1032C0000894E108F108E114F10411F0DD2031F770
:1032D000E0911804F091190409950E0D1F1D10C0FE
:1032E000892D982D9C01E901E0910C04F0910D04C9
:1032F000099589930894E108F108E114F104A1F714
:10330000E0910C04F0910D04099501501040C1F7B3
:10331000E0911004F09111040995E0910C04F091F2
:103320000D040995C701E114F10411F081E090E06A
:103330009C0102C024E030E0C901DF91CF911F91D0
:103340000F91FF90EF90DF90CF90BF90AF909F9044
:103350008F9008958F929F92AF92BF92CF92DF92FB
:10336000EF92FF920F931F93DF93CF9300D000D083
:10337000CDB7DEB75C0180901A0490901B0482E008
:10338000A816B10408F47DC0F40180859185A816C3
:10339000B90608F076C08081813021F0823009F0D2
:1033A00070C051C0C501969587958A0D9B1D9C01E3
:1033B0003170892F992786956C01EE24FF24F40142
:1033C0004285538564857585CE010196F1E02F3FD6
:1033D0003F0749F0C40ED51EE61EF71EB701A60131
:1033E00002E010E01EC04C0D5D1D6E1D7F1D2FEF15
:1033F00031E001E010E00E94F018892B09F041C093
:10340000F40142855385648575854F5F5F4F6F4F2B
:103410007F4F4C0D5D1D6E1D7F1DCE01029620E07D
:1034200030E00E94F018892B61F589819A81A0FE15
:1034300007C09C0144E0369527954A95E1F723C0E3
:103440009C013F7020C04B2D552760E070E0F401D7
:1034500082859385A485B585480F591F6A1F7B1FF8
:10346000FFEFAF22BB24AA0CBB1CCE010196950135
:1034700002E010E00E94F018892B19F429813A81AA
:1034800002C021E030E0C9010F900F900F900F9023
:10349000CF91DF911F910F91FF90EF90DF90CF9030
:1034A000BF90AF909F908F900895EF92FF920F93EF
:1034B0001F93CF93DF937C01C0911A04D0911B041A
:1034C000FC01008111810F5F1F4F09F471C020853D
:1034D000318542855385211531054105510509F492
:1034E00067C0C8018F709070892B09F05BC02F5F97
:1034F0003F4F4F4F5F4F2087318742875387468129
:1035000057814115510539F48C819D8108171907A0
:1035100008F448C04DC0898190E00197980174E09B
:10352000369527957A95E1F782239323892BD1F558
:10353000CA010E94AA19BC018230910518F421E049
:1035400030E038C0888599856817790788F5F701D4
:1035500077836683C0911A04D0911B046250704037
:103560008885998502976817790728F020E030E070
:1035700040E050E012C080E090E0298130E040E07F
:1035800050E00E943D2A9B01AC018A899B89AC894D
:10359000BD89280F391F4A1F5B1FF701208731871C
:1035A00042875387F7011183008320E030E002C097
:1035B00023E030E0C901DF91CF911F910F91FF907F
:1035C000EF9008952F923F924F925F926F927F9269
:1035D0008F929F92AF92BF92CF92DF92EF92FF9223
:1035E0000F931F93CF93DF93E82FC0911A04D091CC
:1035F0001B04209719F428E030E0E1C08A8180FDA7
:1036000003C027E030E0DBC06A8C7B8C8C8C9D8C07
:103610004E2F592FCB01DA015C016D016A147B0436
:103620008C049D0410F4640153012E893F89488D58
:10363000598D1E8A1F8A188E198EA114B104C104D7
:10364000D10409F4BAC08981682E7724882499248A
:10365000F9E0660C771C881C991CFA95D1F72115A6
:10366000310541055105A1F119012A0108942108EC
:10367000310841085108C601B501615070408040D1
:103680009040A40193010E948F2A79018A01C2010E
:10369000B101A40193010E948F2AE216F3060407E8
:1036A0001507B0F088279927DC0186199709A80922
:1036B000B90982219321A421B5218E8B9F8BA88FDC
:1036C000B98FA81AB90ACA0ADB0A68A179A125C06C
:1036D0006E8D7F8D79A368A320C0CB010E94AA19AB
:1036E000BC018230910508F458C088859985681717
:1036F000790708F052C079A368A38E899F89A88DA5
:10370000B98D860D971DA81DB91D8E8B9F8BA88F17
:10371000B98FA618B708C808D9086A147B048C04A6
:103720009D04D8F28E899F89A88DB98D8A0D9B1D25
:10373000AC1DBD1D8E8B9F8BA88FB98FE9E0D694F1
:10374000C794B794A794EA95D1F7EA2CE394EB8257
:10375000C0901A04D0901B0462507040F60180851E
:103760009185029768177907C0F480E090E0218185
:1037700030E040E050E00E943D2A9B01AC01F601A0
:1037800082899389A489B589280F391F4A1F5B1F35
:10379000211531054105510521F41A8221E030E05F
:1037A0000EC02E0D311D411D511D21503040404095
:1037B00050402AA33BA34CA35DA320E030E0C90105
:1037C000DF91CF911F910F91FF90EF90DF90CF90FD
:1037D000BF90AF909F908F907F906F905F904F9031
:1037E0003F902F9008957F928F929F92AF92BF92B9
:1037F000CF92DF92EF92FF920F931F93CF93DF93BD
:103800007C016B01DB018C918F3219F40894C11C8F
:10381000D11CE7011D821C82F60180818032F0F408
:10382000E0911A04F0911B04198218828085918519
:10383000892B69F01F821E8286859785A089B189B0
:1038400088879987AA87BB8740E050E002C041E0A3
:1038500050E00680F781E02D1082F5C000E2702E66
:1038600088248394F701A281B381FD01CD010B96D9
:1038700001C07192E817F907E1F730E0992468E098
:1038800002C038E06BE0F601E90DF11D2081939450
:10389000203250F12F3241F12E3211F0361730F034
:1038A000683009F0CBC02E3261F3C8C02F3708F062
:1038B000C5C0422F50E0E2E3F1E001C031968081C3
:1038C000882339F0992787FD909584179507B1F7DC
:1038D000B5C0822F81568A3108F42052FD01E30FD2
:1038E000F11D20833F5FCFCF332309F4A7C01B9680
:1038F0001C921B97203210F41B968C92C0911A04D4
:10390000D0911B04D70111961C921E9214966D91B2
:103910007C9115976130710509F4A7C08885998558
:103920006817790708F0A1C017967C936E931697D5
:103930006115710501F16250704088859985029783
:103940006817790728F020E030E040E050E017C029
:1039500080E090E0298130E040E050E00E943D2A84
:103960009B01AC018A899B89AC89BD89280F391FCD
:103970004A1F5B1F04C02E853F8548895989F7017E
:1039800020873187428753870E80DF81C02D1BE05F
:10399000A12EB12CAC0EBD1ED70118964D915D9194
:1039A0006D917C911B972D913C912F703070B5E0FB
:1039B000220F331FBA95E1F7CE0100E210E00E941A
:1039C000F018892B09F051C08881882309F44AC076
:1039D0008B8583FD0FC0F701A281B381FE01EA153B
:1039E000FB0509F445C090818C91981719F4319624
:1039F0001196F5CFC7010E94551AAC01009761F2EC
:103A00004330510501F5D7011296ED91FC911397C2
:103A100083858823B1F017C0E0911A04F0911B044C
:103A20000680F781E02D838584FF0BC0C90CD11C73
:103A3000828D938DE7019D838C8314CF45E050E008
:103A400002C044E050E0CA01DF91CF911F910F9175
:103A5000FF90EF90DF90CF90BF90AF909F908F90AE
:103A60007F90089543E050E0CBCF41E050E0C8CFD5
:103A7000D7011296ED91FC9113978385882361F20B
:103A800040E050E0E0CFCF92DF92EF92FF920F93B1
:103A90001F93DF93CF93CDB7DEB7AC970FB6F894F3
:103AA000DEBF0FBECDBF6C01E0911A04F0911B0484
:103AB000309721F428E0E22EF12C6BC08E01035FD9
:103AC0001F4F17830683CE010196F60193838283ED
:103AD000C6010E94F31B7C01009709F054C08D853C
:103AE000882349F0888D84FF51C0F801828D938D21
:103AF000F6019583848300911A0410911B04F6014A
:103B000011821082648175816130710509F451C0A0
:103B1000F801808591856817790708F04AC0F60199
:103B2000778366836115710519F162507040F80161
:103B30008085918502976817790728F020E030E0AA
:103B400040E050E01AC080E090E0F801218130E0D0
:103B500040E050E00E943D2A9B01AC01F8018289BF
:103B60009389A489B589280F391F4A1F5B1F05C097
:103B7000F8012685378540895189F60120873187EC
:103B80004287538706C08330910519F494E0E92EEB
:103B9000F12CC701AC960FB6F894DEBF0FBECDBFB7
:103BA000CF91DF911F910F91FF90EF90DF90CF9019
:103BB000089581E0E82EF12CECCFEF92FF920F9365
:103BC0001F93DF93CF93CDB7DEB7E8970FB6F89486
:103BD000DEBF0FBECDBFBC0100911A0410911B04C3
:103BE0000115110519F428E030E033C0F801128204
:103BF00039E1E32EF12CEC0EFD1EF782E682CE01B8
:103C00000D969C838B83CE0101960E94F31B9C0131
:103C10000097F9F4898D8823D1F08CA184FD17C019
:103C2000F701828D938DF801978F868FF701848D30
:103C3000958DA68DB78DF801828F938FA48FB58F48
:103C4000168A178A108E118E81E0828302C023E0CB
:103C500030E0C901E8960FB6F894DEBF0FBECDBFC5
:103C6000CF91DF911F910F91FF90EF9008954F92A8
:103C70005F926F927F928F929F92AF92BF92CF92FC
:103C8000DF92EF92FF920F931F93CF93DF933C014C
:103C90006B014A01C0911A04D0911B04FA011182F0
:103CA0001082209719F428E030E0D1C08A8180FD8D
:103CB00003C027E030E0CBC02A8D3B8D4C8D5D8D5D
:103CC0008E899F89A88DB98D281B390B4A0B5B0BF8
:103CD000CB01A0E0B0E0281739074A075B0708F4DA
:103CE00069015301412C52E0552EABC0EE88FF888C
:103CF000088D198DD801C7019170A070B070009720
:103D0000A105B10509F05AC0C801B70149E096956F
:103D10008795779567954A95D1F7298130E040E0FE
:103D200050E00E948F2A611571058105910591F47B
:103D3000E114F1040105110519F48E8D9F8D04C065
:103D400088A199A10E94AA198230910550F199A3E6
:103D500088A31B8200911A0410911B0468A179A109
:103D600062507040F8018085918502976817790745
:103D7000C0F480E090E0218130E040E050E00E941B
:103D80003D2A9B01AC01F80182899389A489B589F8
:103D9000280F391F4A1F5B1F2115310541055105A9
:103DA00011F41A822EC08B81280F311D411D511D27
:103DB0002AA33BA34CA35DA38F5F8B832E893F89EE
:103DC000488D598DC9019170B201681B790B76013C
:103DD0006C157D0508F47B018A8131704AA15BA1D5
:103DE0006CA17DA186FF04C087011068C30102C0D9
:103DF000C50187010E94F018009749F01A820297C6
:103E000019F021E030E023C026E030E020C0AE0C05
:103E1000BF1CC701A0E0B0E02E893F89488D598DB5
:103E2000280F391F4A1F5B1F2E8B3F8B488F598FDE
:103E3000F401808191818E0D9F1D91838083CE1826
:103E4000DF08C114D10409F051CF20E030E0C901EE
:103E5000DF91CF911F910F91FF90EF90DF90CF9066
:103E6000BF90AF909F908F907F906F905F904F909A
:103E70000895AF92BF92CF92DF92EF92FF920F938D
:103E80001F93CF93DF93B82EA92E6A017B012EEFEB
:103E900031E002E010E00E94F018892B11F023E0DD
:103EA00020C0CB2DDA2D8881998185559A4A11F051
:103EB00022E017C08B2D9A2DB701A60126E330E032
:103EC00002E010E00E94F018892B11F021E009C0F7
:103ED00020E0888199818654914409F421E081E0B1
:103EE0002827822FDF91CF911F910F91FF90EF90A4
:103EF000DF90CF90BF90AF9008956F927F928F9296
:103F00009F92AF92BF92CF92DF92EF92FF920F9368
:103F10001F93DF93CF93CDB7DEB7A4970FB6F89476
:103F2000DEBF0FBECDBF5C0110921B0410921A04BD
:103F3000009709F4DFC00E94331880FF03C022E01D
:103F400030E0E0C04E010894811C911CC40140E0A7
:103F500050E060E070E00E94391F813021F0CC24F5
:103F6000DD2476011BC0C40140E050E060E070E059
:103F70002EEB31E000E110E00E94F018892B09F0EF
:103F8000BCC08D81882309F4BBC0C984DA84EB846A
:103F9000FC84C401B701A6010E94391F833009F4D3
:103FA000ACC0882309F0ACC0CE010196B701A601D0
:103FB0002DE030E004E210E00E94F018892B09F0B7
:103FC0009CC08A859B85BC0180E090E061157105ED
:103FD0008105910521F4688D798D8A8D9B8D2C81C9
:103FE00030E040E050E00E943D2A3B014C018A81D4
:103FF0009B81A0E0B0E0C80ED91EEA1EFB1EF501B1
:10400000C286D386E486F586898181832D813E81AF
:10401000358324838F8198857C0100E010E0E114D2
:10402000F1040105110521F4EC88FD880E891F8932
:104030008A819B81A0E0B0E0E81AF90A0A0B1B0B09
:10404000E618F7080809190974E0369527957A9556
:10405000E1F7C901A0E0B0E0E81AF90A0A0B1B0B6E
:10406000F501218130E040E050E0C801B7010E9435
:104070008F2A2E5F3F4F4F4F5F4FF50131872087CB
:10408000273FFFE03F07F0E04F07F0E05F0710F445
:1040900081E006C0275F3F4F4040504088F582E0F6
:1040A000F50180832285338544855585D401C3017C
:1040B000820F931FA41FB51F86879787A08BB18B94
:1040C0008481958164E0969587956A95E1F7A0E0F3
:1040D000B0E0820F931FA41FB51F860D971DA81D6A
:1040E000B91D828B938BA48BB58B1282B0921B046B
:1040F000A0921A0420E030E005C021E030E002C0C8
:1041000029E030E0C901A4960FB6F894DEBF0FBED7
:10411000CDBFCF91DF911F910F91FF90EF90DF9076
:10412000CF90BF90AF909F908F907F906F900895A9
:1041300080E290E062E070E00E944C0680934E04C2
:1041400090934F04089582E594E00E94982008958A
:10415000CB010E94DD1D08950F931F93CF93DF9332
:104160008B0182E494E00E94431DEC01009739F436
:1041700080914E0490914F04B8010E946F06CE01C9
:10418000DF91CF911F910F910895CB01BA010E9449
:10419000E21A0895CB0160911E046F7B60931E04A8
:1041A000BA01A9010E94371E08958091500461E070
:1041B0000E9414240895CF92DF92EF92FF920F9302
:1041C0001F936C01862F7A018901609350047093CC
:1041D000510461E00E94D5230E94D520C801B70197
:1041E00048E051E225ED30E20E94B0170E943318FA
:1041F0008CE194E00E947D1FC60162E471E00E94A0
:10420000AC201F910F91FF90EF90DF90CF90089519
:104210008091500460E00E94142408950F931F932E
:10422000CF93DF93BC018230910510F462E070E01F
:10423000E0910905F0910A0540E050E0A0E0B0E00F
:1042400024C08081918186179707D0F08617970741
:1042500071F482819381109729F013969C938E9329
:1042600012972CC090930A058093090527C0411529
:10427000510519F08417950718F48D01AC01EF0171
:10428000DF01828193819C01F9013097D1F64115BC
:104290005105F9F0CA01861B970B8430910580F413
:1042A0008A819B810115110521F0F8019383828396
:1042B00004C090930A0580930905FE01329645C01B
:1042C000FE01E80FF91F6193719302979983888328
:1042D0003CC08091070590910805892B41F480919D
:1042E00047019091480190930805809307054091FC
:1042F000490150914A014115510541F44DB75EB74E
:104300008091450190914601481B590B209107056A
:104310003091080524173507B0F4CA01821B930BAE
:104320008617970780F0AB014E5F5F4F84179507A4
:1043300050F0420F531F5093080540930705F901B1
:104340006193719302C0E0E0F0E0CF01DF91CF9183
:104350001F910F910895CF93DF939C01009709F46B
:104360008FC0EC0122971B821A826091090570911F
:104370000A056115710581F488819981820F931F67
:1043800020910705309108052817390739F5D09392
:104390000805C093070574C0DB0140E050E0AC178E
:1043A000BD0708F1BB83AA83FE0121913191E20F81
:1043B000F31FAE17BF0779F48D919C911197280FC9
:1043C000391F2E5F3F4F3983288312968D919C9120
:1043D00013979B838A834115510571F4D0930A0585
:1043E000C09309054DC012968D919C911397AD0114
:1043F000009711F0DC01D3CFDA011396DC93CE9352
:104400001297FA0121913191E20FF31FCE17DF07C6
:1044100069F488819981280F391F2E5F3F4FFA0177
:10442000318320838A819B8193838283E0E0F0E063
:10443000DB0112968D919C911397009719F0BC01A6
:10444000FD01F6CFAB014E5F5F4FDB018D919C917B
:10445000840F951F2091070530910805281739070B
:1044600079F4309729F410920A051092090502C0D8
:104470001382128242505040509308054093070522
:10448000DF91CF9108951F920F920FB60F921124D2
:104490002F933F938F939F93AF93BF938091570434
:1044A00090915804A0915904B0915A0430915B0442
:1044B0000196A11DB11D232F2D5F2D3720F02D5703
:1044C0000196A11DB11D20935B0480935704909326
:1044D0005804A0935904B0935A04809153049091C6
:1044E0005404A0915504B09156040196A11DB11D2C
:1044F0008093530490935404A0935504B0935604AE
:10450000BF91AF919F918F913F912F910F900FBECF
:104510000F901F9018958FB7F89420915704309101
:1045200058044091590450915A048FBFB901CA01EF
:1045300008959FB7F894209153043091540440910A
:1045400055045091560486B5A89B06C08F3F21F0B4
:104550002F5F3F4F4F4F5F4F9FBF542F432F322F3F
:104560002227280F311D411D511D82E0220F331FCC
:10457000441F551F8A95D1F7B901CA0108959B01BF
:10458000AC017FB7F8948091530490915404A091AA
:104590005504B091560466B5A89B05C06F3F19F04D
:1045A0000196A11DB11D7FBFBA2FA92F982F882773
:1045B000860F911DA11DB11D62E0880F991FAA1FD2
:1045C000BB1F6A95D1F7BC012DC0FFB7F89480914D
:1045D000530490915404A0915504B0915604E6B54B
:1045E000A89B05C0EF3F19F00196A11DB11DFFBFAB
:1045F000BA2FA92F982F88278E0F911DA11DB11DAD
:10460000E2E0880F991FAA1FBB1FEA95D1F7861B0E
:10461000970B885E9340C8F2215030404040504094
:1046200068517C4F211531054105510571F60895FA
:10463000789484B5826084BD84B5816084BD85B57D
:10464000826085BD85B5816085BDEEE6F0E0808144
:1046500081608083E1E8F0E0108280818260808365
:10466000808181608083E0E8F0E0808181608083E8
:10467000E1EBF0E0808184608083E0EBF0E080811A
:1046800081608083EAE7F0E08081846080838081BC
:104690008260808380818160808380818068808364
:1046A0001092C1000895982F8E3008F09E50977098
:1046B00080914B018295880F880F807C892B809395
:1046C0007C0080917A00806480937A0080917A00E7
:1046D00086FDFCCF2091780040917900942F80E0F6
:1046E00030E0282B392BC90108951F93CF93DF9316
:1046F000182FEB0161E00E94D523209709F44AC0EE
:10470000CF3FD10509F449C0E12FF0E0E75DF34F59
:1047100084918330C1F0843028F4813051F08230AC
:10472000B1F50CC0863019F1873049F1843079F544
:1047300014C084B5806884BDC7BD33C084B58062B1
:1047400084BDC8BD2EC080918000806880938000A9
:10475000D0938900C093880024C08091800080623B
:1047600080938000D0938B00C0938A001AC0809100
:10477000B00080688093B000C093B30012C08091F5
:10478000B00080628093B000C093B4000AC0C0380B
:10479000D1051CF4812F60E002C0812F61E00E94EE
:1047A0001424DF91CF911F910895CF93DF93482F69
:1047B00050E0CA018B5E934FFC0134914F5F534F21
:1047C000FA018491882369F190E0880F991FFC0118
:1047D000ED51F44FA591B491FC01E351F44FC59113
:1047E000D491662351F42FB7F8948C91932F909520
:1047F00089238C93888189230BC0623061F42FB7A1
:10480000F8948C91932F909589238C938881832B96
:1048100088832FBF06C09FB7F8948C91832B8C930D
:104820009FBFDF91CF910895482F50E0CA01875D67
:10483000934FFC012491CA018B5E934FFC0194912C
:104840004F5F534FFA013491332309F440C02223C0
:1048500051F1233071F0243028F42130A1F02230BE
:1048600011F514C02630B1F02730C1F02430D9F44E
:1048700004C0809180008F7703C0809180008F7D7D
:104880008093800010C084B58F7702C084B58F7D7F
:1048900084BD09C08091B0008F7703C08091B000C3
:1048A0008F7D8093B000E32FF0E0EE0FFF1FE35108
:1048B000F44FA591B4912FB7F894662321F48C910D
:1048C0009095892302C08C91892B8C932FBF0895DA
:1048D000682F70E0CB01875D934FFC012491CB01E1
:1048E0008B5E934FFC0144916F5F734FFB0194917A
:1048F000992319F420E030E03CC0222351F1233009
:1049000071F0243028F42130A1F0223011F514C0C8
:104910002630B1F02730C1F02430D9F404C08091A2
:1049200080008F7703C0809180008F7D809380000E
:1049300010C084B58F7702C084B58F7D84BD09C057
:104940008091B0008F7703C08091B0008F7D8093FD
:10495000B000892F90E0880F991F8950944FFC0177
:10496000A591B4918C9120E030E0842311F021E0F6
:1049700030E0C901089508951F920F920FB60F926B
:1049800011242F933F934F938F939F93EF93FF9314
:104990008091C00082FD1DC04091C60020919C0402
:1049A00030919D042F5F3F4F2F73307080919E0494
:1049B00090919F042817390771F0E0919C04F091C1
:1049C0009D04E45AFB4F408330939D0420939C0444
:1049D00002C08091C600FF91EF919F918F914F91FE
:1049E0003F912F910F900FBE0F901F901895E0915F
:1049F000F004F091F104E05CFF4F819191912081EE
:104A00003181821B930B8F739070892B11F00E9460
:104A1000BB2408951F920F920FB60F9211242F936B
:104A20003F938F939F93EF93FF932091E0043091F6
:104A3000E1048091E2049091E3042817390731F4EE
:104A40008091C1008F7D8093C10014C0E091E20489
:104A5000F091E304E056FB4F20818091E2049091B5
:104A6000E30401968F7390709093E3048093E204C3
:104A70002093C600FF91EF919F918F913F912F91CD
:104A80000F900FBE0F901F901895AF92BF92DF92BC
:104A9000EF92FF920F931F93CF93DF93EC017A0174
:104AA0008B01DD24403081EE580780E0680780E00C
:104AB000780711F0DD24D39491E0A92EB12CEC8974
:104AC000FD89DD2069F0C50108A002C0880F991F8B
:104AD0000A94E2F7808360E079E08DE390E005C01E
:104AE000108260E874E88EE190E0A80197010E94CE
:104AF0008F2A215030404040504056954795379579
:104B0000279580E12030380720F0DD2011F0DD24EA
:104B1000D6CFE889F9893083EA89FB89208319A2F5
:104B2000EE89FF89408121E030E0C9010C8C02C090
:104B3000880F991F0A94E2F7482B4083EE89FF897A
:104B40004081C9010D8C02C0880F991F0A94E2F7B9
:104B5000482B4083EE89FF894081C9010E8C02C039
:104B6000880F991F0A94E2F7482B4083EE89FF894A
:104B700080810F8C02C0220F331F0A94E2F7209528
:104B800028232083DF91CF911F910F91FF90EF9009
:104B9000DF90BF90AF900895DC011C96ED91FC91E1
:104BA0001D97E05CFF4F2191319180819181281BFD
:104BB000390B2F733070C9010895DC011C96ED91FB
:104BC000FC911D97E05CFF4F20813181E054F04063
:104BD000DF01AE5BBF4F8D919C911197281739076C
:104BE00019F42FEF3FEF07C08D919C91E80FF91F4B
:104BF0008081282F30E0C9010895DC011C96ED91D9
:104C0000FC911D97E05CFF4F20813181E054F04022
:104C1000DF01AE5BBF4F8D919C911197281739072B
:104C200019F42FEF3FEF10C08D919C911197E80F71
:104C3000F91F20818D919C91119701968F7390702F
:104C400011969C938E9330E0C9010895DC019196F2
:104C50008C919197882339F05496ED91FC9155975A
:104C6000808186FFF9CF91961C920895CF93DF93B0
:104C7000EC01EE85FF85E05CFF4F20813181E0543F
:104C8000F0402F5F3F4F2F733070DF01AE5BBF4F9F
:104C90008D919C91119728173907D1F3E05CFF4F54
:104CA00080819181E054F040E80FF91F6083EE8528
:104CB000FF85E05CFF4F31832083EE89FF892081EF
:104CC00081E090E00F8C02C0880F991F0A94E2F7F0
:104CD000282B208381E089A3EC89FD898081806471
:104CE000808381E090E0DF91CF9108951092E704F6
:104CF0001092E60488EE93E0A0E0B0E08093E80430
:104D00009093E904A093EA04B093EB0488E591E062
:104D10009093E5048093E4048CE594E09093F1048F
:104D20008093F00480EA94E09093F3048093F2047B
:104D300085EC90E09093F5048093F40484EC90E08B
:104D40009093F7048093F60480EC90E09093F9043C
:104D50008093F80481EC90E09093FB048093FA0434
:104D600082EC90E09093FD048093FC0486EC90E04C
:104D70009093FF048093FE0484E08093000583E019
:104D80008093010587E08093020585E08093030509
:104D900081E0809304050895CF93DF930E94182348
:104DA0000E949008C7EFD4E20E947B082097E1F3AD
:104DB0000E94F724F9CFCF92DF92EF92FF920F93E8
:104DC0001F93CF93DF937C016B018A01C0E0D0E099
:104DD0000FC0D6016D916D01D701ED91FC9101904D
:104DE000F081E02DC7010995C80FD91F015010406F
:104DF0000115110571F7CE01DF91CF911F910F9130
:104E0000FF90EF90DF90CF900895EF92FF920F9375
:104E10001F93CF93DF937C018B01C0E0D0E0F801BA
:104E20000F5F1F4F6491662359F0D701ED91FC91FC
:104E30000190F081E02DC7010995C80FD91FEFCF70
:104E4000CE01DF91CF911F910F91FF90EF900895C8
:104E5000DC01ED91FC910190F081E02D0995089520
:104E6000EF92FF920F931F938C01DC01ED91FC9167
:104E70000190F081E02D6DE009957C01D801ED9164
:104E8000FC910190F081E02DC8016AE009959C0138
:104E90002E0D3F1DC9011F910F91FF90EF900895B6
:104EA000EF92FF920F931F937C010E9405278C01C4
:104EB000C7010E9430279C01200F311FC9011F919B
:104EC0000F91FF90EF900895CF93DF93EC01611560
:104ED000710519F420E030E00FC0DB010D900020D7
:104EE000E9F71197A61BB70BE881F9810280F381DE
:104EF000E02DAD0109959C01C901DF91CF91089585
:104F00004F925F927F928F929F92AF92BF92CF9279
:104F1000DF92EF92FF920F931F93DF93CF93CDB762
:104F2000DEB7A1970FB6F894DEBF0FBECDBF2C0140
:104F3000742ECB01223008F42AE019A231E2C32EEC
:104F4000D12CCC0EDD1E822E9924AA24BB24672DE1
:104F5000752FA50194010E948F2A79018A01C80149
:104F6000B701A50194010E943D2A472D461B0894D4
:104F7000C108D1084A3014F4405D01C0495CF60113
:104F80004083E114F1040105110521F07E2C5F2D11
:104F9000C801DDCFC201B6010E946427A1960FB6F9
:104FA000F894DEBF0FBECDBFCF91DF911F910F915F
:104FB000FF90EF90DF90CF90BF90AF909F908F9039
:104FC0007F905F904F900895DC012115310541F4E9
:104FD000ED91FC910190F081E02D642F09950895E9
:104FE0000E9480270895EF92FF920F931F939A01DA
:104FF0007B0100E010E0B801A7010E94E4271F91A7
:105000000F91FF90EF900895CF92DF92EF92FF9271
:105010000F931F93CF93DF93EC016A017B0121155E
:10502000310541F4E881F9810190F081E02D642F90
:1050300009951FC02A303105D1F477FF17C0E881E8
:10504000F9810190F081E02D6DE209958C014427F2
:105050005527BA014C195D096E097F09CE012AE076
:105060000E9480279801280F391F04C02AE00E945F
:1050700080279C01C901DF91CF911F910F91FF9073
:10508000EF90DF90CF900895EF92FF920F931F93D0
:105090007B019A010027F7FC0095102FB801A701AA
:1050A0000E9404281F910F91FF90EF9008950E9495
:1050B00064270895EF92FF920F931F937C010E9443
:1050C00064278C01C7010E943027080F191FC801EF
:1050D0001F910F91FF90EF9008952F923F924F9262
:1050E0005F926F927F928F929F92AF92BF92CF9278
:1050F000DF92EF92FF920F931F93DF93CF93CDB781
:10510000DEB73B014C0119012A016D897E898F8927
:10511000988D6A197B098C099D09621A730A840AA1
:10512000950AA40193010E943D2AE218F30804099C
:105130001509A80197010E94B12A2A0D3B1D4C1D9B
:105140005D1DB901CA01CF91DF911F910F91FF90B1
:10515000EF90DF90CF90BF90AF909F908F907F9017
:105160006F905F904F903F902F9008955058BB27BD
:10517000AA270ED0E5C0D6D030F0DBD020F031F435
:105180009F3F11F41EF4CBC00EF4E095E7FBC1C0C5
:10519000E92FE7D080F3BA176207730784079507F2
:1051A00018F071F49EF5FFC00EF4E0950B2EBA2FA7
:1051B000A02D0B01B90190010C01CA01A00111241D
:1051C000FF27591B99F0593F50F4503E68F11A16C9
:1051D000F040A22F232F342F4427585FF3CF46955A
:1051E00037952795A795F0405395C9F77EF41F167C
:1051F000BA0B620B730B840BBAF09150A1F0FF0F46
:10520000BB1F661F771F881FC2F70EC0BA0F621F31
:10521000731F841F48F4879577956795B795F79521
:105220009E3F08F0B3CF9395880F08F09927EE0FB3
:1052300097958795089504D06894B111B5C00895E5
:1052400098D088F09F5790F0B92F9927B751A0F0C8
:10525000D1F0660F771F881F991F1AF0BA95C9F70A
:1052600012C0B13081F09FD0B1E008959CC0672F8B
:10527000782F8827B85F39F0B93FCCF386957795BA
:105280006795B395D9F73EF49095809570956195A3
:105290007F4F8F4F9F4F0895E89409C097FB3EF4CE
:1052A00090958095709561957F4F8F4F9F4F992373
:1052B000A9F0F92F96E9BB279395F69587957795F1
:1052C0006795B795F111F8CFFAF4BB0F11F460FFB1
:1052D0001BC06F5F7F4F8F4F9F4F16C0882311F009
:1052E00096E911C0772321F09EE8872F762F05C01D
:1052F000662371F096E8862F70E060E02AF09A95B8
:10530000660F771F881FDAF7880F9695879597F9AC
:10531000089597F99F6780E870E060E008959FEF37
:1053200080EC089500240A9416161706180609063C
:10533000089500240A94121613061406050608950B
:10534000092E0394000C11F4882352F0BB0F40F493
:10535000BF2B11F460FF04C06F5F7F4F8F4F9F4FD3
:10536000089557FD9058440F551F59F05F3F71F055
:105370004795880F97FB991F61F09F3F79F08795BC
:105380000895121613061406551FF2CF4695F1DF45
:1053900008C0161617061806991FF1CF86957105D5
:1053A000610508940895E894BB2766277727CB0109
:1053B00097F908950BD0C4CFB5DF28F0BADF18F005
:1053C000952309F0A6CFABCF1124EECFCADFA0F30F
:1053D000959FD1F3950F50E0551F629FF001729F8A
:1053E000BB27F00DB11D639FAA27F00DB11DAA1FA9
:1053F000649F6627B00DA11D661F829F2227B00DF6
:10540000A11D621F739FB00DA11D621F839FA00D80
:10541000611D221F749F3327A00D611D231F849FD0
:10542000600D211D822F762F6A2F11249F57504027
:105430008AF0E1F088234AF0EE0FFF1FBB1F661FC2
:10544000771F881F91505040A9F79E3F510570F07B
:1054500060CFAACF5F3FECF3983EDCF3869577955B
:105460006795B795F795E7959F5FC1F7FE2B880F76
:10547000911D9695879597F90895629FD001739F26
:10548000F001829FE00DF11D649FE00DF11D929FE0
:10549000F00D839FF00D749FF00D659FF00D99271F
:1054A000729FB00DE11DF91F639FB00DE11DF91F43
:1054B000BD01CF0111240895991B79E004C0991F03
:1054C000961708F0961B881F7A95C9F7809508955E
:1054D000AA1BBB1B51E107C0AA1FBB1FA617B7071A
:1054E00010F0A61BB70B881F991F5A95A9F7809536
:1054F0009095BC01CD01089597FB092E07260AD08F
:1055000077FD04D0E5DF06D000201AF47095619590
:105510007F4F0895F6F7909581959F4F0895A1E2EA
:105520001A2EAA1BBB1BFD010DC0AA1FBB1FEE1F1D
:10553000FF1FA217B307E407F50720F0A21BB30B68
:10554000E40BF50B661F771F881F991F1A9469F7E4
:1055500060957095809590959B01AC01BD01CF0140
:10556000089597FB092E05260ED057FD04D0D7DFEE
:105570000AD0001C38F450954095309521953F4F46
:105580004F4F5F4F0895F6F7909580957095619510
:105590007F4F8F4F9F4F0895EE0FFF1F0590F4919F
:0855A000E02D0994F894FFCFFF
:1055A8004655454C3A004572726F7220636F6465C8
:1055B80020004C554E415252554E2E4441540053F2
:1055C80074617274696E672E2E2E004C4F414445EB
:1055D8005200202B2C3B5B3D5C5D222A3A3C3E3F2F
:1055E8007C002F000180000B050000010000000076
:1055F800CC0EDB26000000003626DB26CC25FD2558
:04560800DD25262650
:00000001FF
