:100000000C94D8080C9400090C9400090C94000975
:100010000C9400090C9400090C9400090C9400093C
:100020000C9400090C9400090C9400090C94131D05
:100030000C9400090C9400090C9400090C9400091C
:100040000C948A1D0C9400090C9403200C945120EC
:100050000C9400090C9400090C9400090C940009FC
:100060000C9400090C94000905A84CCDB2D44EB9EB
:100070003836A9020C50B9918688083CA6AAAA2A4B
:10008000BE000000803F401E000000000000000095
:100090000000000000000000000000000000000060
:1000A0000000000000000000000000000000000050
:1000B0000000000000000000000000000000000040
:1000C000000FFFF800000000001000040000000016
:1000D00000200002000000000020000200000000DC
:1000E00000200002000000000010000400000000DA
:1000F0000008000800000000001FFFFC00000000D6
:1001000000100004000000000010000400000000C7
:1001100000100004000000000010000400000000B7
:10012000001FFFFC000000000001807000000000C4
:100130000006001C0000000000180006000000007F
:1001400003FE001FE00000000000000000000000AF
:10015000000000000000000000000000000000009F
:10016000000000000000000000000000000000008F
:100170000000000000000000120890082F09B309D9
:10018000730A2A0BB10B6B0C3D0D404000020010AE
:100190000080000000030010018000003003803860
:1001A000038018003C03C038078078001F03E07C00
:1001B0000F81F0001F03E07C0F81F0000F01C038B9
:1001C0000701E0000E0000000000E00000C07038F1
:1001D0001C06000000E070381C0E000000603010AB
:1001E000180C0000000000000000000000000000EB
:1001F000000000000000000404000000FC01110EDB
:100200004E007E007E03BB9EEF00FC003E01390ED7
:10021000EE00F8001EC010044406F0000CE02800B8
:10022000A00E600000E00000000E000000001000C2
:10023000E000000000003801F000000000001000A5
:10024000E00000000000000040000000000000008E
:10025000000000000C000000000060003EC0000034
:100260000006F800FEE00000000EFE003EC00000A8
:100270000006F8000C000000000060000000000014
:10028000000000000000000000000000000000006E
:10029000000000000000000000000000000000005E
:1002A0000000000000E02082080E00000CE071C792
:1002B0001C0E60001EC071C71C06F0003E000082CC
:1002C0000800F8007E0000021400FC00FC000000A2
:1002D00000007E00000000000000000000000000A0
:1002E000000000000000000000000000006030106E
:1002F000180C000000E070381C0E000000C07038C0
:100300001C0600000E0000000000E0000F01C038D5
:100310000701E0001F03E07C0F81F0001F03E07C79
:100320000F81F0003C03C03807807800300380382C
:10033000038018000003001001800000000200107C
:10034000008000000000000000000000000000002D
:10035000000000000000000000000000000000009D
:10036000000000000000000000000000000000008D
:10037000000000000000000000000000000000007D
:1003800000000000000000000000000040400002EB
:100390000010008000000003001001800000300306
:1003A0008038038018003C03C038078078001F03A2
:1003B000E07C0F81F0001F03606C0D81F0000D01E7
:1003C000C038070160000E0000000000E00000C01F
:1003D00070381C06000000A05028140A00000060BD
:1003E0003010180C000000000000000000000000A9
:1003F0000000000000000000000404000000FC01F8
:10040000110E4E007E007E03AB9AAB00FC003A0159
:10041000390EEE00B8001EC010044406F0000CA017
:100420002800A00A600000E00000000E00000000AC
:100430001000E000000000003801B00000000000E3
:100440001000E0000000000000004000000000007C
:100450000000000000000C000000000060003EC032
:1004600000000006F800FAA00000000ABE003EC02E
:1004700000000006F8000C00000000006000000012
:10048000000000000000000000000000000000006C
:10049000000000000000000000000000000000005C
:1004A00000000000000000E02082080E00000CA008
:1004B0005145140A60001EC071C71C06F0003A00C6
:1004C00000820800B8007E0000021400FC00FC005E
:1004D000000000007E00000000000000000000009E
:1004E00000000000000000000000000000000060AC
:1004F0003010180C000000A05028140A000000C0A2
:1005000070381C0600000E0000000000E0000D0125
:10051000C038070160001F03606C0D81F0001F03ED
:10052000E07C0F81F0003C03C03807807800300386
:1005300080380380180000030010018000000002D2
:10054000001000800000000000000000000000001B
:10055000000000000000000000000000000000009B
:10056000000000000000000000000000000000008B
:10057000000000000000000000000000000000007B
:1005800000000000000000000000000000004040EB
:100590000002001000800000000300100180000035
:1005A00030028028028018002C0240280480680055
:1005B0001302204408819000110220440881100099
:1005C0000901C038070120000E0000000000E00013
:1005D00000C070381C06000000A05028140A00005B
:1005E00000603010180C0000000000000000000047
:1005F00000000000000000000000000404000000F3
:10060000FC01110A4A007E004202AA92A90084005D
:100610002201390AEA00880012C010044406900042
:100620000CA02800A00A600000E00000000E0000FE
:1006300000001000E0000000000028011000000091
:1006400000001000A00000000000000040000000BA
:1006500000000000000000000C000000000060002E
:1006600032C0000000069800C2A00000000A860008
:1006700032C00000000698000C000000000060007E
:10068000000000000000000000000000000000006A
:10069000000000000000000000000000000000005A
:1006A000000000000000000000E02082080E0000B2
:1006B0000CA05145140A600012C071C71C069000BE
:1006C000220000820800880042000002140084001A
:1006D000FC00000000007E000000000000000000A0
:1006E000000000000000000000000000000000000A
:1006F00000603010180C000000A05028140A000000
:1007000000C070381C0600000E0000000000E00071
:100710000901C0380701200011022044088110009F
:1007200013022044088190002C02402804806800B5
:1007300030028028028018000003001001800000B1
:100740000002001000800000000000000000000017
:100750000000000000000000000000000000000099
:100760000000000000000000000000000000000089
:100770000000000000000000000000000000000079
:100780000000000000000000000000000000000069
:10079000210F200E0305210F1F140504210F1B0D2F
:1007A0000405210F240D04051B2D192C050B122DFA
:1007B0000E2C060B092D022C0909092400230B0617
:1007C000091B00190B050912000E0B06090902028C
:1007D000090912090E00060B1B091900050B240953
:1007E0002300060B2D092C0209092D122C0E0B06D5
:1007F0002D1B2C190B052D242C230B062D2D2C2CF9
:100800000909242D232C060B4C756E61722052753C
:100810006E001C545CDD135D5E125FA0D022A38DC0
:1008200026278928E84829288828288828E8482968
:10083000288828A78926E68A25A3CD22210F605F74
:10084000115F5F115F201060E1CF21A2CE2263CD46
:100850002324CC24E58B25E58B2524CC2463CD23D0
:10086000E2CE21610F5F9F115EDE125D1C545C1CA5
:10087000545C1C545C5D135FE38D25A7492AAB458E
:100880002AAA462AAA462AAB452A69872725CB24C5
:1008900064CC2363CD2363CD2363CD2323CD246593
:1008A0008B27A9472A6A462BAA462A298728E7893F
:1008B0002517C50815C70814C80813CA0713CA079F
:1008C00052CC0591CD04D1DF511020901020904FD3
:1008D000218F4F218F8FA10F83940F44930FC55306
:1008E00010861314C7135DDD135DDD135D5E125FAB
:1008F000638C2669462A2C043FFF001E2D442C9B46
:10090000430E18840E14870DD10A0703C80F4784BD
:10091000028D4E0541094B83114A43514802D2844E
:10092000C4EDC2C0FFC0C0FFC0C0FFC0C03F00C018
:10093000FFC0C0FFC0C0FFC0C0F68181EF8243EDA1
:1009400083C4AC8585AB8647A987888A44098748D4
:10095000189858189858585818894A160C8813CD62
:1009600088110DC7110CC71226472B2D023F3F00DF
:100970003F3F003F3F003F3C422C6C442B6B452BDC
:100980006B452BAB452AAA462AAA462AEA462929BC
:100990008728A78926A2CE22E1CF21E1CF21E1CF6E
:1009A00021E1CF21A1CF22E2CE219F115E1D535C18
:1009B0001C1400C0FFC0C0FFC0C04E840A658B8CF1
:1009C000648BCA678909A88848680941228F8F22E9
:1009D0008FCE248F0E638D8D238D4E555A1B555B04
:1009E0009D125E54034893C50A92C70992C709D263
:1009F000C8081109479009478E09474E48480C8698
:100A00004949C64687C6460686450DC605D98605A8
:100A1000DA8605DA8605DA8506DB8307E68B256646
:100A20008B27A78A26D7860995C7095108498E08BA
:100A30000106D10E05D10E45D00E45CF0F45CE1083
:100A4000C5CC10050C4F050B50050A51050A510580
:100A50000A51050A51050A51450A50C50A4F044A70
:100A60004F034B4E434B4E820C8E4E228F4F218FA5
:100A70000F1500C00D8E0D648C8C658A8AE60A8283
:100A8000D7098396094796094A94090A930BCB52D2
:100A90000B8C500D4DCF2224CC2424CC2419C60518
:100AA00019C60558C80457C80497CB01161E9210E2
:100AB000638D4C658BCC248DCD238E8E228E91DF61
:100AC0005213DD5415DC5414DC54D49C14828E155E
:100AD000838E15448C16054B16418407D6030308F4
:100AE00048160F46171044181142192C442C2C4458
:100AF0002C09432008461E07481D464D18864E16F1
:100B0000855015459210C4950C04D50B44D50A4365
:100B1000D60A82578A4A658BCC248C8EE24E11DD30
:100B20005353DC5392DE52120F0080CF52D1DF516B
:100B30005020904F218F4F218F0F218F0E628B0BF2
:100B4000658C0D228F51DE53939C55D759585A55B9
:100B50005BDB145C9D135D1E515A5B545B19975807
:100B6000189858579957189858D89819014B0296C1
:100B70000743D50545D3044792044853024A9F12C0
:100B80005E9E125F01855819985858995797995742
:100B9000D69A5515DC5494DC53521E908D648A0805
:100BA000E986C1FFC0C0FFC0C0FFC0C0FFC0C0BF5A
:100BB00040C0FFC0C0FFC0C071854A658B4D234D4A
:100BC00086CD0D88CD0D88CD0D08CD0EC98E0D8A30
:100BD0008E0D8B8E0D4B8E0D4C8E0D0B8E0E8C4E06
:100BE0000E0E4E0F8F0E1090CE22E1CF205E925649
:100BF00096995695555AD8985554DC53939D1103A0
:100C000092118512144999589B555A5A9759D79A57
:100C100056D59B55959B5617CB02D989034C830A11
:100C2000038C0709C904868808488904878B08C291
:100C30008D0449D9010A668CCC248DCFA155959B92
:100C40005687834C07440D045007564F07974D07AE
:100C5000578C07D48C0596CA0396C903969A568476
:100C6000835082498BCA678909A709C05F8909A790
:100C70008808A88808A78847A88707A88748658B99
:100C80008BE50A85D30A86D20A87D10A87D00B085A
:100C900047024E4D09960C0BD88B25E68C25A78A6A
:100CA00026A68A27E60A0E554B0C948C07548C070F
:100CB000948C08D28D0711CD0710CD0710CD0711E8
:100CC000CC0751CD0690CE04D0218F8D658B4A661E
:100CD0008A0B658B0C638C0C644CC30D4CC50503EF
:100CE000CD13068C024607420C454B1B854B1AC59B
:100CF0004A1A058A19858919C48918C48918C489AA
:100D000017044A0B888B048A8607C54A0A86890617
:100D1000098A05C68A0985860749CB1088CC0F4801
:100D20000B4E860B4EC60B4DC8094CC70C4AC70E5E
:100D300048C710458867894B648A0A2100C04589E5
:100D4000C86789C8A808849908459908069908C8F9
:100D50005808CAC602C8C712C8C61309035560504E
:100D6000110A901088910EC6930C85D40A841545FB
:100D7000045741446C8BCB98028B97048C95054C9F
:100D800093080C9209CC520B0C510ECCD020A00E23
:100D90001BC50D0A4FC205C9040F844C0903440644
:100DA000C44C08824603058A49C54A49864A4948CF
:100DB00049490949494AC90A90890CD1490C9449C1
:100DC0000C954905C18613C40D0982D202C7A986B4
:100DD00005EC84C4EC4444C608834D05C944014372
:100DE0004C068F86054745104549085A49089A48D8
:100DF0000919880898C707C84309465006C7074617
:100E0000048506865304054845048704C554040434
:100E10004845448704C45404C50845C44706864869
:100E200003C64606084406C84506DE4209E94729C6
:100E300029470D98480BC7034B824705079F03C5F9
:100E4000FFC000FF0003053F213F0A100A120812ED
:100E50000E1C0E0C1E0C141A14161F161E131E1E2A
:100E60001B1E1E1F1E3F213F3A2F3A173D173F21E1
:100E70003F181F02040A041F0E04040E1F0A1F0A53
:100E80000E0E1F04110E2E252E2F2A2E2629290282
:100E90001F02081F08150E04040E150E15151B154C
:100EA0001B040604040C04000000001700030003E8
:100EB0001F0A1F16371A1904130A153A00030000F7
:100EC0000E11110E000A040A040E0400300004047E
:100ED000040010001804031F111F121F101D151706
:100EE00011151F07041F17151D1F151D01011F1FB9
:100EF000151F17151F000A00003200040A110A0A04
:100F00000A110A040115020E11171E051E1F150AEB
:100F10000E110A1F110E1F15111F05010E111D1FA5
:100F2000041F111F1108100F1F041B1F10101F0694
:100F30001F1E040F0E110E1F09060E112E1F051A7B
:100F4000121509011F011F101F0F180F1F0C1F1B67
:100F5000041B031C03191513001F11030418111F90
:100F6000000201022020200001020C121E1F120CA0
:100F70000C12120C121F0C1A14041E05242A1E1F18
:100F8000021C141D1020201D1F0814111F101E0408
:100F90001E1E021C0C120C3E0A040C123E1E040201
:100FA00014160A020F120E101E0E100E1E081E122C
:100FB0000C1226281E322A26041E21001F00211E84
:100FC000040102013F213F0A4E6F20534420636118
:100FD0007264206F720A6E6F204C4F414445522E4E
:100FE0004845580A0A153A45786974001D20466C30
:100FF000617368696E670A20206C6F616465722E88
:101000002E2E0A0A444F4E2754205455524E204F3C
:10101000464621004E4F20424154544552590A0A37
:10102000504C454153450A5455524E204F464600B8
:10103000177361766500166261636B0015747970D1
:1010400065000A0A0A153A6F6B617920163A6564E1
:10105000697400596F7520656E74657265640A0065
:10106000540A03E181867F3E186D830F0F0E0183C2
:10107000866033186DC3198F1803C38E6033186DE3
:10108000E330CF1803C39E603630CDE360CF300627
:10109000C79E7E3E30CDB360CF300CC6F660333095
:1010A000D9B660CF33CFCCF66061B0DB1E60CF30F5
:1010B000D86CE6C061B0DB1E618F19986CC6C06346
:1010C000B19B0E330F0FB078C6FF7E1F1B061E0F9D
:1010D000175344001613780016131400151020003F
:1010E00015201000000005008930080238024978F8
:1010F000681400004500680100000500680138011F
:1011000000000500380168010000F6E8DBCFC3B835
:10111000AEA49B928A827B746E68625C57524E4981
:1011200045413E3A3734312E2C29272523211F1DD6
:101130001C1A1917161514131211100F0E0D0C0B83
:101140000A0908070649114D110101F7030101FFC2
:101150000300000000240027002A000000000025F2
:101160000028002B000000000023002600290004B6
:10117000040404040404040202020202020303033E
:101180000303030102040810204080010204081038
:1011900020010204081020000000070002010000E6
:1011A0000304060000000000000000000209BD2149
:1011B00011241FBECFEFD8E0DEBFCDBF11E0A0E00D
:1011C000B1E0E8E8FCE402C005900D92A632B10758
:1011D000D9F714E0A6E2B1E001C01D92A437B1072F
:1011E000E1F711E1C0EBD1E104C02297FE010E94BA
:1011F0003E26CC3AD107C9F70E9413220C9442260E
:101200000C940000109277011092760181E191E038
:10121000909375018093740180E090E0A0E0B0E0CD
:101220008093AC019093AD01A093AE01B093AF0158
:101230008093B0019093B101A093B201B093B30138
:101240008093B4019093B501A093B601B093B70118
:101250008093B8019093B901A093BA01B093BB01F8
:101260000895EF92FF920F931F93CF93DF93EC01BA
:101270007B018A0160910701709108018091090149
:1012800090910A0120E030E040E050E00E94ED241F
:10129000181644F580E391E063E041E00E94951068
:1012A000882341F480E391E064E041E00E949510DE
:1012B0008823C1F06091B8017091B9018091BA01A1
:1012C0009091BB012AE037ED43E25CE30E94F422F7
:1012D0006093B8017093B9018093BA019093BB01F8
:1012E00081E0888360910701709108018091090174
:1012F00090910A0120E030E040E050E00E94ED24AF
:1013000018160CF580E391E060E041E00E94951032
:101310008823C9F06091B4017091B5018091B60144
:101320009091B7012AE037ED43EA5BE30E94F42293
:101330006093B4017093B5018093B6019093B701A7
:1013400081E0F8018083609107017091080180912C
:10135000090190910A0120E030E040E050E00E9455
:10136000ED2418160CF580E391E062E041E00E9464
:1013700095108823C9F06091B4017091B5018091F6
:10138000B6019091B7012AE037ED43EA5BE30E9492
:10139000F5226093B4017093B5018093B6019093E8
:1013A000B70181E0F7018083DF91CF911F910F9109
:1013B000FF90EF900895EF92FF920F931F93CF93BA
:1013C000DF93EC01609107017091080180910901A0
:1013D00090910A0120E030E040E050E00E94ED24CE
:1013E00018160CF057C080E391E063E041E00E94E2
:1013F0009510882349F480E391E064E041E00E9485
:101400009510882309F446C0E090BE01F090BF011A
:101410000091C0011091C101C801B7010E9454257B
:101420002AE037ED43E25CE30E94F1249B01AC012A
:101430006091B4017091B5018091B6019091B701AE
:101440000E94F5226093B4017093B5018093B601B8
:101450009093B701C801B7010E945D232AE037EDE0
:1014600043E25CEB0E94F1249B01AC016091B80166
:101470007091B9018091BA019091BB010E94F5224F
:101480006093B8017093B9018093BA019093BB0146
:1014900081E0888380E391E060E041E00E94951064
:1014A000882349F16091BE017091BF018091C00114
:1014B0009091C1012DEC3CEC4CE45DE30E94F422E0
:1014C00008C0C801B7012BED3FE049EC50E40E9491
:1014D000F5227B018C0120E030E040E050E00E94EA
:1014E000592387FDEECFE092BE01F092BF01009339
:1014F000C0011093C10180E391E062E041E00E94ED
:101500009510882349F16091BE017091BF018091CF
:10151000C0019091C1012DEC3CEC4CE45DE30E94D4
:10152000F52208C0C801B7012BED3FE049EC50E4BB
:101530000E94F4227B018C012BED3FE049EC50E44A
:101540000E94ED2487FFEECFE092BE01F092BF0132
:101550000093C0011093C101DF91CF911F910F91B2
:10156000FF90EF9008952F923F924F925F926F926B
:101570007F928F929F92AF92BF92CF92DF92EF9223
:10158000FF920F931F938C017B016A0180E391E02E
:1015900065E00E948B10882371F020E030E080919C
:1015A000BC019091BD01892B11F421E030E0309312
:1015B000BD012093BC018091BC019091BD010097B9
:1015C00021F4C8010E94DB0907C0019729F4C80172
:1015D000B701A6010E9431096091070170910801CD
:1015E0008091090190910A0120E030E040E050E054
:1015F0000E9459236091B8017091B9018091BA019C
:101600009091BB012AE037ED43E25BE30E94F522B3
:101610003B014C016093B8017093B9018093BA010A
:101620009093BB012090B4013090B5014090B60179
:101630005090B701C201B1012091AC013091AD01D0
:101640004091AE015091AF010E94F5227B018C01C7
:101650006093AC017093AD018093AE019093AF01A4
:10166000C401B3012091B0013091B1014091B201A8
:101670005091B3010E94F5225B016C016093B001AF
:101680007093B1018093B2019093B301C801B70187
:1016900020E030E040E050E00E9459238823B4F479
:1016A000D801C701B0588093AC019093AD01A093CD
:1016B000AE01B093AF01D201C101B0588093B40123
:1016C0009093B501A093B601B093B701E090AC013F
:1016D000F090AD010091AE011091AF01C801B701CA
:1016E00020E030E04CE753E40E94ED2488230CF125
:1016F00060E070E08CEF93E4A80197010E94F4226F
:101700006093AC017093AD018093AE019093AF01F3
:101710008091B4019091B501A091B601B091B7014B
:10172000B0588093B4019093B501A093B601B093E3
:10173000B701C601B50120E030E040E153E40E946A
:10174000ED248823DCF060E070E080E993E4A601FA
:1017500095010E94F4226093B0017093B1018093CF
:10176000B2019093B301D401C301B0588093B80182
:101770009093B901A093BA01B093BB0180E090E0CF
:10178000AAE7B4E48093070190930801A0930901AC
:10179000B0930A011F910F91FF90EF90DF90CF90CF
:1017A000BF90AF909F908F907F906F905F904F9081
:1017B0003F902F900895CF92DF92EF92FF920F9378
:1017C0001F93CF93DF937B01EA0100E010E0C82E66
:1017D000DD2413C084E791E0F701608148810E9415
:1017E000E31088818F5F8883803328F0F701808140
:1017F0008F5F808318820F5F1F4F0C151D0554F3F8
:10180000DF91CF911F910F91FF90EF90DF90CF90DC
:1018100008956F927F928F929F92AF92BF92CF92D4
:10182000DF92EF92FF920F931F93DF93CF9300D03D
:10183000CDB7DEB7A090B001B090B101C090B201B9
:10184000D090B301C601B50120E030E040E050E0A7
:101850000E94592387FD90C06091AC017091AD0149
:101860008091AE019091AF0120E030E048EA52E46F
:101870000E9460230E94C8237B018C01C601B50130
:1018800020E030E040E452E40E9460230E94C8233C
:10189000FB01EE0FFF1FE60FF71FEE0DFF1DEE0F12
:1018A000FF1FE858FE4F0591149184E791E061E035
:1018B0000E94DB1019821A8232E0632E712C6C0EAA
:1018C0007D1E4E010894811C911C52C0F801C490E9
:1018D0000F5F1F4FF801E4900F5F1F4FF801D49086
:1018E000025010408C2D8F732FE3B22EBD209A81B1
:1018F00020E030E0682F70E007C09F5F903310F069
:101900004F5F90E02F5F3F4F26173707B4F34983AF
:101910009A838E2D8F73B401A3010E94DB0B398152
:101920002A8180E090E04B2D50E006C02F5F2033ED
:1019300010F03F5F20E0019684179507BCF33983D0
:101940002A830D5F1F4FE2949FE0E922FCE0EF2223
:10195000D694D69480E3D822ED28C294C694C69437
:1019600083E0C8228E2D8C29B401A3010E94DB0BD9
:101970004981443508F4AACF0F900F90CF91DF91A1
:101980001F910F91FF90EF90DF90CF90BF90AF909D
:101990009F908F907F906F9008954F925F926F927B
:1019A0007F928F929F92AF92BF92CF92DF92EF92EF
:1019B000FF920F931F93CF93DF93482E562E642EE2
:1019C000722E802EF6018491E6012296992787FDDA
:1019D0009095079668E070E00E94EC25962E00E056
:1019E00060E8A62EB12C2BC0E82F87FDE95FE595B6
:1019F000E595E595FF27E7FDF095EC0DFD1DEC0F56
:101A0000FD1FE4912E2F30E068E00E94CB25A50158
:101A100002C0559547959A95E2F724233523232B49
:101A200039F0612F640D84E791E04F2D0E94E3109F
:101A30001F5F812F880D1615BCF20F5FE394071509
:101A40004CF45E2D892D58026001112410E0F02E17
:101A5000F50CEFCFDF91CF911F910F91FF90EF9099
:101A6000DF90CF90BF90AF909F908F907F906F90BE
:101A70005F904F9008957F928F929F92AF92BF9206
:101A8000CF92DF92EF92FF920F931F939B01FA0187
:101A9000449131961491319694903196A490319658
:101AA00074903196849064E570E00E94EC25B92C26
:101AB000B80EB41AC90160E370E00E94EC25FA2C5C
:101AC000F80EF11A84E791E060E00E94DB108B2DA4
:101AD0006F2D472D282D092DEA2CFAE8CF2EF1E0A5
:101AE000DF2E0E94CD0C84E791E061E00E94DB10C4
:101AF0008091C201882349F08B2D6F2D472D282D11
:101B0000ECE8CE2EE3E0DE2E0AC08B2D6F2D472DA4
:101B1000282D092DEA2C7EE8C72E75E0D72E0E94CD
:101B2000CD0C1F910F91FF90EF90DF90CF90BF9061
:101B3000AF909F908F907F9008955F926F927F9269
:101B40008F929F92AF92BF92CF92DF92EF92FF92CD
:101B50000F931F93CF93DF93782E662E542EA09071
:101B6000AC01B090AD01C090AE01D090AF01E0905B
:101B7000B001F090B1010091B2011091B3010AC01F
:101B8000C801B70120E030E040E452E40E94F522B1
:101B90007B018C01C801B70120E030E040E050E05B
:101BA0000E94592387FDECCFC601B5010E94C823CE
:101BB0005B016C014B01C801B7010E94C8237B0186
:101BC0008C01EB01C501B70140E957E00E943B0DD4
:101BD000772031F0C501B70146E957E00E943B0D7F
:101BE000662031F0C401BE014CE957E00E943B0D74
:101BF000552031F0C401BE0142EA57E00E943B0D7E
:101C0000DF91CF911F910F91FF90EF90DF90CF90D8
:101C1000BF90AF909F908F907F906F905F9008954E
:101C20002F923F924F925F926F927F928F929F92EC
:101C3000AF92BF92CF92DF92EF92FF920F931F93DA
:101C4000B82E662E2090AC013090AD014090AE01D0
:101C50005090AF01E090B001F090B1010091B2015D
:101C60001091B3010AC0C801B70120E030E040E4A0
:101C700052E40E94F5227B018C01C801B70120E0EB
:101C800030E040E050E00E94592387FDECCF6091A6
:101C9000BE017091BF018091C0019091C10120E00F
:101CA00030E040E851E40E94F1242BED3FE049ECA4
:101CB00050E40E94602320E030E040E05FE30E94B7
:101CC000F5220E94C823DC01CB0160E170E00E9494
:101CD000EC259C01880F991F820F931F9C01220FF6
:101CE000331FF901E855F84FD490F901E755F84F43
:101CF000C490BB2049F47D2C7A948C2C8A9463E0A8
:101D0000962E53E0A52E12C0FC01EE0FFF1FE655E4
:101D1000F84F7490F901E555F84F8490F901E455B6
:101D2000F84F9490F901E355F84FA490C201B10126
:101D30000E94C823DC01CB0164E570E00E94EC2521
:101D4000B82EBD18B70CC801B7010E94C823DC012A
:101D5000CB0160E370E00E94EC25182F1C19180DD0
:101D600084E791E060E00E94DB108B2D612F492D0C
:101D70002A2D072DE82C9AE8C92E91E0D92E0E9431
:101D8000CD0C84E791E061E00E94DB10662049F011
:101D90008B2D612F492D2A2DBCE8CB2EB3E0DB2EF5
:101DA0000AC08B2D612F492D2A2D072DE82CAEE876
:101DB000CA2EA5E0DA2E0E94CD0C1F910F91FF9044
:101DC000EF90DF90CF90BF90AF909F908F907F90DB
:101DD0006F905F904F903F902F900895E091BC01DD
:101DE000F091BD01309721F4622F0E94100E0895EA
:101DF000319711F40E949D0D089586E291E068E00C
:101E000078E046E850E00E94E61880E090E0A0E22A
:101E1000B1E48093B0019093B101A093B201B0936B
:101E2000B3018093AC019093AD01A093AE01B09348
:101E3000AF0180E090E0A0E0B0E08093B801909323
:101E4000B901A093BA01B093BB018093B401909300
:101E5000B501A093B601B093B7018093BE019093F2
:101E6000BF01A093C001B093C10181E090E09093C5
:101E7000BD018093BC010895DF93CF9300D00F92F2
:101E8000CDB7DEB786E291E00E942D18882341F19C
:101E900019821A821B8290E08091C201882309F482
:101EA00091E09093C20180E391E066E00E948B1084
:101EB000882319F00E94FD0E13C0CE010196BE01C9
:101EC0006E5F7F4FAE014D5F5F4F0E94B30A0E946D
:101ED000090C89816A814B812091C2010E94EE0E1A
:101EE0000F900F900F90CF91DF9108950F931F9354
:101EF00006E211E0C8010E94491AC80169E20E9485
:101F0000651682E594E040E855E260E070E00E94EA
:101F10008C200E94FD0E1F910F910895882319F4C3
:101F20008CB5806202C08CB58F7D8CBD08959CB548
:101F3000937F982B9CBD08952CB5382F33702C7F40
:101F4000322B3CBD2DB590E095958795959587955D
:101F500081702E7F822B8DBD08958AE061E00E9402
:101F60005B1F8AE061E00E941C1F8CB580618CBD04
:101F70008CB580648CBD8DE061E00E941C1F8BE0FD
:101F800061E00E941C1F0895FC0181E08083089598
:101F900085E070E00E94BC1E08956F927F928F9240
:101FA0009F92AF92BF92CF92DF92EF92FF920F93E8
:101FB0001F93CF93DF93EC0189819A818C0124E0F8
:101FC000000F111F2A95E1F7081B190B85E10E94EC
:101FD0009A1EBC01600F711F84E0769567958A9503
:101FE000E1F77A8369838881882381F12E813F819B
:101FF0006217730710F4B90106C0888599858617A2
:10200000970708F4BC0100D000D080E090E040E0E9
:1020100050E0E884F98400E010E0AD80BB24CC24DB
:10202000DD246C80772488249924EDB7FEB7618283
:102030007282838294820E94AB226B830F900F90F6
:102040000F900F9085E070E00E94BC1EDF91CF9151
:102050001F910F91FF90EF90DF90CF90BF90AF90C6
:102060009F908F907F906F900895FC018CE39FE08C
:102070009383828384E0818381E084870895CF9372
:10208000DF93EC018C8590E08F719070892B69F55E
:1020900084E10E949A1EAA2797FDA095BA2FBC0141
:1020A000CD010E94FB2326EE3FE34EEC50E40E945C
:1020B000F1240E94CD239B01AC017B836A836115CF
:1020C000710589F084E08983B901FE0120E08481F3
:1020D00095816817790710F429830AC02F5F32961B
:1020E0002430A9F702C08FEF89838C858F5F8C879E
:1020F000DF91CF910895FC0188E0808389E081839E
:1021000087E0828386E0838384E0848382E0858322
:1021100081E18683089520E0FC01E60FF11D8781AF
:10212000813009F421E0822F0895E62FF0E042305B
:1021300040F420E0E80FF91F878181508E3F88F43A
:102140000FC0E80FF91F87818F3F11F420E009C00D
:1021500020E090E0642F70E00E94D825019709F4F8
:1021600021E0822F08950F931F93CF93DF93EC010B
:1021700010E00FEF888162E00E941C1F88810E949E
:10218000AF1F2F81892B19F42F5F2F8307C02223C4
:1021900049F02F3F11F41F8201C00F83888160E056
:1021A0000E941C1F1F5F2196173021F7DF91CF91EE
:1021B0001F910F910895FC01678F60A30895FC01A2
:1021C000678F40A30895FC016435A8F547FD33C02F
:1021D00040338CF5878D942F959595959595772718
:1021E00067FD70954770882399F0E4E59E02F00141
:1021F0001124E60FF71FED53FE4F81E090E002C07F
:10220000880F991F4A95E2F72081282B2083089593
:10221000E4E59E02F0011124E60FF71FED53FE4F97
:1022200081E090E002C0880F991F4A95E2F78095FF
:102230002081282320830895AF92BF92CF92DF920E
:10224000EF92FF920F931F93CF93DF93EC01162F22
:10225000F42EE22EAA24402F552747FD50958F2DAE
:10226000992787FD9095481B590B57FF03C0509540
:1022700041955F4F2E2D332727FD3095812F9927CC
:1022800087FD9095281B390B37FF03C030952195AA
:102290003F4F2417350744F4AA24A3948F2DF12E21
:1022A000182F802F0E2DE82EE11634F48E2DE12EFE
:1022B000182F802F0F2DF82EDE2CD11A202F332728
:1022C00027FD30958F2D992787FD9095281B390B79
:1022D00037FF03C0309521953F4FB22EF0161CF00A
:1022E000CC24CA9402C0CC24C3948D2DD7FC8F5F1C
:1022F000082F059511C0AA2021F0CE016F2D412F86
:1023000003C0CE01612F4F2D0E94E3100B1907FF70
:1023100002C0FC0C0D0D1F5FE1166CF7DF91CF9131
:102320001F910F91FF90EF90DF90CF90BF90AF90F3
:1023300008950F93042F322F262F2150230F0E9430
:102340001C110F9108950F93362F042F0150020F87
:10235000232F0E941C110F9108959F92AF92BF925C
:10236000CF92DF92EF92FF920F931F93CF93DF9361
:102370006C01B62E942EA02EC0E0D0E0E62EFF24F5
:10238000E7FCF094022F112707FD10950E0D1F1D7D
:1023900006C0C601492D2A2D0E94A31121966B2D3E
:1023A0006C0FCE018E0D9F1D8017910794F3DF9166
:1023B000CF911F910F91FF90EF90DF90CF90BF9042
:1023C000AF909F9008952F923F925F926F927F926D
:1023D0008F929F92AF92BF92CF92DF92EF92FF9235
:1023E0000F931F93DF93CF9300D000D000D0CDB7D1
:1023F000DEB79E838D83C62ED42EEE24E394E21A9C
:102400008EEF289F502C1124842E8A94962E9A9415
:10241000A42EA394B62EB394F22E662423E0722E3B
:1024200010E0C801847090709A838983F801E2708B
:10243000F070FC83EB8398E0292E312C202231228E
:102440000170107054C0E7FC04C0FA94F2E05F0E13
:10245000E50C639489819A81892B71F04F2D4D0D84
:102460008D819E816B2D0E94E3106F2D6C0D8D81EF
:102470009E814A2D0E94E310EB81FC81EF2B71F0CD
:102480004D2D4F198D819E816B2D0E94E3106F2D74
:102490006C0D8D819E81482D0E94E3102114310422
:1024A00071F06C2D6F198D819E814A2D0E94E31071
:1024B0004F2D4D0D8D819E81692D0E94E3100115D8
:1024C000110571F06C2D6F198D819E81482D0E9430
:1024D000E3104D2D4F198D819E81692D0E94E310CF
:1024E000E70CF2E07F0E8A949A94A394B3946F144D
:1024F0000CF4A9CF26960FB6F894DEBF0FBECDBF61
:10250000CF91DF911F910F91FF90EF90DF90CF90CF
:10251000BF90AF909F908F907F906F905F903F9013
:102520002F9008954F925F926F927F928F929F9219
:10253000AF92BF92CF92DF92EF92FF920F931F93D1
:10254000CF93DF93EC01A62E742E9E2DFF24F394DF
:10255000F21A8EEF289F802C1124B42EBA9453E0E7
:10256000C52ECE0CE22EDD2443E0942E10E031E0A7
:10257000432E512C40225122692E63940270107018
:1025800034C0F7FC04C0EA9482E0880EF80CD394BF
:102590004114510489F06D2D6A0D472D4E192E2DD1
:1025A000220F260DCE010E94A3116E2D6A0DCE01C1
:1025B0004B2D2C2D0E94A3110115110589F06A2DB8
:1025C0006D19472D4E192E2D220F260DCE010E947A
:1025D000A3116A2D6E19CE014B2D2C2D0E94A31133
:1025E000F90C82E0980EBA94C80EDE1454F2DF9112
:1025F000CF911F910F91FF90EF90DF90CF90BF9000
:10260000AF909F908F907F906F905F904F900895C4
:102610007F928F929F92AF92BF92CF92DF92EF9272
:10262000FF920F931F936C01962EA42EF22E7E2CF8
:10263000760E1EEFE19E102D1124812E820E672D45
:10264000282D0E949911B02EBA0CBA94C601672D9C
:102650004B2D282D0E949911AE0C100FC601692D2B
:102660004A2D212F0E94A311F90CFA94C6016F2D57
:102670004A2D212F0E94A311C601672D4A2D2E2D10
:1026800001E00E94E311FE18C6016F2D4A2D2E2D88
:1026900002E00E94E311BE18C6016F2D4B2D2E2DB6
:1026A00004E00E94E311C601672D4B2D2E2D08E09A
:1026B0000E94E3111F910F91FF90EF90DF90CF9058
:1026C000BF90AF909F908F907F9008958F929F9230
:1026D000AF92BF92CF92DF92EF92FF920F931F9330
:1026E0006C01162FA42E922EF02EBE2C8E2C860E50
:1026F0002EEFE29EE02C11242E2D290D682D0E9434
:10270000AD11AB0CFA94FE0C1150190D1B19C6013A
:10271000612F4A2D2B2D01E0EF2C0E949212C60151
:10272000682D4A2D2B2D02E00E9492121F910F91CD
:10273000FF90EF90DF90CF90BF90AF909F908F90E1
:1027400008953F924F925F926F927F928F929F92E5
:10275000AF92BF92CF92DF92EF92FF920F931F93AF
:10276000CF93DF934C01362E442EF901A49031967D
:1027700054906F010894C11CD11C8A2D992787FDA4
:102780009095079668E070E00E94EC25E62EFF2405
:10279000E7FCF09400E0C0E0D0E060E8662E712C29
:1027A00026C0E12FE595E595E595FF27E7FDF09536
:1027B000EC0FFD1FEC0DFD1DE4912E2F30E0812F5D
:1027C0008770A30102C0559547958A95E2F72423A7
:1027D0003523232B31F0612F630DC4014B2D0E9453
:1027E000E3101F5F1A15ECF20F5FCE0DDF1D05150C
:1027F00024F410E0B02EB40CF5CFDF91CF911F91EF
:102800000F91FF90EF90DF90CF90BF90AF909F908F
:102810008F907F906F905F904F903F9008953F9280
:102820004F925F926F927F928F929F92AF92BF92E0
:10283000CF92DF92EF92FF920F931F93CF93DF938C
:10284000EC01862EA42E422F102F3F8C23E5261755
:102850000CF4ABC03FE23A150CF4A7C0C02EDD2447
:102860008C8190E001979C01C29EC001C39E900D97
:10287000D29E900D1124262F332727FD3095820FED
:10288000931F181619060CF090C08D8190E09C01E2
:10289000C29EC001C39E900DD29E900D11242A2D80
:1028A000332727FD3095820F931F181619060CF059
:1028B0007CC09924442E55246DC09C012150304089
:1028C0004217530711F460E00EC0429EC001439EC0
:1028D000900D529E900D1124840F951FED8DFE8D4D
:1028E000E80FF91F64914C9DC0014D9D900D5C9DBA
:1028F000900D1124682C680EBB24792C780C3FC0F5
:10290000E62EFF2460FF19C0113039F44B2D4A0D1B
:10291000CE01672D0E94E3102EC02C9DC0012D9D7D
:10292000900D3C9D900D11244A2D480FCE01662D2F
:10293000212F012F0E94AD111EC098A18F8D9817D5
:10294000D1F09F8F113039F44B2D4A0DCE01672DF8
:102950000E94E3100FC02C9DC0012D9D900D3C9D49
:10296000900D11244A2D480FCE01662D212F012FE5
:102970000E94AD113F8EF594E7946E2DB3942B2DEC
:10298000332727FD30958D8190E0281739070CF407
:10299000B7CF9394492D552747FD50958C8190E0F2
:1029A000481759070CF489CF3F8EDF91CF911F91C3
:1029B0000F91FF90EF90DF90CF90BF90AF909F90DE
:1029C0008F907F906F905F904F903F9008950F93FE
:1029D000CF93DF93EC01262F6A3049F48D819885DF
:1029E000899F802D11249A85980F9A8726C06D3073
:1029F00029F169854A8508850E940F149C816885A4
:102A0000969F402D11248985480F49878F818823FF
:102A1000A9F0552747FD5095699F9001112484E541
:102A200090E0821B930B8417950744F49D81699F66
:102A3000902D11248A85890F8A87198681E090E07C
:102A4000DF91CF910F9108951F93CF93DF93EC0106
:102A5000162FF8948E8560E00E945B1F8F851816F4
:102A60001CF460E00E945B1F1EBD0DB407FEFDCF8D
:102A70008EB58F8518161CF461E00E945B1F789458
:102A8000DF91CF911F910895FF920F931F93CF93E2
:102A9000DF93EC01FF2400E010E06F2D6064CE01B5
:102AA0000E942415CE0160E80E9424158E8561E005
:102AB0000E945B1F8F8518161CF460E00E945B1F4C
:102AC000F801ED53FE4F90E080818EBD0DB407FEFE
:102AD000FDCF8EB59F5F31969435B1F78F8518166F
:102AE0001CF461E00E945B1FF3940C5A1F4F86E0B8
:102AF000F81699F6CE0160E40E942415DF91CF917B
:102B00001F910F91FF900895CF93DF93DC0188EF21
:102B100091E0E3ECF1E0EF019C011992215030408B
:102B2000E1F719961C9219971A961C92DF91CF9192
:102B30000895EF920F93CF93DF93EC014D876C874D
:102B40002E87E88A0F8781E088878F8F18A28F836E
:102B5000E5E4FEE084918F5F8C83319684918F5FF2
:102B60008D833196FE8FED8F0E94AD0F81E00E9424
:102B70008E0F85E00E949C0F8CE00E94970F8D8540
:102B800061E00E941C1F8C8561E00E941C1F8E85E5
:102B900061E00E941C1F888918161CF461E00E94E5
:102BA0001C1F8F8518161CF461E00E941C1F888969
:102BB00018166CF460E00E945B1F6AE070E080E031
:102BC00090E00E94061E888961E00E945B1FEC85F0
:102BD0002E2F332727FD3095F901E159FE4EE49160
:102BE000F0E0EE0FFF1FE55AFE4E859194919C8B0D
:102BF0008B8B2D573E4EF90184918A8FED852E2FB8
:102C0000332727FD3095F901E159FE4EE491F0E0BC
:102C1000EE0FFF1FE55AFE4E859194919A8B898B9A
:102C20002D573E4EF9018491898FEF852E2F332742
:102C300027FD3095F901E159FE4EE491F0E0EE0FE9
:102C4000FF1FE55AFE4E859194919E8B8D8B2D57DB
:102C50003E4EF90184918B8FEE852E2F332727FD71
:102C60003095F901E159FE4EE491F0E0EE0FFF1FBF
:102C7000E55AFE4E85919491988F8F8B2D573E4E3D
:102C8000F90184918C8FCE0161E20E942415CE015E
:102C900064E10E9424158B8587FF02C08FE78B8734
:102CA0006B856068CE010E942415CE0160E20E940F
:102CB0002415CE016CE00E942415CE010E9444151B
:102CC000DF91CF910F91EF900895FC01262FE258EC
:102CD000FF4F88EE93E070E00E94EC256083EE5792
:102CE000F040822F64E10E94BF2581A70895CF9311
:102CF000DF93DC01E0E8FFE685919491ED01C75A8E
:102D0000DF4FAD0141595F4F8150904C09F04EC0EB
:102D1000E6E9FFE6E491E883E7E9FFE6E49114964B
:102D2000EC931497E8E9FFE6E4911596EC93159778
:102D3000E9E9FFE68591949117969C938E931697F7
:102D4000EBE9FFE68591949119969C938E931897E1
:102D5000EDE9FFE6E4919B96EC939B97EEE9FFE6A5
:102D6000E4919A96EC939A97EFE9FFE6E491EA01F1
:102D7000E883E0EAFFE6859194915D969C938E93BB
:102D80005C97E2EAFFE6859194915F969C938E931F
:102D90005E97E4EAFFE68591949191969C938E93D9
:102DA0009097E6EAFFE68591949132C08CE38883A0
:102DB00014961C9214972FEF15962C93159780E27A
:102DC00093E017969C938E93169784ED93E0199653
:102DD0009C938E93189781E09B968C939B979A96E1
:102DE0008C939A97FA0120838CEA9DE05D969C93E0
:102DF0008E935C978EED9DE05F969C938E935E978D
:102E000084E79EE091969C938E9390978CE39FE04D
:102E100093969C938E939297DF91CF910895EF9222
:102E2000FF920F931F93CF93DF937C018C01025B82
:102E30001F4FC8010E948415C8016CEE7FE00E94FC
:102E40004C22C8010E94441583E00E949C0F80E040
:102E500091E0EEEFFFE3099584E590E0E80EF91EBE
:102E6000F7011082C80167EC7FE00E949722C80139
:102E70000E944415E701CA54D040CE010E94B3100D
:102E8000CE0164E00E948B10882339F462E370E085
:102E900080E090E00E94061EF0CFDF91CF911F915D
:102EA0000F91FF90EF9008950F931F93CF93DF93AF
:102EB000EC018C01025B1F4FC80161E040E00E9401
:102EC000DF10FE01E95AFF4FCE5ADF4F85E59881AA
:102ED000891B808326961882C855D040698D613041
:102EE00081F1613028F0888D653008F043C03DC025
:102EF000CE0185960E94101BCE0160E00E94C80F93
:102F0000C8010E948415CA5ADF4F81E08883C80136
:102F100064E170E10E944C22C8010E94441583B70D
:102F2000817F846083BF83B7816083BF83B7816003
:102F300083BF889583B78E7F83BF83B78E7F83BF20
:102F40001FC0C059DF4F88819981AA81BB818F70D2
:102F50009070A070B0700897A105B10518F4C80171
:102F600067E00CC0C80168E709C0882349F06B5FBF
:102F7000C80104C0882321F0C8016FE20E946F22BB
:102F8000DF91CF911F910F910895AF92BF92CF9291
:102F9000DF92EF92FF920F931F93CF93DF93EC0199
:102FA000CB57DF4F8881C558D040882309F44AC0E9
:102FB0008C3010F010E002C01CE0181BCA5ADF4F22
:102FC00081E08883C655D0406EE4C62ED12CCC0E4D
:102FD000DD1EC60160E00E94DB1053E5A52EB12C7A
:102FE000AC0EBD1EF50100814DE2F42E4F2D401BAD
:102FF000410F0D5FC60160E024E533E0E32E0E943F
:103000006613C60161E00E94DB10F5010081F01A31
:10301000F10E0D5FC60160E04F2D24E50E940813FC
:10302000C95ADF4F84E08993F5018081181B115D37
:103030001883AB9669917991C6010E944C228881D0
:1030400081508883DF91CF911F910F91FF90EF9076
:10305000DF90CF90BF90AF900895AF92BF92CF9284
:10306000DF92EF92FF920F931F93CF93DF93EC01C8
:10307000EFE7AE2EB12CA80EB91EF501E080F1806D
:10308000028113810E94D21DE61AF70A080B190B60
:103090007EE7C72ED12CCC0EDD1EF601808190E09C
:1030A000A0E0B0E08E159F05A007B10708F081C031
:1030B0008E0106581F4FF80180819181A281B38152
:1030C0000097A105B10509F474C00E94D21DF60154
:1030D0002081620F711D811D911DF5016083718337
:1030E00082839383FE01E059FF4F80819181A28109
:1030F000B3810196A11DB11D80839183A283B38307
:10310000F80110821182128213820E94E01DCA58B7
:10311000DF4F688379838A839B83C657D040CE0173
:103120000E94CD0FCE010A960E94B310CE014896A0
:103130000E943F1081E032C08E010B5D1F4FC8011D
:103140000E940C1BC8010E94E41BC8010E94DA1CEB
:10315000CE010E94C517CE010E9454178E01025B5A
:103160001F4FC8010E944415CC5ADF4F8881C455B7
:10317000D040882319F4C8010E9484150E94E01DE4
:10318000C658DF4F688379838A839B83249728817D
:103190003981621B730B7A936A9380E0DF91CF9140
:1031A0001F910F91FF90EF90DF90CF90BF90AF9065
:1031B0000895C658DF4F88819981AA81BB81CA577B
:1031C000D0400097A105B10541F7B6CF2F923F92AD
:1031D0004F925F926F927F928F929F92AF92BF9227
:1031E000CF92DF92EF92FF920F931F93DF93CF93D3
:1031F000CDB7DEB72B970FB6F894DEBF0FBECDBFAD
:103200009B878A877A8369835C834B838C0101590E
:103210001F4FF8018081882309F422C18A859B858C
:103220008A5A9F4F9B878A8781E0EA85FB85808346
:1032300012921292E455F040FB87EA87108E9EE4CA
:10324000E92EF12CEE0EFF1EC70161E00E94DB109B
:103250008AE0282E312C8A859B85280E391EB5E2FE
:103260006B2E712C680E791EE981FA81F491FD8331
:10327000A7E58A2E912C880E991EF8E5CF2ED12C29
:10328000C80ED91EE2E54E2E512C480E591E8D5AFD
:103290009F4F9F838E8370E7A72EB12C8A859B85D5
:1032A000A80EB91E198708878A859B850E942D184C
:1032B0008823D1F39D81992311F410E003C0EE819E
:1032C000FF811081C70160E040E020E630E10E940C
:1032D000A1138B819C81892B41F0145FC70160E0B1
:1032E000412F2B813C810E94A113F40110828CE0BC
:1032F000F6018083C70169817A810E944C22F20124
:10330000208130E0C901880F991F820F931F90958B
:1033100081959F4F8D5AF4018083EE81FF8120813A
:1033200030E0C901880F991F820F931F90958195F6
:103330009F4F835DF6018083F501808184FF04C087
:10334000C70160EE70E103C0C7016CED70E10E943F
:103350009722F201208130E0C901880F991F820F66
:10336000931F909581959F4F8D5AF4018083F601AC
:1033700080818F5F8083EA85FB8582A5882321F089
:10338000C70168ED70E103C0C70164ED70E10E9400
:103390009722F201808190E09C01220F331F280FB9
:1033A000391F309521953F4F2D5AF4012083F601A6
:1033B00080818F5F8083C70160ED70E10E9497225A
:1033C000C10165E00E948B10882351F0EA85FB85DE
:1033D00062A56F5FC3010E94431DC3010E943D1D92
:1033E000C10164E00E948B10882399F4E885F98577
:1033F0006081262F30E040E050E0F501808191812E
:10340000A281B38182179307A407B50708F16F3F24
:10341000F9F08A859B8581599F4F9B878A878FEF1B
:10342000EA85FB858083EF56F040FB87EA87C3017E
:1034300060E00E94B01AC3010E94371D81E0EA8556
:10344000FB85808F0DC08A859B850E940F172CCF2E
:10345000C10166E00E948B10882309F425CFF3CFC9
:103460002B960FB6F894DEBF0FBECDBFCF91DF9184
:103470001F910F91FF90EF90DF90CF90BF90AF9092
:103480009F908F907F906F905F904F903F902F9084
:103490000895AF92BF92CF92DF92EF920F93CF93A6
:1034A000DF936C018EE790E0C80ED91E82E3F6012F
:1034B000808381E090E0A0E0B0E0B293A293929389
:1034C00082936F0185EF9FEFC80ED91E8FEFF60133
:1034D000808381E99FEFC80ED91EC6010E9477162E
:1034E000C6010E94C40FC6016FEF0E94C80F4AE0D8
:1034F000A42EB12CAC0CBD1CC5010E947B10C501D3
:103500000E94B310C60148960E943510C601825B26
:103510009F4F6DE04BE020E10FE03EE0E32E0E9484
:103520009915E601A596CE010E94501DC50165E0E2
:103530000E948B10882329F0CE0160E00E94431D79
:1035400006C0CE0166EE70E140E00E94C21ADF9133
:10355000CF910F91EF90DF90CF90BF90AF900895F3
:10356000FC01662371F4178A158A14A213A2108E27
:103570001092BF031092BE031092BC031092B400CD
:10358000118208950F931F93CF93DF93EC018B016A
:10359000442371F460E00E94B01A1E870D871B8AD5
:1035A0001A8A81E0898389E08E8B198E1B8E1D8E8D
:1035B000DF91CF911F910F910895CF93DF93EC018D
:1035C000662339F58881882321F18981882309F5CB
:1035D000898590E0880F991FEF81F885E80FF91F22
:1035E000859194912FEF8F3F920711F4188211C0AB
:1035F0009C8790E0880F991FEA85FB85E80FF91FEB
:1036000065917491CE0140E00E94C21A89858F5F56
:103610008987DF91CF91089560E00E94DD1A0895B7
:1036200060E00E94B01A08950F93DC01002309F0B6
:1036300047C06230A1F1633030F4662351F061304D
:1036400009F03EC009C0633081F1643009F038C030
:1036500032C056964C9334C0842F90E0880F991F47
:103660001F962D913C915097280F391FF901859194
:10367000949190969C938E935F97FC014591549101
:10368000642F91964C939197252F3327842F90E0A8
:103690002817390708F4652F92966C9311C0599634
:1036A0004C9359975A962C930BC05B964C935B970F
:1036B0005C962C9305C05D964C935D975E962C931B
:1036C0000F9108950F93CF93DF93EC01662309F0D8
:1036D00077C08981882309F473C08D89882309F014
:1036E0006FC0EA89FB89EE0FFF1F4D855E85E40FF1
:1036F000F51F259134912115310509F049C08989BB
:10370000813031F41B8A1A8AFA012591349140C024
:1037100019828881882379F0CE0160E00E94DD1A49
:103720008A899B89880F991FED85FE85E80FF91F0F
:10373000259134912DC01F8A1D8A1CA21BA2188EB0
:103740001092BF031092BE031092BC031092B400FB
:1037500037C006E0369527950A95E1F76F70422F3E
:103760004F71B5E036952795BA95E1F72051CE0116
:1037700000E00E94141B8A899B8901969B8B8A8B8F
:10378000880F991FED85FE85E80FF91F259134916B
:10379000B901769567957695679520FDDACF862FE6
:1037A0008F738C8B3D8B1DA21CA21BA281E08F8B83
:1037B0008093BC03188E8A899B8901969B8B8A8B88
:1037C000DF91CF910F91089560E00E94621B0895F0
:1037D000CF93DF93EC01662309F0E9C08F8988233A
:1037E00009F4E5C08D89882371F41F8A1D8A1CA203
:1037F0001BA2188E1092BF031092BE031092BC033E
:103800001092B400D4C081508D8B8DA1882309F013
:1038100044C08BA19CA10196880F991FEF8DF8A140
:10382000E80FF91F85919491282F27702EA3AC01E2
:1038300073E0569547957A95E1F79A013695279565
:10384000892F9927869586958FA32F738C81289F22
:10385000202D11242DA341704093C0038BA19CA166
:1038600001969CA38BA329A130E082179307A8F0AF
:103870008AA1882329F0281B31093CA32BA30DC062
:103880001F8A1D8A1CA21BA2188E1092BF031092C1
:10389000BE031092BC031092B4008DA181508DA381
:1038A000988D9F5F988F2FA18C89280F8C85280F6A
:1038B0002A836B8D662369F0892F992787FD909560
:1038C00070E00E94EC258C8D869F802D1124820F44
:1038D0008A838A8190E0CB966BE370E00E94EC25AE
:1038E0008A832E892B83698D662379F0888D7727CB
:1038F00067FD7095992787FD90950E94EC258A8D2C
:10390000869F802D1124820F8B836D8D662399F005
:10391000888D992787FD909570E00E94EC25CB015A
:1039200062E070E00E94EC259E8D899F802D11241D
:103930009B81890F8B838B818A300CF089E087FD16
:1039400080E08B838C898F3309F41B82F894EA81A1
:10395000F0E0E65FFE4EE491E093BD032D8130E0A0
:103960008B81992787FD9095A901489F9001499FD8
:10397000300D589F300D112488A590E0A901489F73
:103980009001499F300D589F300D11248EA1992729
:1039900087FD9095AC01249FC001259F900D349F19
:1039A000900D11248093BE038093BF037894DF9120
:1039B000CF91089560E00E94E81B08956091BE03D6
:1039C000662381F18091BB038F5F8093BB0390914D
:1039D000BD03891738F130E08091BC03882309F4D6
:1039E00031E03093BC031092BB038091C003882365
:1039F000A9F080910B0123E4829FC0011124895B0F
:103A000080930B0190E070E00E94D8258093BF0363
:103A100005C08091BF038093B40008953323C9F794
:103A200080E0F9CF08951F920F920FB60F921124E4
:103A30002F933F934F935F936F937F938F939F93B6
:103A4000AF93BF93EF93FF930E94DE1CFF91EF9122
:103A5000BF91AF919F918F917F916F915F914F91A6
:103A60003F912F910F900FBE0F901F90189562E01D
:103A700071E140E00E94C21A089564EF70E140E0F5
:103A80000E94C21A0895FC01862F668170E06F5F64
:103A90007F4F992787FD90950E94EC258583089597
:103AA0000F93FC0181E0848384E080A785E491E1A9
:103AB000908B8787CF0161E040E020E000E00E942A
:103AC000141B83E061E070E00E94BC1EE1EBF0E0BB
:103AD0008081887F81608083F89410928000E1E883
:103AE000F0E01082109285001092840088E191E04D
:103AF0009093890080938800808188608083808192
:103B000081608083EFE6F0E080818260808378943A
:103B10000F9108951F920F920FB60F9211242F93B9
:103B20003F938F939F93AF93BF938091C5039091E1
:103B3000C603A091C703B091C8033091C903019691
:103B4000A11DB11D232F2D5F2D3720F02D5701967C
:103B5000A11DB11D2093C9038093C5039093C60393
:103B6000A093C703B093C8038091C1039091C2038F
:103B7000A091C303B091C4030196A11DB11D809310
:103B8000C1039093C203A093C303B093C403BF9136
:103B9000AF919F918F913F912F910F900FBE0F90FA
:103BA0001F9018958FB7F8942091C5033091C603E4
:103BB0004091C7035091C8038FBFB901CA0108954E
:103BC0009FB7F8942091C1033091C2034091C30381
:103BD0005091C40386B5A89B06C08F3F21F02F5F8C
:103BE0003F4F4F4F5F4F9FBF542F432F322F2227FE
:103BF000280F311D411D511D82E0220F331F441F2C
:103C0000551F8A95D1F7B901CA0108959B01AC01EE
:103C10007FB7F8948091C1039091C203A091C30330
:103C2000B091C40366B5A89B05C06F3F19F001961B
:103C3000A11DB11D7FBFBA2FA92F982F8827860FEE
:103C4000911DA11DB11D62E0880F991FAA1FBB1F06
:103C50006A95D1F7BC012DC0FFB7F8948091C103DC
:103C60009091C203A091C303B091C403E6B5A89B91
:103C700005C0EF3F19F00196A11DB11DFFBFBA2F7E
:103C8000A92F982F88278E0F911DA11DB11DE2E04D
:103C9000880F991FAA1FBB1FEA95D1F7861B970BA8
:103CA000885E9340C8F221503040404050406851F7
:103CB0007C4F211531054105510571F60895789421
:103CC00084B5826084BD84B5816084BD85B5826021
:103CD00085BD85B5816085BDEEE6F0E080818160BF
:103CE0008083E1E8F0E010828081826080838081BF
:103CF00081608083E0E8F0E0808181608083E1EB97
:103D0000F0E0808184608083E0EBF0E0808181607E
:103D10008083EAE7F0E08081846080838081826034
:103D2000808380818160808380818068808310921D
:103D3000C1000895982F8E3008F09E5097708091A2
:103D40000C018295880F880F807C892B80937C00E2
:103D500080917A00806480937A0080917A0086FD59
:103D6000FCCF2091780040917900942F80E030E0E2
:103D7000282B392BC90108951F93CF93DF93182F58
:103D8000EB0161E00E941C1F209709F44AC0CF3F5D
:103D9000D10509F449C0E12FF0E0E956FE4E8491C7
:103DA0008330C1F0843028F4813051F08230B1F595
:103DB0000CC0863019F1873049F1843079F514C090
:103DC00084B5806884BDC7BD33C084B5806284BDBE
:103DD000C8BD2EC080918000806880938000D09301
:103DE0008900C093880024C0809180008062809305
:103DF0008000D0938B00C0938A001AC08091B000DD
:103E000080688093B000C093B30012C08091B0006E
:103E100080628093B000C093B4000AC0C038D1055E
:103E20001CF4812F60E002C0812F61E00E945B1FC3
:103E3000DF91CF911F910895CF93DF93482F50E0EA
:103E4000CA018D579E4EFC01349141595E4EFA01D4
:103E50008491882369F190E0880F991FFC01EF5A43
:103E6000FE4EA591B491FC01E55AFE4EC591D49148
:103E7000662351F42FB7F8948C91932F9095892352
:103E80008C93888189230BC0623061F42FB7F8943A
:103E90008C91932F909589238C938881832B888391
:103EA0002FBF06C09FB7F8948C91832B8C939FBF34
:103EB000DF91CF910895482F50E0CA0189569E4E58
:103EC000FC012491CA018D579E4EFC0194914159E9
:103ED0005E4EFA013491332309F440C0222351F19C
:103EE000233071F0243028F42130A1F0223011F574
:103EF00014C02630B1F02730C1F02430D9F404C00A
:103F0000809180008F7703C0809180008F7D8093A7
:103F1000800010C084B58F7702C084B58F7D84BDCA
:103F200009C08091B0008F7703C08091B0008F7D71
:103F30008093B000E32FF0E0EE0FFF1FE55AFE4E36
:103F4000A591B4912FB7F894662321F48C919095A4
:103F5000892302C08C91892B8C932FBF0895682FE1
:103F600070E0CB0189569E4EFC012491CB018D5708
:103F70009E4EFC01449161597E4EFB019491992320
:103F800019F420E030E03CC0222351F1233071F0DD
:103F9000243028F42130A1F0223011F514C026304D
:103FA000B1F02730C1F02430D9F404C080918000F2
:103FB0008F7703C0809180008F7D8093800010C038
:103FC00084B58F7702C084B58F7D84BD09C0809190
:103FD000B0008F7703C08091B0008F7D8093B000D8
:103FE000892F90E0880F991F8B599E4EFC01A59157
:103FF000B4918C9120E030E0842311F021E030E096
:10400000C901089508951F920F920FB60F921124BF
:104010002F933F934F938F939F93EF93FF938091B1
:10402000C00082FD1DC04091C60020910A0430915D
:104030000B042F5F3F4F2F73307080910C049091D1
:104040000D042817390771F0E0910A04F0910B0470
:10405000E653FC4F408330930B0420930A0402C0C4
:104060008091C600FF91EF919F918F914F913F9169
:104070002F910F900FBE0F901F901895E0915E0446
:10408000F0915F04E05CFF4F81919191208131813B
:10409000821B930B8F739070892B11F00E9402206A
:1040A00008951F920F920FB60F9211242F933F93F2
:1040B0008F939F93EF93FF9320914E0430914F0481
:1040C00080915004909151042817390731F4809160
:1040D000C1008F7D8093C10014C0E0915004F09125
:1040E0005104E25FFB4F2081809150049091510474
:1040F00001968F7390709093510480935004209395
:10410000C600FF91EF919F918F913F912F910F905A
:104110000FBE0F901F901895AF92BF92DF92EF9253
:10412000FF920F931F93CF93DF93EC017A018B01E2
:10413000DD24403081EE580780E0680780E0780792
:1041400011F0DD24D39491E0A92EB12CEC89FD89E6
:10415000DD2069F0C50108A002C0880F991F0A94EC
:10416000E2F7808360E079E08DE390E005C01082A3
:1041700060E874E88EE190E0A80197010E94FF25B5
:1041800021503040404050405695479537952795EF
:1041900080E12030380720F0DD2011F0DD24D6CF7B
:1041A000E889F9893083EA89FB89208319A2EE899D
:1041B000FF89408121E030E0C9010C8C02C0880FEA
:1041C000991F0A94E2F7482B4083EE89FF894081CA
:1041D000C9010D8C02C0880F991F0A94E2F7482B81
:1041E0004083EE89FF894081C9010E8C02C0880F8F
:1041F000991F0A94E2F7482B4083EE89FF8980815A
:104200000F8C02C0220F331F0A94E2F72095282357
:104210002083DF91CF911F910F91FF90EF90DF905E
:10422000BF90AF900895DC011C96ED91FC911D9715
:10423000E05CFF4F2191319180819181281B390BE6
:104240002F733070C9010895DC011C96ED91FC912B
:104250001D97E05CFF4F20813181E054F040DF0189
:10426000AE5BBF4F8D919C9111972817390719F4B8
:104270002FEF3FEF07C08D919C91E80FF91F8081D0
:10428000282F30E0C9010895DC011C96ED91FC91C6
:104290001D97E05CFF4F20813181E054F040DF0149
:1042A000AE5BBF4F8D919C9111972817390719F478
:1042B0002FEF3FEF10C08D919C911197E80FF91FE0
:1042C00020818D919C91119701968F73907011961A
:1042D0009C938E9330E0C9010895DC0191968C91F6
:1042E0009197882339F05496ED91FC9155978081F0
:1042F00086FFF9CF91961C920895CF93DF93EC013E
:10430000EE85FF85E05CFF4F20813181E054F04075
:104310002F5F3F4F2F733070DF01AE5BBF4F8D912A
:104320009C91119728173907D1F3E05CFF4F8081EA
:104330009181E054F040E80FF91F6083EE85FF851E
:10434000E05CFF4F31832083EE89FF89208181E08B
:1043500090E00F8C02C0880F991F0A94E2F7282B77
:10436000208381E089A3EC89FD898081806480833A
:1043700081E090E0DF91CF91089510925504109262
:10438000540488EE93E0A0E0B0E08093560490934C
:104390005704A0935804B093590489E191E0909395
:1043A0005304809352048AEC93E090935F048093CB
:1043B0005E048EE094E0909361048093600485EC49
:1043C00090E0909363048093620484EC90E0909377
:1043D00065048093640480EC90E09093670480937C
:1043E000660481EC90E0909369048093680482EC09
:1043F00090E090936B0480936A0486EC90E0909335
:104400006D0480936C0484E080936E0483E0809359
:104410006F0487E08093700485E08093710481E0ED
:10442000809372040895CF93DF930E945F1E0E94D1
:10443000760FCEE3D0E20E943C0F2097E1F30E947A
:104440003E20F9CFCF92DF92EF92FF920F931F930E
:10445000CF93DF937C016B018A01C0E0D0E00FC0F5
:10446000D6016D916D01D701ED91FC910190F08124
:10447000E02DC7010995C80FD91F01501040011543
:10448000110571F7CE01DF91CF911F910F91FF9030
:10449000EF90DF90CF900895EF92FF920F931F93CC
:1044A000CF93DF937C018B01C0E0D0E0F8010F5F78
:1044B0001F4F6491662359F0D701ED91FC91019053
:1044C000F081E02DC7010995C80FD91FEFCFCE01AC
:1044D000DF91CF911F910F91FF90EF900895DC0134
:1044E000ED91FC910190F081E02D09950895EF92F6
:1044F000FF920F931F938C01DC01ED91FC910190D1
:10450000F081E02D6DE009957C01D801ED91FC91E1
:104510000190F081E02DC8016AE009959C012E0D03
:104520003F1DC9011F910F91FF90EF900895EF92E9
:10453000FF920F931F937C010E944C228C01C701B4
:104540000E9477229C01200F311FC9011F910F91FA
:10455000FF90EF9008952F923F924F925F926F924B
:104560007F928F929F92AF92BF92CF92DF92EF9203
:10457000FF920F931F93DF93CF93CDB7DEB73B012D
:104580004C0119012A016D897E898F89988D6A19DC
:104590007B098C099D09621A730A840A950AA40191
:1045A00093010E94A025E218F30804091509A80147
:1045B00097010E9421262A0D3B1D4C1D5D1DB9014E
:1045C000CA01CF91DF911F910F91FF90EF90DF9083
:1045D000CF90BF90AF909F908F907F906F905F90A3
:1045E0004F903F902F9008955058BB27AA270ED088
:1045F000A9C169D130F06ED120F031F49F3F11F4A0
:104600001EF45EC10EF4E095E7FB54C1E92FBCD166
:1046100080F3BA17620773078407950718F071F4DF
:104620009EF5D4C10EF4E0950B2EBA2FA02D0B01F0
:10463000B90190010C01CA01A0011124FF27591BE7
:1046400099F0593F50F4503E68F11A16F040A22FED
:10465000232F342F4427585FF3CF4695379527955E
:10466000A795F0405395C9F77EF41F16BA0B620B5D
:10467000730B840BBAF09150A1F0FF0FBB1F661FA4
:10468000771F881FC2F70EC0BA0F621F731F841FE7
:1046900048F4879577956795B795F7959E3F08F00D
:1046A000B3CF9395880F08F09927EE0F97958795CC
:1046B0000895DCD008F481E0089514D1E39553C146
:1046C0000CD040C107D140F0FED030F021F45F3F64
:1046D00019F0F0C051117BC1F3C056D198F3992362
:1046E000C9F35523B1F3951B550BBB27AA276217B6
:1046F0007307840738F09F5F5F4F220F331F441FFB
:10470000AA1FA9F333D00E2E3AF0E0E830D0915032
:104710005040E695001CCAF729D0FE2F27D0660F1F
:10472000771F881FBB1F261737074807AB07B0E85E
:1047300009F0BB0B802DBF01FF2793585F4F2AF074
:104740009E3F510568F0B6C042C15F3FECF3983E12
:10475000DCF3869577956795B795F7959F5FC9F7D1
:10476000880F911D9695879597F90895E1E0660F5A
:10477000771F881FBB1F621773078407BA0720F0D3
:10478000621B730B840BBA0BEE1F88F7E09508953C
:1047900004D06894B1111BC10895FED088F09F57D2
:1047A00090F0B92F9927B751A0F0D1F0660F771F7D
:1047B000881F991F1AF0BA95C9F712C0B13081F05D
:1047C00005D1B1E0089502C1672F782F8827B85F1F
:1047D00039F0B93FCCF3869577956795B395D9F7BE
:1047E0003EF490958095709561957F4F8F4F9F4FC8
:1047F0000895E89409C097FB3EF4909580957095D4
:1048000061957F4F8F4F9F4F9923A9F0F92F96E91C
:10481000BB279395F695879577956795B795F11191
:10482000F8CFFAF4BB0F11F460FF1BC06F5F7F4F2E
:104830008F4F9F4F16C0882311F096E911C0772340
:1048400021F09EE8872F762F05C0662371F096E849
:10485000862F70E060E02AF09A95660F771F881F18
:10486000DAF7880F9695879597F90895990F0008BC
:10487000550FAA0BE0E8FEEF16161706E807F90732
:10488000C0F012161306E407F50798F0621B730BCD
:10489000840B950B39F40A2661F0232B242B252B4E
:1048A00021F408950A2609F4A140A6958FEF811DF1
:1048B000811D089597F99F6780E870E060E0089592
:1048C0009FEF80EC089500240A9416161706180628
:1048D0000906089500240A94121613061406050604
:1048E0000895EECF59D0E8F3E894EFEFBB273FE00F
:1048F00048EC5FE76B3D73078407950708F1FF27D6
:104900009F57B25A6A4D7F40894CF04032F4BE55F1
:104910006542704F8643FF4F0894EE1F915030F070
:10492000BB0F661F771F881FFF1FEBCF9EE78823F3
:1049300032F0BB0F661F771F881F9A95C1F79395BA
:10494000E095B8C0092E0394000C11F4882352F0AE
:10495000BB0F40F4BF2B11F460FF04C06F5F7F4FAB
:104960008F4F9F4F0895EF93E0FF06C0A2EA2AED14
:104970003FE049EC5FEB4ADEE5DF0F90039401FC7A
:104980009058E8E6F0E0A6C057FD9058440F551F38
:1049900059F05F3F71F04795880F97FB991F61F0C1
:1049A0009F3F79F087950895121613061406551F38
:1049B000F2CF4695F1DF08C0161617061806991FA4
:1049C000F1CF86957105610508940895E894BB2799
:1049D00066277727CB0197F9089548DF08F48FEF12
:1049E00008950BD0AFCF6FDF28F074DF18F0952358
:1049F00009F060CF65CF1124EACFC6DFA0F3959F01
:104A0000D1F3950F50E0551F629FF001729FBB27B5
:104A1000F00DB11D639FAA27F00DB11DAA1F649F61
:104A20006627B00DA11D661F829F2227B00DA11D14
:104A3000621F739FB00DA11D621F839FA00D611D9A
:104A4000221F749F3327A00D611D231F849F600DBB
:104A5000211D822F762F6A2F11249F5750408AF0F4
:104A6000E1F088234AF0EE0FFF1FBB1F661F771F80
:104A7000881F91505040A9F79E3F510570F01ACF02
:104A8000A6CF5F3FECF3983EDCF38695779567956C
:104A9000B795F795E7959F5FC1F7FE2B880F911D9E
:104AA0009695879597F908959F931CDF0F9007FCC3
:104AB000EE5F59CF9F3F49F0915028F48695779546
:104AC0006795B7959F5F80389F4F880F969587951C
:104AD00097F908959F938F937F936F93FF93EF932D
:104AE0009B01AC017EDFEF91FF9105D02F913F91AB
:104AF0004F915F9176CFDF93CF931F930F93FF92E8
:104B0000EF92DF927B018C01689405C0DA2EEF01F1
:104B100074DFFE01E894A591259135914591559159
:104B2000AEF3EF0173DDFE019701A801DA9479F786
:104B3000DF90EF90FF900F911F91CF91DF9108953B
:104B4000629FD001739FF001829FE00DF11D649F71
:104B5000E00DF11D929FF00D839FF00D749FF00DFD
:104B6000659FF00D9927729FB00DE11DF91F639F9E
:104B7000B00DE11DF91FBD01CF0111240895991B4E
:104B800079E004C0991F961708F0961B881F7A9544
:104B9000C9F78095089587FB082E062687FD819525
:104BA00067FD6195ECDF0EF4919507FC8195089502
:104BB000AA1BBB1B51E107C0AA1FBB1FA617B70743
:104BC00010F0A61BB70B881F991F5A95A9F780955F
:104BD0009095BC01CD01089597FB092E07260AD0B8
:104BE00077FD04D0E5DF06D000201AF470956195BA
:104BF0007F4F0895F6F7909581959F4F0895A1E214
:104C00001A2EAA1BBB1BFD010DC0AA1FBB1FEE1F46
:104C1000FF1FA217B307E407F50720F0A21BB30B91
:104C2000E40BF50B661F771F881F991F1A9469F70D
:104C300060957095809590959B01AC01BD01CF0169
:104C4000089597FB092E05260ED057FD04D0D7DF17
:104C50000AD0001C38F450954095309521953F4F6F
:104C60004F4F5F4F0895F6F7909580957095619539
:104C70007F4F8F4F9F4F0895EE0FFF1F0590F491C8
:084C8000E02D0994F894FFCF28
:104C88004C4F4144455200000048430101000000D8
:104C980000E7142222000000007D21222213214473
:064CA8002124216D210012
:00000001FF
